{
  "_format": "hh-sol-artifact-1",
  "contractName": "GOOtoken",
  "sourceName": "contracts/GOOtoken.sol",
  "abi": [
    {
      "inputs": [],
      "stateMutability": "nonpayable",
      "type": "constructor"
    },
    {
      "anonymous": false,
      "inputs": [
        {
          "indexed": false,
          "internalType": "uint256",
          "name": "end",
          "type": "uint256"
        },
        {
          "indexed": false,
          "internalType": "uint256",
          "name": "tokensLeft",
          "type": "uint256"
        }
      ],
      "name": "AirdropEnded",
      "type": "event"
    },
    {
      "anonymous": false,
      "inputs": [
        {
          "indexed": false,
          "internalType": "uint256",
          "name": "start",
          "type": "uint256"
        },
        {
          "indexed": false,
          "internalType": "uint256",
          "name": "end",
          "type": "uint256"
        },
        {
          "indexed": false,
          "internalType": "uint256",
          "name": "tokens",
          "type": "uint256"
        }
      ],
      "name": "AirdropStart",
      "type": "event"
    },
    {
      "anonymous": false,
      "inputs": [
        {
          "indexed": true,
          "internalType": "address",
          "name": "owner",
          "type": "address"
        },
        {
          "indexed": true,
          "internalType": "address",
          "name": "spender",
          "type": "address"
        },
        {
          "indexed": false,
          "internalType": "uint256",
          "name": "value",
          "type": "uint256"
        }
      ],
      "name": "Approval",
      "type": "event"
    },
    {
      "anonymous": false,
      "inputs": [
        {
          "indexed": false,
          "internalType": "uint256",
          "name": "end",
          "type": "uint256"
        },
        {
          "indexed": false,
          "internalType": "uint256",
          "name": "tokensLeft",
          "type": "uint256"
        }
      ],
      "name": "PresaleEnded",
      "type": "event"
    },
    {
      "anonymous": false,
      "inputs": [
        {
          "indexed": false,
          "internalType": "uint256",
          "name": "start",
          "type": "uint256"
        },
        {
          "indexed": false,
          "internalType": "uint256",
          "name": "end",
          "type": "uint256"
        },
        {
          "indexed": false,
          "internalType": "uint256",
          "name": "tokens",
          "type": "uint256"
        }
      ],
      "name": "PresaleStart",
      "type": "event"
    },
    {
      "anonymous": false,
      "inputs": [
        {
          "indexed": true,
          "internalType": "address",
          "name": "from",
          "type": "address"
        },
        {
          "indexed": true,
          "internalType": "address",
          "name": "to",
          "type": "address"
        },
        {
          "indexed": false,
          "internalType": "uint256",
          "name": "value",
          "type": "uint256"
        }
      ],
      "name": "Transfer",
      "type": "event"
    },
    {
      "inputs": [],
      "name": "airdropPool",
      "outputs": [
        {
          "internalType": "uint256",
          "name": "",
          "type": "uint256"
        }
      ],
      "stateMutability": "view",
      "type": "function"
    },
    {
      "inputs": [
        {
          "internalType": "address",
          "name": "owner",
          "type": "address"
        },
        {
          "internalType": "address",
          "name": "spender",
          "type": "address"
        }
      ],
      "name": "allowance",
      "outputs": [
        {
          "internalType": "uint256",
          "name": "",
          "type": "uint256"
        }
      ],
      "stateMutability": "view",
      "type": "function"
    },
    {
      "inputs": [],
      "name": "amount",
      "outputs": [
        {
          "internalType": "uint256",
          "name": "",
          "type": "uint256"
        }
      ],
      "stateMutability": "view",
      "type": "function"
    },
    {
      "inputs": [
        {
          "internalType": "address",
          "name": "spender",
          "type": "address"
        },
        {
          "internalType": "uint256",
          "name": "amount",
          "type": "uint256"
        }
      ],
      "name": "approve",
      "outputs": [
        {
          "internalType": "bool",
          "name": "",
          "type": "bool"
        }
      ],
      "stateMutability": "nonpayable",
      "type": "function"
    },
    {
      "inputs": [
        {
          "internalType": "address",
          "name": "account",
          "type": "address"
        }
      ],
      "name": "balanceOf",
      "outputs": [
        {
          "internalType": "uint256",
          "name": "",
          "type": "uint256"
        }
      ],
      "stateMutability": "view",
      "type": "function"
    },
    {
      "inputs": [
        {
          "internalType": "address",
          "name": "_user",
          "type": "address"
        },
        {
          "internalType": "bool",
          "name": "_banned",
          "type": "bool"
        }
      ],
      "name": "blacklist",
      "outputs": [],
      "stateMutability": "nonpayable",
      "type": "function"
    },
    {
      "inputs": [
        {
          "internalType": "address",
          "name": "",
          "type": "address"
        }
      ],
      "name": "blacklisted",
      "outputs": [
        {
          "internalType": "bool",
          "name": "",
          "type": "bool"
        }
      ],
      "stateMutability": "view",
      "type": "function"
    },
    {
      "inputs": [
        {
          "internalType": "address",
          "name": "",
          "type": "address"
        }
      ],
      "name": "bought",
      "outputs": [
        {
          "internalType": "uint256",
          "name": "",
          "type": "uint256"
        }
      ],
      "stateMutability": "view",
      "type": "function"
    },
    {
      "inputs": [
        {
          "internalType": "bytes",
          "name": "_sign",
          "type": "bytes"
        }
      ],
      "name": "burnAll",
      "outputs": [],
      "stateMutability": "nonpayable",
      "type": "function"
    },
    {
      "inputs": [
        {
          "internalType": "address",
          "name": "referral",
          "type": "address"
        }
      ],
      "name": "claim",
      "outputs": [
        {
          "internalType": "bool",
          "name": "success",
          "type": "bool"
        }
      ],
      "stateMutability": "nonpayable",
      "type": "function"
    },
    {
      "inputs": [],
      "name": "decimals",
      "outputs": [
        {
          "internalType": "uint8",
          "name": "",
          "type": "uint8"
        }
      ],
      "stateMutability": "view",
      "type": "function"
    },
    {
      "inputs": [
        {
          "internalType": "address",
          "name": "spender",
          "type": "address"
        },
        {
          "internalType": "uint256",
          "name": "subtractedValue",
          "type": "uint256"
        }
      ],
      "name": "decreaseAllowance",
      "outputs": [
        {
          "internalType": "bool",
          "name": "",
          "type": "bool"
        }
      ],
      "stateMutability": "nonpayable",
      "type": "function"
    },
    {
      "inputs": [],
      "name": "endTime",
      "outputs": [
        {
          "internalType": "uint256",
          "name": "",
          "type": "uint256"
        }
      ],
      "stateMutability": "view",
      "type": "function"
    },
    {
      "inputs": [
        {
          "internalType": "address",
          "name": "spender",
          "type": "address"
        },
        {
          "internalType": "uint256",
          "name": "addedValue",
          "type": "uint256"
        }
      ],
      "name": "increaseAllowance",
      "outputs": [
        {
          "internalType": "bool",
          "name": "",
          "type": "bool"
        }
      ],
      "stateMutability": "nonpayable",
      "type": "function"
    },
    {
      "inputs": [],
      "name": "name",
      "outputs": [
        {
          "internalType": "string",
          "name": "",
          "type": "string"
        }
      ],
      "stateMutability": "view",
      "type": "function"
    },
    {
      "inputs": [],
      "name": "presalePool",
      "outputs": [
        {
          "internalType": "uint256",
          "name": "",
          "type": "uint256"
        }
      ],
      "stateMutability": "view",
      "type": "function"
    },
    {
      "inputs": [
        {
          "internalType": "bytes",
          "name": "_sign",
          "type": "bytes"
        }
      ],
      "name": "recoverSigner",
      "outputs": [
        {
          "internalType": "address",
          "name": "",
          "type": "address"
        }
      ],
      "stateMutability": "pure",
      "type": "function"
    },
    {
      "inputs": [],
      "name": "startTime",
      "outputs": [
        {
          "internalType": "uint256",
          "name": "",
          "type": "uint256"
        }
      ],
      "stateMutability": "view",
      "type": "function"
    },
    {
      "inputs": [],
      "name": "symbol",
      "outputs": [
        {
          "internalType": "string",
          "name": "",
          "type": "string"
        }
      ],
      "stateMutability": "view",
      "type": "function"
    },
    {
      "inputs": [],
      "name": "tokenPrice",
      "outputs": [
        {
          "internalType": "uint256",
          "name": "",
          "type": "uint256"
        }
      ],
      "stateMutability": "view",
      "type": "function"
    },
    {
      "inputs": [
        {
          "internalType": "address",
          "name": "referral",
          "type": "address"
        }
      ],
      "name": "tokenSale",
      "outputs": [
        {
          "internalType": "uint256",
          "name": "",
          "type": "uint256"
        }
      ],
      "stateMutability": "payable",
      "type": "function"
    },
    {
      "inputs": [],
      "name": "totalSupply",
      "outputs": [
        {
          "internalType": "uint256",
          "name": "",
          "type": "uint256"
        }
      ],
      "stateMutability": "view",
      "type": "function"
    },
    {
      "inputs": [
        {
          "internalType": "address",
          "name": "to",
          "type": "address"
        },
        {
          "internalType": "uint256",
          "name": "amount",
          "type": "uint256"
        }
      ],
      "name": "transfer",
      "outputs": [
        {
          "internalType": "bool",
          "name": "",
          "type": "bool"
        }
      ],
      "stateMutability": "nonpayable",
      "type": "function"
    },
    {
      "inputs": [
        {
          "internalType": "address",
          "name": "from",
          "type": "address"
        },
        {
          "internalType": "address",
          "name": "to",
          "type": "address"
        },
        {
          "internalType": "uint256",
          "name": "amount",
          "type": "uint256"
        }
      ],
      "name": "transferFrom",
      "outputs": [
        {
          "internalType": "bool",
          "name": "",
          "type": "bool"
        }
      ],
      "stateMutability": "nonpayable",
      "type": "function"
    },
    {
      "inputs": [],
      "name": "viewAirdrop",
      "outputs": [
        {
          "internalType": "uint256",
          "name": "",
          "type": "uint256"
        },
        {
          "internalType": "uint256",
          "name": "",
          "type": "uint256"
        },
        {
          "internalType": "uint256",
          "name": "",
          "type": "uint256"
        }
      ],
      "stateMutability": "view",
      "type": "function"
    },
    {
      "inputs": [],
      "name": "viewSale",
      "outputs": [
        {
          "internalType": "uint256",
          "name": "",
          "type": "uint256"
        },
        {
          "internalType": "uint256",
          "name": "",
          "type": "uint256"
        },
        {
          "internalType": "uint256",
          "name": "",
          "type": "uint256"
        }
      ],
      "stateMutability": "view",
      "type": "function"
    },
    {
      "inputs": [],
      "name": "withdrawAll",
      "outputs": [],
      "stateMutability": "nonpayable",
      "type": "function"
    }
  ],
  "bytecode": "0x6080604052620186a0600755631dcd65006008556413fb2a5490600955640d521c3860600a553480156200003257600080fd5b5060405180604001604052806003815260200162474f4f60e81b81525060405180604001604052806002815260200161474f60f01b81525081600390816200007b9190620002cb565b5060046200008a8282620002cb565b5050600b80546001600160a01b0319163317905550620000b03064214d468cf06200015c565b426005819055620000c5906201518062000397565b60068190556005546009546040805192835260208301939093528183015290517f406b456ff3f22ed8c574547a645dd085d2a645955dd676e0d136d5677d61bd709181900360600190a1600554600654600a5460408051938452602084019290925282820152517f2652f6f8f660f8f79a623da8e0a1fae21d1acbe89464c6471fcb75ab2246b6399181900360600190a1620003bf565b6001600160a01b038216620001b75760405162461bcd60e51b815260206004820152601f60248201527f45524332303a206d696e7420746f20746865207a65726f206164647265737300604482015260640160405180910390fd5b8060026000828254620001cb919062000397565b90915550506001600160a01b038216600081815260208181526040808320805486019055518481527fddf252ad1be2c89b69c2b068fc378daa952ba7f163c4a11628f55a4df523b3ef910160405180910390a35050565b505050565b634e487b7160e01b600052604160045260246000fd5b600181811c908216806200025257607f821691505b6020821081036200027357634e487b7160e01b600052602260045260246000fd5b50919050565b601f8211156200022257600081815260208120601f850160051c81016020861015620002a25750805b601f850160051c820191505b81811015620002c357828155600101620002ae565b505050505050565b81516001600160401b03811115620002e757620002e762000227565b620002ff81620002f884546200023d565b8462000279565b602080601f8311600181146200033757600084156200031e5750858301515b600019600386901b1c1916600185901b178555620002c3565b600085815260208120601f198616915b82811015620003685788860151825594840194600190910190840162000347565b5085821015620003875787850151600019600388901b60f8161c191681555b5050505050600190811b01905550565b80820180821115620003b957634e487b7160e01b600052601160045260246000fd5b92915050565b61161680620003cf6000396000f3fe60806040526004361061019c5760003560e01c80636643ef9f116100ec57806395d89b411161008a578063aa8c217c11610064578063aa8c217c14610495578063d69b197f146104ab578063dbac26e9146104c6578063dd62ed3e146104f657600080fd5b806395d89b4114610440578063a457c2d714610455578063a9059cbb1461047557600080fd5b806378e97925116100c657806378e97925146103df5780637ff9b596146103f5578063853828b61461040b57806391d391551461042057600080fd5b80636643ef9f14610369578063667022fd1461037c57806370a08231146103a957600080fd5b80632d77f07c11610159578063395093511161013357806339509351146102df5780633cebff9c146102ff578063404e5129146103155780634d1d03d11461033757600080fd5b80632d77f07c14610275578063313ce567146102ad5780633197cbb6146102c957600080fd5b806306fdde03146101a15780630723fa42146101cc578063095ea7b3146101f057806318160ddd146102205780631e83409a1461023557806323b872dd14610255575b600080fd5b3480156101ad57600080fd5b506101b6610516565b6040516101c391906112ca565b60405180910390f35b3480156101d857600080fd5b506101e2600a5481565b6040519081526020016101c3565b3480156101fc57600080fd5b5061021061020b366004611334565b6105a8565b60405190151581526020016101c3565b34801561022c57600080fd5b506002546101e2565b34801561024157600080fd5b5061021061025036600461135e565b6105c2565b34801561026157600080fd5b50610210610270366004611380565b61074d565b34801561028157600080fd5b506102956102903660046113d2565b610771565b6040516001600160a01b0390911681526020016101c3565b3480156102b957600080fd5b50604051601281526020016101c3565b3480156102d557600080fd5b506101e260065481565b3480156102eb57600080fd5b506102106102fa366004611334565b61088b565b34801561030b57600080fd5b506101e260095481565b34801561032157600080fd5b50610335610330366004611483565b6108ad565b005b34801561034357600080fd5b50600554600654600a545b604080519384526020840192909252908201526060016101c3565b6101e261037736600461135e565b61091e565b34801561038857600080fd5b506101e261039736600461135e565b600d6020526000908152604090205481565b3480156103b557600080fd5b506101e26103c436600461135e565b6001600160a01b031660009081526020819052604090205490565b3480156103eb57600080fd5b506101e260055481565b34801561040157600080fd5b506101e260085481565b34801561041757600080fd5b50610335610b62565b34801561042c57600080fd5b5061033561043b3660046113d2565b610c04565b34801561044c57600080fd5b506101b6610cf4565b34801561046157600080fd5b50610210610470366004611334565b610d03565b34801561048157600080fd5b50610210610490366004611334565b610d7e565b3480156104a157600080fd5b506101e260075481565b3480156104b757600080fd5b5060055460065460095461034e565b3480156104d257600080fd5b506102106104e136600461135e565b600e6020526000908152604090205460ff1681565b34801561050257600080fd5b506101e26105113660046114bf565b610e37565b606060038054610525906114f2565b80601f0160208091040260200160405190810160405280929190818152602001828054610551906114f2565b801561059e5780601f106105735761010080835404028352916020019161059e565b820191906000526020600020905b81548152906001019060200180831161058157829003601f168201915b5050505050905090565b6000336105b6818585610e62565b60019150505b92915050565b600060075460095410156106085760405162461bcd60e51b81526020600482015260086024820152674e4f544f4b454e5360c01b60448201526064015b60405180910390fd5b426005541115801561061c57506006544211155b6106555760405162461bcd60e51b815260206004820152600a6024820152692a24a6a2a4a9a7ab22a960b11b60448201526064016105ff565b336000908152600c602052604090205460ff16156106a15760405162461bcd60e51b8152602060048201526009602482015268434c41494d4f4e434560b81b60448201526064016105ff565b336001600160a01b038316148015906106d157506001600160a01b03821660009081526020819052604090205415155b80156106e557506001600160a01b03821615155b1561070b576106f73083600754610f87565b6007546009546107079190611542565b6009555b6107183033600754610f87565b6007546009546107289190611542565b6009555050336000908152600c60205260409020805460ff1916600190811790915590565b60003361075b85828561112c565b610766858585610f87565b506001949350505050565b6040805180820182526007815266189d5c9b905b1b60ca1b60209182015290517f19457468657265756d205369676e6564204d6573736167653a0a333200000000918101919091527f85283ffcb78132c9ec97978fb881cba63f7960fb966d25c4d070a822d1ad2c22603c82018190526000918290605c0160405160208183030381529060405280519060200120905060008060008680602001905181019061081a9190611555565b60408051600081526020810180835289905260ff8316918101919091526060810184905260808101839052929550909350915060019060a0016020604051602081039080840390855afa158015610875573d6000803e3d6000fd5b5050604051601f19015198975050505050505050565b6000336105b681858561089e8383610e37565b6108a89190611594565b610e62565b600b546001600160a01b031633146108f35760405162461bcd60e51b815260206004820152600960248201526827a7262ca7aba722a960b91b60448201526064016105ff565b6001600160a01b03919091166000908152600e60205260409020805460ff1916911515919091179055565b336000908152600d6020526040812054670de0b6b3a764000010156109705760405162461bcd60e51b8152602060048201526008602482015267135056131253525560c21b60448201526064016105ff565b6611c37937e080003410156109b25760405162461bcd60e51b81526020600482015260086024820152674d494e505249434560c01b60448201526064016105ff565b42600554111580156109c657506006544211155b6109ff5760405162461bcd60e51b815260206004820152600a6024820152692a24a6a2a4a9a7ab22a960b11b60448201526064016105ff565b336000908152600d6020526040902054670de0b6b3a764000090610a24903490611594565b1115610a5f5760405162461bcd60e51b815260206004820152600a60248201526915541411549093d5539160b21b60448201526064016105ff565b60085434906000908190610a7390846115a7565b9150606460085484610a8591906115a7565b610a8f91906115a7565b610a9a9060066115c9565b9050610aa68183611594565b600a541015610ab457600080fd5b336001600160a01b03861614801590610ae457506001600160a01b03851660009081526020819052604090205415155b8015610af857506001600160a01b03851615155b15610b195780600a54610b0b9190611542565b600a55610b19308683610f87565b81600a54610b279190611542565b600a55610b35303384610f87565b336000908152600d602052604081208054349290610b54908490611594565b909155509195945050505050565b600b546001600160a01b03163314610ba85760405162461bcd60e51b815260206004820152600960248201526827a7262ca7aba722a960b91b60448201526064016105ff565b426006541115610bb757600080fd5b604051600090339047908381818185875af1925050503d8060008114610bf9576040519150601f19603f3d011682016040523d82523d6000602084013e610bfe565b606091505b50505050565b6000610c0f82610771565b600b549091506001600160a01b03808316911614610c5a5760405162461bcd60e51b8152602060048201526008602482015267494e56414c53494760c01b60448201526064016105ff565b3060008181526020819052604090205490610c7590826111a0565b6009546040805142815260208101929092527fb1fe961f963661a542fa1ff991c895fc463bbbfc4a441759a11f8d0e94e3151f910160405180910390a1600a546040805142815260208101929092527fb4e6cb40663c1ac63bcd620dbe3d98c44526baa45e310f545f425ebaab36a293910160405180910390a1505050565b606060048054610525906114f2565b60003381610d118286610e37565b905083811015610d715760405162461bcd60e51b815260206004820152602560248201527f45524332303a2064656372656173656420616c6c6f77616e63652062656c6f77604482015264207a65726f60d81b60648201526084016105ff565b6107668286868403610e62565b600b5460009083906001600160a01b03163314610de3576001600160a01b0381163b15610de35760405162461bcd60e51b815260206004820152601360248201527213d3931653d5d3915490d4915055115413d3d3606a1b60448201526064016105ff565b336000908152600e602052604090205460ff1615610e2c5760405162461bcd60e51b81526004016105ff906020808252600490820152631550509360e21b604082015260600190565b6105b6338585610f87565b6001600160a01b03918216600090815260016020908152604080832093909416825291909152205490565b6001600160a01b038316610ec45760405162461bcd60e51b8152602060048201526024808201527f45524332303a20617070726f76652066726f6d20746865207a65726f206164646044820152637265737360e01b60648201526084016105ff565b6001600160a01b038216610f255760405162461bcd60e51b815260206004820152602260248201527f45524332303a20617070726f766520746f20746865207a65726f206164647265604482015261737360f01b60648201526084016105ff565b6001600160a01b0383811660008181526001602090815260408083209487168084529482529182902085905590518481527f8c5be1e5ebec7d5bd14f71427d1e84f3dd0314c0f7b2291e5b200ac8c7c3b92591015b60405180910390a3505050565b6001600160a01b038316610feb5760405162461bcd60e51b815260206004820152602560248201527f45524332303a207472616e736665722066726f6d20746865207a65726f206164604482015264647265737360d81b60648201526084016105ff565b6001600160a01b03821661104d5760405162461bcd60e51b815260206004820152602360248201527f45524332303a207472616e7366657220746f20746865207a65726f206164647260448201526265737360e81b60648201526084016105ff565b6001600160a01b038316600090815260208190526040902054818110156110c55760405162461bcd60e51b815260206004820152602660248201527f45524332303a207472616e7366657220616d6f756e7420657863656564732062604482015265616c616e636560d01b60648201526084016105ff565b6001600160a01b03848116600081815260208181526040808320878703905593871680835291849020805487019055925185815290927fddf252ad1be2c89b69c2b068fc378daa952ba7f163c4a11628f55a4df523b3ef910160405180910390a350505050565b60006111388484610e37565b90506000198114610bfe57818110156111935760405162461bcd60e51b815260206004820152601d60248201527f45524332303a20696e73756666696369656e7420616c6c6f77616e636500000060448201526064016105ff565b610bfe8484848403610e62565b6001600160a01b0382166112005760405162461bcd60e51b815260206004820152602160248201527f45524332303a206275726e2066726f6d20746865207a65726f206164647265736044820152607360f81b60648201526084016105ff565b6001600160a01b038216600090815260208190526040902054818110156112745760405162461bcd60e51b815260206004820152602260248201527f45524332303a206275726e20616d6f756e7420657863656564732062616c616e604482015261636560f01b60648201526084016105ff565b6001600160a01b0383166000818152602081815260408083208686039055600280548790039055518581529192917fddf252ad1be2c89b69c2b068fc378daa952ba7f163c4a11628f55a4df523b3ef9101610f7a565b600060208083528351808285015260005b818110156112f7578581018301518582016040015282016112db565b506000604082860101526040601f19601f8301168501019250505092915050565b80356001600160a01b038116811461132f57600080fd5b919050565b6000806040838503121561134757600080fd5b61135083611318565b946020939093013593505050565b60006020828403121561137057600080fd5b61137982611318565b9392505050565b60008060006060848603121561139557600080fd5b61139e84611318565b92506113ac60208501611318565b9150604084013590509250925092565b634e487b7160e01b600052604160045260246000fd5b6000602082840312156113e457600080fd5b813567ffffffffffffffff808211156113fc57600080fd5b818401915084601f83011261141057600080fd5b813581811115611422576114226113bc565b604051601f8201601f19908116603f0116810190838211818310171561144a5761144a6113bc565b8160405282815287602084870101111561146357600080fd5b826020860160208301376000928101602001929092525095945050505050565b6000806040838503121561149657600080fd5b61149f83611318565b9150602083013580151581146114b457600080fd5b809150509250929050565b600080604083850312156114d257600080fd5b6114db83611318565b91506114e960208401611318565b90509250929050565b600181811c9082168061150657607f821691505b60208210810361152657634e487b7160e01b600052602260045260246000fd5b50919050565b634e487b7160e01b600052601160045260246000fd5b818103818111156105bc576105bc61152c565b60008060006060848603121561156a57600080fd5b8351925060208401519150604084015160ff8116811461158957600080fd5b809150509250925092565b808201808211156105bc576105bc61152c565b6000826115c457634e487b7160e01b600052601260045260246000fd5b500490565b80820281158282048414176105bc576105bc61152c56fea2646970667358221220a6bcce7a9ef35b32a3ceeddf1915364fc177b9449aa7f66ccfd9d860203068dc64736f6c63430008120033",
  "linkReferences": {},
  "deployedLinkReferences": {}
}