{
	"hehe.sol": {
		"GTEsttoken": {
			"abi": [
				{
					"inputs": [],
					"stateMutability": "nonpayable",
					"type": "constructor"
				},
				{
					"anonymous": false,
					"inputs": [
						{
							"indexed": false,
							"internalType": "uint256",
							"name": "end",
							"type": "uint256"
						},
						{
							"indexed": false,
							"internalType": "uint256",
							"name": "tokensLeft",
							"type": "uint256"
						}
					],
					"name": "AirdropEnded",
					"type": "event"
				},
				{
					"anonymous": false,
					"inputs": [
						{
							"indexed": false,
							"internalType": "uint256",
							"name": "start",
							"type": "uint256"
						},
						{
							"indexed": false,
							"internalType": "uint256",
							"name": "end",
							"type": "uint256"
						},
						{
							"indexed": false,
							"internalType": "uint256",
							"name": "tokens",
							"type": "uint256"
						}
					],
					"name": "AirdropStart",
					"type": "event"
				},
				{
					"anonymous": false,
					"inputs": [
						{
							"indexed": true,
							"internalType": "address",
							"name": "owner",
							"type": "address"
						},
						{
							"indexed": true,
							"internalType": "address",
							"name": "spender",
							"type": "address"
						},
						{
							"indexed": false,
							"internalType": "uint256",
							"name": "value",
							"type": "uint256"
						}
					],
					"name": "Approval",
					"type": "event"
				},
				{
					"anonymous": false,
					"inputs": [
						{
							"indexed": false,
							"internalType": "uint256",
							"name": "end",
							"type": "uint256"
						},
						{
							"indexed": false,
							"internalType": "uint256",
							"name": "tokensLeft",
							"type": "uint256"
						}
					],
					"name": "PresaleEnded",
					"type": "event"
				},
				{
					"anonymous": false,
					"inputs": [
						{
							"indexed": false,
							"internalType": "uint256",
							"name": "start",
							"type": "uint256"
						},
						{
							"indexed": false,
							"internalType": "uint256",
							"name": "end",
							"type": "uint256"
						},
						{
							"indexed": false,
							"internalType": "uint256",
							"name": "tokens",
							"type": "uint256"
						}
					],
					"name": "PresaleStart",
					"type": "event"
				},
				{
					"anonymous": false,
					"inputs": [
						{
							"indexed": true,
							"internalType": "address",
							"name": "from",
							"type": "address"
						},
						{
							"indexed": true,
							"internalType": "address",
							"name": "to",
							"type": "address"
						},
						{
							"indexed": false,
							"internalType": "uint256",
							"name": "value",
							"type": "uint256"
						}
					],
					"name": "Transfer",
					"type": "event"
				},
				{
					"inputs": [],
					"name": "airdropPool",
					"outputs": [
						{
							"internalType": "uint256",
							"name": "",
							"type": "uint256"
						}
					],
					"stateMutability": "view",
					"type": "function"
				},
				{
					"inputs": [
						{
							"internalType": "address",
							"name": "owner",
							"type": "address"
						},
						{
							"internalType": "address",
							"name": "spender",
							"type": "address"
						}
					],
					"name": "allowance",
					"outputs": [
						{
							"internalType": "uint256",
							"name": "",
							"type": "uint256"
						}
					],
					"stateMutability": "view",
					"type": "function"
				},
				{
					"inputs": [],
					"name": "amount",
					"outputs": [
						{
							"internalType": "uint256",
							"name": "",
							"type": "uint256"
						}
					],
					"stateMutability": "view",
					"type": "function"
				},
				{
					"inputs": [
						{
							"internalType": "address",
							"name": "spender",
							"type": "address"
						},
						{
							"internalType": "uint256",
							"name": "amount",
							"type": "uint256"
						}
					],
					"name": "approve",
					"outputs": [
						{
							"internalType": "bool",
							"name": "",
							"type": "bool"
						}
					],
					"stateMutability": "nonpayable",
					"type": "function"
				},
				{
					"inputs": [
						{
							"internalType": "address",
							"name": "account",
							"type": "address"
						}
					],
					"name": "balanceOf",
					"outputs": [
						{
							"internalType": "uint256",
							"name": "",
							"type": "uint256"
						}
					],
					"stateMutability": "view",
					"type": "function"
				},
				{
					"inputs": [
						{
							"internalType": "address",
							"name": "_user",
							"type": "address"
						},
						{
							"internalType": "bool",
							"name": "_banned",
							"type": "bool"
						}
					],
					"name": "blacklist",
					"outputs": [],
					"stateMutability": "nonpayable",
					"type": "function"
				},
				{
					"inputs": [
						{
							"internalType": "address",
							"name": "",
							"type": "address"
						}
					],
					"name": "blacklisted",
					"outputs": [
						{
							"internalType": "bool",
							"name": "",
							"type": "bool"
						}
					],
					"stateMutability": "view",
					"type": "function"
				},
				{
					"inputs": [
						{
							"internalType": "address",
							"name": "",
							"type": "address"
						}
					],
					"name": "bought",
					"outputs": [
						{
							"internalType": "uint256",
							"name": "",
							"type": "uint256"
						}
					],
					"stateMutability": "view",
					"type": "function"
				},
				{
					"inputs": [
						{
							"internalType": "bytes",
							"name": "_sign",
							"type": "bytes"
						}
					],
					"name": "burnAll",
					"outputs": [],
					"stateMutability": "nonpayable",
					"type": "function"
				},
				{
					"inputs": [
						{
							"internalType": "address",
							"name": "referral",
							"type": "address"
						}
					],
					"name": "claim",
					"outputs": [
						{
							"internalType": "bool",
							"name": "success",
							"type": "bool"
						}
					],
					"stateMutability": "nonpayable",
					"type": "function"
				},
				{
					"inputs": [],
					"name": "decimals",
					"outputs": [
						{
							"internalType": "uint8",
							"name": "",
							"type": "uint8"
						}
					],
					"stateMutability": "view",
					"type": "function"
				},
				{
					"inputs": [
						{
							"internalType": "address",
							"name": "spender",
							"type": "address"
						},
						{
							"internalType": "uint256",
							"name": "subtractedValue",
							"type": "uint256"
						}
					],
					"name": "decreaseAllowance",
					"outputs": [
						{
							"internalType": "bool",
							"name": "",
							"type": "bool"
						}
					],
					"stateMutability": "nonpayable",
					"type": "function"
				},
				{
					"inputs": [],
					"name": "endTime",
					"outputs": [
						{
							"internalType": "uint256",
							"name": "",
							"type": "uint256"
						}
					],
					"stateMutability": "view",
					"type": "function"
				},
				{
					"inputs": [
						{
							"internalType": "address",
							"name": "spender",
							"type": "address"
						},
						{
							"internalType": "uint256",
							"name": "addedValue",
							"type": "uint256"
						}
					],
					"name": "increaseAllowance",
					"outputs": [
						{
							"internalType": "bool",
							"name": "",
							"type": "bool"
						}
					],
					"stateMutability": "nonpayable",
					"type": "function"
				},
				{
					"inputs": [
						{
							"internalType": "uint256",
							"name": "amount",
							"type": "uint256"
						}
					],
					"name": "mint",
					"outputs": [],
					"stateMutability": "nonpayable",
					"type": "function"
				},
				{
					"inputs": [],
					"name": "name",
					"outputs": [
						{
							"internalType": "string",
							"name": "",
							"type": "string"
						}
					],
					"stateMutability": "view",
					"type": "function"
				},
				{
					"inputs": [],
					"name": "presalePool",
					"outputs": [
						{
							"internalType": "uint256",
							"name": "",
							"type": "uint256"
						}
					],
					"stateMutability": "view",
					"type": "function"
				},
				{
					"inputs": [
						{
							"internalType": "bytes",
							"name": "_sign",
							"type": "bytes"
						}
					],
					"name": "recoverSigner",
					"outputs": [
						{
							"internalType": "address",
							"name": "",
							"type": "address"
						}
					],
					"stateMutability": "pure",
					"type": "function"
				},
				{
					"inputs": [],
					"name": "startTime",
					"outputs": [
						{
							"internalType": "uint256",
							"name": "",
							"type": "uint256"
						}
					],
					"stateMutability": "view",
					"type": "function"
				},
				{
					"inputs": [],
					"name": "symbol",
					"outputs": [
						{
							"internalType": "string",
							"name": "",
							"type": "string"
						}
					],
					"stateMutability": "view",
					"type": "function"
				},
				{
					"inputs": [],
					"name": "tokenPrice",
					"outputs": [
						{
							"internalType": "uint256",
							"name": "",
							"type": "uint256"
						}
					],
					"stateMutability": "view",
					"type": "function"
				},
				{
					"inputs": [
						{
							"internalType": "address",
							"name": "referral",
							"type": "address"
						}
					],
					"name": "tokenSale",
					"outputs": [
						{
							"internalType": "uint256",
							"name": "",
							"type": "uint256"
						}
					],
					"stateMutability": "payable",
					"type": "function"
				},
				{
					"inputs": [],
					"name": "totalSupply",
					"outputs": [
						{
							"internalType": "uint256",
							"name": "",
							"type": "uint256"
						}
					],
					"stateMutability": "view",
					"type": "function"
				},
				{
					"inputs": [
						{
							"internalType": "address",
							"name": "to",
							"type": "address"
						},
						{
							"internalType": "uint256",
							"name": "amount",
							"type": "uint256"
						}
					],
					"name": "transfer",
					"outputs": [
						{
							"internalType": "bool",
							"name": "",
							"type": "bool"
						}
					],
					"stateMutability": "nonpayable",
					"type": "function"
				},
				{
					"inputs": [
						{
							"internalType": "address",
							"name": "from",
							"type": "address"
						},
						{
							"internalType": "address",
							"name": "to",
							"type": "address"
						},
						{
							"internalType": "uint256",
							"name": "amount",
							"type": "uint256"
						}
					],
					"name": "transferFrom",
					"outputs": [
						{
							"internalType": "bool",
							"name": "",
							"type": "bool"
						}
					],
					"stateMutability": "nonpayable",
					"type": "function"
				},
				{
					"inputs": [],
					"name": "viewAirdrop",
					"outputs": [
						{
							"internalType": "uint256",
							"name": "",
							"type": "uint256"
						},
						{
							"internalType": "uint256",
							"name": "",
							"type": "uint256"
						},
						{
							"internalType": "uint256",
							"name": "",
							"type": "uint256"
						}
					],
					"stateMutability": "view",
					"type": "function"
				},
				{
					"inputs": [],
					"name": "viewSale",
					"outputs": [
						{
							"internalType": "uint256",
							"name": "",
							"type": "uint256"
						},
						{
							"internalType": "uint256",
							"name": "",
							"type": "uint256"
						},
						{
							"internalType": "uint256",
							"name": "",
							"type": "uint256"
						}
					],
					"stateMutability": "view",
					"type": "function"
				},
				{
					"inputs": [],
					"name": "withdrawAll",
					"outputs": [],
					"stateMutability": "nonpayable",
					"type": "function"
				}
			],
			"devdoc": {
				"events": {
					"Approval(address,address,uint256)": {
						"details": "Emitted when the allowance of a `spender` for an `owner` is set by a call to {approve}. `value` is the new allowance."
					},
					"Transfer(address,address,uint256)": {
						"details": "Emitted when `value` tokens are moved from one account (`from`) to another (`to`). Note that `value` may be zero."
					}
				},
				"kind": "dev",
				"methods": {
					"allowance(address,address)": {
						"details": "See {IERC20-allowance}."
					},
					"approve(address,uint256)": {
						"details": "See {IERC20-approve}. NOTE: If `amount` is the maximum `uint256`, the allowance is not updated on `transferFrom`. This is semantically equivalent to an infinite approval. Requirements: - `spender` cannot be the zero address."
					},
					"balanceOf(address)": {
						"details": "See {IERC20-balanceOf}."
					},
					"decimals()": {
						"details": "Returns the number of decimals used to get its user representation. For example, if `decimals` equals `2`, a balance of `505` tokens should be displayed to a user as `5.05` (`505 / 10 ** 2`). Tokens usually opt for a value of 18, imitating the relationship between Ether and Wei. This is the value {ERC20} uses, unless this function is overridden; NOTE: This information is only used for _display_ purposes: it in no way affects any of the arithmetic of the contract, including {IERC20-balanceOf} and {IERC20-transfer}."
					},
					"decreaseAllowance(address,uint256)": {
						"details": "Atomically decreases the allowance granted to `spender` by the caller. This is an alternative to {approve} that can be used as a mitigation for problems described in {IERC20-approve}. Emits an {Approval} event indicating the updated allowance. Requirements: - `spender` cannot be the zero address. - `spender` must have allowance for the caller of at least `subtractedValue`."
					},
					"increaseAllowance(address,uint256)": {
						"details": "Atomically increases the allowance granted to `spender` by the caller. This is an alternative to {approve} that can be used as a mitigation for problems described in {IERC20-approve}. Emits an {Approval} event indicating the updated allowance. Requirements: - `spender` cannot be the zero address."
					},
					"name()": {
						"details": "Returns the name of the token."
					},
					"symbol()": {
						"details": "Returns the symbol of the token, usually a shorter version of the name."
					},
					"totalSupply()": {
						"details": "See {IERC20-totalSupply}."
					},
					"transfer(address,uint256)": {
						"details": "See {IERC20-transfer}. Requirements: - `to` cannot be the zero address. - the caller must have a balance of at least `amount`."
					},
					"transferFrom(address,address,uint256)": {
						"details": "See {IERC20-transferFrom}. Emits an {Approval} event indicating the updated allowance. This is not required by the EIP. See the note at the beginning of {ERC20}. NOTE: Does not update the allowance if the current allowance is the maximum `uint256`. Requirements: - `from` and `to` cannot be the zero address. - `from` must have a balance of at least `amount`. - the caller must have allowance for ``from``'s tokens of at least `amount`."
					}
				},
				"version": 1
			},
			"evm": {
				"assembly": "    /* \"hehe.sol\":120:4832  contract GTEsttoken is ERC20 {... */\n  mstore(0x40, 0x80)\n    /* \"hehe.sol\":242:248  100000 */\n  0x0186a0\n    /* \"hehe.sol\":218:248  uint256 public amount = 100000 */\n  0x07\n  sstore\n    /* \"hehe.sol\":284:297  500000000 wei */\n  0x1dcd6500\n    /* \"hehe.sol\":256:297  uint256 public tokenPrice = 500000000 wei */\n  0x08\n  sstore\n    /* \"hehe.sol\":334:345  85818234000 */\n  0x13fb2a5490\n    /* \"hehe.sol\":305:345  uint256 public airdropPool = 85818234000 */\n  0x09\n  sstore\n    /* \"hehe.sol\":381:392  57212156000 */\n  0x0d521c3860\n    /* \"hehe.sol\":352:392  uint256 public presalePool = 57212156000 */\n  0x0a\n  sstore\n    /* \"hehe.sol\":1137:1472  constructor() ERC20(\"GOO\", \"GO\") {... */\n  callvalue\n  dup1\n  iszero\n  tag_1\n  jumpi\n  0x00\n  dup1\n  revert\ntag_1:\n  pop\n    /* \"@openzeppelin/contracts/token/ERC20/ERC20.sol\":1976:2089  constructor(string memory name_, string memory symbol_) {... */\n  mload(0x40)\n  dup1\n  0x40\n  add\n  0x40\n  mstore\n  dup1\n  0x03\n  dup2\n  mstore\n  0x20\n  add\n  0x474f4f0000000000000000000000000000000000000000000000000000000000\n  dup2\n  mstore\n  pop\n  mload(0x40)\n  dup1\n  0x40\n  add\n  0x40\n  mstore\n  dup1\n  0x02\n  dup2\n  mstore\n  0x20\n  add\n  0x474f000000000000000000000000000000000000000000000000000000000000\n  dup2\n  mstore\n  pop\n    /* \"@openzeppelin/contracts/token/ERC20/ERC20.sol\":2050:2055  name_ */\n  dup2\n    /* \"@openzeppelin/contracts/token/ERC20/ERC20.sol\":2042:2047  _name */\n  0x03\n    /* \"@openzeppelin/contracts/token/ERC20/ERC20.sol\":2042:2055  _name = name_ */\n  swap1\n  dup2\n  tag_5\n  swap2\n  swap1\n  tag_6\n  jump\t// in\ntag_5:\n  pop\n    /* \"@openzeppelin/contracts/token/ERC20/ERC20.sol\":2075:2082  symbol_ */\n  dup1\n    /* \"@openzeppelin/contracts/token/ERC20/ERC20.sol\":2065:2072  _symbol */\n  0x04\n    /* \"@openzeppelin/contracts/token/ERC20/ERC20.sol\":2065:2082  _symbol = symbol_ */\n  swap1\n  dup2\n  tag_7\n  swap2\n  swap1\n  tag_6\n  jump\t// in\ntag_7:\n  pop\n    /* \"@openzeppelin/contracts/token/ERC20/ERC20.sol\":1976:2089  constructor(string memory name_, string memory symbol_) {... */\n  pop\n  pop\n    /* \"hehe.sol\":1190:1200  msg.sender */\n  caller\n    /* \"hehe.sol\":1181:1187  owner1 */\n  0x0b\n  0x00\n    /* \"hehe.sol\":1181:1200  owner1 = msg.sender */\n  0x0100\n  exp\n  dup2\n  sload\n  dup2\n  0xffffffffffffffffffffffffffffffffffffffff\n  mul\n  not\n  and\n  swap1\n  dup4\n  0xffffffffffffffffffffffffffffffffffffffff\n  and\n  mul\n  or\n  swap1\n  sstore\n  pop\n    /* \"hehe.sol\":1221:1255  _mint(address(this), 143030390000) */\n  tag_9\n    /* \"hehe.sol\":1235:1239  this */\n  address\n    /* \"hehe.sol\":1242:1254  143030390000 */\n  0x214d468cf0\n    /* \"hehe.sol\":1221:1226  _mint */\n  shl(0x20, tag_10)\n    /* \"hehe.sol\":1221:1255  _mint(address(this), 143030390000) */\n  0x20\n  shr\n  jump\t// in\ntag_9:\n    /* \"hehe.sol\":1280:1295  block.timestamp */\n  timestamp\n    /* \"hehe.sol\":1268:1277  startTime */\n  0x05\n    /* \"hehe.sol\":1268:1295  startTime = block.timestamp */\n  dup2\n  swap1\n  sstore\n  pop\n    /* \"hehe.sol\":1334:1340  1 days */\n  0x015180\n    /* \"hehe.sol\":1316:1331  block.timestamp */\n  timestamp\n    /* \"hehe.sol\":1316:1340  block.timestamp + 1 days */\n  tag_11\n  swap2\n  swap1\n  tag_12\n  jump\t// in\ntag_11:\n    /* \"hehe.sol\":1306:1313  endTime */\n  0x06\n    /* \"hehe.sol\":1306:1340  endTime = block.timestamp + 1 days */\n  dup2\n  swap1\n  sstore\n  pop\n    /* \"hehe.sol\":1358:1403  AirdropStart(startTime, endTime, airdropPool) */\n  0x406b456ff3f22ed8c574547a645dd085d2a645955dd676e0d136d5677d61bd70\n    /* \"hehe.sol\":1371:1380  startTime */\n  sload(0x05)\n    /* \"hehe.sol\":1382:1389  endTime */\n  sload(0x06)\n    /* \"hehe.sol\":1391:1402  airdropPool */\n  sload(0x09)\n    /* \"hehe.sol\":1358:1403  AirdropStart(startTime, endTime, airdropPool) */\n  mload(0x40)\n  tag_13\n  swap4\n  swap3\n  swap2\n  swap1\n  tag_14\n  jump\t// in\ntag_13:\n  mload(0x40)\n  dup1\n  swap2\n  sub\n  swap1\n  log1\n    /* \"hehe.sol\":1419:1464  PresaleStart(startTime, endTime, presalePool) */\n  0x2652f6f8f660f8f79a623da8e0a1fae21d1acbe89464c6471fcb75ab2246b639\n    /* \"hehe.sol\":1432:1441  startTime */\n  sload(0x05)\n    /* \"hehe.sol\":1443:1450  endTime */\n  sload(0x06)\n    /* \"hehe.sol\":1452:1463  presalePool */\n  sload(0x0a)\n    /* \"hehe.sol\":1419:1464  PresaleStart(startTime, endTime, presalePool) */\n  mload(0x40)\n  tag_15\n  swap4\n  swap3\n  swap2\n  swap1\n  tag_14\n  jump\t// in\ntag_15:\n  mload(0x40)\n  dup1\n  swap2\n  sub\n  swap1\n  log1\n    /* \"hehe.sol\":120:4832  contract GTEsttoken is ERC20 {... */\n  jump(tag_16)\n    /* \"@openzeppelin/contracts/token/ERC20/ERC20.sol\":8571:9106  function _mint(address account, uint256 amount) internal virtual {... */\ntag_10:\n    /* \"@openzeppelin/contracts/token/ERC20/ERC20.sol\":8673:8674  0 */\n  0x00\n    /* \"@openzeppelin/contracts/token/ERC20/ERC20.sol\":8654:8675  account != address(0) */\n  0xffffffffffffffffffffffffffffffffffffffff\n  and\n    /* \"@openzeppelin/contracts/token/ERC20/ERC20.sol\":8654:8661  account */\n  dup3\n    /* \"@openzeppelin/contracts/token/ERC20/ERC20.sol\":8654:8675  account != address(0) */\n  0xffffffffffffffffffffffffffffffffffffffff\n  and\n  sub\n    /* \"@openzeppelin/contracts/token/ERC20/ERC20.sol\":8646:8711  require(account != address(0), \"ERC20: mint to the zero address\") */\n  tag_18\n  jumpi\n  mload(0x40)\n  0x08c379a000000000000000000000000000000000000000000000000000000000\n  dup2\n  mstore\n  0x04\n  add\n  tag_19\n  swap1\n  tag_20\n  jump\t// in\ntag_19:\n  mload(0x40)\n  dup1\n  swap2\n  sub\n  swap1\n  revert\ntag_18:\n    /* \"@openzeppelin/contracts/token/ERC20/ERC20.sol\":8722:8771  _beforeTokenTransfer(address(0), account, amount) */\n  tag_21\n    /* \"@openzeppelin/contracts/token/ERC20/ERC20.sol\":8751:8752  0 */\n  0x00\n    /* \"@openzeppelin/contracts/token/ERC20/ERC20.sol\":8755:8762  account */\n  dup4\n    /* \"@openzeppelin/contracts/token/ERC20/ERC20.sol\":8764:8770  amount */\n  dup4\n    /* \"@openzeppelin/contracts/token/ERC20/ERC20.sol\":8722:8742  _beforeTokenTransfer */\n  shl(0x20, tag_22)\n    /* \"@openzeppelin/contracts/token/ERC20/ERC20.sol\":8722:8771  _beforeTokenTransfer(address(0), account, amount) */\n  0x20\n  shr\n  jump\t// in\ntag_21:\n    /* \"@openzeppelin/contracts/token/ERC20/ERC20.sol\":8798:8804  amount */\n  dup1\n    /* \"@openzeppelin/contracts/token/ERC20/ERC20.sol\":8782:8794  _totalSupply */\n  0x02\n  0x00\n    /* \"@openzeppelin/contracts/token/ERC20/ERC20.sol\":8782:8804  _totalSupply += amount */\n  dup3\n  dup3\n  sload\n  tag_23\n  swap2\n  swap1\n  tag_12\n  jump\t// in\ntag_23:\n  swap3\n  pop\n  pop\n  dup2\n  swap1\n  sstore\n  pop\n    /* \"@openzeppelin/contracts/token/ERC20/ERC20.sol\":8972:8978  amount */\n  dup1\n    /* \"@openzeppelin/contracts/token/ERC20/ERC20.sol\":8950:8959  _balances */\n  0x00\n    /* \"@openzeppelin/contracts/token/ERC20/ERC20.sol\":8950:8968  _balances[account] */\n  dup1\n    /* \"@openzeppelin/contracts/token/ERC20/ERC20.sol\":8960:8967  account */\n  dup5\n    /* \"@openzeppelin/contracts/token/ERC20/ERC20.sol\":8950:8968  _balances[account] */\n  0xffffffffffffffffffffffffffffffffffffffff\n  and\n  0xffffffffffffffffffffffffffffffffffffffff\n  and\n  dup2\n  mstore\n  0x20\n  add\n  swap1\n  dup2\n  mstore\n  0x20\n  add\n  0x00\n  keccak256\n  0x00\n    /* \"@openzeppelin/contracts/token/ERC20/ERC20.sol\":8950:8978  _balances[account] += amount */\n  dup3\n  dup3\n  sload\n  add\n  swap3\n  pop\n  pop\n  dup2\n  swap1\n  sstore\n  pop\n    /* \"@openzeppelin/contracts/token/ERC20/ERC20.sol\":9024:9031  account */\n  dup2\n    /* \"@openzeppelin/contracts/token/ERC20/ERC20.sol\":9003:9040  Transfer(address(0), account, amount) */\n  0xffffffffffffffffffffffffffffffffffffffff\n  and\n    /* \"@openzeppelin/contracts/token/ERC20/ERC20.sol\":9020:9021  0 */\n  0x00\n    /* \"@openzeppelin/contracts/token/ERC20/ERC20.sol\":9003:9040  Transfer(address(0), account, amount) */\n  0xffffffffffffffffffffffffffffffffffffffff\n  and\n  0xddf252ad1be2c89b69c2b068fc378daa952ba7f163c4a11628f55a4df523b3ef\n    /* \"@openzeppelin/contracts/token/ERC20/ERC20.sol\":9033:9039  amount */\n  dup4\n    /* \"@openzeppelin/contracts/token/ERC20/ERC20.sol\":9003:9040  Transfer(address(0), account, amount) */\n  mload(0x40)\n  tag_24\n  swap2\n  swap1\n  tag_25\n  jump\t// in\ntag_24:\n  mload(0x40)\n  dup1\n  swap2\n  sub\n  swap1\n  log3\n    /* \"@openzeppelin/contracts/token/ERC20/ERC20.sol\":9051:9099  _afterTokenTransfer(address(0), account, amount) */\n  tag_26\n    /* \"@openzeppelin/contracts/token/ERC20/ERC20.sol\":9079:9080  0 */\n  0x00\n    /* \"@openzeppelin/contracts/token/ERC20/ERC20.sol\":9083:9090  account */\n  dup4\n    /* \"@openzeppelin/contracts/token/ERC20/ERC20.sol\":9092:9098  amount */\n  dup4\n    /* \"@openzeppelin/contracts/token/ERC20/ERC20.sol\":9051:9070  _afterTokenTransfer */\n  shl(0x20, tag_27)\n    /* \"@openzeppelin/contracts/token/ERC20/ERC20.sol\":9051:9099  _afterTokenTransfer(address(0), account, amount) */\n  0x20\n  shr\n  jump\t// in\ntag_26:\n    /* \"@openzeppelin/contracts/token/ERC20/ERC20.sol\":8571:9106  function _mint(address account, uint256 amount) internal virtual {... */\n  pop\n  pop\n  jump\t// out\n    /* \"@openzeppelin/contracts/token/ERC20/ERC20.sol\":12184:12305  function _beforeTokenTransfer(... */\ntag_22:\n  pop\n  pop\n  pop\n  jump\t// out\n    /* \"@openzeppelin/contracts/token/ERC20/ERC20.sol\":12893:13013  function _afterTokenTransfer(... */\ntag_27:\n  pop\n  pop\n  pop\n  jump\t// out\n    /* \"#utility.yul\":7:106   */\ntag_30:\n    /* \"#utility.yul\":59:65   */\n  0x00\n    /* \"#utility.yul\":93:98   */\n  dup2\n    /* \"#utility.yul\":87:99   */\n  mload\n    /* \"#utility.yul\":77:99   */\n  swap1\n  pop\n    /* \"#utility.yul\":7:106   */\n  swap2\n  swap1\n  pop\n  jump\t// out\n    /* \"#utility.yul\":112:292   */\ntag_31:\n    /* \"#utility.yul\":160:237   */\n  0x4e487b7100000000000000000000000000000000000000000000000000000000\n    /* \"#utility.yul\":157:158   */\n  0x00\n    /* \"#utility.yul\":150:238   */\n  mstore\n    /* \"#utility.yul\":257:261   */\n  0x41\n    /* \"#utility.yul\":254:255   */\n  0x04\n    /* \"#utility.yul\":247:262   */\n  mstore\n    /* \"#utility.yul\":281:285   */\n  0x24\n    /* \"#utility.yul\":278:279   */\n  0x00\n    /* \"#utility.yul\":271:286   */\n  revert\n    /* \"#utility.yul\":298:478   */\ntag_32:\n    /* \"#utility.yul\":346:423   */\n  0x4e487b7100000000000000000000000000000000000000000000000000000000\n    /* \"#utility.yul\":343:344   */\n  0x00\n    /* \"#utility.yul\":336:424   */\n  mstore\n    /* \"#utility.yul\":443:447   */\n  0x22\n    /* \"#utility.yul\":440:441   */\n  0x04\n    /* \"#utility.yul\":433:448   */\n  mstore\n    /* \"#utility.yul\":467:471   */\n  0x24\n    /* \"#utility.yul\":464:465   */\n  0x00\n    /* \"#utility.yul\":457:472   */\n  revert\n    /* \"#utility.yul\":484:804   */\ntag_33:\n    /* \"#utility.yul\":528:534   */\n  0x00\n    /* \"#utility.yul\":565:566   */\n  0x02\n    /* \"#utility.yul\":559:563   */\n  dup3\n    /* \"#utility.yul\":555:567   */\n  div\n    /* \"#utility.yul\":545:567   */\n  swap1\n  pop\n    /* \"#utility.yul\":612:613   */\n  0x01\n    /* \"#utility.yul\":606:610   */\n  dup3\n    /* \"#utility.yul\":602:614   */\n  and\n    /* \"#utility.yul\":633:651   */\n  dup1\n    /* \"#utility.yul\":623:704   */\n  tag_60\n  jumpi\n    /* \"#utility.yul\":689:693   */\n  0x7f\n    /* \"#utility.yul\":681:687   */\n  dup3\n    /* \"#utility.yul\":677:694   */\n  and\n    /* \"#utility.yul\":667:694   */\n  swap2\n  pop\n    /* \"#utility.yul\":623:704   */\ntag_60:\n    /* \"#utility.yul\":751:753   */\n  0x20\n    /* \"#utility.yul\":743:749   */\n  dup3\n    /* \"#utility.yul\":740:754   */\n  lt\n    /* \"#utility.yul\":720:738   */\n  dup2\n    /* \"#utility.yul\":717:755   */\n  sub\n    /* \"#utility.yul\":714:798   */\n  tag_61\n  jumpi\n    /* \"#utility.yul\":770:788   */\n  tag_62\n  tag_32\n  jump\t// in\ntag_62:\n    /* \"#utility.yul\":714:798   */\ntag_61:\n    /* \"#utility.yul\":535:804   */\n  pop\n    /* \"#utility.yul\":484:804   */\n  swap2\n  swap1\n  pop\n  jump\t// out\n    /* \"#utility.yul\":810:951   */\ntag_34:\n    /* \"#utility.yul\":859:863   */\n  0x00\n    /* \"#utility.yul\":882:885   */\n  dup2\n    /* \"#utility.yul\":874:885   */\n  swap1\n  pop\n    /* \"#utility.yul\":905:908   */\n  dup2\n    /* \"#utility.yul\":902:903   */\n  0x00\n    /* \"#utility.yul\":895:909   */\n  mstore\n    /* \"#utility.yul\":939:943   */\n  0x20\n    /* \"#utility.yul\":936:937   */\n  0x00\n    /* \"#utility.yul\":926:944   */\n  keccak256\n    /* \"#utility.yul\":918:944   */\n  swap1\n  pop\n    /* \"#utility.yul\":810:951   */\n  swap2\n  swap1\n  pop\n  jump\t// out\n    /* \"#utility.yul\":957:1050   */\ntag_35:\n    /* \"#utility.yul\":994:1000   */\n  0x00\n    /* \"#utility.yul\":1041:1043   */\n  0x20\n    /* \"#utility.yul\":1036:1038   */\n  0x1f\n    /* \"#utility.yul\":1029:1034   */\n  dup4\n    /* \"#utility.yul\":1025:1039   */\n  add\n    /* \"#utility.yul\":1021:1044   */\n  div\n    /* \"#utility.yul\":1011:1044   */\n  swap1\n  pop\n    /* \"#utility.yul\":957:1050   */\n  swap2\n  swap1\n  pop\n  jump\t// out\n    /* \"#utility.yul\":1056:1163   */\ntag_36:\n    /* \"#utility.yul\":1100:1108   */\n  0x00\n    /* \"#utility.yul\":1150:1155   */\n  dup3\n    /* \"#utility.yul\":1144:1148   */\n  dup3\n    /* \"#utility.yul\":1140:1156   */\n  shl\n    /* \"#utility.yul\":1119:1156   */\n  swap1\n  pop\n    /* \"#utility.yul\":1056:1163   */\n  swap3\n  swap2\n  pop\n  pop\n  jump\t// out\n    /* \"#utility.yul\":1169:1562   */\ntag_37:\n    /* \"#utility.yul\":1238:1244   */\n  0x00\n    /* \"#utility.yul\":1288:1289   */\n  0x08\n    /* \"#utility.yul\":1276:1286   */\n  dup4\n    /* \"#utility.yul\":1272:1290   */\n  mul\n    /* \"#utility.yul\":1311:1408   */\n  tag_67\n    /* \"#utility.yul\":1341:1407   */\n  0xffffffffffffffffffffffffffffffffffffffffffffffffffffffffffffffff\n    /* \"#utility.yul\":1330:1339   */\n  dup3\n    /* \"#utility.yul\":1311:1408   */\n  tag_36\n  jump\t// in\ntag_67:\n    /* \"#utility.yul\":1429:1468   */\n  tag_68\n    /* \"#utility.yul\":1459:1467   */\n  dup7\n    /* \"#utility.yul\":1448:1457   */\n  dup4\n    /* \"#utility.yul\":1429:1468   */\n  tag_36\n  jump\t// in\ntag_68:\n    /* \"#utility.yul\":1417:1468   */\n  swap6\n  pop\n    /* \"#utility.yul\":1501:1505   */\n  dup1\n    /* \"#utility.yul\":1497:1506   */\n  not\n    /* \"#utility.yul\":1490:1495   */\n  dup5\n    /* \"#utility.yul\":1486:1507   */\n  and\n    /* \"#utility.yul\":1477:1507   */\n  swap4\n  pop\n    /* \"#utility.yul\":1550:1554   */\n  dup1\n    /* \"#utility.yul\":1540:1548   */\n  dup7\n    /* \"#utility.yul\":1536:1555   */\n  and\n    /* \"#utility.yul\":1529:1534   */\n  dup5\n    /* \"#utility.yul\":1526:1556   */\n  or\n    /* \"#utility.yul\":1516:1556   */\n  swap3\n  pop\n    /* \"#utility.yul\":1245:1562   */\n  pop\n  pop\n    /* \"#utility.yul\":1169:1562   */\n  swap4\n  swap3\n  pop\n  pop\n  pop\n  jump\t// out\n    /* \"#utility.yul\":1568:1645   */\ntag_38:\n    /* \"#utility.yul\":1605:1612   */\n  0x00\n    /* \"#utility.yul\":1634:1639   */\n  dup2\n    /* \"#utility.yul\":1623:1639   */\n  swap1\n  pop\n    /* \"#utility.yul\":1568:1645   */\n  swap2\n  swap1\n  pop\n  jump\t// out\n    /* \"#utility.yul\":1651:1711   */\ntag_39:\n    /* \"#utility.yul\":1679:1682   */\n  0x00\n    /* \"#utility.yul\":1700:1705   */\n  dup2\n    /* \"#utility.yul\":1693:1705   */\n  swap1\n  pop\n    /* \"#utility.yul\":1651:1711   */\n  swap2\n  swap1\n  pop\n  jump\t// out\n    /* \"#utility.yul\":1717:1859   */\ntag_40:\n    /* \"#utility.yul\":1767:1776   */\n  0x00\n    /* \"#utility.yul\":1800:1853   */\n  tag_72\n    /* \"#utility.yul\":1818:1852   */\n  tag_73\n    /* \"#utility.yul\":1827:1851   */\n  tag_74\n    /* \"#utility.yul\":1845:1850   */\n  dup5\n    /* \"#utility.yul\":1827:1851   */\n  tag_38\n  jump\t// in\ntag_74:\n    /* \"#utility.yul\":1818:1852   */\n  tag_39\n  jump\t// in\ntag_73:\n    /* \"#utility.yul\":1800:1853   */\n  tag_38\n  jump\t// in\ntag_72:\n    /* \"#utility.yul\":1787:1853   */\n  swap1\n  pop\n    /* \"#utility.yul\":1717:1859   */\n  swap2\n  swap1\n  pop\n  jump\t// out\n    /* \"#utility.yul\":1865:1940   */\ntag_41:\n    /* \"#utility.yul\":1908:1911   */\n  0x00\n    /* \"#utility.yul\":1929:1934   */\n  dup2\n    /* \"#utility.yul\":1922:1934   */\n  swap1\n  pop\n    /* \"#utility.yul\":1865:1940   */\n  swap2\n  swap1\n  pop\n  jump\t// out\n    /* \"#utility.yul\":1946:2215   */\ntag_42:\n    /* \"#utility.yul\":2056:2095   */\n  tag_77\n    /* \"#utility.yul\":2087:2094   */\n  dup4\n    /* \"#utility.yul\":2056:2095   */\n  tag_40\n  jump\t// in\ntag_77:\n    /* \"#utility.yul\":2117:2208   */\n  tag_78\n    /* \"#utility.yul\":2166:2207   */\n  tag_79\n    /* \"#utility.yul\":2190:2206   */\n  dup3\n    /* \"#utility.yul\":2166:2207   */\n  tag_41\n  jump\t// in\ntag_79:\n    /* \"#utility.yul\":2158:2164   */\n  dup5\n    /* \"#utility.yul\":2151:2155   */\n  dup5\n    /* \"#utility.yul\":2145:2156   */\n  sload\n    /* \"#utility.yul\":2117:2208   */\n  tag_37\n  jump\t// in\ntag_78:\n    /* \"#utility.yul\":2111:2115   */\n  dup3\n    /* \"#utility.yul\":2104:2209   */\n  sstore\n    /* \"#utility.yul\":2022:2215   */\n  pop\n    /* \"#utility.yul\":1946:2215   */\n  pop\n  pop\n  pop\n  jump\t// out\n    /* \"#utility.yul\":2221:2294   */\ntag_43:\n    /* \"#utility.yul\":2266:2269   */\n  0x00\n    /* \"#utility.yul\":2221:2294   */\n  swap1\n  jump\t// out\n    /* \"#utility.yul\":2300:2489   */\ntag_44:\n    /* \"#utility.yul\":2377:2409   */\n  tag_82\n  tag_43\n  jump\t// in\ntag_82:\n    /* \"#utility.yul\":2418:2483   */\n  tag_83\n    /* \"#utility.yul\":2476:2482   */\n  dup2\n    /* \"#utility.yul\":2468:2474   */\n  dup5\n    /* \"#utility.yul\":2462:2466   */\n  dup5\n    /* \"#utility.yul\":2418:2483   */\n  tag_42\n  jump\t// in\ntag_83:\n    /* \"#utility.yul\":2353:2489   */\n  pop\n    /* \"#utility.yul\":2300:2489   */\n  pop\n  pop\n  jump\t// out\n    /* \"#utility.yul\":2495:2681   */\ntag_45:\n    /* \"#utility.yul\":2555:2675   */\ntag_85:\n    /* \"#utility.yul\":2572:2575   */\n  dup2\n    /* \"#utility.yul\":2565:2570   */\n  dup2\n    /* \"#utility.yul\":2562:2576   */\n  lt\n    /* \"#utility.yul\":2555:2675   */\n  iszero\n  tag_87\n  jumpi\n    /* \"#utility.yul\":2626:2665   */\n  tag_88\n    /* \"#utility.yul\":2663:2664   */\n  0x00\n    /* \"#utility.yul\":2656:2661   */\n  dup3\n    /* \"#utility.yul\":2626:2665   */\n  tag_44\n  jump\t// in\ntag_88:\n    /* \"#utility.yul\":2599:2600   */\n  0x01\n    /* \"#utility.yul\":2592:2597   */\n  dup2\n    /* \"#utility.yul\":2588:2601   */\n  add\n    /* \"#utility.yul\":2579:2601   */\n  swap1\n  pop\n    /* \"#utility.yul\":2555:2675   */\n  jump(tag_85)\ntag_87:\n    /* \"#utility.yul\":2495:2681   */\n  pop\n  pop\n  jump\t// out\n    /* \"#utility.yul\":2687:3230   */\ntag_46:\n    /* \"#utility.yul\":2788:2790   */\n  0x1f\n    /* \"#utility.yul\":2783:2786   */\n  dup3\n    /* \"#utility.yul\":2780:2791   */\n  gt\n    /* \"#utility.yul\":2777:3223   */\n  iszero\n  tag_90\n  jumpi\n    /* \"#utility.yul\":2822:2860   */\n  tag_91\n    /* \"#utility.yul\":2854:2859   */\n  dup2\n    /* \"#utility.yul\":2822:2860   */\n  tag_34\n  jump\t// in\ntag_91:\n    /* \"#utility.yul\":2906:2935   */\n  tag_92\n    /* \"#utility.yul\":2924:2934   */\n  dup5\n    /* \"#utility.yul\":2906:2935   */\n  tag_35\n  jump\t// in\ntag_92:\n    /* \"#utility.yul\":2896:2904   */\n  dup2\n    /* \"#utility.yul\":2892:2936   */\n  add\n    /* \"#utility.yul\":3089:3091   */\n  0x20\n    /* \"#utility.yul\":3077:3087   */\n  dup6\n    /* \"#utility.yul\":3074:3092   */\n  lt\n    /* \"#utility.yul\":3071:3120   */\n  iszero\n  tag_93\n  jumpi\n    /* \"#utility.yul\":3110:3118   */\n  dup2\n    /* \"#utility.yul\":3095:3118   */\n  swap1\n  pop\n    /* \"#utility.yul\":3071:3120   */\ntag_93:\n    /* \"#utility.yul\":3133:3213   */\n  tag_94\n    /* \"#utility.yul\":3189:3211   */\n  tag_95\n    /* \"#utility.yul\":3207:3210   */\n  dup6\n    /* \"#utility.yul\":3189:3211   */\n  tag_35\n  jump\t// in\ntag_95:\n    /* \"#utility.yul\":3179:3187   */\n  dup4\n    /* \"#utility.yul\":3175:3212   */\n  add\n    /* \"#utility.yul\":3162:3173   */\n  dup3\n    /* \"#utility.yul\":3133:3213   */\n  tag_45\n  jump\t// in\ntag_94:\n    /* \"#utility.yul\":2792:3223   */\n  pop\n  pop\n    /* \"#utility.yul\":2777:3223   */\ntag_90:\n    /* \"#utility.yul\":2687:3230   */\n  pop\n  pop\n  pop\n  jump\t// out\n    /* \"#utility.yul\":3236:3353   */\ntag_47:\n    /* \"#utility.yul\":3290:3298   */\n  0x00\n    /* \"#utility.yul\":3340:3345   */\n  dup3\n    /* \"#utility.yul\":3334:3338   */\n  dup3\n    /* \"#utility.yul\":3330:3346   */\n  shr\n    /* \"#utility.yul\":3309:3346   */\n  swap1\n  pop\n    /* \"#utility.yul\":3236:3353   */\n  swap3\n  swap2\n  pop\n  pop\n  jump\t// out\n    /* \"#utility.yul\":3359:3528   */\ntag_48:\n    /* \"#utility.yul\":3403:3409   */\n  0x00\n    /* \"#utility.yul\":3436:3487   */\n  tag_98\n    /* \"#utility.yul\":3484:3485   */\n  0x00\n    /* \"#utility.yul\":3480:3486   */\n  not\n    /* \"#utility.yul\":3472:3477   */\n  dup5\n    /* \"#utility.yul\":3469:3470   */\n  0x08\n    /* \"#utility.yul\":3465:3478   */\n  mul\n    /* \"#utility.yul\":3436:3487   */\n  tag_47\n  jump\t// in\ntag_98:\n    /* \"#utility.yul\":3432:3488   */\n  not\n    /* \"#utility.yul\":3517:3521   */\n  dup1\n    /* \"#utility.yul\":3511:3515   */\n  dup4\n    /* \"#utility.yul\":3507:3522   */\n  and\n    /* \"#utility.yul\":3497:3522   */\n  swap2\n  pop\n    /* \"#utility.yul\":3410:3528   */\n  pop\n    /* \"#utility.yul\":3359:3528   */\n  swap3\n  swap2\n  pop\n  pop\n  jump\t// out\n    /* \"#utility.yul\":3533:3828   */\ntag_49:\n    /* \"#utility.yul\":3609:3613   */\n  0x00\n    /* \"#utility.yul\":3755:3784   */\n  tag_100\n    /* \"#utility.yul\":3780:3783   */\n  dup4\n    /* \"#utility.yul\":3774:3778   */\n  dup4\n    /* \"#utility.yul\":3755:3784   */\n  tag_48\n  jump\t// in\ntag_100:\n    /* \"#utility.yul\":3747:3784   */\n  swap2\n  pop\n    /* \"#utility.yul\":3817:3820   */\n  dup3\n    /* \"#utility.yul\":3814:3815   */\n  0x02\n    /* \"#utility.yul\":3810:3821   */\n  mul\n    /* \"#utility.yul\":3804:3808   */\n  dup3\n    /* \"#utility.yul\":3801:3822   */\n  or\n    /* \"#utility.yul\":3793:3822   */\n  swap1\n  pop\n    /* \"#utility.yul\":3533:3828   */\n  swap3\n  swap2\n  pop\n  pop\n  jump\t// out\n    /* \"#utility.yul\":3833:5228   */\ntag_6:\n    /* \"#utility.yul\":3950:3987   */\n  tag_102\n    /* \"#utility.yul\":3983:3986   */\n  dup3\n    /* \"#utility.yul\":3950:3987   */\n  tag_30\n  jump\t// in\ntag_102:\n    /* \"#utility.yul\":4052:4070   */\n  0xffffffffffffffff\n    /* \"#utility.yul\":4044:4050   */\n  dup2\n    /* \"#utility.yul\":4041:4071   */\n  gt\n    /* \"#utility.yul\":4038:4094   */\n  iszero\n  tag_103\n  jumpi\n    /* \"#utility.yul\":4074:4092   */\n  tag_104\n  tag_31\n  jump\t// in\ntag_104:\n    /* \"#utility.yul\":4038:4094   */\ntag_103:\n    /* \"#utility.yul\":4118:4156   */\n  tag_105\n    /* \"#utility.yul\":4150:4154   */\n  dup3\n    /* \"#utility.yul\":4144:4155   */\n  sload\n    /* \"#utility.yul\":4118:4156   */\n  tag_33\n  jump\t// in\ntag_105:\n    /* \"#utility.yul\":4203:4270   */\n  tag_106\n    /* \"#utility.yul\":4263:4269   */\n  dup3\n    /* \"#utility.yul\":4255:4261   */\n  dup3\n    /* \"#utility.yul\":4249:4253   */\n  dup6\n    /* \"#utility.yul\":4203:4270   */\n  tag_46\n  jump\t// in\ntag_106:\n    /* \"#utility.yul\":4297:4298   */\n  0x00\n    /* \"#utility.yul\":4321:4325   */\n  0x20\n    /* \"#utility.yul\":4308:4325   */\n  swap1\n  pop\n    /* \"#utility.yul\":4353:4355   */\n  0x1f\n    /* \"#utility.yul\":4345:4351   */\n  dup4\n    /* \"#utility.yul\":4342:4356   */\n  gt\n    /* \"#utility.yul\":4370:4371   */\n  0x01\n    /* \"#utility.yul\":4365:4983   */\n  dup2\n  eq\n  tag_108\n  jumpi\n    /* \"#utility.yul\":5027:5028   */\n  0x00\n    /* \"#utility.yul\":5044:5050   */\n  dup5\n    /* \"#utility.yul\":5041:5118   */\n  iszero\n  tag_109\n  jumpi\n    /* \"#utility.yul\":5093:5102   */\n  dup3\n    /* \"#utility.yul\":5088:5091   */\n  dup8\n    /* \"#utility.yul\":5084:5103   */\n  add\n    /* \"#utility.yul\":5078:5104   */\n  mload\n    /* \"#utility.yul\":5069:5104   */\n  swap1\n  pop\n    /* \"#utility.yul\":5041:5118   */\ntag_109:\n    /* \"#utility.yul\":5144:5211   */\n  tag_110\n    /* \"#utility.yul\":5204:5210   */\n  dup6\n    /* \"#utility.yul\":5197:5202   */\n  dup3\n    /* \"#utility.yul\":5144:5211   */\n  tag_49\n  jump\t// in\ntag_110:\n    /* \"#utility.yul\":5138:5142   */\n  dup7\n    /* \"#utility.yul\":5131:5212   */\n  sstore\n    /* \"#utility.yul\":5000:5222   */\n  pop\n    /* \"#utility.yul\":4335:5222   */\n  jump(tag_107)\n    /* \"#utility.yul\":4365:4983   */\ntag_108:\n    /* \"#utility.yul\":4417:4421   */\n  0x1f\n    /* \"#utility.yul\":4413:4422   */\n  not\n    /* \"#utility.yul\":4405:4411   */\n  dup5\n    /* \"#utility.yul\":4401:4423   */\n  and\n    /* \"#utility.yul\":4451:4488   */\n  tag_111\n    /* \"#utility.yul\":4483:4487   */\n  dup7\n    /* \"#utility.yul\":4451:4488   */\n  tag_34\n  jump\t// in\ntag_111:\n    /* \"#utility.yul\":4510:4511   */\n  0x00\n    /* \"#utility.yul\":4524:4732   */\ntag_112:\n    /* \"#utility.yul\":4538:4545   */\n  dup3\n    /* \"#utility.yul\":4535:4536   */\n  dup2\n    /* \"#utility.yul\":4532:4546   */\n  lt\n    /* \"#utility.yul\":4524:4732   */\n  iszero\n  tag_114\n  jumpi\n    /* \"#utility.yul\":4617:4626   */\n  dup5\n    /* \"#utility.yul\":4612:4615   */\n  dup10\n    /* \"#utility.yul\":4608:4627   */\n  add\n    /* \"#utility.yul\":4602:4628   */\n  mload\n    /* \"#utility.yul\":4594:4600   */\n  dup3\n    /* \"#utility.yul\":4587:4629   */\n  sstore\n    /* \"#utility.yul\":4668:4669   */\n  0x01\n    /* \"#utility.yul\":4660:4666   */\n  dup3\n    /* \"#utility.yul\":4656:4670   */\n  add\n    /* \"#utility.yul\":4646:4670   */\n  swap2\n  pop\n    /* \"#utility.yul\":4715:4717   */\n  0x20\n    /* \"#utility.yul\":4704:4713   */\n  dup6\n    /* \"#utility.yul\":4700:4718   */\n  add\n    /* \"#utility.yul\":4687:4718   */\n  swap5\n  pop\n    /* \"#utility.yul\":4561:4565   */\n  0x20\n    /* \"#utility.yul\":4558:4559   */\n  dup2\n    /* \"#utility.yul\":4554:4566   */\n  add\n    /* \"#utility.yul\":4549:4566   */\n  swap1\n  pop\n    /* \"#utility.yul\":4524:4732   */\n  jump(tag_112)\ntag_114:\n    /* \"#utility.yul\":4760:4766   */\n  dup7\n    /* \"#utility.yul\":4751:4758   */\n  dup4\n    /* \"#utility.yul\":4748:4767   */\n  lt\n    /* \"#utility.yul\":4745:4924   */\n  iszero\n  tag_115\n  jumpi\n    /* \"#utility.yul\":4818:4827   */\n  dup5\n    /* \"#utility.yul\":4813:4816   */\n  dup10\n    /* \"#utility.yul\":4809:4828   */\n  add\n    /* \"#utility.yul\":4803:4829   */\n  mload\n    /* \"#utility.yul\":4861:4909   */\n  tag_116\n    /* \"#utility.yul\":4903:4907   */\n  0x1f\n    /* \"#utility.yul\":4895:4901   */\n  dup10\n    /* \"#utility.yul\":4891:4908   */\n  and\n    /* \"#utility.yul\":4880:4889   */\n  dup3\n    /* \"#utility.yul\":4861:4909   */\n  tag_48\n  jump\t// in\ntag_116:\n    /* \"#utility.yul\":4853:4859   */\n  dup4\n    /* \"#utility.yul\":4846:4910   */\n  sstore\n    /* \"#utility.yul\":4768:4924   */\n  pop\n    /* \"#utility.yul\":4745:4924   */\ntag_115:\n    /* \"#utility.yul\":4970:4971   */\n  0x01\n    /* \"#utility.yul\":4966:4967   */\n  0x02\n    /* \"#utility.yul\":4958:4964   */\n  dup9\n    /* \"#utility.yul\":4954:4968   */\n  mul\n    /* \"#utility.yul\":4950:4972   */\n  add\n    /* \"#utility.yul\":4944:4948   */\n  dup9\n    /* \"#utility.yul\":4937:4973   */\n  sstore\n    /* \"#utility.yul\":4372:4983   */\n  pop\n  pop\n  pop\n    /* \"#utility.yul\":4335:5222   */\ntag_107:\n  pop\n    /* \"#utility.yul\":3925:5228   */\n  pop\n  pop\n  pop\n    /* \"#utility.yul\":3833:5228   */\n  pop\n  pop\n  jump\t// out\n    /* \"#utility.yul\":5234:5414   */\ntag_50:\n    /* \"#utility.yul\":5282:5359   */\n  0x4e487b7100000000000000000000000000000000000000000000000000000000\n    /* \"#utility.yul\":5279:5280   */\n  0x00\n    /* \"#utility.yul\":5272:5360   */\n  mstore\n    /* \"#utility.yul\":5379:5383   */\n  0x11\n    /* \"#utility.yul\":5376:5377   */\n  0x04\n    /* \"#utility.yul\":5369:5384   */\n  mstore\n    /* \"#utility.yul\":5403:5407   */\n  0x24\n    /* \"#utility.yul\":5400:5401   */\n  0x00\n    /* \"#utility.yul\":5393:5408   */\n  revert\n    /* \"#utility.yul\":5420:5611   */\ntag_12:\n    /* \"#utility.yul\":5460:5463   */\n  0x00\n    /* \"#utility.yul\":5479:5499   */\n  tag_119\n    /* \"#utility.yul\":5497:5498   */\n  dup3\n    /* \"#utility.yul\":5479:5499   */\n  tag_38\n  jump\t// in\ntag_119:\n    /* \"#utility.yul\":5474:5499   */\n  swap2\n  pop\n    /* \"#utility.yul\":5513:5533   */\n  tag_120\n    /* \"#utility.yul\":5531:5532   */\n  dup4\n    /* \"#utility.yul\":5513:5533   */\n  tag_38\n  jump\t// in\ntag_120:\n    /* \"#utility.yul\":5508:5533   */\n  swap3\n  pop\n    /* \"#utility.yul\":5556:5557   */\n  dup3\n    /* \"#utility.yul\":5553:5554   */\n  dup3\n    /* \"#utility.yul\":5549:5558   */\n  add\n    /* \"#utility.yul\":5542:5558   */\n  swap1\n  pop\n    /* \"#utility.yul\":5577:5580   */\n  dup1\n    /* \"#utility.yul\":5574:5575   */\n  dup3\n    /* \"#utility.yul\":5571:5581   */\n  gt\n    /* \"#utility.yul\":5568:5604   */\n  iszero\n  tag_121\n  jumpi\n    /* \"#utility.yul\":5584:5602   */\n  tag_122\n  tag_50\n  jump\t// in\ntag_122:\n    /* \"#utility.yul\":5568:5604   */\ntag_121:\n    /* \"#utility.yul\":5420:5611   */\n  swap3\n  swap2\n  pop\n  pop\n  jump\t// out\n    /* \"#utility.yul\":5617:5735   */\ntag_51:\n    /* \"#utility.yul\":5704:5728   */\n  tag_124\n    /* \"#utility.yul\":5722:5727   */\n  dup2\n    /* \"#utility.yul\":5704:5728   */\n  tag_38\n  jump\t// in\ntag_124:\n    /* \"#utility.yul\":5699:5702   */\n  dup3\n    /* \"#utility.yul\":5692:5729   */\n  mstore\n    /* \"#utility.yul\":5617:5735   */\n  pop\n  pop\n  jump\t// out\n    /* \"#utility.yul\":5741:6183   */\ntag_14:\n    /* \"#utility.yul\":5890:5894   */\n  0x00\n    /* \"#utility.yul\":5928:5930   */\n  0x60\n    /* \"#utility.yul\":5917:5926   */\n  dup3\n    /* \"#utility.yul\":5913:5931   */\n  add\n    /* \"#utility.yul\":5905:5931   */\n  swap1\n  pop\n    /* \"#utility.yul\":5941:6012   */\n  tag_126\n    /* \"#utility.yul\":6009:6010   */\n  0x00\n    /* \"#utility.yul\":5998:6007   */\n  dup4\n    /* \"#utility.yul\":5994:6011   */\n  add\n    /* \"#utility.yul\":5985:5991   */\n  dup7\n    /* \"#utility.yul\":5941:6012   */\n  tag_51\n  jump\t// in\ntag_126:\n    /* \"#utility.yul\":6022:6094   */\n  tag_127\n    /* \"#utility.yul\":6090:6092   */\n  0x20\n    /* \"#utility.yul\":6079:6088   */\n  dup4\n    /* \"#utility.yul\":6075:6093   */\n  add\n    /* \"#utility.yul\":6066:6072   */\n  dup6\n    /* \"#utility.yul\":6022:6094   */\n  tag_51\n  jump\t// in\ntag_127:\n    /* \"#utility.yul\":6104:6176   */\n  tag_128\n    /* \"#utility.yul\":6172:6174   */\n  0x40\n    /* \"#utility.yul\":6161:6170   */\n  dup4\n    /* \"#utility.yul\":6157:6175   */\n  add\n    /* \"#utility.yul\":6148:6154   */\n  dup5\n    /* \"#utility.yul\":6104:6176   */\n  tag_51\n  jump\t// in\ntag_128:\n    /* \"#utility.yul\":5741:6183   */\n  swap5\n  swap4\n  pop\n  pop\n  pop\n  pop\n  jump\t// out\n    /* \"#utility.yul\":6189:6358   */\ntag_52:\n    /* \"#utility.yul\":6273:6284   */\n  0x00\n    /* \"#utility.yul\":6307:6313   */\n  dup3\n    /* \"#utility.yul\":6302:6305   */\n  dup3\n    /* \"#utility.yul\":6295:6314   */\n  mstore\n    /* \"#utility.yul\":6347:6351   */\n  0x20\n    /* \"#utility.yul\":6342:6345   */\n  dup3\n    /* \"#utility.yul\":6338:6352   */\n  add\n    /* \"#utility.yul\":6323:6352   */\n  swap1\n  pop\n    /* \"#utility.yul\":6189:6358   */\n  swap3\n  swap2\n  pop\n  pop\n  jump\t// out\n    /* \"#utility.yul\":6364:6545   */\ntag_53:\n    /* \"#utility.yul\":6504:6537   */\n  0x45524332303a206d696e7420746f20746865207a65726f206164647265737300\n    /* \"#utility.yul\":6500:6501   */\n  0x00\n    /* \"#utility.yul\":6492:6498   */\n  dup3\n    /* \"#utility.yul\":6488:6502   */\n  add\n    /* \"#utility.yul\":6481:6538   */\n  mstore\n    /* \"#utility.yul\":6364:6545   */\n  pop\n  jump\t// out\n    /* \"#utility.yul\":6551:6917   */\ntag_54:\n    /* \"#utility.yul\":6693:6696   */\n  0x00\n    /* \"#utility.yul\":6714:6781   */\n  tag_132\n    /* \"#utility.yul\":6778:6780   */\n  0x1f\n    /* \"#utility.yul\":6773:6776   */\n  dup4\n    /* \"#utility.yul\":6714:6781   */\n  tag_52\n  jump\t// in\ntag_132:\n    /* \"#utility.yul\":6707:6781   */\n  swap2\n  pop\n    /* \"#utility.yul\":6790:6883   */\n  tag_133\n    /* \"#utility.yul\":6879:6882   */\n  dup3\n    /* \"#utility.yul\":6790:6883   */\n  tag_53\n  jump\t// in\ntag_133:\n    /* \"#utility.yul\":6908:6910   */\n  0x20\n    /* \"#utility.yul\":6903:6906   */\n  dup3\n    /* \"#utility.yul\":6899:6911   */\n  add\n    /* \"#utility.yul\":6892:6911   */\n  swap1\n  pop\n    /* \"#utility.yul\":6551:6917   */\n  swap2\n  swap1\n  pop\n  jump\t// out\n    /* \"#utility.yul\":6923:7342   */\ntag_20:\n    /* \"#utility.yul\":7089:7093   */\n  0x00\n    /* \"#utility.yul\":7127:7129   */\n  0x20\n    /* \"#utility.yul\":7116:7125   */\n  dup3\n    /* \"#utility.yul\":7112:7130   */\n  add\n    /* \"#utility.yul\":7104:7130   */\n  swap1\n  pop\n    /* \"#utility.yul\":7176:7185   */\n  dup2\n    /* \"#utility.yul\":7170:7174   */\n  dup2\n    /* \"#utility.yul\":7166:7186   */\n  sub\n    /* \"#utility.yul\":7162:7163   */\n  0x00\n    /* \"#utility.yul\":7151:7160   */\n  dup4\n    /* \"#utility.yul\":7147:7164   */\n  add\n    /* \"#utility.yul\":7140:7187   */\n  mstore\n    /* \"#utility.yul\":7204:7335   */\n  tag_135\n    /* \"#utility.yul\":7330:7334   */\n  dup2\n    /* \"#utility.yul\":7204:7335   */\n  tag_54\n  jump\t// in\ntag_135:\n    /* \"#utility.yul\":7196:7335   */\n  swap1\n  pop\n    /* \"#utility.yul\":6923:7342   */\n  swap2\n  swap1\n  pop\n  jump\t// out\n    /* \"#utility.yul\":7348:7570   */\ntag_25:\n    /* \"#utility.yul\":7441:7445   */\n  0x00\n    /* \"#utility.yul\":7479:7481   */\n  0x20\n    /* \"#utility.yul\":7468:7477   */\n  dup3\n    /* \"#utility.yul\":7464:7482   */\n  add\n    /* \"#utility.yul\":7456:7482   */\n  swap1\n  pop\n    /* \"#utility.yul\":7492:7563   */\n  tag_137\n    /* \"#utility.yul\":7560:7561   */\n  0x00\n    /* \"#utility.yul\":7549:7558   */\n  dup4\n    /* \"#utility.yul\":7545:7562   */\n  add\n    /* \"#utility.yul\":7536:7542   */\n  dup5\n    /* \"#utility.yul\":7492:7563   */\n  tag_51\n  jump\t// in\ntag_137:\n    /* \"#utility.yul\":7348:7570   */\n  swap3\n  swap2\n  pop\n  pop\n  jump\t// out\n    /* \"hehe.sol\":120:4832  contract GTEsttoken is ERC20 {... */\ntag_16:\n  dataSize(sub_0)\n  dup1\n  dataOffset(sub_0)\n  0x00\n  codecopy\n  0x00\n  return\nstop\n\nsub_0: assembly {\n        /* \"hehe.sol\":120:4832  contract GTEsttoken is ERC20 {... */\n      mstore(0x40, 0x80)\n      jumpi(tag_1, lt(calldatasize, 0x04))\n      shr(0xe0, calldataload(0x00))\n      dup1\n      0x667022fd\n      gt\n      tag_30\n      jumpi\n      dup1\n      0xa0712d68\n      gt\n      tag_31\n      jumpi\n      dup1\n      0xaa8c217c\n      gt\n      tag_32\n      jumpi\n      dup1\n      0xaa8c217c\n      eq\n      tag_26\n      jumpi\n      dup1\n      0xd69b197f\n      eq\n      tag_27\n      jumpi\n      dup1\n      0xdbac26e9\n      eq\n      tag_28\n      jumpi\n      dup1\n      0xdd62ed3e\n      eq\n      tag_29\n      jumpi\n      jump(tag_1)\n    tag_32:\n      dup1\n      0xa0712d68\n      eq\n      tag_23\n      jumpi\n      dup1\n      0xa457c2d7\n      eq\n      tag_24\n      jumpi\n      dup1\n      0xa9059cbb\n      eq\n      tag_25\n      jumpi\n      jump(tag_1)\n    tag_31:\n      dup1\n      0x7ff9b596\n      gt\n      tag_33\n      jumpi\n      dup1\n      0x7ff9b596\n      eq\n      tag_19\n      jumpi\n      dup1\n      0x853828b6\n      eq\n      tag_20\n      jumpi\n      dup1\n      0x91d39155\n      eq\n      tag_21\n      jumpi\n      dup1\n      0x95d89b41\n      eq\n      tag_22\n      jumpi\n      jump(tag_1)\n    tag_33:\n      dup1\n      0x667022fd\n      eq\n      tag_16\n      jumpi\n      dup1\n      0x70a08231\n      eq\n      tag_17\n      jumpi\n      dup1\n      0x78e97925\n      eq\n      tag_18\n      jumpi\n      jump(tag_1)\n    tag_30:\n      dup1\n      0x313ce567\n      gt\n      tag_34\n      jumpi\n      dup1\n      0x3cebff9c\n      gt\n      tag_35\n      jumpi\n      dup1\n      0x3cebff9c\n      eq\n      tag_12\n      jumpi\n      dup1\n      0x404e5129\n      eq\n      tag_13\n      jumpi\n      dup1\n      0x4d1d03d1\n      eq\n      tag_14\n      jumpi\n      dup1\n      0x6643ef9f\n      eq\n      tag_15\n      jumpi\n      jump(tag_1)\n    tag_35:\n      dup1\n      0x313ce567\n      eq\n      tag_9\n      jumpi\n      dup1\n      0x3197cbb6\n      eq\n      tag_10\n      jumpi\n      dup1\n      0x39509351\n      eq\n      tag_11\n      jumpi\n      jump(tag_1)\n    tag_34:\n      dup1\n      0x18160ddd\n      gt\n      tag_36\n      jumpi\n      dup1\n      0x18160ddd\n      eq\n      tag_5\n      jumpi\n      dup1\n      0x1e83409a\n      eq\n      tag_6\n      jumpi\n      dup1\n      0x23b872dd\n      eq\n      tag_7\n      jumpi\n      dup1\n      0x2d77f07c\n      eq\n      tag_8\n      jumpi\n      jump(tag_1)\n    tag_36:\n      dup1\n      0x06fdde03\n      eq\n      tag_2\n      jumpi\n      dup1\n      0x0723fa42\n      eq\n      tag_3\n      jumpi\n      dup1\n      0x095ea7b3\n      eq\n      tag_4\n      jumpi\n    tag_1:\n      0x00\n      dup1\n      revert\n        /* \"@openzeppelin/contracts/token/ERC20/ERC20.sol\":2154:2252  function name() public view virtual override returns (string memory) {... */\n    tag_2:\n      callvalue\n      dup1\n      iszero\n      tag_37\n      jumpi\n      0x00\n      dup1\n      revert\n    tag_37:\n      pop\n      tag_38\n      tag_39\n      jump\t// in\n    tag_38:\n      mload(0x40)\n      tag_40\n      swap2\n      swap1\n      tag_41\n      jump\t// in\n    tag_40:\n      mload(0x40)\n      dup1\n      swap2\n      sub\n      swap1\n      return\n        /* \"hehe.sol\":352:392  uint256 public presalePool = 57212156000 */\n    tag_3:\n      callvalue\n      dup1\n      iszero\n      tag_42\n      jumpi\n      0x00\n      dup1\n      revert\n    tag_42:\n      pop\n      tag_43\n      tag_44\n      jump\t// in\n    tag_43:\n      mload(0x40)\n      tag_45\n      swap2\n      swap1\n      tag_46\n      jump\t// in\n    tag_45:\n      mload(0x40)\n      dup1\n      swap2\n      sub\n      swap1\n      return\n        /* \"@openzeppelin/contracts/token/ERC20/ERC20.sol\":4435:4632  function approve(address spender, uint256 amount) public virtual override returns (bool) {... */\n    tag_4:\n      callvalue\n      dup1\n      iszero\n      tag_47\n      jumpi\n      0x00\n      dup1\n      revert\n    tag_47:\n      pop\n      tag_48\n      0x04\n      dup1\n      calldatasize\n      sub\n      dup2\n      add\n      swap1\n      tag_49\n      swap2\n      swap1\n      tag_50\n      jump\t// in\n    tag_49:\n      tag_51\n      jump\t// in\n    tag_48:\n      mload(0x40)\n      tag_52\n      swap2\n      swap1\n      tag_53\n      jump\t// in\n    tag_52:\n      mload(0x40)\n      dup1\n      swap2\n      sub\n      swap1\n      return\n        /* \"@openzeppelin/contracts/token/ERC20/ERC20.sol\":3242:3348  function totalSupply() public view virtual override returns (uint256) {... */\n    tag_5:\n      callvalue\n      dup1\n      iszero\n      tag_54\n      jumpi\n      0x00\n      dup1\n      revert\n    tag_54:\n      pop\n      tag_55\n      tag_56\n      jump\t// in\n    tag_55:\n      mload(0x40)\n      tag_57\n      swap2\n      swap1\n      tag_46\n      jump\t// in\n    tag_57:\n      mload(0x40)\n      dup1\n      swap2\n      sub\n      swap1\n      return\n        /* \"hehe.sol\":1480:2136  function claim(address referral) public returns (bool success){... */\n    tag_6:\n      callvalue\n      dup1\n      iszero\n      tag_58\n      jumpi\n      0x00\n      dup1\n      revert\n    tag_58:\n      pop\n      tag_59\n      0x04\n      dup1\n      calldatasize\n      sub\n      dup2\n      add\n      swap1\n      tag_60\n      swap2\n      swap1\n      tag_61\n      jump\t// in\n    tag_60:\n      tag_62\n      jump\t// in\n    tag_59:\n      mload(0x40)\n      tag_63\n      swap2\n      swap1\n      tag_53\n      jump\t// in\n    tag_63:\n      mload(0x40)\n      dup1\n      swap2\n      sub\n      swap1\n      return\n        /* \"@openzeppelin/contracts/token/ERC20/ERC20.sol\":5194:5480  function transferFrom(... */\n    tag_7:\n      callvalue\n      dup1\n      iszero\n      tag_64\n      jumpi\n      0x00\n      dup1\n      revert\n    tag_64:\n      pop\n      tag_65\n      0x04\n      dup1\n      calldatasize\n      sub\n      dup2\n      add\n      swap1\n      tag_66\n      swap2\n      swap1\n      tag_67\n      jump\t// in\n    tag_66:\n      tag_68\n      jump\t// in\n    tag_65:\n      mload(0x40)\n      tag_69\n      swap2\n      swap1\n      tag_53\n      jump\t// in\n    tag_69:\n      mload(0x40)\n      dup1\n      swap2\n      sub\n      swap1\n      return\n        /* \"hehe.sol\":3783:4177  function recoverSigner(bytes memory _sign) public pure returns (address) {... */\n    tag_8:\n      callvalue\n      dup1\n      iszero\n      tag_70\n      jumpi\n      0x00\n      dup1\n      revert\n    tag_70:\n      pop\n      tag_71\n      0x04\n      dup1\n      calldatasize\n      sub\n      dup2\n      add\n      swap1\n      tag_72\n      swap2\n      swap1\n      tag_73\n      jump\t// in\n    tag_72:\n      tag_74\n      jump\t// in\n    tag_71:\n      mload(0x40)\n      tag_75\n      swap2\n      swap1\n      tag_76\n      jump\t// in\n    tag_75:\n      mload(0x40)\n      dup1\n      swap2\n      sub\n      swap1\n      return\n        /* \"@openzeppelin/contracts/token/ERC20/ERC20.sol\":3091:3182  function decimals() public view virtual override returns (uint8) {... */\n    tag_9:\n      callvalue\n      dup1\n      iszero\n      tag_77\n      jumpi\n      0x00\n      dup1\n      revert\n    tag_77:\n      pop\n      tag_78\n      tag_79\n      jump\t// in\n    tag_78:\n      mload(0x40)\n      tag_80\n      swap2\n      swap1\n      tag_81\n      jump\t// in\n    tag_80:\n      mload(0x40)\n      dup1\n      swap2\n      sub\n      swap1\n      return\n        /* \"hehe.sol\":188:210  uint256 public endTime */\n    tag_10:\n      callvalue\n      dup1\n      iszero\n      tag_82\n      jumpi\n      0x00\n      dup1\n      revert\n    tag_82:\n      pop\n      tag_83\n      tag_84\n      jump\t// in\n    tag_83:\n      mload(0x40)\n      tag_85\n      swap2\n      swap1\n      tag_46\n      jump\t// in\n    tag_85:\n      mload(0x40)\n      dup1\n      swap2\n      sub\n      swap1\n      return\n        /* \"@openzeppelin/contracts/token/ERC20/ERC20.sol\":5875:6109  function increaseAllowance(address spender, uint256 addedValue) public virtual returns (bool) {... */\n    tag_11:\n      callvalue\n      dup1\n      iszero\n      tag_86\n      jumpi\n      0x00\n      dup1\n      revert\n    tag_86:\n      pop\n      tag_87\n      0x04\n      dup1\n      calldatasize\n      sub\n      dup2\n      add\n      swap1\n      tag_88\n      swap2\n      swap1\n      tag_50\n      jump\t// in\n    tag_88:\n      tag_89\n      jump\t// in\n    tag_87:\n      mload(0x40)\n      tag_90\n      swap2\n      swap1\n      tag_53\n      jump\t// in\n    tag_90:\n      mload(0x40)\n      dup1\n      swap2\n      sub\n      swap1\n      return\n        /* \"hehe.sol\":305:345  uint256 public airdropPool = 85818234000 */\n    tag_12:\n      callvalue\n      dup1\n      iszero\n      tag_91\n      jumpi\n      0x00\n      dup1\n      revert\n    tag_91:\n      pop\n      tag_92\n      tag_93\n      jump\t// in\n    tag_92:\n      mload(0x40)\n      tag_94\n      swap2\n      swap1\n      tag_46\n      jump\t// in\n    tag_94:\n      mload(0x40)\n      dup1\n      swap2\n      sub\n      swap1\n      return\n        /* \"hehe.sol\":4185:4298  function blacklist(address _user, bool _banned) external onlyOwner{... */\n    tag_13:\n      callvalue\n      dup1\n      iszero\n      tag_95\n      jumpi\n      0x00\n      dup1\n      revert\n    tag_95:\n      pop\n      tag_96\n      0x04\n      dup1\n      calldatasize\n      sub\n      dup2\n      add\n      swap1\n      tag_97\n      swap2\n      swap1\n      tag_98\n      jump\t// in\n    tag_97:\n      tag_99\n      jump\t// in\n    tag_96:\n      stop\n        /* \"hehe.sol\":3285:3400  function viewSale() public view returns(uint, uint, uint){... */\n    tag_14:\n      callvalue\n      dup1\n      iszero\n      tag_100\n      jumpi\n      0x00\n      dup1\n      revert\n    tag_100:\n      pop\n      tag_101\n      tag_102\n      jump\t// in\n    tag_101:\n      mload(0x40)\n      tag_103\n      swap4\n      swap3\n      swap2\n      swap1\n      tag_104\n      jump\t// in\n    tag_103:\n      mload(0x40)\n      dup1\n      swap2\n      sub\n      swap1\n      return\n        /* \"hehe.sol\":2150:3151  function tokenSale(address referral) public payable returns (uint){... */\n    tag_15:\n      tag_105\n      0x04\n      dup1\n      calldatasize\n      sub\n      dup2\n      add\n      swap1\n      tag_106\n      swap2\n      swap1\n      tag_61\n      jump\t// in\n    tag_106:\n      tag_107\n      jump\t// in\n    tag_105:\n      mload(0x40)\n      tag_108\n      swap2\n      swap1\n      tag_46\n      jump\t// in\n    tag_108:\n      mload(0x40)\n      dup1\n      swap2\n      sub\n      swap1\n      return\n        /* \"hehe.sol\":755:793  mapping(address => uint) public bought */\n    tag_16:\n      callvalue\n      dup1\n      iszero\n      tag_109\n      jumpi\n      0x00\n      dup1\n      revert\n    tag_109:\n      pop\n      tag_110\n      0x04\n      dup1\n      calldatasize\n      sub\n      dup2\n      add\n      swap1\n      tag_111\n      swap2\n      swap1\n      tag_61\n      jump\t// in\n    tag_111:\n      tag_112\n      jump\t// in\n    tag_110:\n      mload(0x40)\n      tag_113\n      swap2\n      swap1\n      tag_46\n      jump\t// in\n    tag_113:\n      mload(0x40)\n      dup1\n      swap2\n      sub\n      swap1\n      return\n        /* \"@openzeppelin/contracts/token/ERC20/ERC20.sol\":3406:3531  function balanceOf(address account) public view virtual override returns (uint256) {... */\n    tag_17:\n      callvalue\n      dup1\n      iszero\n      tag_114\n      jumpi\n      0x00\n      dup1\n      revert\n    tag_114:\n      pop\n      tag_115\n      0x04\n      dup1\n      calldatasize\n      sub\n      dup2\n      add\n      swap1\n      tag_116\n      swap2\n      swap1\n      tag_61\n      jump\t// in\n    tag_116:\n      tag_117\n      jump\t// in\n    tag_115:\n      mload(0x40)\n      tag_118\n      swap2\n      swap1\n      tag_46\n      jump\t// in\n    tag_118:\n      mload(0x40)\n      dup1\n      swap2\n      sub\n      swap1\n      return\n        /* \"hehe.sol\":156:180  uint256 public startTime */\n    tag_18:\n      callvalue\n      dup1\n      iszero\n      tag_119\n      jumpi\n      0x00\n      dup1\n      revert\n    tag_119:\n      pop\n      tag_120\n      tag_121\n      jump\t// in\n    tag_120:\n      mload(0x40)\n      tag_122\n      swap2\n      swap1\n      tag_46\n      jump\t// in\n    tag_122:\n      mload(0x40)\n      dup1\n      swap2\n      sub\n      swap1\n      return\n        /* \"hehe.sol\":256:297  uint256 public tokenPrice = 500000000 wei */\n    tag_19:\n      callvalue\n      dup1\n      iszero\n      tag_123\n      jumpi\n      0x00\n      dup1\n      revert\n    tag_123:\n      pop\n      tag_124\n      tag_125\n      jump\t// in\n    tag_124:\n      mload(0x40)\n      tag_126\n      swap2\n      swap1\n      tag_46\n      jump\t// in\n    tag_126:\n      mload(0x40)\n      dup1\n      swap2\n      sub\n      swap1\n      return\n        /* \"hehe.sol\":4551:4727  function withdrawAll() external onlyOwner {... */\n    tag_20:\n      callvalue\n      dup1\n      iszero\n      tag_127\n      jumpi\n      0x00\n      dup1\n      revert\n    tag_127:\n      pop\n      tag_128\n      tag_129\n      jump\t// in\n    tag_128:\n      stop\n        /* \"hehe.sol\":3412:3775  function burnAll(bytes memory _sign) public {... */\n    tag_21:\n      callvalue\n      dup1\n      iszero\n      tag_130\n      jumpi\n      0x00\n      dup1\n      revert\n    tag_130:\n      pop\n      tag_131\n      0x04\n      dup1\n      calldatasize\n      sub\n      dup2\n      add\n      swap1\n      tag_132\n      swap2\n      swap1\n      tag_73\n      jump\t// in\n    tag_132:\n      tag_133\n      jump\t// in\n    tag_131:\n      stop\n        /* \"@openzeppelin/contracts/token/ERC20/ERC20.sol\":2365:2467  function symbol() public view virtual override returns (string memory) {... */\n    tag_22:\n      callvalue\n      dup1\n      iszero\n      tag_134\n      jumpi\n      0x00\n      dup1\n      revert\n    tag_134:\n      pop\n      tag_135\n      tag_136\n      jump\t// in\n    tag_135:\n      mload(0x40)\n      tag_137\n      swap2\n      swap1\n      tag_41\n      jump\t// in\n    tag_137:\n      mload(0x40)\n      dup1\n      swap2\n      sub\n      swap1\n      return\n        /* \"hehe.sol\":4735:4827  function mint(uint256 amount)external onlyOwner {... */\n    tag_23:\n      callvalue\n      dup1\n      iszero\n      tag_138\n      jumpi\n      0x00\n      dup1\n      revert\n    tag_138:\n      pop\n      tag_139\n      0x04\n      dup1\n      calldatasize\n      sub\n      dup2\n      add\n      swap1\n      tag_140\n      swap2\n      swap1\n      tag_141\n      jump\t// in\n    tag_140:\n      tag_142\n      jump\t// in\n    tag_139:\n      stop\n        /* \"@openzeppelin/contracts/token/ERC20/ERC20.sol\":6596:7023  function decreaseAllowance(address spender, uint256 subtractedValue) public virtual returns (bool) {... */\n    tag_24:\n      callvalue\n      dup1\n      iszero\n      tag_143\n      jumpi\n      0x00\n      dup1\n      revert\n    tag_143:\n      pop\n      tag_144\n      0x04\n      dup1\n      calldatasize\n      sub\n      dup2\n      add\n      swap1\n      tag_145\n      swap2\n      swap1\n      tag_50\n      jump\t// in\n    tag_145:\n      tag_146\n      jump\t// in\n    tag_144:\n      mload(0x40)\n      tag_147\n      swap2\n      swap1\n      tag_53\n      jump\t// in\n    tag_147:\n      mload(0x40)\n      dup1\n      swap2\n      sub\n      swap1\n      return\n        /* \"hehe.sol\":4306:4543  function transfer(address to, uint256 amount) public virtual override onlyOwnerCreatePool(to) returns (bool) {... */\n    tag_25:\n      callvalue\n      dup1\n      iszero\n      tag_148\n      jumpi\n      0x00\n      dup1\n      revert\n    tag_148:\n      pop\n      tag_149\n      0x04\n      dup1\n      calldatasize\n      sub\n      dup2\n      add\n      swap1\n      tag_150\n      swap2\n      swap1\n      tag_50\n      jump\t// in\n    tag_150:\n      tag_151\n      jump\t// in\n    tag_149:\n      mload(0x40)\n      tag_152\n      swap2\n      swap1\n      tag_53\n      jump\t// in\n    tag_152:\n      mload(0x40)\n      dup1\n      swap2\n      sub\n      swap1\n      return\n        /* \"hehe.sol\":218:248  uint256 public amount = 100000 */\n    tag_26:\n      callvalue\n      dup1\n      iszero\n      tag_153\n      jumpi\n      0x00\n      dup1\n      revert\n    tag_153:\n      pop\n      tag_154\n      tag_155\n      jump\t// in\n    tag_154:\n      mload(0x40)\n      tag_156\n      swap2\n      swap1\n      tag_46\n      jump\t// in\n    tag_156:\n      mload(0x40)\n      dup1\n      swap2\n      sub\n      swap1\n      return\n        /* \"hehe.sol\":3159:3277  function viewAirdrop() public view returns(uint, uint, uint){... */\n    tag_27:\n      callvalue\n      dup1\n      iszero\n      tag_157\n      jumpi\n      0x00\n      dup1\n      revert\n    tag_157:\n      pop\n      tag_158\n      tag_159\n      jump\t// in\n    tag_158:\n      mload(0x40)\n      tag_160\n      swap4\n      swap3\n      swap2\n      swap1\n      tag_104\n      jump\t// in\n    tag_160:\n      mload(0x40)\n      dup1\n      swap2\n      sub\n      swap1\n      return\n        /* \"hehe.sol\":800:844  mapping (address => bool) public blacklisted */\n    tag_28:\n      callvalue\n      dup1\n      iszero\n      tag_161\n      jumpi\n      0x00\n      dup1\n      revert\n    tag_161:\n      pop\n      tag_162\n      0x04\n      dup1\n      calldatasize\n      sub\n      dup2\n      add\n      swap1\n      tag_163\n      swap2\n      swap1\n      tag_61\n      jump\t// in\n    tag_163:\n      tag_164\n      jump\t// in\n    tag_162:\n      mload(0x40)\n      tag_165\n      swap2\n      swap1\n      tag_53\n      jump\t// in\n    tag_165:\n      mload(0x40)\n      dup1\n      swap2\n      sub\n      swap1\n      return\n        /* \"@openzeppelin/contracts/token/ERC20/ERC20.sol\":3978:4127  function allowance(address owner, address spender) public view virtual override returns (uint256) {... */\n    tag_29:\n      callvalue\n      dup1\n      iszero\n      tag_166\n      jumpi\n      0x00\n      dup1\n      revert\n    tag_166:\n      pop\n      tag_167\n      0x04\n      dup1\n      calldatasize\n      sub\n      dup2\n      add\n      swap1\n      tag_168\n      swap2\n      swap1\n      tag_169\n      jump\t// in\n    tag_168:\n      tag_170\n      jump\t// in\n    tag_167:\n      mload(0x40)\n      tag_171\n      swap2\n      swap1\n      tag_46\n      jump\t// in\n    tag_171:\n      mload(0x40)\n      dup1\n      swap2\n      sub\n      swap1\n      return\n        /* \"@openzeppelin/contracts/token/ERC20/ERC20.sol\":2154:2252  function name() public view virtual override returns (string memory) {... */\n    tag_39:\n        /* \"@openzeppelin/contracts/token/ERC20/ERC20.sol\":2208:2221  string memory */\n      0x60\n        /* \"@openzeppelin/contracts/token/ERC20/ERC20.sol\":2240:2245  _name */\n      0x03\n        /* \"@openzeppelin/contracts/token/ERC20/ERC20.sol\":2233:2245  return _name */\n      dup1\n      sload\n      tag_173\n      swap1\n      tag_174\n      jump\t// in\n    tag_173:\n      dup1\n      0x1f\n      add\n      0x20\n      dup1\n      swap2\n      div\n      mul\n      0x20\n      add\n      mload(0x40)\n      swap1\n      dup2\n      add\n      0x40\n      mstore\n      dup1\n      swap3\n      swap2\n      swap1\n      dup2\n      dup2\n      mstore\n      0x20\n      add\n      dup3\n      dup1\n      sload\n      tag_175\n      swap1\n      tag_174\n      jump\t// in\n    tag_175:\n      dup1\n      iszero\n      tag_176\n      jumpi\n      dup1\n      0x1f\n      lt\n      tag_177\n      jumpi\n      0x0100\n      dup1\n      dup4\n      sload\n      div\n      mul\n      dup4\n      mstore\n      swap2\n      0x20\n      add\n      swap2\n      jump(tag_176)\n    tag_177:\n      dup3\n      add\n      swap2\n      swap1\n      0x00\n      mstore\n      keccak256(0x00, 0x20)\n      swap1\n    tag_178:\n      dup2\n      sload\n      dup2\n      mstore\n      swap1\n      0x01\n      add\n      swap1\n      0x20\n      add\n      dup1\n      dup4\n      gt\n      tag_178\n      jumpi\n      dup3\n      swap1\n      sub\n      0x1f\n      and\n      dup3\n      add\n      swap2\n    tag_176:\n      pop\n      pop\n      pop\n      pop\n      pop\n      swap1\n      pop\n        /* \"@openzeppelin/contracts/token/ERC20/ERC20.sol\":2154:2252  function name() public view virtual override returns (string memory) {... */\n      swap1\n      jump\t// out\n        /* \"hehe.sol\":352:392  uint256 public presalePool = 57212156000 */\n    tag_44:\n      sload(0x0a)\n      dup2\n      jump\t// out\n        /* \"@openzeppelin/contracts/token/ERC20/ERC20.sol\":4435:4632  function approve(address spender, uint256 amount) public virtual override returns (bool) {... */\n    tag_51:\n        /* \"@openzeppelin/contracts/token/ERC20/ERC20.sol\":4518:4522  bool */\n      0x00\n        /* \"@openzeppelin/contracts/token/ERC20/ERC20.sol\":4534:4547  address owner */\n      dup1\n        /* \"@openzeppelin/contracts/token/ERC20/ERC20.sol\":4550:4562  _msgSender() */\n      tag_180\n        /* \"@openzeppelin/contracts/token/ERC20/ERC20.sol\":4550:4560  _msgSender */\n      tag_181\n        /* \"@openzeppelin/contracts/token/ERC20/ERC20.sol\":4550:4562  _msgSender() */\n      jump\t// in\n    tag_180:\n        /* \"@openzeppelin/contracts/token/ERC20/ERC20.sol\":4534:4562  address owner = _msgSender() */\n      swap1\n      pop\n        /* \"@openzeppelin/contracts/token/ERC20/ERC20.sol\":4572:4604  _approve(owner, spender, amount) */\n      tag_182\n        /* \"@openzeppelin/contracts/token/ERC20/ERC20.sol\":4581:4586  owner */\n      dup2\n        /* \"@openzeppelin/contracts/token/ERC20/ERC20.sol\":4588:4595  spender */\n      dup6\n        /* \"@openzeppelin/contracts/token/ERC20/ERC20.sol\":4597:4603  amount */\n      dup6\n        /* \"@openzeppelin/contracts/token/ERC20/ERC20.sol\":4572:4580  _approve */\n      tag_183\n        /* \"@openzeppelin/contracts/token/ERC20/ERC20.sol\":4572:4604  _approve(owner, spender, amount) */\n      jump\t// in\n    tag_182:\n        /* \"@openzeppelin/contracts/token/ERC20/ERC20.sol\":4621:4625  true */\n      0x01\n        /* \"@openzeppelin/contracts/token/ERC20/ERC20.sol\":4614:4625  return true */\n      swap2\n      pop\n      pop\n        /* \"@openzeppelin/contracts/token/ERC20/ERC20.sol\":4435:4632  function approve(address spender, uint256 amount) public virtual override returns (bool) {... */\n      swap3\n      swap2\n      pop\n      pop\n      jump\t// out\n        /* \"@openzeppelin/contracts/token/ERC20/ERC20.sol\":3242:3348  function totalSupply() public view virtual override returns (uint256) {... */\n    tag_56:\n        /* \"@openzeppelin/contracts/token/ERC20/ERC20.sol\":3303:3310  uint256 */\n      0x00\n        /* \"@openzeppelin/contracts/token/ERC20/ERC20.sol\":3329:3341  _totalSupply */\n      sload(0x02)\n        /* \"@openzeppelin/contracts/token/ERC20/ERC20.sol\":3322:3341  return _totalSupply */\n      swap1\n      pop\n        /* \"@openzeppelin/contracts/token/ERC20/ERC20.sol\":3242:3348  function totalSupply() public view virtual override returns (uint256) {... */\n      swap1\n      jump\t// out\n        /* \"hehe.sol\":1480:2136  function claim(address referral) public returns (bool success){... */\n    tag_62:\n        /* \"hehe.sol\":1529:1541  bool success */\n      0x00\n        /* \"hehe.sol\":1576:1582  amount */\n      sload(0x07)\n        /* \"hehe.sol\":1561:1572  airdropPool */\n      sload(0x09)\n        /* \"hehe.sol\":1561:1582  airdropPool >= amount */\n      lt\n      iszero\n        /* \"hehe.sol\":1553:1595  require(airdropPool >= amount, \"NOTOKENS\") */\n      tag_186\n      jumpi\n      mload(0x40)\n      0x08c379a000000000000000000000000000000000000000000000000000000000\n      dup2\n      mstore\n      0x04\n      add\n      tag_187\n      swap1\n      tag_188\n      jump\t// in\n    tag_187:\n      mload(0x40)\n      dup1\n      swap2\n      sub\n      swap1\n      revert\n    tag_186:\n        /* \"hehe.sol\":1627:1642  block.timestamp */\n      timestamp\n        /* \"hehe.sol\":1614:1623  startTime */\n      sload(0x05)\n        /* \"hehe.sol\":1614:1642  startTime <= block.timestamp */\n      gt\n      iszero\n        /* \"hehe.sol\":1614:1672  startTime <= block.timestamp && block.timestamp <= endTime */\n      dup1\n      iszero\n      tag_189\n      jumpi\n      pop\n        /* \"hehe.sol\":1665:1672  endTime */\n      sload(0x06)\n        /* \"hehe.sol\":1646:1661  block.timestamp */\n      timestamp\n        /* \"hehe.sol\":1646:1672  block.timestamp <= endTime */\n      gt\n      iszero\n        /* \"hehe.sol\":1614:1672  startTime <= block.timestamp && block.timestamp <= endTime */\n    tag_189:\n        /* \"hehe.sol\":1606:1687  require(startTime <= block.timestamp && block.timestamp <= endTime, \"TIMEISOVER\") */\n      tag_190\n      jumpi\n      mload(0x40)\n      0x08c379a000000000000000000000000000000000000000000000000000000000\n      dup2\n      mstore\n      0x04\n      add\n      tag_191\n      swap1\n      tag_192\n      jump\t// in\n    tag_191:\n      mload(0x40)\n      dup1\n      swap2\n      sub\n      swap1\n      revert\n    tag_190:\n        /* \"hehe.sol\":1707:1714  claimed */\n      0x0c\n        /* \"hehe.sol\":1707:1726  claimed[msg.sender] */\n      0x00\n        /* \"hehe.sol\":1715:1725  msg.sender */\n      caller\n        /* \"hehe.sol\":1707:1726  claimed[msg.sender] */\n      0xffffffffffffffffffffffffffffffffffffffff\n      and\n      0xffffffffffffffffffffffffffffffffffffffff\n      and\n      dup2\n      mstore\n      0x20\n      add\n      swap1\n      dup2\n      mstore\n      0x20\n      add\n      0x00\n      keccak256\n      0x00\n      swap1\n      sload\n      swap1\n      0x0100\n      exp\n      swap1\n      div\n      0xff\n      and\n        /* \"hehe.sol\":1706:1726  !claimed[msg.sender] */\n      iszero\n        /* \"hehe.sol\":1698:1740  require(!claimed[msg.sender], 'CLAIMONCE') */\n      tag_193\n      jumpi\n      mload(0x40)\n      0x08c379a000000000000000000000000000000000000000000000000000000000\n      dup2\n      mstore\n      0x04\n      add\n      tag_194\n      swap1\n      tag_195\n      jump\t// in\n    tag_194:\n      mload(0x40)\n      dup1\n      swap2\n      sub\n      swap1\n      revert\n    tag_193:\n        /* \"hehe.sol\":1770:1778  referral */\n      dup2\n        /* \"hehe.sol\":1756:1778  msg.sender != referral */\n      0xffffffffffffffffffffffffffffffffffffffff\n      and\n        /* \"hehe.sol\":1756:1766  msg.sender */\n      caller\n        /* \"hehe.sol\":1756:1778  msg.sender != referral */\n      0xffffffffffffffffffffffffffffffffffffffff\n      and\n      eq\n      iszero\n        /* \"hehe.sol\":1756:1806  msg.sender != referral && balanceOf(referral) != 0 */\n      dup1\n      iszero\n      tag_196\n      jumpi\n      pop\n        /* \"hehe.sol\":1805:1806  0 */\n      0x00\n        /* \"hehe.sol\":1782:1801  balanceOf(referral) */\n      tag_197\n        /* \"hehe.sol\":1792:1800  referral */\n      dup4\n        /* \"hehe.sol\":1782:1791  balanceOf */\n      tag_117\n        /* \"hehe.sol\":1782:1801  balanceOf(referral) */\n      jump\t// in\n    tag_197:\n        /* \"hehe.sol\":1782:1806  balanceOf(referral) != 0 */\n      eq\n      iszero\n        /* \"hehe.sol\":1756:1806  msg.sender != referral && balanceOf(referral) != 0 */\n    tag_196:\n        /* \"hehe.sol\":1756:1832  msg.sender != referral && balanceOf(referral) != 0 && referral != address(0) */\n      dup1\n      iszero\n      tag_198\n      jumpi\n      pop\n        /* \"hehe.sol\":1830:1831  0 */\n      0x00\n        /* \"hehe.sol\":1810:1832  referral != address(0) */\n      0xffffffffffffffffffffffffffffffffffffffff\n      and\n        /* \"hehe.sol\":1810:1818  referral */\n      dup3\n        /* \"hehe.sol\":1810:1832  referral != address(0) */\n      0xffffffffffffffffffffffffffffffffffffffff\n      and\n      eq\n      iszero\n        /* \"hehe.sol\":1756:1832  msg.sender != referral && balanceOf(referral) != 0 && referral != address(0) */\n    tag_198:\n        /* \"hehe.sol\":1753:1953  if(msg.sender != referral && balanceOf(referral) != 0 && referral != address(0)){... */\n      iszero\n      tag_199\n      jumpi\n        /* \"hehe.sol\":1848:1890  _transfer(address(this), referral, amount) */\n      tag_200\n        /* \"hehe.sol\":1866:1870  this */\n      address\n        /* \"hehe.sol\":1873:1881  referral */\n      dup4\n        /* \"hehe.sol\":1883:1889  amount */\n      sload(0x07)\n        /* \"hehe.sol\":1848:1857  _transfer */\n      tag_201\n        /* \"hehe.sol\":1848:1890  _transfer(address(this), referral, amount) */\n      jump\t// in\n    tag_200:\n        /* \"hehe.sol\":1935:1941  amount */\n      sload(0x07)\n        /* \"hehe.sol\":1921:1932  airdropPool */\n      sload(0x09)\n        /* \"hehe.sol\":1921:1941  airdropPool - amount */\n      tag_202\n      swap2\n      swap1\n      tag_203\n      jump\t// in\n    tag_202:\n        /* \"hehe.sol\":1907:1918  airdropPool */\n      0x09\n        /* \"hehe.sol\":1907:1941  airdropPool = airdropPool - amount */\n      dup2\n      swap1\n      sstore\n      pop\n        /* \"hehe.sol\":1753:1953  if(msg.sender != referral && balanceOf(referral) != 0 && referral != address(0)){... */\n    tag_199:\n        /* \"hehe.sol\":1964:2008  _transfer(address(this), msg.sender, amount) */\n      tag_204\n        /* \"hehe.sol\":1982:1986  this */\n      address\n        /* \"hehe.sol\":1989:1999  msg.sender */\n      caller\n        /* \"hehe.sol\":2001:2007  amount */\n      sload(0x07)\n        /* \"hehe.sol\":1964:1973  _transfer */\n      tag_201\n        /* \"hehe.sol\":1964:2008  _transfer(address(this), msg.sender, amount) */\n      jump\t// in\n    tag_204:\n        /* \"hehe.sol\":2049:2055  amount */\n      sload(0x07)\n        /* \"hehe.sol\":2035:2046  airdropPool */\n      sload(0x09)\n        /* \"hehe.sol\":2035:2055  airdropPool - amount */\n      tag_205\n      swap2\n      swap1\n      tag_203\n      jump\t// in\n    tag_205:\n        /* \"hehe.sol\":2021:2032  airdropPool */\n      0x09\n        /* \"hehe.sol\":2021:2055  airdropPool = airdropPool - amount */\n      dup2\n      swap1\n      sstore\n      pop\n        /* \"hehe.sol\":2090:2094  true */\n      0x01\n        /* \"hehe.sol\":2068:2075  claimed */\n      0x0c\n        /* \"hehe.sol\":2068:2087  claimed[msg.sender] */\n      0x00\n        /* \"hehe.sol\":2076:2086  msg.sender */\n      caller\n        /* \"hehe.sol\":2068:2087  claimed[msg.sender] */\n      0xffffffffffffffffffffffffffffffffffffffff\n      and\n      0xffffffffffffffffffffffffffffffffffffffff\n      and\n      dup2\n      mstore\n      0x20\n      add\n      swap1\n      dup2\n      mstore\n      0x20\n      add\n      0x00\n      keccak256\n      0x00\n        /* \"hehe.sol\":2068:2094  claimed[msg.sender] = true */\n      0x0100\n      exp\n      dup2\n      sload\n      dup2\n      0xff\n      mul\n      not\n      and\n      swap1\n      dup4\n      iszero\n      iszero\n      mul\n      or\n      swap1\n      sstore\n      pop\n        /* \"hehe.sol\":2112:2116  true */\n      0x01\n        /* \"hehe.sol\":2105:2116  return true */\n      swap1\n      pop\n        /* \"hehe.sol\":1480:2136  function claim(address referral) public returns (bool success){... */\n      swap2\n      swap1\n      pop\n      jump\t// out\n        /* \"@openzeppelin/contracts/token/ERC20/ERC20.sol\":5194:5480  function transferFrom(... */\n    tag_68:\n        /* \"@openzeppelin/contracts/token/ERC20/ERC20.sol\":5321:5325  bool */\n      0x00\n        /* \"@openzeppelin/contracts/token/ERC20/ERC20.sol\":5337:5352  address spender */\n      dup1\n        /* \"@openzeppelin/contracts/token/ERC20/ERC20.sol\":5355:5367  _msgSender() */\n      tag_207\n        /* \"@openzeppelin/contracts/token/ERC20/ERC20.sol\":5355:5365  _msgSender */\n      tag_181\n        /* \"@openzeppelin/contracts/token/ERC20/ERC20.sol\":5355:5367  _msgSender() */\n      jump\t// in\n    tag_207:\n        /* \"@openzeppelin/contracts/token/ERC20/ERC20.sol\":5337:5367  address spender = _msgSender() */\n      swap1\n      pop\n        /* \"@openzeppelin/contracts/token/ERC20/ERC20.sol\":5377:5415  _spendAllowance(from, spender, amount) */\n      tag_208\n        /* \"@openzeppelin/contracts/token/ERC20/ERC20.sol\":5393:5397  from */\n      dup6\n        /* \"@openzeppelin/contracts/token/ERC20/ERC20.sol\":5399:5406  spender */\n      dup3\n        /* \"@openzeppelin/contracts/token/ERC20/ERC20.sol\":5408:5414  amount */\n      dup6\n        /* \"@openzeppelin/contracts/token/ERC20/ERC20.sol\":5377:5392  _spendAllowance */\n      tag_209\n        /* \"@openzeppelin/contracts/token/ERC20/ERC20.sol\":5377:5415  _spendAllowance(from, spender, amount) */\n      jump\t// in\n    tag_208:\n        /* \"@openzeppelin/contracts/token/ERC20/ERC20.sol\":5425:5452  _transfer(from, to, amount) */\n      tag_210\n        /* \"@openzeppelin/contracts/token/ERC20/ERC20.sol\":5435:5439  from */\n      dup6\n        /* \"@openzeppelin/contracts/token/ERC20/ERC20.sol\":5441:5443  to */\n      dup6\n        /* \"@openzeppelin/contracts/token/ERC20/ERC20.sol\":5445:5451  amount */\n      dup6\n        /* \"@openzeppelin/contracts/token/ERC20/ERC20.sol\":5425:5434  _transfer */\n      tag_201\n        /* \"@openzeppelin/contracts/token/ERC20/ERC20.sol\":5425:5452  _transfer(from, to, amount) */\n      jump\t// in\n    tag_210:\n        /* \"@openzeppelin/contracts/token/ERC20/ERC20.sol\":5469:5473  true */\n      0x01\n        /* \"@openzeppelin/contracts/token/ERC20/ERC20.sol\":5462:5473  return true */\n      swap2\n      pop\n      pop\n        /* \"@openzeppelin/contracts/token/ERC20/ERC20.sol\":5194:5480  function transferFrom(... */\n      swap4\n      swap3\n      pop\n      pop\n      pop\n      jump\t// out\n        /* \"hehe.sol\":3783:4177  function recoverSigner(bytes memory _sign) public pure returns (address) {... */\n    tag_74:\n        /* \"hehe.sol\":3847:3854  address */\n      0x00\n        /* \"hehe.sol\":3867:3886  bytes32 messageHash */\n      dup1\n        /* \"hehe.sol\":3899:3915  bytes(\"burnAll\") */\n      mload(0x40)\n      dup1\n      0x40\n      add\n      0x40\n      mstore\n      dup1\n      0x07\n      dup2\n      mstore\n      0x20\n      add\n      0x6275726e416c6c00000000000000000000000000000000000000000000000000\n      dup2\n      mstore\n      pop\n        /* \"hehe.sol\":3889:3916  keccak256(bytes(\"burnAll\")) */\n      dup1\n      mload\n      swap1\n      0x20\n      add\n      keccak256\n        /* \"hehe.sol\":3867:3916  bytes32 messageHash = keccak256(bytes(\"burnAll\")) */\n      swap1\n      pop\n        /* \"hehe.sol\":3927:3947  bytes32 prefixedHash */\n      0x00\n        /* \"hehe.sol\":4013:4024  messageHash */\n      dup2\n        /* \"hehe.sol\":3960:4025  abi.encodePacked(\"\\x19Ethereum Signed Message:\\n32\", messageHash) */\n      add(0x20, mload(0x40))\n      tag_212\n      swap2\n      swap1\n      tag_213\n      jump\t// in\n    tag_212:\n      mload(0x40)\n      0x20\n      dup2\n      dup4\n      sub\n      sub\n      dup2\n      mstore\n      swap1\n      0x40\n      mstore\n        /* \"hehe.sol\":3950:4026  keccak256(abi.encodePacked(\"\\x19Ethereum Signed Message:\\n32\", messageHash)) */\n      dup1\n      mload\n      swap1\n      0x20\n      add\n      keccak256\n        /* \"hehe.sol\":3927:4026  bytes32 prefixedHash = keccak256(abi.encodePacked(\"\\x19Ethereum Signed Message:\\n32\", messageHash)) */\n      swap1\n      pop\n        /* \"hehe.sol\":4040:4049  bytes32 r */\n      0x00\n        /* \"hehe.sol\":4051:4060  bytes32 s */\n      dup1\n        /* \"hehe.sol\":4062:4069  uint8 v */\n      0x00\n        /* \"hehe.sol\":4084:4089  _sign */\n      dup7\n        /* \"hehe.sol\":4073:4117  abi.decode(_sign, (bytes32, bytes32, uint8)) */\n      dup1\n      0x20\n      add\n      swap1\n      mload\n      dup2\n      add\n      swap1\n      tag_214\n      swap2\n      swap1\n      tag_215\n      jump\t// in\n    tag_214:\n        /* \"hehe.sol\":4039:4117  (bytes32 r, bytes32 s, uint8 v) = abi.decode(_sign, (bytes32, bytes32, uint8)) */\n      swap3\n      pop\n      swap3\n      pop\n      swap3\n      pop\n        /* \"hehe.sol\":4137:4169  ecrecover(prefixedHash, v, r, s) */\n      0x01\n        /* \"hehe.sol\":4147:4159  prefixedHash */\n      dup5\n        /* \"hehe.sol\":4161:4162  v */\n      dup3\n        /* \"hehe.sol\":4164:4165  r */\n      dup6\n        /* \"hehe.sol\":4167:4168  s */\n      dup6\n        /* \"hehe.sol\":4137:4169  ecrecover(prefixedHash, v, r, s) */\n      mload(0x40)\n      0x00\n      dup2\n      mstore\n      0x20\n      add\n      0x40\n      mstore\n      mload(0x40)\n      tag_216\n      swap5\n      swap4\n      swap3\n      swap2\n      swap1\n      tag_217\n      jump\t// in\n    tag_216:\n      0x20\n      mload(0x40)\n      0x20\n      dup2\n      sub\n      swap1\n      dup1\n      dup5\n      sub\n      swap1\n      dup6\n      gas\n      staticcall\n      iszero\n      dup1\n      iszero\n      tag_219\n      jumpi\n      returndatasize\n      0x00\n      dup1\n      returndatacopy\n      revert(0x00, returndatasize)\n    tag_219:\n      pop\n      pop\n      pop\n      mload(sub(mload(0x40), 0x20))\n        /* \"hehe.sol\":4130:4169  return ecrecover(prefixedHash, v, r, s) */\n      swap6\n      pop\n      pop\n      pop\n      pop\n      pop\n      pop\n        /* \"hehe.sol\":3783:4177  function recoverSigner(bytes memory _sign) public pure returns (address) {... */\n      swap2\n      swap1\n      pop\n      jump\t// out\n        /* \"@openzeppelin/contracts/token/ERC20/ERC20.sol\":3091:3182  function decimals() public view virtual override returns (uint8) {... */\n    tag_79:\n        /* \"@openzeppelin/contracts/token/ERC20/ERC20.sol\":3149:3154  uint8 */\n      0x00\n        /* \"@openzeppelin/contracts/token/ERC20/ERC20.sol\":3173:3175  18 */\n      0x12\n        /* \"@openzeppelin/contracts/token/ERC20/ERC20.sol\":3166:3175  return 18 */\n      swap1\n      pop\n        /* \"@openzeppelin/contracts/token/ERC20/ERC20.sol\":3091:3182  function decimals() public view virtual override returns (uint8) {... */\n      swap1\n      jump\t// out\n        /* \"hehe.sol\":188:210  uint256 public endTime */\n    tag_84:\n      sload(0x06)\n      dup2\n      jump\t// out\n        /* \"@openzeppelin/contracts/token/ERC20/ERC20.sol\":5875:6109  function increaseAllowance(address spender, uint256 addedValue) public virtual returns (bool) {... */\n    tag_89:\n        /* \"@openzeppelin/contracts/token/ERC20/ERC20.sol\":5963:5967  bool */\n      0x00\n        /* \"@openzeppelin/contracts/token/ERC20/ERC20.sol\":5979:5992  address owner */\n      dup1\n        /* \"@openzeppelin/contracts/token/ERC20/ERC20.sol\":5995:6007  _msgSender() */\n      tag_222\n        /* \"@openzeppelin/contracts/token/ERC20/ERC20.sol\":5995:6005  _msgSender */\n      tag_181\n        /* \"@openzeppelin/contracts/token/ERC20/ERC20.sol\":5995:6007  _msgSender() */\n      jump\t// in\n    tag_222:\n        /* \"@openzeppelin/contracts/token/ERC20/ERC20.sol\":5979:6007  address owner = _msgSender() */\n      swap1\n      pop\n        /* \"@openzeppelin/contracts/token/ERC20/ERC20.sol\":6017:6081  _approve(owner, spender, allowance(owner, spender) + addedValue) */\n      tag_223\n        /* \"@openzeppelin/contracts/token/ERC20/ERC20.sol\":6026:6031  owner */\n      dup2\n        /* \"@openzeppelin/contracts/token/ERC20/ERC20.sol\":6033:6040  spender */\n      dup6\n        /* \"@openzeppelin/contracts/token/ERC20/ERC20.sol\":6070:6080  addedValue */\n      dup6\n        /* \"@openzeppelin/contracts/token/ERC20/ERC20.sol\":6042:6067  allowance(owner, spender) */\n      tag_224\n        /* \"@openzeppelin/contracts/token/ERC20/ERC20.sol\":6052:6057  owner */\n      dup6\n        /* \"@openzeppelin/contracts/token/ERC20/ERC20.sol\":6059:6066  spender */\n      dup10\n        /* \"@openzeppelin/contracts/token/ERC20/ERC20.sol\":6042:6051  allowance */\n      tag_170\n        /* \"@openzeppelin/contracts/token/ERC20/ERC20.sol\":6042:6067  allowance(owner, spender) */\n      jump\t// in\n    tag_224:\n        /* \"@openzeppelin/contracts/token/ERC20/ERC20.sol\":6042:6080  allowance(owner, spender) + addedValue */\n      tag_225\n      swap2\n      swap1\n      tag_226\n      jump\t// in\n    tag_225:\n        /* \"@openzeppelin/contracts/token/ERC20/ERC20.sol\":6017:6025  _approve */\n      tag_183\n        /* \"@openzeppelin/contracts/token/ERC20/ERC20.sol\":6017:6081  _approve(owner, spender, allowance(owner, spender) + addedValue) */\n      jump\t// in\n    tag_223:\n        /* \"@openzeppelin/contracts/token/ERC20/ERC20.sol\":6098:6102  true */\n      0x01\n        /* \"@openzeppelin/contracts/token/ERC20/ERC20.sol\":6091:6102  return true */\n      swap2\n      pop\n      pop\n        /* \"@openzeppelin/contracts/token/ERC20/ERC20.sol\":5875:6109  function increaseAllowance(address spender, uint256 addedValue) public virtual returns (bool) {... */\n      swap3\n      swap2\n      pop\n      pop\n      jump\t// out\n        /* \"hehe.sol\":305:345  uint256 public airdropPool = 85818234000 */\n    tag_93:\n      sload(0x09)\n      dup2\n      jump\t// out\n        /* \"hehe.sol\":4185:4298  function blacklist(address _user, bool _banned) external onlyOwner{... */\n    tag_99:\n        /* \"hehe.sol\":907:913  owner1 */\n      0x0b\n      0x00\n      swap1\n      sload\n      swap1\n      0x0100\n      exp\n      swap1\n      div\n      0xffffffffffffffffffffffffffffffffffffffff\n      and\n        /* \"hehe.sol\":893:913  msg.sender == owner1 */\n      0xffffffffffffffffffffffffffffffffffffffff\n      and\n        /* \"hehe.sol\":893:903  msg.sender */\n      caller\n        /* \"hehe.sol\":893:913  msg.sender == owner1 */\n      0xffffffffffffffffffffffffffffffffffffffff\n      and\n      eq\n        /* \"hehe.sol\":885:927  require(msg.sender == owner1, \"ONLYOWNER\") */\n      tag_228\n      jumpi\n      mload(0x40)\n      0x08c379a000000000000000000000000000000000000000000000000000000000\n      dup2\n      mstore\n      0x04\n      add\n      tag_229\n      swap1\n      tag_230\n      jump\t// in\n    tag_229:\n      mload(0x40)\n      dup1\n      swap2\n      sub\n      swap1\n      revert\n    tag_228:\n        /* \"hehe.sol\":4283:4290  _banned */\n      dup1\n        /* \"hehe.sol\":4262:4273  blacklisted */\n      0x0e\n        /* \"hehe.sol\":4262:4280  blacklisted[_user] */\n      0x00\n        /* \"hehe.sol\":4274:4279  _user */\n      dup5\n        /* \"hehe.sol\":4262:4280  blacklisted[_user] */\n      0xffffffffffffffffffffffffffffffffffffffff\n      and\n      0xffffffffffffffffffffffffffffffffffffffff\n      and\n      dup2\n      mstore\n      0x20\n      add\n      swap1\n      dup2\n      mstore\n      0x20\n      add\n      0x00\n      keccak256\n      0x00\n        /* \"hehe.sol\":4262:4290  blacklisted[_user] = _banned */\n      0x0100\n      exp\n      dup2\n      sload\n      dup2\n      0xff\n      mul\n      not\n      and\n      swap1\n      dup4\n      iszero\n      iszero\n      mul\n      or\n      swap1\n      sstore\n      pop\n        /* \"hehe.sol\":4185:4298  function blacklist(address _user, bool _banned) external onlyOwner{... */\n      pop\n      pop\n      jump\t// out\n        /* \"hehe.sol\":3285:3400  function viewSale() public view returns(uint, uint, uint){... */\n    tag_102:\n        /* \"hehe.sol\":3325:3329  uint */\n      0x00\n        /* \"hehe.sol\":3331:3335  uint */\n      dup1\n        /* \"hehe.sol\":3337:3341  uint */\n      0x00\n        /* \"hehe.sol\":3360:3369  startTime */\n      sload(0x05)\n        /* \"hehe.sol\":3371:3378  endTime */\n      sload(0x06)\n        /* \"hehe.sol\":3380:3391  presalePool */\n      sload(0x0a)\n        /* \"hehe.sol\":3353:3392  return(startTime, endTime, presalePool) */\n      swap3\n      pop\n      swap3\n      pop\n      swap3\n      pop\n        /* \"hehe.sol\":3285:3400  function viewSale() public view returns(uint, uint, uint){... */\n      swap1\n      swap2\n      swap3\n      jump\t// out\n        /* \"hehe.sol\":2150:3151  function tokenSale(address referral) public payable returns (uint){... */\n    tag_107:\n        /* \"hehe.sol\":2211:2215  uint */\n      0x00\n        /* \"hehe.sol\":2257:2264  1 ether */\n      0x0de0b6b3a7640000\n        /* \"hehe.sol\":2235:2241  bought */\n      0x0d\n        /* \"hehe.sol\":2235:2253  bought[msg.sender] */\n      0x00\n        /* \"hehe.sol\":2242:2252  msg.sender */\n      caller\n        /* \"hehe.sol\":2235:2253  bought[msg.sender] */\n      0xffffffffffffffffffffffffffffffffffffffff\n      and\n      0xffffffffffffffffffffffffffffffffffffffff\n      and\n      dup2\n      mstore\n      0x20\n      add\n      swap1\n      dup2\n      mstore\n      0x20\n      add\n      0x00\n      keccak256\n      sload\n        /* \"hehe.sol\":2235:2264  bought[msg.sender] <= 1 ether */\n      gt\n      iszero\n        /* \"hehe.sol\":2227:2277  require(bought[msg.sender] <= 1 ether, \"MAXLIMIT\") */\n      tag_234\n      jumpi\n      mload(0x40)\n      0x08c379a000000000000000000000000000000000000000000000000000000000\n      dup2\n      mstore\n      0x04\n      add\n      tag_235\n      swap1\n      tag_236\n      jump\t// in\n    tag_235:\n      mload(0x40)\n      dup1\n      swap2\n      sub\n      swap1\n      revert\n    tag_234:\n        /* \"hehe.sol\":2309:2320  0.005 ether */\n      0x11c37937e08000\n        /* \"hehe.sol\":2296:2305  msg.value */\n      callvalue\n        /* \"hehe.sol\":2296:2320  msg.value >= 0.005 ether */\n      lt\n      iszero\n        /* \"hehe.sol\":2288:2333  require(msg.value >= 0.005 ether, \"MINPRICE\") */\n      tag_237\n      jumpi\n      mload(0x40)\n      0x08c379a000000000000000000000000000000000000000000000000000000000\n      dup2\n      mstore\n      0x04\n      add\n      tag_238\n      swap1\n      tag_239\n      jump\t// in\n    tag_238:\n      mload(0x40)\n      dup1\n      swap2\n      sub\n      swap1\n      revert\n    tag_237:\n        /* \"hehe.sol\":2365:2380  block.timestamp */\n      timestamp\n        /* \"hehe.sol\":2352:2361  startTime */\n      sload(0x05)\n        /* \"hehe.sol\":2352:2380  startTime <= block.timestamp */\n      gt\n      iszero\n        /* \"hehe.sol\":2352:2410  startTime <= block.timestamp && block.timestamp <= endTime */\n      dup1\n      iszero\n      tag_240\n      jumpi\n      pop\n        /* \"hehe.sol\":2403:2410  endTime */\n      sload(0x06)\n        /* \"hehe.sol\":2384:2399  block.timestamp */\n      timestamp\n        /* \"hehe.sol\":2384:2410  block.timestamp <= endTime */\n      gt\n      iszero\n        /* \"hehe.sol\":2352:2410  startTime <= block.timestamp && block.timestamp <= endTime */\n    tag_240:\n        /* \"hehe.sol\":2344:2425  require(startTime <= block.timestamp && block.timestamp <= endTime, \"TIMEISOVER\") */\n      tag_241\n      jumpi\n      mload(0x40)\n      0x08c379a000000000000000000000000000000000000000000000000000000000\n      dup2\n      mstore\n      0x04\n      add\n      tag_242\n      swap1\n      tag_192\n      jump\t// in\n    tag_242:\n      mload(0x40)\n      dup1\n      swap2\n      sub\n      swap1\n      revert\n    tag_241:\n        /* \"hehe.sol\":2478:2485  1 ether */\n      0x0de0b6b3a7640000\n        /* \"hehe.sol\":2465:2474  msg.value */\n      callvalue\n        /* \"hehe.sol\":2444:2450  bought */\n      0x0d\n        /* \"hehe.sol\":2444:2462  bought[msg.sender] */\n      0x00\n        /* \"hehe.sol\":2451:2461  msg.sender */\n      caller\n        /* \"hehe.sol\":2444:2462  bought[msg.sender] */\n      0xffffffffffffffffffffffffffffffffffffffff\n      and\n      0xffffffffffffffffffffffffffffffffffffffff\n      and\n      dup2\n      mstore\n      0x20\n      add\n      swap1\n      dup2\n      mstore\n      0x20\n      add\n      0x00\n      keccak256\n      sload\n        /* \"hehe.sol\":2444:2474  bought[msg.sender] + msg.value */\n      tag_243\n      swap2\n      swap1\n      tag_226\n      jump\t// in\n    tag_243:\n        /* \"hehe.sol\":2444:2485  bought[msg.sender] + msg.value <= 1 ether */\n      gt\n      iszero\n        /* \"hehe.sol\":2436:2500  require(bought[msg.sender] + msg.value <= 1 ether, \"UPPERBOUND\") */\n      tag_244\n      jumpi\n      mload(0x40)\n      0x08c379a000000000000000000000000000000000000000000000000000000000\n      dup2\n      mstore\n      0x04\n      add\n      tag_245\n      swap1\n      tag_246\n      jump\t// in\n    tag_245:\n      mload(0x40)\n      dup1\n      swap2\n      sub\n      swap1\n      revert\n    tag_244:\n        /* \"hehe.sol\":2513:2525  uint256 _eth */\n      0x00\n        /* \"hehe.sol\":2528:2537  msg.value */\n      callvalue\n        /* \"hehe.sol\":2513:2537  uint256 _eth = msg.value */\n      swap1\n      pop\n        /* \"hehe.sol\":2548:2562  uint256 tokens */\n      0x00\n        /* \"hehe.sol\":2573:2590  uint256 tokensRef */\n      dup1\n        /* \"hehe.sol\":2619:2629  tokenPrice */\n      sload(0x08)\n        /* \"hehe.sol\":2612:2616  _eth */\n      dup4\n        /* \"hehe.sol\":2612:2629  _eth / tokenPrice */\n      tag_247\n      swap2\n      swap1\n      tag_248\n      jump\t// in\n    tag_247:\n        /* \"hehe.sol\":2603:2629  tokens = _eth / tokenPrice */\n      swap2\n      pop\n        /* \"hehe.sol\":2680:2682  10 */\n      0x0a\n        /* \"hehe.sol\":2674:2677  100 */\n      0x64\n        /* \"hehe.sol\":2660:2670  tokenPrice */\n      sload(0x08)\n        /* \"hehe.sol\":2653:2657  _eth */\n      dup6\n        /* \"hehe.sol\":2653:2670  _eth / tokenPrice */\n      tag_249\n      swap2\n      swap1\n      tag_248\n      jump\t// in\n    tag_249:\n        /* \"hehe.sol\":2652:2677  (_eth / tokenPrice) / 100 */\n      tag_250\n      swap2\n      swap1\n      tag_248\n      jump\t// in\n    tag_250:\n        /* \"hehe.sol\":2652:2682  (_eth / tokenPrice) / 100 * 10 */\n      tag_251\n      swap2\n      swap1\n      tag_252\n      jump\t// in\n    tag_251:\n        /* \"hehe.sol\":2640:2682  tokensRef = (_eth / tokenPrice) / 100 * 10 */\n      swap1\n      pop\n        /* \"hehe.sol\":2735:2744  tokensRef */\n      dup1\n        /* \"hehe.sol\":2726:2732  tokens */\n      dup3\n        /* \"hehe.sol\":2726:2744  tokens + tokensRef */\n      tag_253\n      swap2\n      swap1\n      tag_226\n      jump\t// in\n    tag_253:\n        /* \"hehe.sol\":2711:2722  presalePool */\n      sload(0x0a)\n        /* \"hehe.sol\":2711:2744  presalePool >= tokens + tokensRef */\n      lt\n      iszero\n        /* \"hehe.sol\":2703:2745  require(presalePool >= tokens + tokensRef) */\n      tag_254\n      jumpi\n      0x00\n      dup1\n      revert\n    tag_254:\n        /* \"hehe.sol\":2783:2791  referral */\n      dup5\n        /* \"hehe.sol\":2769:2791  msg.sender != referral */\n      0xffffffffffffffffffffffffffffffffffffffff\n      and\n        /* \"hehe.sol\":2769:2779  msg.sender */\n      caller\n        /* \"hehe.sol\":2769:2791  msg.sender != referral */\n      0xffffffffffffffffffffffffffffffffffffffff\n      and\n      eq\n      iszero\n        /* \"hehe.sol\":2769:2819  msg.sender != referral && balanceOf(referral) != 0 */\n      dup1\n      iszero\n      tag_255\n      jumpi\n      pop\n        /* \"hehe.sol\":2818:2819  0 */\n      0x00\n        /* \"hehe.sol\":2795:2814  balanceOf(referral) */\n      tag_256\n        /* \"hehe.sol\":2805:2813  referral */\n      dup7\n        /* \"hehe.sol\":2795:2804  balanceOf */\n      tag_117\n        /* \"hehe.sol\":2795:2814  balanceOf(referral) */\n      jump\t// in\n    tag_256:\n        /* \"hehe.sol\":2795:2819  balanceOf(referral) != 0 */\n      eq\n      iszero\n        /* \"hehe.sol\":2769:2819  msg.sender != referral && balanceOf(referral) != 0 */\n    tag_255:\n        /* \"hehe.sol\":2769:2845  msg.sender != referral && balanceOf(referral) != 0 && referral != address(0) */\n      dup1\n      iszero\n      tag_257\n      jumpi\n      pop\n        /* \"hehe.sol\":2843:2844  0 */\n      0x00\n        /* \"hehe.sol\":2823:2845  referral != address(0) */\n      0xffffffffffffffffffffffffffffffffffffffff\n      and\n        /* \"hehe.sol\":2823:2831  referral */\n      dup6\n        /* \"hehe.sol\":2823:2845  referral != address(0) */\n      0xffffffffffffffffffffffffffffffffffffffff\n      and\n      eq\n      iszero\n        /* \"hehe.sol\":2769:2845  msg.sender != referral && balanceOf(referral) != 0 && referral != address(0) */\n    tag_257:\n        /* \"hehe.sol\":2766:2972  if(msg.sender != referral && balanceOf(referral) != 0 && referral != address(0)){... */\n      iszero\n      tag_258\n      jumpi\n        /* \"hehe.sol\":2889:2898  tokensRef */\n      dup1\n        /* \"hehe.sol\":2875:2886  presalePool */\n      sload(0x0a)\n        /* \"hehe.sol\":2875:2898  presalePool - tokensRef */\n      tag_259\n      swap2\n      swap1\n      tag_203\n      jump\t// in\n    tag_259:\n        /* \"hehe.sol\":2861:2872  presalePool */\n      0x0a\n        /* \"hehe.sol\":2861:2898  presalePool = presalePool - tokensRef */\n      dup2\n      swap1\n      sstore\n      pop\n        /* \"hehe.sol\":2915:2960  _transfer(address(this), referral, tokensRef) */\n      tag_260\n        /* \"hehe.sol\":2933:2937  this */\n      address\n        /* \"hehe.sol\":2940:2948  referral */\n      dup7\n        /* \"hehe.sol\":2950:2959  tokensRef */\n      dup4\n        /* \"hehe.sol\":2915:2924  _transfer */\n      tag_201\n        /* \"hehe.sol\":2915:2960  _transfer(address(this), referral, tokensRef) */\n      jump\t// in\n    tag_260:\n        /* \"hehe.sol\":2766:2972  if(msg.sender != referral && balanceOf(referral) != 0 && referral != address(0)){... */\n    tag_258:\n        /* \"hehe.sol\":3012:3018  tokens */\n      dup2\n        /* \"hehe.sol\":2998:3009  presalePool */\n      sload(0x0a)\n        /* \"hehe.sol\":2998:3018  presalePool - tokens */\n      tag_261\n      swap2\n      swap1\n      tag_203\n      jump\t// in\n    tag_261:\n        /* \"hehe.sol\":2984:2995  presalePool */\n      0x0a\n        /* \"hehe.sol\":2984:3018  presalePool = presalePool - tokens */\n      dup2\n      swap1\n      sstore\n      pop\n        /* \"hehe.sol\":3029:3073  _transfer(address(this), msg.sender, tokens) */\n      tag_262\n        /* \"hehe.sol\":3047:3051  this */\n      address\n        /* \"hehe.sol\":3054:3064  msg.sender */\n      caller\n        /* \"hehe.sol\":3066:3072  tokens */\n      dup5\n        /* \"hehe.sol\":3029:3038  _transfer */\n      tag_201\n        /* \"hehe.sol\":3029:3073  _transfer(address(this), msg.sender, tokens) */\n      jump\t// in\n    tag_262:\n        /* \"hehe.sol\":3108:3117  msg.value */\n      callvalue\n        /* \"hehe.sol\":3086:3092  bought */\n      0x0d\n        /* \"hehe.sol\":3086:3104  bought[msg.sender] */\n      0x00\n        /* \"hehe.sol\":3093:3103  msg.sender */\n      caller\n        /* \"hehe.sol\":3086:3104  bought[msg.sender] */\n      0xffffffffffffffffffffffffffffffffffffffff\n      and\n      0xffffffffffffffffffffffffffffffffffffffff\n      and\n      dup2\n      mstore\n      0x20\n      add\n      swap1\n      dup2\n      mstore\n      0x20\n      add\n      0x00\n      keccak256\n      0x00\n        /* \"hehe.sol\":3086:3117  bought[msg.sender] += msg.value */\n      dup3\n      dup3\n      sload\n      tag_263\n      swap2\n      swap1\n      tag_226\n      jump\t// in\n    tag_263:\n      swap3\n      pop\n      pop\n      dup2\n      swap1\n      sstore\n      pop\n        /* \"hehe.sol\":3137:3143  tokens */\n      dup2\n        /* \"hehe.sol\":3130:3143  return tokens */\n      swap4\n      pop\n      pop\n      pop\n      pop\n        /* \"hehe.sol\":2150:3151  function tokenSale(address referral) public payable returns (uint){... */\n      swap2\n      swap1\n      pop\n      jump\t// out\n        /* \"hehe.sol\":755:793  mapping(address => uint) public bought */\n    tag_112:\n      mstore(0x20, 0x0d)\n      dup1\n      0x00\n      mstore\n      keccak256(0x00, 0x40)\n      0x00\n      swap2\n      pop\n      swap1\n      pop\n      sload\n      dup2\n      jump\t// out\n        /* \"@openzeppelin/contracts/token/ERC20/ERC20.sol\":3406:3531  function balanceOf(address account) public view virtual override returns (uint256) {... */\n    tag_117:\n        /* \"@openzeppelin/contracts/token/ERC20/ERC20.sol\":3480:3487  uint256 */\n      0x00\n        /* \"@openzeppelin/contracts/token/ERC20/ERC20.sol\":3506:3515  _balances */\n      dup1\n        /* \"@openzeppelin/contracts/token/ERC20/ERC20.sol\":3506:3524  _balances[account] */\n      0x00\n        /* \"@openzeppelin/contracts/token/ERC20/ERC20.sol\":3516:3523  account */\n      dup4\n        /* \"@openzeppelin/contracts/token/ERC20/ERC20.sol\":3506:3524  _balances[account] */\n      0xffffffffffffffffffffffffffffffffffffffff\n      and\n      0xffffffffffffffffffffffffffffffffffffffff\n      and\n      dup2\n      mstore\n      0x20\n      add\n      swap1\n      dup2\n      mstore\n      0x20\n      add\n      0x00\n      keccak256\n      sload\n        /* \"@openzeppelin/contracts/token/ERC20/ERC20.sol\":3499:3524  return _balances[account] */\n      swap1\n      pop\n        /* \"@openzeppelin/contracts/token/ERC20/ERC20.sol\":3406:3531  function balanceOf(address account) public view virtual override returns (uint256) {... */\n      swap2\n      swap1\n      pop\n      jump\t// out\n        /* \"hehe.sol\":156:180  uint256 public startTime */\n    tag_121:\n      sload(0x05)\n      dup2\n      jump\t// out\n        /* \"hehe.sol\":256:297  uint256 public tokenPrice = 500000000 wei */\n    tag_125:\n      sload(0x08)\n      dup2\n      jump\t// out\n        /* \"hehe.sol\":4551:4727  function withdrawAll() external onlyOwner {... */\n    tag_129:\n        /* \"hehe.sol\":907:913  owner1 */\n      0x0b\n      0x00\n      swap1\n      sload\n      swap1\n      0x0100\n      exp\n      swap1\n      div\n      0xffffffffffffffffffffffffffffffffffffffff\n      and\n        /* \"hehe.sol\":893:913  msg.sender == owner1 */\n      0xffffffffffffffffffffffffffffffffffffffff\n      and\n        /* \"hehe.sol\":893:903  msg.sender */\n      caller\n        /* \"hehe.sol\":893:913  msg.sender == owner1 */\n      0xffffffffffffffffffffffffffffffffffffffff\n      and\n      eq\n        /* \"hehe.sol\":885:927  require(msg.sender == owner1, \"ONLYOWNER\") */\n      tag_266\n      jumpi\n      mload(0x40)\n      0x08c379a000000000000000000000000000000000000000000000000000000000\n      dup2\n      mstore\n      0x04\n      add\n      tag_267\n      swap1\n      tag_230\n      jump\t// in\n    tag_267:\n      mload(0x40)\n      dup1\n      swap2\n      sub\n      swap1\n      revert\n    tag_266:\n        /* \"hehe.sol\":4623:4638  block.timestamp */\n      timestamp\n        /* \"hehe.sol\":4612:4619  endTime */\n      sload(0x06)\n        /* \"hehe.sol\":4612:4638  endTime <= block.timestamp */\n      gt\n      iszero\n        /* \"hehe.sol\":4604:4639  require(endTime <= block.timestamp) */\n      tag_269\n      jumpi\n      0x00\n      dup1\n      revert\n    tag_269:\n        /* \"hehe.sol\":4653:4665  bool success */\n      0x00\n        /* \"hehe.sol\":4670:4680  msg.sender */\n      caller\n        /* \"hehe.sol\":4670:4685  msg.sender.call */\n      0xffffffffffffffffffffffffffffffffffffffff\n      and\n        /* \"hehe.sol\":4693:4714  address(this).balance */\n      selfbalance\n        /* \"hehe.sol\":4670:4719  msg.sender.call{value: address(this).balance}(\"\") */\n      mload(0x40)\n      tag_270\n      swap1\n      tag_271\n      jump\t// in\n    tag_270:\n      0x00\n      mload(0x40)\n      dup1\n      dup4\n      sub\n      dup2\n      dup6\n      dup8\n      gas\n      call\n      swap3\n      pop\n      pop\n      pop\n      returndatasize\n      dup1\n      0x00\n      dup2\n      eq\n      tag_274\n      jumpi\n      mload(0x40)\n      swap2\n      pop\n      and(add(returndatasize, 0x3f), not(0x1f))\n      dup3\n      add\n      0x40\n      mstore\n      returndatasize\n      dup3\n      mstore\n      returndatasize\n      0x00\n      0x20\n      dup5\n      add\n      returndatacopy\n      jump(tag_273)\n    tag_274:\n      0x60\n      swap2\n      pop\n    tag_273:\n      pop\n        /* \"hehe.sol\":4652:4719  (bool success,) = msg.sender.call{value: address(this).balance}(\"\") */\n      pop\n      swap1\n      pop\n        /* \"hehe.sol\":4593:4727  {... */\n      pop\n        /* \"hehe.sol\":4551:4727  function withdrawAll() external onlyOwner {... */\n      jump\t// out\n        /* \"hehe.sol\":3412:3775  function burnAll(bytes memory _sign) public {... */\n    tag_133:\n        /* \"hehe.sol\":3467:3481  address signer */\n      0x00\n        /* \"hehe.sol\":3484:3504  recoverSigner(_sign) */\n      tag_276\n        /* \"hehe.sol\":3498:3503  _sign */\n      dup3\n        /* \"hehe.sol\":3484:3497  recoverSigner */\n      tag_74\n        /* \"hehe.sol\":3484:3504  recoverSigner(_sign) */\n      jump\t// in\n    tag_276:\n        /* \"hehe.sol\":3467:3504  address signer = recoverSigner(_sign) */\n      swap1\n      pop\n        /* \"hehe.sol\":3533:3539  owner1 */\n      0x0b\n      0x00\n      swap1\n      sload\n      swap1\n      0x0100\n      exp\n      swap1\n      div\n      0xffffffffffffffffffffffffffffffffffffffff\n      and\n        /* \"hehe.sol\":3523:3539  signer == owner1 */\n      0xffffffffffffffffffffffffffffffffffffffff\n      and\n        /* \"hehe.sol\":3523:3529  signer */\n      dup2\n        /* \"hehe.sol\":3523:3539  signer == owner1 */\n      0xffffffffffffffffffffffffffffffffffffffff\n      and\n      eq\n        /* \"hehe.sol\":3515:3552  require(signer == owner1, \"INVALSIG\") */\n      tag_277\n      jumpi\n      mload(0x40)\n      0x08c379a000000000000000000000000000000000000000000000000000000000\n      dup2\n      mstore\n      0x04\n      add\n      tag_278\n      swap1\n      tag_279\n      jump\t// in\n    tag_278:\n      mload(0x40)\n      dup1\n      swap2\n      sub\n      swap1\n      revert\n    tag_277:\n        /* \"hehe.sol\":3565:3580  uint256 balance */\n      0x00\n        /* \"hehe.sol\":3583:3607  balanceOf(address(this)) */\n      tag_280\n        /* \"hehe.sol\":3601:3605  this */\n      address\n        /* \"hehe.sol\":3583:3592  balanceOf */\n      tag_117\n        /* \"hehe.sol\":3583:3607  balanceOf(address(this)) */\n      jump\t// in\n    tag_280:\n        /* \"hehe.sol\":3565:3607  uint256 balance = balanceOf(address(this)) */\n      swap1\n      pop\n        /* \"hehe.sol\":3620:3649  _burn(address(this), balance) */\n      tag_281\n        /* \"hehe.sol\":3634:3638  this */\n      address\n        /* \"hehe.sol\":3641:3648  balance */\n      dup3\n        /* \"hehe.sol\":3620:3625  _burn */\n      tag_282\n        /* \"hehe.sol\":3620:3649  _burn(address(this), balance) */\n      jump\t// in\n    tag_281:\n        /* \"hehe.sol\":3667:3709  AirdropEnded(block.timestamp, airdropPool) */\n      0xb1fe961f963661a542fa1ff991c895fc463bbbfc4a441759a11f8d0e94e3151f\n        /* \"hehe.sol\":3680:3695  block.timestamp */\n      timestamp\n        /* \"hehe.sol\":3697:3708  airdropPool */\n      sload(0x09)\n        /* \"hehe.sol\":3667:3709  AirdropEnded(block.timestamp, airdropPool) */\n      mload(0x40)\n      tag_283\n      swap3\n      swap2\n      swap1\n      tag_284\n      jump\t// in\n    tag_283:\n      mload(0x40)\n      dup1\n      swap2\n      sub\n      swap1\n      log1\n        /* \"hehe.sol\":3725:3767  PresaleEnded(block.timestamp, presalePool) */\n      0xb4e6cb40663c1ac63bcd620dbe3d98c44526baa45e310f545f425ebaab36a293\n        /* \"hehe.sol\":3738:3753  block.timestamp */\n      timestamp\n        /* \"hehe.sol\":3755:3766  presalePool */\n      sload(0x0a)\n        /* \"hehe.sol\":3725:3767  PresaleEnded(block.timestamp, presalePool) */\n      mload(0x40)\n      tag_285\n      swap3\n      swap2\n      swap1\n      tag_284\n      jump\t// in\n    tag_285:\n      mload(0x40)\n      dup1\n      swap2\n      sub\n      swap1\n      log1\n        /* \"hehe.sol\":3456:3775  {... */\n      pop\n      pop\n        /* \"hehe.sol\":3412:3775  function burnAll(bytes memory _sign) public {... */\n      pop\n      jump\t// out\n        /* \"@openzeppelin/contracts/token/ERC20/ERC20.sol\":2365:2467  function symbol() public view virtual override returns (string memory) {... */\n    tag_136:\n        /* \"@openzeppelin/contracts/token/ERC20/ERC20.sol\":2421:2434  string memory */\n      0x60\n        /* \"@openzeppelin/contracts/token/ERC20/ERC20.sol\":2453:2460  _symbol */\n      0x04\n        /* \"@openzeppelin/contracts/token/ERC20/ERC20.sol\":2446:2460  return _symbol */\n      dup1\n      sload\n      tag_287\n      swap1\n      tag_174\n      jump\t// in\n    tag_287:\n      dup1\n      0x1f\n      add\n      0x20\n      dup1\n      swap2\n      div\n      mul\n      0x20\n      add\n      mload(0x40)\n      swap1\n      dup2\n      add\n      0x40\n      mstore\n      dup1\n      swap3\n      swap2\n      swap1\n      dup2\n      dup2\n      mstore\n      0x20\n      add\n      dup3\n      dup1\n      sload\n      tag_288\n      swap1\n      tag_174\n      jump\t// in\n    tag_288:\n      dup1\n      iszero\n      tag_289\n      jumpi\n      dup1\n      0x1f\n      lt\n      tag_290\n      jumpi\n      0x0100\n      dup1\n      dup4\n      sload\n      div\n      mul\n      dup4\n      mstore\n      swap2\n      0x20\n      add\n      swap2\n      jump(tag_289)\n    tag_290:\n      dup3\n      add\n      swap2\n      swap1\n      0x00\n      mstore\n      keccak256(0x00, 0x20)\n      swap1\n    tag_291:\n      dup2\n      sload\n      dup2\n      mstore\n      swap1\n      0x01\n      add\n      swap1\n      0x20\n      add\n      dup1\n      dup4\n      gt\n      tag_291\n      jumpi\n      dup3\n      swap1\n      sub\n      0x1f\n      and\n      dup3\n      add\n      swap2\n    tag_289:\n      pop\n      pop\n      pop\n      pop\n      pop\n      swap1\n      pop\n        /* \"@openzeppelin/contracts/token/ERC20/ERC20.sol\":2365:2467  function symbol() public view virtual override returns (string memory) {... */\n      swap1\n      jump\t// out\n        /* \"hehe.sol\":4735:4827  function mint(uint256 amount)external onlyOwner {... */\n    tag_142:\n        /* \"hehe.sol\":907:913  owner1 */\n      0x0b\n      0x00\n      swap1\n      sload\n      swap1\n      0x0100\n      exp\n      swap1\n      div\n      0xffffffffffffffffffffffffffffffffffffffff\n      and\n        /* \"hehe.sol\":893:913  msg.sender == owner1 */\n      0xffffffffffffffffffffffffffffffffffffffff\n      and\n        /* \"hehe.sol\":893:903  msg.sender */\n      caller\n        /* \"hehe.sol\":893:913  msg.sender == owner1 */\n      0xffffffffffffffffffffffffffffffffffffffff\n      and\n      eq\n        /* \"hehe.sol\":885:927  require(msg.sender == owner1, \"ONLYOWNER\") */\n      tag_293\n      jumpi\n      mload(0x40)\n      0x08c379a000000000000000000000000000000000000000000000000000000000\n      dup2\n      mstore\n      0x04\n      add\n      tag_294\n      swap1\n      tag_230\n      jump\t// in\n    tag_294:\n      mload(0x40)\n      dup1\n      swap2\n      sub\n      swap1\n      revert\n    tag_293:\n        /* \"hehe.sol\":4794:4819  _mint(msg.sender, amount) */\n      tag_296\n        /* \"hehe.sol\":4800:4810  msg.sender */\n      caller\n        /* \"hehe.sol\":4812:4818  amount */\n      dup3\n        /* \"hehe.sol\":4794:4799  _mint */\n      tag_297\n        /* \"hehe.sol\":4794:4819  _mint(msg.sender, amount) */\n      jump\t// in\n    tag_296:\n        /* \"hehe.sol\":4735:4827  function mint(uint256 amount)external onlyOwner {... */\n      pop\n      jump\t// out\n        /* \"@openzeppelin/contracts/token/ERC20/ERC20.sol\":6596:7023  function decreaseAllowance(address spender, uint256 subtractedValue) public virtual returns (bool) {... */\n    tag_146:\n        /* \"@openzeppelin/contracts/token/ERC20/ERC20.sol\":6689:6693  bool */\n      0x00\n        /* \"@openzeppelin/contracts/token/ERC20/ERC20.sol\":6705:6718  address owner */\n      dup1\n        /* \"@openzeppelin/contracts/token/ERC20/ERC20.sol\":6721:6733  _msgSender() */\n      tag_299\n        /* \"@openzeppelin/contracts/token/ERC20/ERC20.sol\":6721:6731  _msgSender */\n      tag_181\n        /* \"@openzeppelin/contracts/token/ERC20/ERC20.sol\":6721:6733  _msgSender() */\n      jump\t// in\n    tag_299:\n        /* \"@openzeppelin/contracts/token/ERC20/ERC20.sol\":6705:6733  address owner = _msgSender() */\n      swap1\n      pop\n        /* \"@openzeppelin/contracts/token/ERC20/ERC20.sol\":6743:6767  uint256 currentAllowance */\n      0x00\n        /* \"@openzeppelin/contracts/token/ERC20/ERC20.sol\":6770:6795  allowance(owner, spender) */\n      tag_300\n        /* \"@openzeppelin/contracts/token/ERC20/ERC20.sol\":6780:6785  owner */\n      dup3\n        /* \"@openzeppelin/contracts/token/ERC20/ERC20.sol\":6787:6794  spender */\n      dup7\n        /* \"@openzeppelin/contracts/token/ERC20/ERC20.sol\":6770:6779  allowance */\n      tag_170\n        /* \"@openzeppelin/contracts/token/ERC20/ERC20.sol\":6770:6795  allowance(owner, spender) */\n      jump\t// in\n    tag_300:\n        /* \"@openzeppelin/contracts/token/ERC20/ERC20.sol\":6743:6795  uint256 currentAllowance = allowance(owner, spender) */\n      swap1\n      pop\n        /* \"@openzeppelin/contracts/token/ERC20/ERC20.sol\":6833:6848  subtractedValue */\n      dup4\n        /* \"@openzeppelin/contracts/token/ERC20/ERC20.sol\":6813:6829  currentAllowance */\n      dup2\n        /* \"@openzeppelin/contracts/token/ERC20/ERC20.sol\":6813:6848  currentAllowance >= subtractedValue */\n      lt\n      iszero\n        /* \"@openzeppelin/contracts/token/ERC20/ERC20.sol\":6805:6890  require(currentAllowance >= subtractedValue, \"ERC20: decreased allowance below zero\") */\n      tag_301\n      jumpi\n      mload(0x40)\n      0x08c379a000000000000000000000000000000000000000000000000000000000\n      dup2\n      mstore\n      0x04\n      add\n      tag_302\n      swap1\n      tag_303\n      jump\t// in\n    tag_302:\n      mload(0x40)\n      dup1\n      swap2\n      sub\n      swap1\n      revert\n    tag_301:\n        /* \"@openzeppelin/contracts/token/ERC20/ERC20.sol\":6924:6984  _approve(owner, spender, currentAllowance - subtractedValue) */\n      tag_304\n        /* \"@openzeppelin/contracts/token/ERC20/ERC20.sol\":6933:6938  owner */\n      dup3\n        /* \"@openzeppelin/contracts/token/ERC20/ERC20.sol\":6940:6947  spender */\n      dup7\n        /* \"@openzeppelin/contracts/token/ERC20/ERC20.sol\":6968:6983  subtractedValue */\n      dup7\n        /* \"@openzeppelin/contracts/token/ERC20/ERC20.sol\":6949:6965  currentAllowance */\n      dup5\n        /* \"@openzeppelin/contracts/token/ERC20/ERC20.sol\":6949:6983  currentAllowance - subtractedValue */\n      sub\n        /* \"@openzeppelin/contracts/token/ERC20/ERC20.sol\":6924:6932  _approve */\n      tag_183\n        /* \"@openzeppelin/contracts/token/ERC20/ERC20.sol\":6924:6984  _approve(owner, spender, currentAllowance - subtractedValue) */\n      jump\t// in\n    tag_304:\n        /* \"@openzeppelin/contracts/token/ERC20/ERC20.sol\":7012:7016  true */\n      0x01\n        /* \"@openzeppelin/contracts/token/ERC20/ERC20.sol\":7005:7016  return true */\n      swap3\n      pop\n      pop\n      pop\n        /* \"@openzeppelin/contracts/token/ERC20/ERC20.sol\":6596:7023  function decreaseAllowance(address spender, uint256 subtractedValue) public virtual returns (bool) {... */\n      swap3\n      swap2\n      pop\n      pop\n      jump\t// out\n        /* \"hehe.sol\":4306:4543  function transfer(address to, uint256 amount) public virtual override onlyOwnerCreatePool(to) returns (bool) {... */\n    tag_151:\n        /* \"hehe.sol\":4409:4413  bool */\n      0x00\n        /* \"hehe.sol\":4396:4398  to */\n      dup3\n        /* \"hehe.sol\":1024:1030  owner1 */\n      0x0b\n      0x00\n      swap1\n      sload\n      swap1\n      0x0100\n      exp\n      swap1\n      div\n      0xffffffffffffffffffffffffffffffffffffffff\n      and\n        /* \"hehe.sol\":1010:1030  msg.sender != owner1 */\n      0xffffffffffffffffffffffffffffffffffffffff\n      and\n        /* \"hehe.sol\":1010:1020  msg.sender */\n      caller\n        /* \"hehe.sol\":1010:1030  msg.sender != owner1 */\n      0xffffffffffffffffffffffffffffffffffffffff\n      and\n      eq\n        /* \"hehe.sol\":1007:1110  if(msg.sender != owner1) {... */\n      tag_306\n      jumpi\n        /* \"hehe.sol\":1073:1074  0 */\n      0x00\n        /* \"hehe.sol\":1055:1057  to */\n      dup2\n        /* \"hehe.sol\":1055:1069  to.code.length */\n      0xffffffffffffffffffffffffffffffffffffffff\n      and\n      extcodesize\n        /* \"hehe.sol\":1055:1074  to.code.length <= 0 */\n      gt\n      iszero\n        /* \"hehe.sol\":1047:1098  require(to.code.length <= 0, \"ONLYOWNERCREATEPOOL\") */\n      tag_307\n      jumpi\n      mload(0x40)\n      0x08c379a000000000000000000000000000000000000000000000000000000000\n      dup2\n      mstore\n      0x04\n      add\n      tag_308\n      swap1\n      tag_309\n      jump\t// in\n    tag_308:\n      mload(0x40)\n      dup1\n      swap2\n      sub\n      swap1\n      revert\n    tag_307:\n        /* \"hehe.sol\":1007:1110  if(msg.sender != owner1) {... */\n    tag_306:\n        /* \"hehe.sol\":4435:4446  blacklisted */\n      0x0e\n        /* \"hehe.sol\":4435:4458  blacklisted[msg.sender] */\n      0x00\n        /* \"hehe.sol\":4447:4457  msg.sender */\n      caller\n        /* \"hehe.sol\":4435:4458  blacklisted[msg.sender] */\n      0xffffffffffffffffffffffffffffffffffffffff\n      and\n      0xffffffffffffffffffffffffffffffffffffffff\n      and\n      dup2\n      mstore\n      0x20\n      add\n      swap1\n      dup2\n      mstore\n      0x20\n      add\n      0x00\n      keccak256\n      0x00\n      swap1\n      sload\n      swap1\n      0x0100\n      exp\n      swap1\n      div\n      0xff\n      and\n        /* \"hehe.sol\":4434:4458  !blacklisted[msg.sender] */\n      iszero\n        /* \"hehe.sol\":4426:4467  require(!blacklisted[msg.sender], \"UABL\") */\n      tag_311\n      jumpi\n      mload(0x40)\n      0x08c379a000000000000000000000000000000000000000000000000000000000\n      dup2\n      mstore\n      0x04\n      add\n      tag_312\n      swap1\n      tag_313\n      jump\t// in\n    tag_312:\n      mload(0x40)\n      dup1\n      swap2\n      sub\n      swap1\n      revert\n    tag_311:\n        /* \"hehe.sol\":4480:4513  _transfer(msg.sender, to, amount) */\n      tag_314\n        /* \"hehe.sol\":4490:4500  msg.sender */\n      caller\n        /* \"hehe.sol\":4502:4504  to */\n      dup6\n        /* \"hehe.sol\":4506:4512  amount */\n      dup6\n        /* \"hehe.sol\":4480:4489  _transfer */\n      tag_201\n        /* \"hehe.sol\":4480:4513  _transfer(msg.sender, to, amount) */\n      jump\t// in\n    tag_314:\n        /* \"hehe.sol\":4531:4535  true */\n      0x01\n        /* \"hehe.sol\":4524:4535  return true */\n      swap2\n      pop\n        /* \"hehe.sol\":4306:4543  function transfer(address to, uint256 amount) public virtual override onlyOwnerCreatePool(to) returns (bool) {... */\n      pop\n      swap3\n      swap2\n      pop\n      pop\n      jump\t// out\n        /* \"hehe.sol\":218:248  uint256 public amount = 100000 */\n    tag_155:\n      sload(0x07)\n      dup2\n      jump\t// out\n        /* \"hehe.sol\":3159:3277  function viewAirdrop() public view returns(uint, uint, uint){... */\n    tag_159:\n        /* \"hehe.sol\":3202:3206  uint */\n      0x00\n        /* \"hehe.sol\":3208:3212  uint */\n      dup1\n        /* \"hehe.sol\":3214:3218  uint */\n      0x00\n        /* \"hehe.sol\":3237:3246  startTime */\n      sload(0x05)\n        /* \"hehe.sol\":3248:3255  endTime */\n      sload(0x06)\n        /* \"hehe.sol\":3257:3268  airdropPool */\n      sload(0x09)\n        /* \"hehe.sol\":3230:3269  return(startTime, endTime, airdropPool) */\n      swap3\n      pop\n      swap3\n      pop\n      swap3\n      pop\n        /* \"hehe.sol\":3159:3277  function viewAirdrop() public view returns(uint, uint, uint){... */\n      swap1\n      swap2\n      swap3\n      jump\t// out\n        /* \"hehe.sol\":800:844  mapping (address => bool) public blacklisted */\n    tag_164:\n      mstore(0x20, 0x0e)\n      dup1\n      0x00\n      mstore\n      keccak256(0x00, 0x40)\n      0x00\n      swap2\n      pop\n      sload\n      swap1\n      0x0100\n      exp\n      swap1\n      div\n      0xff\n      and\n      dup2\n      jump\t// out\n        /* \"@openzeppelin/contracts/token/ERC20/ERC20.sol\":3978:4127  function allowance(address owner, address spender) public view virtual override returns (uint256) {... */\n    tag_170:\n        /* \"@openzeppelin/contracts/token/ERC20/ERC20.sol\":4067:4074  uint256 */\n      0x00\n        /* \"@openzeppelin/contracts/token/ERC20/ERC20.sol\":4093:4104  _allowances */\n      0x01\n        /* \"@openzeppelin/contracts/token/ERC20/ERC20.sol\":4093:4111  _allowances[owner] */\n      0x00\n        /* \"@openzeppelin/contracts/token/ERC20/ERC20.sol\":4105:4110  owner */\n      dup5\n        /* \"@openzeppelin/contracts/token/ERC20/ERC20.sol\":4093:4111  _allowances[owner] */\n      0xffffffffffffffffffffffffffffffffffffffff\n      and\n      0xffffffffffffffffffffffffffffffffffffffff\n      and\n      dup2\n      mstore\n      0x20\n      add\n      swap1\n      dup2\n      mstore\n      0x20\n      add\n      0x00\n      keccak256\n        /* \"@openzeppelin/contracts/token/ERC20/ERC20.sol\":4093:4120  _allowances[owner][spender] */\n      0x00\n        /* \"@openzeppelin/contracts/token/ERC20/ERC20.sol\":4112:4119  spender */\n      dup4\n        /* \"@openzeppelin/contracts/token/ERC20/ERC20.sol\":4093:4120  _allowances[owner][spender] */\n      0xffffffffffffffffffffffffffffffffffffffff\n      and\n      0xffffffffffffffffffffffffffffffffffffffff\n      and\n      dup2\n      mstore\n      0x20\n      add\n      swap1\n      dup2\n      mstore\n      0x20\n      add\n      0x00\n      keccak256\n      sload\n        /* \"@openzeppelin/contracts/token/ERC20/ERC20.sol\":4086:4120  return _allowances[owner][spender] */\n      swap1\n      pop\n        /* \"@openzeppelin/contracts/token/ERC20/ERC20.sol\":3978:4127  function allowance(address owner, address spender) public view virtual override returns (uint256) {... */\n      swap3\n      swap2\n      pop\n      pop\n      jump\t// out\n        /* \"@openzeppelin/contracts/utils/Context.sol\":640:736  function _msgSender() internal view virtual returns (address) {... */\n    tag_181:\n        /* \"@openzeppelin/contracts/utils/Context.sol\":693:700  address */\n      0x00\n        /* \"@openzeppelin/contracts/utils/Context.sol\":719:729  msg.sender */\n      caller\n        /* \"@openzeppelin/contracts/utils/Context.sol\":712:729  return msg.sender */\n      swap1\n      pop\n        /* \"@openzeppelin/contracts/utils/Context.sol\":640:736  function _msgSender() internal view virtual returns (address) {... */\n      swap1\n      jump\t// out\n        /* \"@openzeppelin/contracts/token/ERC20/ERC20.sol\":10508:10878  function _approve(... */\n    tag_183:\n        /* \"@openzeppelin/contracts/token/ERC20/ERC20.sol\":10656:10657  0 */\n      0x00\n        /* \"@openzeppelin/contracts/token/ERC20/ERC20.sol\":10639:10658  owner != address(0) */\n      0xffffffffffffffffffffffffffffffffffffffff\n      and\n        /* \"@openzeppelin/contracts/token/ERC20/ERC20.sol\":10639:10644  owner */\n      dup4\n        /* \"@openzeppelin/contracts/token/ERC20/ERC20.sol\":10639:10658  owner != address(0) */\n      0xffffffffffffffffffffffffffffffffffffffff\n      and\n      sub\n        /* \"@openzeppelin/contracts/token/ERC20/ERC20.sol\":10631:10699  require(owner != address(0), \"ERC20: approve from the zero address\") */\n      tag_319\n      jumpi\n      mload(0x40)\n      0x08c379a000000000000000000000000000000000000000000000000000000000\n      dup2\n      mstore\n      0x04\n      add\n      tag_320\n      swap1\n      tag_321\n      jump\t// in\n    tag_320:\n      mload(0x40)\n      dup1\n      swap2\n      sub\n      swap1\n      revert\n    tag_319:\n        /* \"@openzeppelin/contracts/token/ERC20/ERC20.sol\":10736:10737  0 */\n      0x00\n        /* \"@openzeppelin/contracts/token/ERC20/ERC20.sol\":10717:10738  spender != address(0) */\n      0xffffffffffffffffffffffffffffffffffffffff\n      and\n        /* \"@openzeppelin/contracts/token/ERC20/ERC20.sol\":10717:10724  spender */\n      dup3\n        /* \"@openzeppelin/contracts/token/ERC20/ERC20.sol\":10717:10738  spender != address(0) */\n      0xffffffffffffffffffffffffffffffffffffffff\n      and\n      sub\n        /* \"@openzeppelin/contracts/token/ERC20/ERC20.sol\":10709:10777  require(spender != address(0), \"ERC20: approve to the zero address\") */\n      tag_322\n      jumpi\n      mload(0x40)\n      0x08c379a000000000000000000000000000000000000000000000000000000000\n      dup2\n      mstore\n      0x04\n      add\n      tag_323\n      swap1\n      tag_324\n      jump\t// in\n    tag_323:\n      mload(0x40)\n      dup1\n      swap2\n      sub\n      swap1\n      revert\n    tag_322:\n        /* \"@openzeppelin/contracts/token/ERC20/ERC20.sol\":10818:10824  amount */\n      dup1\n        /* \"@openzeppelin/contracts/token/ERC20/ERC20.sol\":10788:10799  _allowances */\n      0x01\n        /* \"@openzeppelin/contracts/token/ERC20/ERC20.sol\":10788:10806  _allowances[owner] */\n      0x00\n        /* \"@openzeppelin/contracts/token/ERC20/ERC20.sol\":10800:10805  owner */\n      dup6\n        /* \"@openzeppelin/contracts/token/ERC20/ERC20.sol\":10788:10806  _allowances[owner] */\n      0xffffffffffffffffffffffffffffffffffffffff\n      and\n      0xffffffffffffffffffffffffffffffffffffffff\n      and\n      dup2\n      mstore\n      0x20\n      add\n      swap1\n      dup2\n      mstore\n      0x20\n      add\n      0x00\n      keccak256\n        /* \"@openzeppelin/contracts/token/ERC20/ERC20.sol\":10788:10815  _allowances[owner][spender] */\n      0x00\n        /* \"@openzeppelin/contracts/token/ERC20/ERC20.sol\":10807:10814  spender */\n      dup5\n        /* \"@openzeppelin/contracts/token/ERC20/ERC20.sol\":10788:10815  _allowances[owner][spender] */\n      0xffffffffffffffffffffffffffffffffffffffff\n      and\n      0xffffffffffffffffffffffffffffffffffffffff\n      and\n      dup2\n      mstore\n      0x20\n      add\n      swap1\n      dup2\n      mstore\n      0x20\n      add\n      0x00\n      keccak256\n        /* \"@openzeppelin/contracts/token/ERC20/ERC20.sol\":10788:10824  _allowances[owner][spender] = amount */\n      dup2\n      swap1\n      sstore\n      pop\n        /* \"@openzeppelin/contracts/token/ERC20/ERC20.sol\":10855:10862  spender */\n      dup2\n        /* \"@openzeppelin/contracts/token/ERC20/ERC20.sol\":10839:10871  Approval(owner, spender, amount) */\n      0xffffffffffffffffffffffffffffffffffffffff\n      and\n        /* \"@openzeppelin/contracts/token/ERC20/ERC20.sol\":10848:10853  owner */\n      dup4\n        /* \"@openzeppelin/contracts/token/ERC20/ERC20.sol\":10839:10871  Approval(owner, spender, amount) */\n      0xffffffffffffffffffffffffffffffffffffffff\n      and\n      0x8c5be1e5ebec7d5bd14f71427d1e84f3dd0314c0f7b2291e5b200ac8c7c3b925\n        /* \"@openzeppelin/contracts/token/ERC20/ERC20.sol\":10864:10870  amount */\n      dup4\n        /* \"@openzeppelin/contracts/token/ERC20/ERC20.sol\":10839:10871  Approval(owner, spender, amount) */\n      mload(0x40)\n      tag_325\n      swap2\n      swap1\n      tag_46\n      jump\t// in\n    tag_325:\n      mload(0x40)\n      dup1\n      swap2\n      sub\n      swap1\n      log3\n        /* \"@openzeppelin/contracts/token/ERC20/ERC20.sol\":10508:10878  function _approve(... */\n      pop\n      pop\n      pop\n      jump\t// out\n        /* \"@openzeppelin/contracts/token/ERC20/ERC20.sol\":7477:8295  function _transfer(... */\n    tag_201:\n        /* \"@openzeppelin/contracts/token/ERC20/ERC20.sol\":7619:7620  0 */\n      0x00\n        /* \"@openzeppelin/contracts/token/ERC20/ERC20.sol\":7603:7621  from != address(0) */\n      0xffffffffffffffffffffffffffffffffffffffff\n      and\n        /* \"@openzeppelin/contracts/token/ERC20/ERC20.sol\":7603:7607  from */\n      dup4\n        /* \"@openzeppelin/contracts/token/ERC20/ERC20.sol\":7603:7621  from != address(0) */\n      0xffffffffffffffffffffffffffffffffffffffff\n      and\n      sub\n        /* \"@openzeppelin/contracts/token/ERC20/ERC20.sol\":7595:7663  require(from != address(0), \"ERC20: transfer from the zero address\") */\n      tag_327\n      jumpi\n      mload(0x40)\n      0x08c379a000000000000000000000000000000000000000000000000000000000\n      dup2\n      mstore\n      0x04\n      add\n      tag_328\n      swap1\n      tag_329\n      jump\t// in\n    tag_328:\n      mload(0x40)\n      dup1\n      swap2\n      sub\n      swap1\n      revert\n    tag_327:\n        /* \"@openzeppelin/contracts/token/ERC20/ERC20.sol\":7695:7696  0 */\n      0x00\n        /* \"@openzeppelin/contracts/token/ERC20/ERC20.sol\":7681:7697  to != address(0) */\n      0xffffffffffffffffffffffffffffffffffffffff\n      and\n        /* \"@openzeppelin/contracts/token/ERC20/ERC20.sol\":7681:7683  to */\n      dup3\n        /* \"@openzeppelin/contracts/token/ERC20/ERC20.sol\":7681:7697  to != address(0) */\n      0xffffffffffffffffffffffffffffffffffffffff\n      and\n      sub\n        /* \"@openzeppelin/contracts/token/ERC20/ERC20.sol\":7673:7737  require(to != address(0), \"ERC20: transfer to the zero address\") */\n      tag_330\n      jumpi\n      mload(0x40)\n      0x08c379a000000000000000000000000000000000000000000000000000000000\n      dup2\n      mstore\n      0x04\n      add\n      tag_331\n      swap1\n      tag_332\n      jump\t// in\n    tag_331:\n      mload(0x40)\n      dup1\n      swap2\n      sub\n      swap1\n      revert\n    tag_330:\n        /* \"@openzeppelin/contracts/token/ERC20/ERC20.sol\":7748:7786  _beforeTokenTransfer(from, to, amount) */\n      tag_333\n        /* \"@openzeppelin/contracts/token/ERC20/ERC20.sol\":7769:7773  from */\n      dup4\n        /* \"@openzeppelin/contracts/token/ERC20/ERC20.sol\":7775:7777  to */\n      dup4\n        /* \"@openzeppelin/contracts/token/ERC20/ERC20.sol\":7779:7785  amount */\n      dup4\n        /* \"@openzeppelin/contracts/token/ERC20/ERC20.sol\":7748:7768  _beforeTokenTransfer */\n      tag_334\n        /* \"@openzeppelin/contracts/token/ERC20/ERC20.sol\":7748:7786  _beforeTokenTransfer(from, to, amount) */\n      jump\t// in\n    tag_333:\n        /* \"@openzeppelin/contracts/token/ERC20/ERC20.sol\":7797:7816  uint256 fromBalance */\n      0x00\n        /* \"@openzeppelin/contracts/token/ERC20/ERC20.sol\":7819:7828  _balances */\n      dup1\n        /* \"@openzeppelin/contracts/token/ERC20/ERC20.sol\":7819:7834  _balances[from] */\n      0x00\n        /* \"@openzeppelin/contracts/token/ERC20/ERC20.sol\":7829:7833  from */\n      dup6\n        /* \"@openzeppelin/contracts/token/ERC20/ERC20.sol\":7819:7834  _balances[from] */\n      0xffffffffffffffffffffffffffffffffffffffff\n      and\n      0xffffffffffffffffffffffffffffffffffffffff\n      and\n      dup2\n      mstore\n      0x20\n      add\n      swap1\n      dup2\n      mstore\n      0x20\n      add\n      0x00\n      keccak256\n      sload\n        /* \"@openzeppelin/contracts/token/ERC20/ERC20.sol\":7797:7834  uint256 fromBalance = _balances[from] */\n      swap1\n      pop\n        /* \"@openzeppelin/contracts/token/ERC20/ERC20.sol\":7867:7873  amount */\n      dup2\n        /* \"@openzeppelin/contracts/token/ERC20/ERC20.sol\":7852:7863  fromBalance */\n      dup2\n        /* \"@openzeppelin/contracts/token/ERC20/ERC20.sol\":7852:7873  fromBalance >= amount */\n      lt\n      iszero\n        /* \"@openzeppelin/contracts/token/ERC20/ERC20.sol\":7844:7916  require(fromBalance >= amount, \"ERC20: transfer amount exceeds balance\") */\n      tag_335\n      jumpi\n      mload(0x40)\n      0x08c379a000000000000000000000000000000000000000000000000000000000\n      dup2\n      mstore\n      0x04\n      add\n      tag_336\n      swap1\n      tag_337\n      jump\t// in\n    tag_336:\n      mload(0x40)\n      dup1\n      swap2\n      sub\n      swap1\n      revert\n    tag_335:\n        /* \"@openzeppelin/contracts/token/ERC20/ERC20.sol\":7982:7988  amount */\n      dup2\n        /* \"@openzeppelin/contracts/token/ERC20/ERC20.sol\":7968:7979  fromBalance */\n      dup2\n        /* \"@openzeppelin/contracts/token/ERC20/ERC20.sol\":7968:7988  fromBalance - amount */\n      sub\n        /* \"@openzeppelin/contracts/token/ERC20/ERC20.sol\":7950:7959  _balances */\n      0x00\n        /* \"@openzeppelin/contracts/token/ERC20/ERC20.sol\":7950:7965  _balances[from] */\n      dup1\n        /* \"@openzeppelin/contracts/token/ERC20/ERC20.sol\":7960:7964  from */\n      dup7\n        /* \"@openzeppelin/contracts/token/ERC20/ERC20.sol\":7950:7965  _balances[from] */\n      0xffffffffffffffffffffffffffffffffffffffff\n      and\n      0xffffffffffffffffffffffffffffffffffffffff\n      and\n      dup2\n      mstore\n      0x20\n      add\n      swap1\n      dup2\n      mstore\n      0x20\n      add\n      0x00\n      keccak256\n        /* \"@openzeppelin/contracts/token/ERC20/ERC20.sol\":7950:7988  _balances[from] = fromBalance - amount */\n      dup2\n      swap1\n      sstore\n      pop\n        /* \"@openzeppelin/contracts/token/ERC20/ERC20.sol\":8182:8188  amount */\n      dup2\n        /* \"@openzeppelin/contracts/token/ERC20/ERC20.sol\":8165:8174  _balances */\n      0x00\n        /* \"@openzeppelin/contracts/token/ERC20/ERC20.sol\":8165:8178  _balances[to] */\n      dup1\n        /* \"@openzeppelin/contracts/token/ERC20/ERC20.sol\":8175:8177  to */\n      dup6\n        /* \"@openzeppelin/contracts/token/ERC20/ERC20.sol\":8165:8178  _balances[to] */\n      0xffffffffffffffffffffffffffffffffffffffff\n      and\n      0xffffffffffffffffffffffffffffffffffffffff\n      and\n      dup2\n      mstore\n      0x20\n      add\n      swap1\n      dup2\n      mstore\n      0x20\n      add\n      0x00\n      keccak256\n      0x00\n        /* \"@openzeppelin/contracts/token/ERC20/ERC20.sol\":8165:8188  _balances[to] += amount */\n      dup3\n      dup3\n      sload\n      add\n      swap3\n      pop\n      pop\n      dup2\n      swap1\n      sstore\n      pop\n        /* \"@openzeppelin/contracts/token/ERC20/ERC20.sol\":8229:8231  to */\n      dup3\n        /* \"@openzeppelin/contracts/token/ERC20/ERC20.sol\":8214:8240  Transfer(from, to, amount) */\n      0xffffffffffffffffffffffffffffffffffffffff\n      and\n        /* \"@openzeppelin/contracts/token/ERC20/ERC20.sol\":8223:8227  from */\n      dup5\n        /* \"@openzeppelin/contracts/token/ERC20/ERC20.sol\":8214:8240  Transfer(from, to, amount) */\n      0xffffffffffffffffffffffffffffffffffffffff\n      and\n      0xddf252ad1be2c89b69c2b068fc378daa952ba7f163c4a11628f55a4df523b3ef\n        /* \"@openzeppelin/contracts/token/ERC20/ERC20.sol\":8233:8239  amount */\n      dup5\n        /* \"@openzeppelin/contracts/token/ERC20/ERC20.sol\":8214:8240  Transfer(from, to, amount) */\n      mload(0x40)\n      tag_338\n      swap2\n      swap1\n      tag_46\n      jump\t// in\n    tag_338:\n      mload(0x40)\n      dup1\n      swap2\n      sub\n      swap1\n      log3\n        /* \"@openzeppelin/contracts/token/ERC20/ERC20.sol\":8251:8288  _afterTokenTransfer(from, to, amount) */\n      tag_339\n        /* \"@openzeppelin/contracts/token/ERC20/ERC20.sol\":8271:8275  from */\n      dup5\n        /* \"@openzeppelin/contracts/token/ERC20/ERC20.sol\":8277:8279  to */\n      dup5\n        /* \"@openzeppelin/contracts/token/ERC20/ERC20.sol\":8281:8287  amount */\n      dup5\n        /* \"@openzeppelin/contracts/token/ERC20/ERC20.sol\":8251:8270  _afterTokenTransfer */\n      tag_340\n        /* \"@openzeppelin/contracts/token/ERC20/ERC20.sol\":8251:8288  _afterTokenTransfer(from, to, amount) */\n      jump\t// in\n    tag_339:\n        /* \"@openzeppelin/contracts/token/ERC20/ERC20.sol\":7585:8295  {... */\n      pop\n        /* \"@openzeppelin/contracts/token/ERC20/ERC20.sol\":7477:8295  function _transfer(... */\n      pop\n      pop\n      pop\n      jump\t// out\n        /* \"@openzeppelin/contracts/token/ERC20/ERC20.sol\":11159:11600  function _spendAllowance(... */\n    tag_209:\n        /* \"@openzeppelin/contracts/token/ERC20/ERC20.sol\":11289:11313  uint256 currentAllowance */\n      0x00\n        /* \"@openzeppelin/contracts/token/ERC20/ERC20.sol\":11316:11341  allowance(owner, spender) */\n      tag_342\n        /* \"@openzeppelin/contracts/token/ERC20/ERC20.sol\":11326:11331  owner */\n      dup5\n        /* \"@openzeppelin/contracts/token/ERC20/ERC20.sol\":11333:11340  spender */\n      dup5\n        /* \"@openzeppelin/contracts/token/ERC20/ERC20.sol\":11316:11325  allowance */\n      tag_170\n        /* \"@openzeppelin/contracts/token/ERC20/ERC20.sol\":11316:11341  allowance(owner, spender) */\n      jump\t// in\n    tag_342:\n        /* \"@openzeppelin/contracts/token/ERC20/ERC20.sol\":11289:11341  uint256 currentAllowance = allowance(owner, spender) */\n      swap1\n      pop\n        /* \"@openzeppelin/contracts/token/ERC20/ERC20.sol\":11375:11392  type(uint256).max */\n      0xffffffffffffffffffffffffffffffffffffffffffffffffffffffffffffffff\n        /* \"@openzeppelin/contracts/token/ERC20/ERC20.sol\":11355:11371  currentAllowance */\n      dup2\n        /* \"@openzeppelin/contracts/token/ERC20/ERC20.sol\":11355:11392  currentAllowance != type(uint256).max */\n      eq\n        /* \"@openzeppelin/contracts/token/ERC20/ERC20.sol\":11351:11594  if (currentAllowance != type(uint256).max) {... */\n      tag_343\n      jumpi\n        /* \"@openzeppelin/contracts/token/ERC20/ERC20.sol\":11436:11442  amount */\n      dup2\n        /* \"@openzeppelin/contracts/token/ERC20/ERC20.sol\":11416:11432  currentAllowance */\n      dup2\n        /* \"@openzeppelin/contracts/token/ERC20/ERC20.sol\":11416:11442  currentAllowance >= amount */\n      lt\n      iszero\n        /* \"@openzeppelin/contracts/token/ERC20/ERC20.sol\":11408:11476  require(currentAllowance >= amount, \"ERC20: insufficient allowance\") */\n      tag_344\n      jumpi\n      mload(0x40)\n      0x08c379a000000000000000000000000000000000000000000000000000000000\n      dup2\n      mstore\n      0x04\n      add\n      tag_345\n      swap1\n      tag_346\n      jump\t// in\n    tag_345:\n      mload(0x40)\n      dup1\n      swap2\n      sub\n      swap1\n      revert\n    tag_344:\n        /* \"@openzeppelin/contracts/token/ERC20/ERC20.sol\":11518:11569  _approve(owner, spender, currentAllowance - amount) */\n      tag_347\n        /* \"@openzeppelin/contracts/token/ERC20/ERC20.sol\":11527:11532  owner */\n      dup5\n        /* \"@openzeppelin/contracts/token/ERC20/ERC20.sol\":11534:11541  spender */\n      dup5\n        /* \"@openzeppelin/contracts/token/ERC20/ERC20.sol\":11562:11568  amount */\n      dup5\n        /* \"@openzeppelin/contracts/token/ERC20/ERC20.sol\":11543:11559  currentAllowance */\n      dup5\n        /* \"@openzeppelin/contracts/token/ERC20/ERC20.sol\":11543:11568  currentAllowance - amount */\n      sub\n        /* \"@openzeppelin/contracts/token/ERC20/ERC20.sol\":11518:11526  _approve */\n      tag_183\n        /* \"@openzeppelin/contracts/token/ERC20/ERC20.sol\":11518:11569  _approve(owner, spender, currentAllowance - amount) */\n      jump\t// in\n    tag_347:\n        /* \"@openzeppelin/contracts/token/ERC20/ERC20.sol\":11351:11594  if (currentAllowance != type(uint256).max) {... */\n    tag_343:\n        /* \"@openzeppelin/contracts/token/ERC20/ERC20.sol\":11279:11600  {... */\n      pop\n        /* \"@openzeppelin/contracts/token/ERC20/ERC20.sol\":11159:11600  function _spendAllowance(... */\n      pop\n      pop\n      pop\n      jump\t// out\n        /* \"@openzeppelin/contracts/token/ERC20/ERC20.sol\":9426:10085  function _burn(address account, uint256 amount) internal virtual {... */\n    tag_282:\n        /* \"@openzeppelin/contracts/token/ERC20/ERC20.sol\":9528:9529  0 */\n      0x00\n        /* \"@openzeppelin/contracts/token/ERC20/ERC20.sol\":9509:9530  account != address(0) */\n      0xffffffffffffffffffffffffffffffffffffffff\n      and\n        /* \"@openzeppelin/contracts/token/ERC20/ERC20.sol\":9509:9516  account */\n      dup3\n        /* \"@openzeppelin/contracts/token/ERC20/ERC20.sol\":9509:9530  account != address(0) */\n      0xffffffffffffffffffffffffffffffffffffffff\n      and\n      sub\n        /* \"@openzeppelin/contracts/token/ERC20/ERC20.sol\":9501:9568  require(account != address(0), \"ERC20: burn from the zero address\") */\n      tag_349\n      jumpi\n      mload(0x40)\n      0x08c379a000000000000000000000000000000000000000000000000000000000\n      dup2\n      mstore\n      0x04\n      add\n      tag_350\n      swap1\n      tag_351\n      jump\t// in\n    tag_350:\n      mload(0x40)\n      dup1\n      swap2\n      sub\n      swap1\n      revert\n    tag_349:\n        /* \"@openzeppelin/contracts/token/ERC20/ERC20.sol\":9579:9628  _beforeTokenTransfer(account, address(0), amount) */\n      tag_352\n        /* \"@openzeppelin/contracts/token/ERC20/ERC20.sol\":9600:9607  account */\n      dup3\n        /* \"@openzeppelin/contracts/token/ERC20/ERC20.sol\":9617:9618  0 */\n      0x00\n        /* \"@openzeppelin/contracts/token/ERC20/ERC20.sol\":9621:9627  amount */\n      dup4\n        /* \"@openzeppelin/contracts/token/ERC20/ERC20.sol\":9579:9599  _beforeTokenTransfer */\n      tag_334\n        /* \"@openzeppelin/contracts/token/ERC20/ERC20.sol\":9579:9628  _beforeTokenTransfer(account, address(0), amount) */\n      jump\t// in\n    tag_352:\n        /* \"@openzeppelin/contracts/token/ERC20/ERC20.sol\":9639:9661  uint256 accountBalance */\n      0x00\n        /* \"@openzeppelin/contracts/token/ERC20/ERC20.sol\":9664:9673  _balances */\n      dup1\n        /* \"@openzeppelin/contracts/token/ERC20/ERC20.sol\":9664:9682  _balances[account] */\n      0x00\n        /* \"@openzeppelin/contracts/token/ERC20/ERC20.sol\":9674:9681  account */\n      dup5\n        /* \"@openzeppelin/contracts/token/ERC20/ERC20.sol\":9664:9682  _balances[account] */\n      0xffffffffffffffffffffffffffffffffffffffff\n      and\n      0xffffffffffffffffffffffffffffffffffffffff\n      and\n      dup2\n      mstore\n      0x20\n      add\n      swap1\n      dup2\n      mstore\n      0x20\n      add\n      0x00\n      keccak256\n      sload\n        /* \"@openzeppelin/contracts/token/ERC20/ERC20.sol\":9639:9682  uint256 accountBalance = _balances[account] */\n      swap1\n      pop\n        /* \"@openzeppelin/contracts/token/ERC20/ERC20.sol\":9718:9724  amount */\n      dup2\n        /* \"@openzeppelin/contracts/token/ERC20/ERC20.sol\":9700:9714  accountBalance */\n      dup2\n        /* \"@openzeppelin/contracts/token/ERC20/ERC20.sol\":9700:9724  accountBalance >= amount */\n      lt\n      iszero\n        /* \"@openzeppelin/contracts/token/ERC20/ERC20.sol\":9692:9763  require(accountBalance >= amount, \"ERC20: burn amount exceeds balance\") */\n      tag_353\n      jumpi\n      mload(0x40)\n      0x08c379a000000000000000000000000000000000000000000000000000000000\n      dup2\n      mstore\n      0x04\n      add\n      tag_354\n      swap1\n      tag_355\n      jump\t// in\n    tag_354:\n      mload(0x40)\n      dup1\n      swap2\n      sub\n      swap1\n      revert\n    tag_353:\n        /* \"@openzeppelin/contracts/token/ERC20/ERC20.sol\":9835:9841  amount */\n      dup2\n        /* \"@openzeppelin/contracts/token/ERC20/ERC20.sol\":9818:9832  accountBalance */\n      dup2\n        /* \"@openzeppelin/contracts/token/ERC20/ERC20.sol\":9818:9841  accountBalance - amount */\n      sub\n        /* \"@openzeppelin/contracts/token/ERC20/ERC20.sol\":9797:9806  _balances */\n      0x00\n        /* \"@openzeppelin/contracts/token/ERC20/ERC20.sol\":9797:9815  _balances[account] */\n      dup1\n        /* \"@openzeppelin/contracts/token/ERC20/ERC20.sol\":9807:9814  account */\n      dup6\n        /* \"@openzeppelin/contracts/token/ERC20/ERC20.sol\":9797:9815  _balances[account] */\n      0xffffffffffffffffffffffffffffffffffffffff\n      and\n      0xffffffffffffffffffffffffffffffffffffffff\n      and\n      dup2\n      mstore\n      0x20\n      add\n      swap1\n      dup2\n      mstore\n      0x20\n      add\n      0x00\n      keccak256\n        /* \"@openzeppelin/contracts/token/ERC20/ERC20.sol\":9797:9841  _balances[account] = accountBalance - amount */\n      dup2\n      swap1\n      sstore\n      pop\n        /* \"@openzeppelin/contracts/token/ERC20/ERC20.sol\":9950:9956  amount */\n      dup2\n        /* \"@openzeppelin/contracts/token/ERC20/ERC20.sol\":9934:9946  _totalSupply */\n      0x02\n      0x00\n        /* \"@openzeppelin/contracts/token/ERC20/ERC20.sol\":9934:9956  _totalSupply -= amount */\n      dup3\n      dup3\n      sload\n      sub\n      swap3\n      pop\n      pop\n      dup2\n      swap1\n      sstore\n      pop\n        /* \"@openzeppelin/contracts/token/ERC20/ERC20.sol\":10008:10009  0 */\n      0x00\n        /* \"@openzeppelin/contracts/token/ERC20/ERC20.sol\":9982:10019  Transfer(account, address(0), amount) */\n      0xffffffffffffffffffffffffffffffffffffffff\n      and\n        /* \"@openzeppelin/contracts/token/ERC20/ERC20.sol\":9991:9998  account */\n      dup4\n        /* \"@openzeppelin/contracts/token/ERC20/ERC20.sol\":9982:10019  Transfer(account, address(0), amount) */\n      0xffffffffffffffffffffffffffffffffffffffff\n      and\n      0xddf252ad1be2c89b69c2b068fc378daa952ba7f163c4a11628f55a4df523b3ef\n        /* \"@openzeppelin/contracts/token/ERC20/ERC20.sol\":10012:10018  amount */\n      dup5\n        /* \"@openzeppelin/contracts/token/ERC20/ERC20.sol\":9982:10019  Transfer(account, address(0), amount) */\n      mload(0x40)\n      tag_356\n      swap2\n      swap1\n      tag_46\n      jump\t// in\n    tag_356:\n      mload(0x40)\n      dup1\n      swap2\n      sub\n      swap1\n      log3\n        /* \"@openzeppelin/contracts/token/ERC20/ERC20.sol\":10030:10078  _afterTokenTransfer(account, address(0), amount) */\n      tag_357\n        /* \"@openzeppelin/contracts/token/ERC20/ERC20.sol\":10050:10057  account */\n      dup4\n        /* \"@openzeppelin/contracts/token/ERC20/ERC20.sol\":10067:10068  0 */\n      0x00\n        /* \"@openzeppelin/contracts/token/ERC20/ERC20.sol\":10071:10077  amount */\n      dup5\n        /* \"@openzeppelin/contracts/token/ERC20/ERC20.sol\":10030:10049  _afterTokenTransfer */\n      tag_340\n        /* \"@openzeppelin/contracts/token/ERC20/ERC20.sol\":10030:10078  _afterTokenTransfer(account, address(0), amount) */\n      jump\t// in\n    tag_357:\n        /* \"@openzeppelin/contracts/token/ERC20/ERC20.sol\":9491:10085  {... */\n      pop\n        /* \"@openzeppelin/contracts/token/ERC20/ERC20.sol\":9426:10085  function _burn(address account, uint256 amount) internal virtual {... */\n      pop\n      pop\n      jump\t// out\n        /* \"@openzeppelin/contracts/token/ERC20/ERC20.sol\":8571:9106  function _mint(address account, uint256 amount) internal virtual {... */\n    tag_297:\n        /* \"@openzeppelin/contracts/token/ERC20/ERC20.sol\":8673:8674  0 */\n      0x00\n        /* \"@openzeppelin/contracts/token/ERC20/ERC20.sol\":8654:8675  account != address(0) */\n      0xffffffffffffffffffffffffffffffffffffffff\n      and\n        /* \"@openzeppelin/contracts/token/ERC20/ERC20.sol\":8654:8661  account */\n      dup3\n        /* \"@openzeppelin/contracts/token/ERC20/ERC20.sol\":8654:8675  account != address(0) */\n      0xffffffffffffffffffffffffffffffffffffffff\n      and\n      sub\n        /* \"@openzeppelin/contracts/token/ERC20/ERC20.sol\":8646:8711  require(account != address(0), \"ERC20: mint to the zero address\") */\n      tag_359\n      jumpi\n      mload(0x40)\n      0x08c379a000000000000000000000000000000000000000000000000000000000\n      dup2\n      mstore\n      0x04\n      add\n      tag_360\n      swap1\n      tag_361\n      jump\t// in\n    tag_360:\n      mload(0x40)\n      dup1\n      swap2\n      sub\n      swap1\n      revert\n    tag_359:\n        /* \"@openzeppelin/contracts/token/ERC20/ERC20.sol\":8722:8771  _beforeTokenTransfer(address(0), account, amount) */\n      tag_362\n        /* \"@openzeppelin/contracts/token/ERC20/ERC20.sol\":8751:8752  0 */\n      0x00\n        /* \"@openzeppelin/contracts/token/ERC20/ERC20.sol\":8755:8762  account */\n      dup4\n        /* \"@openzeppelin/contracts/token/ERC20/ERC20.sol\":8764:8770  amount */\n      dup4\n        /* \"@openzeppelin/contracts/token/ERC20/ERC20.sol\":8722:8742  _beforeTokenTransfer */\n      tag_334\n        /* \"@openzeppelin/contracts/token/ERC20/ERC20.sol\":8722:8771  _beforeTokenTransfer(address(0), account, amount) */\n      jump\t// in\n    tag_362:\n        /* \"@openzeppelin/contracts/token/ERC20/ERC20.sol\":8798:8804  amount */\n      dup1\n        /* \"@openzeppelin/contracts/token/ERC20/ERC20.sol\":8782:8794  _totalSupply */\n      0x02\n      0x00\n        /* \"@openzeppelin/contracts/token/ERC20/ERC20.sol\":8782:8804  _totalSupply += amount */\n      dup3\n      dup3\n      sload\n      tag_363\n      swap2\n      swap1\n      tag_226\n      jump\t// in\n    tag_363:\n      swap3\n      pop\n      pop\n      dup2\n      swap1\n      sstore\n      pop\n        /* \"@openzeppelin/contracts/token/ERC20/ERC20.sol\":8972:8978  amount */\n      dup1\n        /* \"@openzeppelin/contracts/token/ERC20/ERC20.sol\":8950:8959  _balances */\n      0x00\n        /* \"@openzeppelin/contracts/token/ERC20/ERC20.sol\":8950:8968  _balances[account] */\n      dup1\n        /* \"@openzeppelin/contracts/token/ERC20/ERC20.sol\":8960:8967  account */\n      dup5\n        /* \"@openzeppelin/contracts/token/ERC20/ERC20.sol\":8950:8968  _balances[account] */\n      0xffffffffffffffffffffffffffffffffffffffff\n      and\n      0xffffffffffffffffffffffffffffffffffffffff\n      and\n      dup2\n      mstore\n      0x20\n      add\n      swap1\n      dup2\n      mstore\n      0x20\n      add\n      0x00\n      keccak256\n      0x00\n        /* \"@openzeppelin/contracts/token/ERC20/ERC20.sol\":8950:8978  _balances[account] += amount */\n      dup3\n      dup3\n      sload\n      add\n      swap3\n      pop\n      pop\n      dup2\n      swap1\n      sstore\n      pop\n        /* \"@openzeppelin/contracts/token/ERC20/ERC20.sol\":9024:9031  account */\n      dup2\n        /* \"@openzeppelin/contracts/token/ERC20/ERC20.sol\":9003:9040  Transfer(address(0), account, amount) */\n      0xffffffffffffffffffffffffffffffffffffffff\n      and\n        /* \"@openzeppelin/contracts/token/ERC20/ERC20.sol\":9020:9021  0 */\n      0x00\n        /* \"@openzeppelin/contracts/token/ERC20/ERC20.sol\":9003:9040  Transfer(address(0), account, amount) */\n      0xffffffffffffffffffffffffffffffffffffffff\n      and\n      0xddf252ad1be2c89b69c2b068fc378daa952ba7f163c4a11628f55a4df523b3ef\n        /* \"@openzeppelin/contracts/token/ERC20/ERC20.sol\":9033:9039  amount */\n      dup4\n        /* \"@openzeppelin/contracts/token/ERC20/ERC20.sol\":9003:9040  Transfer(address(0), account, amount) */\n      mload(0x40)\n      tag_364\n      swap2\n      swap1\n      tag_46\n      jump\t// in\n    tag_364:\n      mload(0x40)\n      dup1\n      swap2\n      sub\n      swap1\n      log3\n        /* \"@openzeppelin/contracts/token/ERC20/ERC20.sol\":9051:9099  _afterTokenTransfer(address(0), account, amount) */\n      tag_365\n        /* \"@openzeppelin/contracts/token/ERC20/ERC20.sol\":9079:9080  0 */\n      0x00\n        /* \"@openzeppelin/contracts/token/ERC20/ERC20.sol\":9083:9090  account */\n      dup4\n        /* \"@openzeppelin/contracts/token/ERC20/ERC20.sol\":9092:9098  amount */\n      dup4\n        /* \"@openzeppelin/contracts/token/ERC20/ERC20.sol\":9051:9070  _afterTokenTransfer */\n      tag_340\n        /* \"@openzeppelin/contracts/token/ERC20/ERC20.sol\":9051:9099  _afterTokenTransfer(address(0), account, amount) */\n      jump\t// in\n    tag_365:\n        /* \"@openzeppelin/contracts/token/ERC20/ERC20.sol\":8571:9106  function _mint(address account, uint256 amount) internal virtual {... */\n      pop\n      pop\n      jump\t// out\n        /* \"@openzeppelin/contracts/token/ERC20/ERC20.sol\":12184:12305  function _beforeTokenTransfer(... */\n    tag_334:\n      pop\n      pop\n      pop\n      jump\t// out\n        /* \"@openzeppelin/contracts/token/ERC20/ERC20.sol\":12893:13013  function _afterTokenTransfer(... */\n    tag_340:\n      pop\n      pop\n      pop\n      jump\t// out\n        /* \"#utility.yul\":7:106   */\n    tag_368:\n        /* \"#utility.yul\":59:65   */\n      0x00\n        /* \"#utility.yul\":93:98   */\n      dup2\n        /* \"#utility.yul\":87:99   */\n      mload\n        /* \"#utility.yul\":77:99   */\n      swap1\n      pop\n        /* \"#utility.yul\":7:106   */\n      swap2\n      swap1\n      pop\n      jump\t// out\n        /* \"#utility.yul\":112:281   */\n    tag_369:\n        /* \"#utility.yul\":196:207   */\n      0x00\n        /* \"#utility.yul\":230:236   */\n      dup3\n        /* \"#utility.yul\":225:228   */\n      dup3\n        /* \"#utility.yul\":218:237   */\n      mstore\n        /* \"#utility.yul\":270:274   */\n      0x20\n        /* \"#utility.yul\":265:268   */\n      dup3\n        /* \"#utility.yul\":261:275   */\n      add\n        /* \"#utility.yul\":246:275   */\n      swap1\n      pop\n        /* \"#utility.yul\":112:281   */\n      swap3\n      swap2\n      pop\n      pop\n      jump\t// out\n        /* \"#utility.yul\":287:533   */\n    tag_370:\n        /* \"#utility.yul\":368:369   */\n      0x00\n        /* \"#utility.yul\":378:491   */\n    tag_461:\n        /* \"#utility.yul\":392:398   */\n      dup4\n        /* \"#utility.yul\":389:390   */\n      dup2\n        /* \"#utility.yul\":386:399   */\n      lt\n        /* \"#utility.yul\":378:491   */\n      iszero\n      tag_463\n      jumpi\n        /* \"#utility.yul\":477:478   */\n      dup1\n        /* \"#utility.yul\":472:475   */\n      dup3\n        /* \"#utility.yul\":468:479   */\n      add\n        /* \"#utility.yul\":462:480   */\n      mload\n        /* \"#utility.yul\":458:459   */\n      dup2\n        /* \"#utility.yul\":453:456   */\n      dup5\n        /* \"#utility.yul\":449:460   */\n      add\n        /* \"#utility.yul\":442:481   */\n      mstore\n        /* \"#utility.yul\":414:416   */\n      0x20\n        /* \"#utility.yul\":411:412   */\n      dup2\n        /* \"#utility.yul\":407:417   */\n      add\n        /* \"#utility.yul\":402:417   */\n      swap1\n      pop\n        /* \"#utility.yul\":378:491   */\n      jump(tag_461)\n    tag_463:\n        /* \"#utility.yul\":525:526   */\n      0x00\n        /* \"#utility.yul\":516:522   */\n      dup5\n        /* \"#utility.yul\":511:514   */\n      dup5\n        /* \"#utility.yul\":507:523   */\n      add\n        /* \"#utility.yul\":500:527   */\n      mstore\n        /* \"#utility.yul\":349:533   */\n      pop\n        /* \"#utility.yul\":287:533   */\n      pop\n      pop\n      pop\n      jump\t// out\n        /* \"#utility.yul\":539:641   */\n    tag_371:\n        /* \"#utility.yul\":580:586   */\n      0x00\n        /* \"#utility.yul\":631:633   */\n      0x1f\n        /* \"#utility.yul\":627:634   */\n      not\n        /* \"#utility.yul\":622:624   */\n      0x1f\n        /* \"#utility.yul\":615:620   */\n      dup4\n        /* \"#utility.yul\":611:625   */\n      add\n        /* \"#utility.yul\":607:635   */\n      and\n        /* \"#utility.yul\":597:635   */\n      swap1\n      pop\n        /* \"#utility.yul\":539:641   */\n      swap2\n      swap1\n      pop\n      jump\t// out\n        /* \"#utility.yul\":647:1024   */\n    tag_372:\n        /* \"#utility.yul\":735:738   */\n      0x00\n        /* \"#utility.yul\":763:802   */\n      tag_466\n        /* \"#utility.yul\":796:801   */\n      dup3\n        /* \"#utility.yul\":763:802   */\n      tag_368\n      jump\t// in\n    tag_466:\n        /* \"#utility.yul\":818:889   */\n      tag_467\n        /* \"#utility.yul\":882:888   */\n      dup2\n        /* \"#utility.yul\":877:880   */\n      dup6\n        /* \"#utility.yul\":818:889   */\n      tag_369\n      jump\t// in\n    tag_467:\n        /* \"#utility.yul\":811:889   */\n      swap4\n      pop\n        /* \"#utility.yul\":898:963   */\n      tag_468\n        /* \"#utility.yul\":956:962   */\n      dup2\n        /* \"#utility.yul\":951:954   */\n      dup6\n        /* \"#utility.yul\":944:948   */\n      0x20\n        /* \"#utility.yul\":937:942   */\n      dup7\n        /* \"#utility.yul\":933:949   */\n      add\n        /* \"#utility.yul\":898:963   */\n      tag_370\n      jump\t// in\n    tag_468:\n        /* \"#utility.yul\":988:1017   */\n      tag_469\n        /* \"#utility.yul\":1010:1016   */\n      dup2\n        /* \"#utility.yul\":988:1017   */\n      tag_371\n      jump\t// in\n    tag_469:\n        /* \"#utility.yul\":983:986   */\n      dup5\n        /* \"#utility.yul\":979:1018   */\n      add\n        /* \"#utility.yul\":972:1018   */\n      swap2\n      pop\n        /* \"#utility.yul\":739:1024   */\n      pop\n        /* \"#utility.yul\":647:1024   */\n      swap3\n      swap2\n      pop\n      pop\n      jump\t// out\n        /* \"#utility.yul\":1030:1343   */\n    tag_41:\n        /* \"#utility.yul\":1143:1147   */\n      0x00\n        /* \"#utility.yul\":1181:1183   */\n      0x20\n        /* \"#utility.yul\":1170:1179   */\n      dup3\n        /* \"#utility.yul\":1166:1184   */\n      add\n        /* \"#utility.yul\":1158:1184   */\n      swap1\n      pop\n        /* \"#utility.yul\":1230:1239   */\n      dup2\n        /* \"#utility.yul\":1224:1228   */\n      dup2\n        /* \"#utility.yul\":1220:1240   */\n      sub\n        /* \"#utility.yul\":1216:1217   */\n      0x00\n        /* \"#utility.yul\":1205:1214   */\n      dup4\n        /* \"#utility.yul\":1201:1218   */\n      add\n        /* \"#utility.yul\":1194:1241   */\n      mstore\n        /* \"#utility.yul\":1258:1336   */\n      tag_471\n        /* \"#utility.yul\":1331:1335   */\n      dup2\n        /* \"#utility.yul\":1322:1328   */\n      dup5\n        /* \"#utility.yul\":1258:1336   */\n      tag_372\n      jump\t// in\n    tag_471:\n        /* \"#utility.yul\":1250:1336   */\n      swap1\n      pop\n        /* \"#utility.yul\":1030:1343   */\n      swap3\n      swap2\n      pop\n      pop\n      jump\t// out\n        /* \"#utility.yul\":1349:1426   */\n    tag_373:\n        /* \"#utility.yul\":1386:1393   */\n      0x00\n        /* \"#utility.yul\":1415:1420   */\n      dup2\n        /* \"#utility.yul\":1404:1420   */\n      swap1\n      pop\n        /* \"#utility.yul\":1349:1426   */\n      swap2\n      swap1\n      pop\n      jump\t// out\n        /* \"#utility.yul\":1432:1550   */\n    tag_374:\n        /* \"#utility.yul\":1519:1543   */\n      tag_474\n        /* \"#utility.yul\":1537:1542   */\n      dup2\n        /* \"#utility.yul\":1519:1543   */\n      tag_373\n      jump\t// in\n    tag_474:\n        /* \"#utility.yul\":1514:1517   */\n      dup3\n        /* \"#utility.yul\":1507:1544   */\n      mstore\n        /* \"#utility.yul\":1432:1550   */\n      pop\n      pop\n      jump\t// out\n        /* \"#utility.yul\":1556:1778   */\n    tag_46:\n        /* \"#utility.yul\":1649:1653   */\n      0x00\n        /* \"#utility.yul\":1687:1689   */\n      0x20\n        /* \"#utility.yul\":1676:1685   */\n      dup3\n        /* \"#utility.yul\":1672:1690   */\n      add\n        /* \"#utility.yul\":1664:1690   */\n      swap1\n      pop\n        /* \"#utility.yul\":1700:1771   */\n      tag_476\n        /* \"#utility.yul\":1768:1769   */\n      0x00\n        /* \"#utility.yul\":1757:1766   */\n      dup4\n        /* \"#utility.yul\":1753:1770   */\n      add\n        /* \"#utility.yul\":1744:1750   */\n      dup5\n        /* \"#utility.yul\":1700:1771   */\n      tag_374\n      jump\t// in\n    tag_476:\n        /* \"#utility.yul\":1556:1778   */\n      swap3\n      swap2\n      pop\n      pop\n      jump\t// out\n        /* \"#utility.yul\":1784:1859   */\n    tag_375:\n        /* \"#utility.yul\":1817:1823   */\n      0x00\n        /* \"#utility.yul\":1850:1852   */\n      0x40\n        /* \"#utility.yul\":1844:1853   */\n      mload\n        /* \"#utility.yul\":1834:1853   */\n      swap1\n      pop\n        /* \"#utility.yul\":1784:1859   */\n      swap1\n      jump\t// out\n        /* \"#utility.yul\":1865:1982   */\n    tag_376:\n        /* \"#utility.yul\":1974:1975   */\n      0x00\n        /* \"#utility.yul\":1971:1972   */\n      dup1\n        /* \"#utility.yul\":1964:1976   */\n      revert\n        /* \"#utility.yul\":1988:2105   */\n    tag_377:\n        /* \"#utility.yul\":2097:2098   */\n      0x00\n        /* \"#utility.yul\":2094:2095   */\n      dup1\n        /* \"#utility.yul\":2087:2099   */\n      revert\n        /* \"#utility.yul\":2111:2237   */\n    tag_378:\n        /* \"#utility.yul\":2148:2155   */\n      0x00\n        /* \"#utility.yul\":2188:2230   */\n      0xffffffffffffffffffffffffffffffffffffffff\n        /* \"#utility.yul\":2181:2186   */\n      dup3\n        /* \"#utility.yul\":2177:2231   */\n      and\n        /* \"#utility.yul\":2166:2231   */\n      swap1\n      pop\n        /* \"#utility.yul\":2111:2237   */\n      swap2\n      swap1\n      pop\n      jump\t// out\n        /* \"#utility.yul\":2243:2339   */\n    tag_379:\n        /* \"#utility.yul\":2280:2287   */\n      0x00\n        /* \"#utility.yul\":2309:2333   */\n      tag_482\n        /* \"#utility.yul\":2327:2332   */\n      dup3\n        /* \"#utility.yul\":2309:2333   */\n      tag_378\n      jump\t// in\n    tag_482:\n        /* \"#utility.yul\":2298:2333   */\n      swap1\n      pop\n        /* \"#utility.yul\":2243:2339   */\n      swap2\n      swap1\n      pop\n      jump\t// out\n        /* \"#utility.yul\":2345:2467   */\n    tag_380:\n        /* \"#utility.yul\":2418:2442   */\n      tag_484\n        /* \"#utility.yul\":2436:2441   */\n      dup2\n        /* \"#utility.yul\":2418:2442   */\n      tag_379\n      jump\t// in\n    tag_484:\n        /* \"#utility.yul\":2411:2416   */\n      dup2\n        /* \"#utility.yul\":2408:2443   */\n      eq\n        /* \"#utility.yul\":2398:2461   */\n      tag_485\n      jumpi\n        /* \"#utility.yul\":2457:2458   */\n      0x00\n        /* \"#utility.yul\":2454:2455   */\n      dup1\n        /* \"#utility.yul\":2447:2459   */\n      revert\n        /* \"#utility.yul\":2398:2461   */\n    tag_485:\n        /* \"#utility.yul\":2345:2467   */\n      pop\n      jump\t// out\n        /* \"#utility.yul\":2473:2612   */\n    tag_381:\n        /* \"#utility.yul\":2519:2524   */\n      0x00\n        /* \"#utility.yul\":2557:2563   */\n      dup2\n        /* \"#utility.yul\":2544:2564   */\n      calldataload\n        /* \"#utility.yul\":2535:2564   */\n      swap1\n      pop\n        /* \"#utility.yul\":2573:2606   */\n      tag_487\n        /* \"#utility.yul\":2600:2605   */\n      dup2\n        /* \"#utility.yul\":2573:2606   */\n      tag_380\n      jump\t// in\n    tag_487:\n        /* \"#utility.yul\":2473:2612   */\n      swap3\n      swap2\n      pop\n      pop\n      jump\t// out\n        /* \"#utility.yul\":2618:2740   */\n    tag_382:\n        /* \"#utility.yul\":2691:2715   */\n      tag_489\n        /* \"#utility.yul\":2709:2714   */\n      dup2\n        /* \"#utility.yul\":2691:2715   */\n      tag_373\n      jump\t// in\n    tag_489:\n        /* \"#utility.yul\":2684:2689   */\n      dup2\n        /* \"#utility.yul\":2681:2716   */\n      eq\n        /* \"#utility.yul\":2671:2734   */\n      tag_490\n      jumpi\n        /* \"#utility.yul\":2730:2731   */\n      0x00\n        /* \"#utility.yul\":2727:2728   */\n      dup1\n        /* \"#utility.yul\":2720:2732   */\n      revert\n        /* \"#utility.yul\":2671:2734   */\n    tag_490:\n        /* \"#utility.yul\":2618:2740   */\n      pop\n      jump\t// out\n        /* \"#utility.yul\":2746:2885   */\n    tag_383:\n        /* \"#utility.yul\":2792:2797   */\n      0x00\n        /* \"#utility.yul\":2830:2836   */\n      dup2\n        /* \"#utility.yul\":2817:2837   */\n      calldataload\n        /* \"#utility.yul\":2808:2837   */\n      swap1\n      pop\n        /* \"#utility.yul\":2846:2879   */\n      tag_492\n        /* \"#utility.yul\":2873:2878   */\n      dup2\n        /* \"#utility.yul\":2846:2879   */\n      tag_382\n      jump\t// in\n    tag_492:\n        /* \"#utility.yul\":2746:2885   */\n      swap3\n      swap2\n      pop\n      pop\n      jump\t// out\n        /* \"#utility.yul\":2891:3365   */\n    tag_50:\n        /* \"#utility.yul\":2959:2965   */\n      0x00\n        /* \"#utility.yul\":2967:2973   */\n      dup1\n        /* \"#utility.yul\":3016:3018   */\n      0x40\n        /* \"#utility.yul\":3004:3013   */\n      dup4\n        /* \"#utility.yul\":2995:3002   */\n      dup6\n        /* \"#utility.yul\":2991:3014   */\n      sub\n        /* \"#utility.yul\":2987:3019   */\n      slt\n        /* \"#utility.yul\":2984:3103   */\n      iszero\n      tag_494\n      jumpi\n        /* \"#utility.yul\":3022:3101   */\n      tag_495\n      tag_376\n      jump\t// in\n    tag_495:\n        /* \"#utility.yul\":2984:3103   */\n    tag_494:\n        /* \"#utility.yul\":3142:3143   */\n      0x00\n        /* \"#utility.yul\":3167:3220   */\n      tag_496\n        /* \"#utility.yul\":3212:3219   */\n      dup6\n        /* \"#utility.yul\":3203:3209   */\n      dup3\n        /* \"#utility.yul\":3192:3201   */\n      dup7\n        /* \"#utility.yul\":3188:3210   */\n      add\n        /* \"#utility.yul\":3167:3220   */\n      tag_381\n      jump\t// in\n    tag_496:\n        /* \"#utility.yul\":3157:3220   */\n      swap3\n      pop\n        /* \"#utility.yul\":3113:3230   */\n      pop\n        /* \"#utility.yul\":3269:3271   */\n      0x20\n        /* \"#utility.yul\":3295:3348   */\n      tag_497\n        /* \"#utility.yul\":3340:3347   */\n      dup6\n        /* \"#utility.yul\":3331:3337   */\n      dup3\n        /* \"#utility.yul\":3320:3329   */\n      dup7\n        /* \"#utility.yul\":3316:3338   */\n      add\n        /* \"#utility.yul\":3295:3348   */\n      tag_383\n      jump\t// in\n    tag_497:\n        /* \"#utility.yul\":3285:3348   */\n      swap2\n      pop\n        /* \"#utility.yul\":3240:3358   */\n      pop\n        /* \"#utility.yul\":2891:3365   */\n      swap3\n      pop\n      swap3\n      swap1\n      pop\n      jump\t// out\n        /* \"#utility.yul\":3371:3461   */\n    tag_384:\n        /* \"#utility.yul\":3405:3412   */\n      0x00\n        /* \"#utility.yul\":3448:3453   */\n      dup2\n        /* \"#utility.yul\":3441:3454   */\n      iszero\n        /* \"#utility.yul\":3434:3455   */\n      iszero\n        /* \"#utility.yul\":3423:3455   */\n      swap1\n      pop\n        /* \"#utility.yul\":3371:3461   */\n      swap2\n      swap1\n      pop\n      jump\t// out\n        /* \"#utility.yul\":3467:3576   */\n    tag_385:\n        /* \"#utility.yul\":3548:3569   */\n      tag_500\n        /* \"#utility.yul\":3563:3568   */\n      dup2\n        /* \"#utility.yul\":3548:3569   */\n      tag_384\n      jump\t// in\n    tag_500:\n        /* \"#utility.yul\":3543:3546   */\n      dup3\n        /* \"#utility.yul\":3536:3570   */\n      mstore\n        /* \"#utility.yul\":3467:3576   */\n      pop\n      pop\n      jump\t// out\n        /* \"#utility.yul\":3582:3792   */\n    tag_53:\n        /* \"#utility.yul\":3669:3673   */\n      0x00\n        /* \"#utility.yul\":3707:3709   */\n      0x20\n        /* \"#utility.yul\":3696:3705   */\n      dup3\n        /* \"#utility.yul\":3692:3710   */\n      add\n        /* \"#utility.yul\":3684:3710   */\n      swap1\n      pop\n        /* \"#utility.yul\":3720:3785   */\n      tag_502\n        /* \"#utility.yul\":3782:3783   */\n      0x00\n        /* \"#utility.yul\":3771:3780   */\n      dup4\n        /* \"#utility.yul\":3767:3784   */\n      add\n        /* \"#utility.yul\":3758:3764   */\n      dup5\n        /* \"#utility.yul\":3720:3785   */\n      tag_385\n      jump\t// in\n    tag_502:\n        /* \"#utility.yul\":3582:3792   */\n      swap3\n      swap2\n      pop\n      pop\n      jump\t// out\n        /* \"#utility.yul\":3798:4127   */\n    tag_61:\n        /* \"#utility.yul\":3857:3863   */\n      0x00\n        /* \"#utility.yul\":3906:3908   */\n      0x20\n        /* \"#utility.yul\":3894:3903   */\n      dup3\n        /* \"#utility.yul\":3885:3892   */\n      dup5\n        /* \"#utility.yul\":3881:3904   */\n      sub\n        /* \"#utility.yul\":3877:3909   */\n      slt\n        /* \"#utility.yul\":3874:3993   */\n      iszero\n      tag_504\n      jumpi\n        /* \"#utility.yul\":3912:3991   */\n      tag_505\n      tag_376\n      jump\t// in\n    tag_505:\n        /* \"#utility.yul\":3874:3993   */\n    tag_504:\n        /* \"#utility.yul\":4032:4033   */\n      0x00\n        /* \"#utility.yul\":4057:4110   */\n      tag_506\n        /* \"#utility.yul\":4102:4109   */\n      dup5\n        /* \"#utility.yul\":4093:4099   */\n      dup3\n        /* \"#utility.yul\":4082:4091   */\n      dup6\n        /* \"#utility.yul\":4078:4100   */\n      add\n        /* \"#utility.yul\":4057:4110   */\n      tag_381\n      jump\t// in\n    tag_506:\n        /* \"#utility.yul\":4047:4110   */\n      swap2\n      pop\n        /* \"#utility.yul\":4003:4120   */\n      pop\n        /* \"#utility.yul\":3798:4127   */\n      swap3\n      swap2\n      pop\n      pop\n      jump\t// out\n        /* \"#utility.yul\":4133:4752   */\n    tag_67:\n        /* \"#utility.yul\":4210:4216   */\n      0x00\n        /* \"#utility.yul\":4218:4224   */\n      dup1\n        /* \"#utility.yul\":4226:4232   */\n      0x00\n        /* \"#utility.yul\":4275:4277   */\n      0x60\n        /* \"#utility.yul\":4263:4272   */\n      dup5\n        /* \"#utility.yul\":4254:4261   */\n      dup7\n        /* \"#utility.yul\":4250:4273   */\n      sub\n        /* \"#utility.yul\":4246:4278   */\n      slt\n        /* \"#utility.yul\":4243:4362   */\n      iszero\n      tag_508\n      jumpi\n        /* \"#utility.yul\":4281:4360   */\n      tag_509\n      tag_376\n      jump\t// in\n    tag_509:\n        /* \"#utility.yul\":4243:4362   */\n    tag_508:\n        /* \"#utility.yul\":4401:4402   */\n      0x00\n        /* \"#utility.yul\":4426:4479   */\n      tag_510\n        /* \"#utility.yul\":4471:4478   */\n      dup7\n        /* \"#utility.yul\":4462:4468   */\n      dup3\n        /* \"#utility.yul\":4451:4460   */\n      dup8\n        /* \"#utility.yul\":4447:4469   */\n      add\n        /* \"#utility.yul\":4426:4479   */\n      tag_381\n      jump\t// in\n    tag_510:\n        /* \"#utility.yul\":4416:4479   */\n      swap4\n      pop\n        /* \"#utility.yul\":4372:4489   */\n      pop\n        /* \"#utility.yul\":4528:4530   */\n      0x20\n        /* \"#utility.yul\":4554:4607   */\n      tag_511\n        /* \"#utility.yul\":4599:4606   */\n      dup7\n        /* \"#utility.yul\":4590:4596   */\n      dup3\n        /* \"#utility.yul\":4579:4588   */\n      dup8\n        /* \"#utility.yul\":4575:4597   */\n      add\n        /* \"#utility.yul\":4554:4607   */\n      tag_381\n      jump\t// in\n    tag_511:\n        /* \"#utility.yul\":4544:4607   */\n      swap3\n      pop\n        /* \"#utility.yul\":4499:4617   */\n      pop\n        /* \"#utility.yul\":4656:4658   */\n      0x40\n        /* \"#utility.yul\":4682:4735   */\n      tag_512\n        /* \"#utility.yul\":4727:4734   */\n      dup7\n        /* \"#utility.yul\":4718:4724   */\n      dup3\n        /* \"#utility.yul\":4707:4716   */\n      dup8\n        /* \"#utility.yul\":4703:4725   */\n      add\n        /* \"#utility.yul\":4682:4735   */\n      tag_383\n      jump\t// in\n    tag_512:\n        /* \"#utility.yul\":4672:4735   */\n      swap2\n      pop\n        /* \"#utility.yul\":4627:4745   */\n      pop\n        /* \"#utility.yul\":4133:4752   */\n      swap3\n      pop\n      swap3\n      pop\n      swap3\n      jump\t// out\n        /* \"#utility.yul\":4758:4875   */\n    tag_386:\n        /* \"#utility.yul\":4867:4868   */\n      0x00\n        /* \"#utility.yul\":4864:4865   */\n      dup1\n        /* \"#utility.yul\":4857:4869   */\n      revert\n        /* \"#utility.yul\":4881:4998   */\n    tag_387:\n        /* \"#utility.yul\":4990:4991   */\n      0x00\n        /* \"#utility.yul\":4987:4988   */\n      dup1\n        /* \"#utility.yul\":4980:4992   */\n      revert\n        /* \"#utility.yul\":5004:5184   */\n    tag_388:\n        /* \"#utility.yul\":5052:5129   */\n      0x4e487b7100000000000000000000000000000000000000000000000000000000\n        /* \"#utility.yul\":5049:5050   */\n      0x00\n        /* \"#utility.yul\":5042:5130   */\n      mstore\n        /* \"#utility.yul\":5149:5153   */\n      0x41\n        /* \"#utility.yul\":5146:5147   */\n      0x04\n        /* \"#utility.yul\":5139:5154   */\n      mstore\n        /* \"#utility.yul\":5173:5177   */\n      0x24\n        /* \"#utility.yul\":5170:5171   */\n      0x00\n        /* \"#utility.yul\":5163:5178   */\n      revert\n        /* \"#utility.yul\":5190:5471   */\n    tag_389:\n        /* \"#utility.yul\":5273:5300   */\n      tag_517\n        /* \"#utility.yul\":5295:5299   */\n      dup3\n        /* \"#utility.yul\":5273:5300   */\n      tag_371\n      jump\t// in\n    tag_517:\n        /* \"#utility.yul\":5265:5271   */\n      dup2\n        /* \"#utility.yul\":5261:5301   */\n      add\n        /* \"#utility.yul\":5403:5409   */\n      dup2\n        /* \"#utility.yul\":5391:5401   */\n      dup2\n        /* \"#utility.yul\":5388:5410   */\n      lt\n        /* \"#utility.yul\":5367:5385   */\n      0xffffffffffffffff\n        /* \"#utility.yul\":5355:5365   */\n      dup3\n        /* \"#utility.yul\":5352:5386   */\n      gt\n        /* \"#utility.yul\":5349:5411   */\n      or\n        /* \"#utility.yul\":5346:5434   */\n      iszero\n      tag_518\n      jumpi\n        /* \"#utility.yul\":5414:5432   */\n      tag_519\n      tag_388\n      jump\t// in\n    tag_519:\n        /* \"#utility.yul\":5346:5434   */\n    tag_518:\n        /* \"#utility.yul\":5454:5464   */\n      dup1\n        /* \"#utility.yul\":5450:5452   */\n      0x40\n        /* \"#utility.yul\":5443:5465   */\n      mstore\n        /* \"#utility.yul\":5233:5471   */\n      pop\n        /* \"#utility.yul\":5190:5471   */\n      pop\n      pop\n      jump\t// out\n        /* \"#utility.yul\":5477:5606   */\n    tag_390:\n        /* \"#utility.yul\":5511:5517   */\n      0x00\n        /* \"#utility.yul\":5538:5558   */\n      tag_521\n      tag_375\n      jump\t// in\n    tag_521:\n        /* \"#utility.yul\":5528:5558   */\n      swap1\n      pop\n        /* \"#utility.yul\":5567:5600   */\n      tag_522\n        /* \"#utility.yul\":5595:5599   */\n      dup3\n        /* \"#utility.yul\":5587:5593   */\n      dup3\n        /* \"#utility.yul\":5567:5600   */\n      tag_389\n      jump\t// in\n    tag_522:\n        /* \"#utility.yul\":5477:5606   */\n      swap2\n      swap1\n      pop\n      jump\t// out\n        /* \"#utility.yul\":5612:5919   */\n    tag_391:\n        /* \"#utility.yul\":5673:5677   */\n      0x00\n        /* \"#utility.yul\":5763:5781   */\n      0xffffffffffffffff\n        /* \"#utility.yul\":5755:5761   */\n      dup3\n        /* \"#utility.yul\":5752:5782   */\n      gt\n        /* \"#utility.yul\":5749:5805   */\n      iszero\n      tag_524\n      jumpi\n        /* \"#utility.yul\":5785:5803   */\n      tag_525\n      tag_388\n      jump\t// in\n    tag_525:\n        /* \"#utility.yul\":5749:5805   */\n    tag_524:\n        /* \"#utility.yul\":5823:5852   */\n      tag_526\n        /* \"#utility.yul\":5845:5851   */\n      dup3\n        /* \"#utility.yul\":5823:5852   */\n      tag_371\n      jump\t// in\n    tag_526:\n        /* \"#utility.yul\":5815:5852   */\n      swap1\n      pop\n        /* \"#utility.yul\":5907:5911   */\n      0x20\n        /* \"#utility.yul\":5901:5905   */\n      dup2\n        /* \"#utility.yul\":5897:5912   */\n      add\n        /* \"#utility.yul\":5889:5912   */\n      swap1\n      pop\n        /* \"#utility.yul\":5612:5919   */\n      swap2\n      swap1\n      pop\n      jump\t// out\n        /* \"#utility.yul\":5925:6071   */\n    tag_392:\n        /* \"#utility.yul\":6022:6028   */\n      dup3\n        /* \"#utility.yul\":6017:6020   */\n      dup2\n        /* \"#utility.yul\":6012:6015   */\n      dup4\n        /* \"#utility.yul\":5999:6029   */\n      calldatacopy\n        /* \"#utility.yul\":6063:6064   */\n      0x00\n        /* \"#utility.yul\":6054:6060   */\n      dup4\n        /* \"#utility.yul\":6049:6052   */\n      dup4\n        /* \"#utility.yul\":6045:6061   */\n      add\n        /* \"#utility.yul\":6038:6065   */\n      mstore\n        /* \"#utility.yul\":5925:6071   */\n      pop\n      pop\n      pop\n      jump\t// out\n        /* \"#utility.yul\":6077:6500   */\n    tag_393:\n        /* \"#utility.yul\":6154:6159   */\n      0x00\n        /* \"#utility.yul\":6179:6244   */\n      tag_529\n        /* \"#utility.yul\":6195:6243   */\n      tag_530\n        /* \"#utility.yul\":6236:6242   */\n      dup5\n        /* \"#utility.yul\":6195:6243   */\n      tag_391\n      jump\t// in\n    tag_530:\n        /* \"#utility.yul\":6179:6244   */\n      tag_390\n      jump\t// in\n    tag_529:\n        /* \"#utility.yul\":6170:6244   */\n      swap1\n      pop\n        /* \"#utility.yul\":6267:6273   */\n      dup3\n        /* \"#utility.yul\":6260:6265   */\n      dup2\n        /* \"#utility.yul\":6253:6274   */\n      mstore\n        /* \"#utility.yul\":6305:6309   */\n      0x20\n        /* \"#utility.yul\":6298:6303   */\n      dup2\n        /* \"#utility.yul\":6294:6310   */\n      add\n        /* \"#utility.yul\":6343:6346   */\n      dup5\n        /* \"#utility.yul\":6334:6340   */\n      dup5\n        /* \"#utility.yul\":6329:6332   */\n      dup5\n        /* \"#utility.yul\":6325:6341   */\n      add\n        /* \"#utility.yul\":6322:6347   */\n      gt\n        /* \"#utility.yul\":6319:6431   */\n      iszero\n      tag_531\n      jumpi\n        /* \"#utility.yul\":6350:6429   */\n      tag_532\n      tag_387\n      jump\t// in\n    tag_532:\n        /* \"#utility.yul\":6319:6431   */\n    tag_531:\n        /* \"#utility.yul\":6440:6494   */\n      tag_533\n        /* \"#utility.yul\":6487:6493   */\n      dup5\n        /* \"#utility.yul\":6482:6485   */\n      dup3\n        /* \"#utility.yul\":6477:6480   */\n      dup6\n        /* \"#utility.yul\":6440:6494   */\n      tag_392\n      jump\t// in\n    tag_533:\n        /* \"#utility.yul\":6160:6500   */\n      pop\n        /* \"#utility.yul\":6077:6500   */\n      swap4\n      swap3\n      pop\n      pop\n      pop\n      jump\t// out\n        /* \"#utility.yul\":6519:6857   */\n    tag_394:\n        /* \"#utility.yul\":6574:6579   */\n      0x00\n        /* \"#utility.yul\":6623:6626   */\n      dup3\n        /* \"#utility.yul\":6616:6620   */\n      0x1f\n        /* \"#utility.yul\":6608:6614   */\n      dup4\n        /* \"#utility.yul\":6604:6621   */\n      add\n        /* \"#utility.yul\":6600:6627   */\n      slt\n        /* \"#utility.yul\":6590:6712   */\n      tag_535\n      jumpi\n        /* \"#utility.yul\":6631:6710   */\n      tag_536\n      tag_386\n      jump\t// in\n    tag_536:\n        /* \"#utility.yul\":6590:6712   */\n    tag_535:\n        /* \"#utility.yul\":6748:6754   */\n      dup2\n        /* \"#utility.yul\":6735:6755   */\n      calldataload\n        /* \"#utility.yul\":6773:6851   */\n      tag_537\n        /* \"#utility.yul\":6847:6850   */\n      dup5\n        /* \"#utility.yul\":6839:6845   */\n      dup3\n        /* \"#utility.yul\":6832:6836   */\n      0x20\n        /* \"#utility.yul\":6824:6830   */\n      dup7\n        /* \"#utility.yul\":6820:6837   */\n      add\n        /* \"#utility.yul\":6773:6851   */\n      tag_393\n      jump\t// in\n    tag_537:\n        /* \"#utility.yul\":6764:6851   */\n      swap2\n      pop\n        /* \"#utility.yul\":6580:6857   */\n      pop\n        /* \"#utility.yul\":6519:6857   */\n      swap3\n      swap2\n      pop\n      pop\n      jump\t// out\n        /* \"#utility.yul\":6863:7370   */\n    tag_73:\n        /* \"#utility.yul\":6931:6937   */\n      0x00\n        /* \"#utility.yul\":6980:6982   */\n      0x20\n        /* \"#utility.yul\":6968:6977   */\n      dup3\n        /* \"#utility.yul\":6959:6966   */\n      dup5\n        /* \"#utility.yul\":6955:6978   */\n      sub\n        /* \"#utility.yul\":6951:6983   */\n      slt\n        /* \"#utility.yul\":6948:7067   */\n      iszero\n      tag_539\n      jumpi\n        /* \"#utility.yul\":6986:7065   */\n      tag_540\n      tag_376\n      jump\t// in\n    tag_540:\n        /* \"#utility.yul\":6948:7067   */\n    tag_539:\n        /* \"#utility.yul\":7134:7135   */\n      0x00\n        /* \"#utility.yul\":7123:7132   */\n      dup3\n        /* \"#utility.yul\":7119:7136   */\n      add\n        /* \"#utility.yul\":7106:7137   */\n      calldataload\n        /* \"#utility.yul\":7164:7182   */\n      0xffffffffffffffff\n        /* \"#utility.yul\":7156:7162   */\n      dup2\n        /* \"#utility.yul\":7153:7183   */\n      gt\n        /* \"#utility.yul\":7150:7267   */\n      iszero\n      tag_541\n      jumpi\n        /* \"#utility.yul\":7186:7265   */\n      tag_542\n      tag_377\n      jump\t// in\n    tag_542:\n        /* \"#utility.yul\":7150:7267   */\n    tag_541:\n        /* \"#utility.yul\":7291:7353   */\n      tag_543\n        /* \"#utility.yul\":7345:7352   */\n      dup5\n        /* \"#utility.yul\":7336:7342   */\n      dup3\n        /* \"#utility.yul\":7325:7334   */\n      dup6\n        /* \"#utility.yul\":7321:7343   */\n      add\n        /* \"#utility.yul\":7291:7353   */\n      tag_394\n      jump\t// in\n    tag_543:\n        /* \"#utility.yul\":7281:7353   */\n      swap2\n      pop\n        /* \"#utility.yul\":7077:7363   */\n      pop\n        /* \"#utility.yul\":6863:7370   */\n      swap3\n      swap2\n      pop\n      pop\n      jump\t// out\n        /* \"#utility.yul\":7376:7494   */\n    tag_395:\n        /* \"#utility.yul\":7463:7487   */\n      tag_545\n        /* \"#utility.yul\":7481:7486   */\n      dup2\n        /* \"#utility.yul\":7463:7487   */\n      tag_379\n      jump\t// in\n    tag_545:\n        /* \"#utility.yul\":7458:7461   */\n      dup3\n        /* \"#utility.yul\":7451:7488   */\n      mstore\n        /* \"#utility.yul\":7376:7494   */\n      pop\n      pop\n      jump\t// out\n        /* \"#utility.yul\":7500:7722   */\n    tag_76:\n        /* \"#utility.yul\":7593:7597   */\n      0x00\n        /* \"#utility.yul\":7631:7633   */\n      0x20\n        /* \"#utility.yul\":7620:7629   */\n      dup3\n        /* \"#utility.yul\":7616:7634   */\n      add\n        /* \"#utility.yul\":7608:7634   */\n      swap1\n      pop\n        /* \"#utility.yul\":7644:7715   */\n      tag_547\n        /* \"#utility.yul\":7712:7713   */\n      0x00\n        /* \"#utility.yul\":7701:7710   */\n      dup4\n        /* \"#utility.yul\":7697:7714   */\n      add\n        /* \"#utility.yul\":7688:7694   */\n      dup5\n        /* \"#utility.yul\":7644:7715   */\n      tag_395\n      jump\t// in\n    tag_547:\n        /* \"#utility.yul\":7500:7722   */\n      swap3\n      swap2\n      pop\n      pop\n      jump\t// out\n        /* \"#utility.yul\":7728:7814   */\n    tag_396:\n        /* \"#utility.yul\":7763:7770   */\n      0x00\n        /* \"#utility.yul\":7803:7807   */\n      0xff\n        /* \"#utility.yul\":7796:7801   */\n      dup3\n        /* \"#utility.yul\":7792:7808   */\n      and\n        /* \"#utility.yul\":7781:7808   */\n      swap1\n      pop\n        /* \"#utility.yul\":7728:7814   */\n      swap2\n      swap1\n      pop\n      jump\t// out\n        /* \"#utility.yul\":7820:7932   */\n    tag_397:\n        /* \"#utility.yul\":7903:7925   */\n      tag_550\n        /* \"#utility.yul\":7919:7924   */\n      dup2\n        /* \"#utility.yul\":7903:7925   */\n      tag_396\n      jump\t// in\n    tag_550:\n        /* \"#utility.yul\":7898:7901   */\n      dup3\n        /* \"#utility.yul\":7891:7926   */\n      mstore\n        /* \"#utility.yul\":7820:7932   */\n      pop\n      pop\n      jump\t// out\n        /* \"#utility.yul\":7938:8152   */\n    tag_81:\n        /* \"#utility.yul\":8027:8031   */\n      0x00\n        /* \"#utility.yul\":8065:8067   */\n      0x20\n        /* \"#utility.yul\":8054:8063   */\n      dup3\n        /* \"#utility.yul\":8050:8068   */\n      add\n        /* \"#utility.yul\":8042:8068   */\n      swap1\n      pop\n        /* \"#utility.yul\":8078:8145   */\n      tag_552\n        /* \"#utility.yul\":8142:8143   */\n      0x00\n        /* \"#utility.yul\":8131:8140   */\n      dup4\n        /* \"#utility.yul\":8127:8144   */\n      add\n        /* \"#utility.yul\":8118:8124   */\n      dup5\n        /* \"#utility.yul\":8078:8145   */\n      tag_397\n      jump\t// in\n    tag_552:\n        /* \"#utility.yul\":7938:8152   */\n      swap3\n      swap2\n      pop\n      pop\n      jump\t// out\n        /* \"#utility.yul\":8158:8274   */\n    tag_398:\n        /* \"#utility.yul\":8228:8249   */\n      tag_554\n        /* \"#utility.yul\":8243:8248   */\n      dup2\n        /* \"#utility.yul\":8228:8249   */\n      tag_384\n      jump\t// in\n    tag_554:\n        /* \"#utility.yul\":8221:8226   */\n      dup2\n        /* \"#utility.yul\":8218:8250   */\n      eq\n        /* \"#utility.yul\":8208:8268   */\n      tag_555\n      jumpi\n        /* \"#utility.yul\":8264:8265   */\n      0x00\n        /* \"#utility.yul\":8261:8262   */\n      dup1\n        /* \"#utility.yul\":8254:8266   */\n      revert\n        /* \"#utility.yul\":8208:8268   */\n    tag_555:\n        /* \"#utility.yul\":8158:8274   */\n      pop\n      jump\t// out\n        /* \"#utility.yul\":8280:8413   */\n    tag_399:\n        /* \"#utility.yul\":8323:8328   */\n      0x00\n        /* \"#utility.yul\":8361:8367   */\n      dup2\n        /* \"#utility.yul\":8348:8368   */\n      calldataload\n        /* \"#utility.yul\":8339:8368   */\n      swap1\n      pop\n        /* \"#utility.yul\":8377:8407   */\n      tag_557\n        /* \"#utility.yul\":8401:8406   */\n      dup2\n        /* \"#utility.yul\":8377:8407   */\n      tag_398\n      jump\t// in\n    tag_557:\n        /* \"#utility.yul\":8280:8413   */\n      swap3\n      swap2\n      pop\n      pop\n      jump\t// out\n        /* \"#utility.yul\":8419:8887   */\n    tag_98:\n        /* \"#utility.yul\":8484:8490   */\n      0x00\n        /* \"#utility.yul\":8492:8498   */\n      dup1\n        /* \"#utility.yul\":8541:8543   */\n      0x40\n        /* \"#utility.yul\":8529:8538   */\n      dup4\n        /* \"#utility.yul\":8520:8527   */\n      dup6\n        /* \"#utility.yul\":8516:8539   */\n      sub\n        /* \"#utility.yul\":8512:8544   */\n      slt\n        /* \"#utility.yul\":8509:8628   */\n      iszero\n      tag_559\n      jumpi\n        /* \"#utility.yul\":8547:8626   */\n      tag_560\n      tag_376\n      jump\t// in\n    tag_560:\n        /* \"#utility.yul\":8509:8628   */\n    tag_559:\n        /* \"#utility.yul\":8667:8668   */\n      0x00\n        /* \"#utility.yul\":8692:8745   */\n      tag_561\n        /* \"#utility.yul\":8737:8744   */\n      dup6\n        /* \"#utility.yul\":8728:8734   */\n      dup3\n        /* \"#utility.yul\":8717:8726   */\n      dup7\n        /* \"#utility.yul\":8713:8735   */\n      add\n        /* \"#utility.yul\":8692:8745   */\n      tag_381\n      jump\t// in\n    tag_561:\n        /* \"#utility.yul\":8682:8745   */\n      swap3\n      pop\n        /* \"#utility.yul\":8638:8755   */\n      pop\n        /* \"#utility.yul\":8794:8796   */\n      0x20\n        /* \"#utility.yul\":8820:8870   */\n      tag_562\n        /* \"#utility.yul\":8862:8869   */\n      dup6\n        /* \"#utility.yul\":8853:8859   */\n      dup3\n        /* \"#utility.yul\":8842:8851   */\n      dup7\n        /* \"#utility.yul\":8838:8860   */\n      add\n        /* \"#utility.yul\":8820:8870   */\n      tag_399\n      jump\t// in\n    tag_562:\n        /* \"#utility.yul\":8810:8870   */\n      swap2\n      pop\n        /* \"#utility.yul\":8765:8880   */\n      pop\n        /* \"#utility.yul\":8419:8887   */\n      swap3\n      pop\n      swap3\n      swap1\n      pop\n      jump\t// out\n        /* \"#utility.yul\":8893:9335   */\n    tag_104:\n        /* \"#utility.yul\":9042:9046   */\n      0x00\n        /* \"#utility.yul\":9080:9082   */\n      0x60\n        /* \"#utility.yul\":9069:9078   */\n      dup3\n        /* \"#utility.yul\":9065:9083   */\n      add\n        /* \"#utility.yul\":9057:9083   */\n      swap1\n      pop\n        /* \"#utility.yul\":9093:9164   */\n      tag_564\n        /* \"#utility.yul\":9161:9162   */\n      0x00\n        /* \"#utility.yul\":9150:9159   */\n      dup4\n        /* \"#utility.yul\":9146:9163   */\n      add\n        /* \"#utility.yul\":9137:9143   */\n      dup7\n        /* \"#utility.yul\":9093:9164   */\n      tag_374\n      jump\t// in\n    tag_564:\n        /* \"#utility.yul\":9174:9246   */\n      tag_565\n        /* \"#utility.yul\":9242:9244   */\n      0x20\n        /* \"#utility.yul\":9231:9240   */\n      dup4\n        /* \"#utility.yul\":9227:9245   */\n      add\n        /* \"#utility.yul\":9218:9224   */\n      dup6\n        /* \"#utility.yul\":9174:9246   */\n      tag_374\n      jump\t// in\n    tag_565:\n        /* \"#utility.yul\":9256:9328   */\n      tag_566\n        /* \"#utility.yul\":9324:9326   */\n      0x40\n        /* \"#utility.yul\":9313:9322   */\n      dup4\n        /* \"#utility.yul\":9309:9327   */\n      add\n        /* \"#utility.yul\":9300:9306   */\n      dup5\n        /* \"#utility.yul\":9256:9328   */\n      tag_374\n      jump\t// in\n    tag_566:\n        /* \"#utility.yul\":8893:9335   */\n      swap5\n      swap4\n      pop\n      pop\n      pop\n      pop\n      jump\t// out\n        /* \"#utility.yul\":9341:9670   */\n    tag_141:\n        /* \"#utility.yul\":9400:9406   */\n      0x00\n        /* \"#utility.yul\":9449:9451   */\n      0x20\n        /* \"#utility.yul\":9437:9446   */\n      dup3\n        /* \"#utility.yul\":9428:9435   */\n      dup5\n        /* \"#utility.yul\":9424:9447   */\n      sub\n        /* \"#utility.yul\":9420:9452   */\n      slt\n        /* \"#utility.yul\":9417:9536   */\n      iszero\n      tag_568\n      jumpi\n        /* \"#utility.yul\":9455:9534   */\n      tag_569\n      tag_376\n      jump\t// in\n    tag_569:\n        /* \"#utility.yul\":9417:9536   */\n    tag_568:\n        /* \"#utility.yul\":9575:9576   */\n      0x00\n        /* \"#utility.yul\":9600:9653   */\n      tag_570\n        /* \"#utility.yul\":9645:9652   */\n      dup5\n        /* \"#utility.yul\":9636:9642   */\n      dup3\n        /* \"#utility.yul\":9625:9634   */\n      dup6\n        /* \"#utility.yul\":9621:9643   */\n      add\n        /* \"#utility.yul\":9600:9653   */\n      tag_383\n      jump\t// in\n    tag_570:\n        /* \"#utility.yul\":9590:9653   */\n      swap2\n      pop\n        /* \"#utility.yul\":9546:9663   */\n      pop\n        /* \"#utility.yul\":9341:9670   */\n      swap3\n      swap2\n      pop\n      pop\n      jump\t// out\n        /* \"#utility.yul\":9676:10150   */\n    tag_169:\n        /* \"#utility.yul\":9744:9750   */\n      0x00\n        /* \"#utility.yul\":9752:9758   */\n      dup1\n        /* \"#utility.yul\":9801:9803   */\n      0x40\n        /* \"#utility.yul\":9789:9798   */\n      dup4\n        /* \"#utility.yul\":9780:9787   */\n      dup6\n        /* \"#utility.yul\":9776:9799   */\n      sub\n        /* \"#utility.yul\":9772:9804   */\n      slt\n        /* \"#utility.yul\":9769:9888   */\n      iszero\n      tag_572\n      jumpi\n        /* \"#utility.yul\":9807:9886   */\n      tag_573\n      tag_376\n      jump\t// in\n    tag_573:\n        /* \"#utility.yul\":9769:9888   */\n    tag_572:\n        /* \"#utility.yul\":9927:9928   */\n      0x00\n        /* \"#utility.yul\":9952:10005   */\n      tag_574\n        /* \"#utility.yul\":9997:10004   */\n      dup6\n        /* \"#utility.yul\":9988:9994   */\n      dup3\n        /* \"#utility.yul\":9977:9986   */\n      dup7\n        /* \"#utility.yul\":9973:9995   */\n      add\n        /* \"#utility.yul\":9952:10005   */\n      tag_381\n      jump\t// in\n    tag_574:\n        /* \"#utility.yul\":9942:10005   */\n      swap3\n      pop\n        /* \"#utility.yul\":9898:10015   */\n      pop\n        /* \"#utility.yul\":10054:10056   */\n      0x20\n        /* \"#utility.yul\":10080:10133   */\n      tag_575\n        /* \"#utility.yul\":10125:10132   */\n      dup6\n        /* \"#utility.yul\":10116:10122   */\n      dup3\n        /* \"#utility.yul\":10105:10114   */\n      dup7\n        /* \"#utility.yul\":10101:10123   */\n      add\n        /* \"#utility.yul\":10080:10133   */\n      tag_381\n      jump\t// in\n    tag_575:\n        /* \"#utility.yul\":10070:10133   */\n      swap2\n      pop\n        /* \"#utility.yul\":10025:10143   */\n      pop\n        /* \"#utility.yul\":9676:10150   */\n      swap3\n      pop\n      swap3\n      swap1\n      pop\n      jump\t// out\n        /* \"#utility.yul\":10156:10336   */\n    tag_400:\n        /* \"#utility.yul\":10204:10281   */\n      0x4e487b7100000000000000000000000000000000000000000000000000000000\n        /* \"#utility.yul\":10201:10202   */\n      0x00\n        /* \"#utility.yul\":10194:10282   */\n      mstore\n        /* \"#utility.yul\":10301:10305   */\n      0x22\n        /* \"#utility.yul\":10298:10299   */\n      0x04\n        /* \"#utility.yul\":10291:10306   */\n      mstore\n        /* \"#utility.yul\":10325:10329   */\n      0x24\n        /* \"#utility.yul\":10322:10323   */\n      0x00\n        /* \"#utility.yul\":10315:10330   */\n      revert\n        /* \"#utility.yul\":10342:10662   */\n    tag_174:\n        /* \"#utility.yul\":10386:10392   */\n      0x00\n        /* \"#utility.yul\":10423:10424   */\n      0x02\n        /* \"#utility.yul\":10417:10421   */\n      dup3\n        /* \"#utility.yul\":10413:10425   */\n      div\n        /* \"#utility.yul\":10403:10425   */\n      swap1\n      pop\n        /* \"#utility.yul\":10470:10471   */\n      0x01\n        /* \"#utility.yul\":10464:10468   */\n      dup3\n        /* \"#utility.yul\":10460:10472   */\n      and\n        /* \"#utility.yul\":10491:10509   */\n      dup1\n        /* \"#utility.yul\":10481:10562   */\n      tag_578\n      jumpi\n        /* \"#utility.yul\":10547:10551   */\n      0x7f\n        /* \"#utility.yul\":10539:10545   */\n      dup3\n        /* \"#utility.yul\":10535:10552   */\n      and\n        /* \"#utility.yul\":10525:10552   */\n      swap2\n      pop\n        /* \"#utility.yul\":10481:10562   */\n    tag_578:\n        /* \"#utility.yul\":10609:10611   */\n      0x20\n        /* \"#utility.yul\":10601:10607   */\n      dup3\n        /* \"#utility.yul\":10598:10612   */\n      lt\n        /* \"#utility.yul\":10578:10596   */\n      dup2\n        /* \"#utility.yul\":10575:10613   */\n      sub\n        /* \"#utility.yul\":10572:10656   */\n      tag_579\n      jumpi\n        /* \"#utility.yul\":10628:10646   */\n      tag_580\n      tag_400\n      jump\t// in\n    tag_580:\n        /* \"#utility.yul\":10572:10656   */\n    tag_579:\n        /* \"#utility.yul\":10393:10662   */\n      pop\n        /* \"#utility.yul\":10342:10662   */\n      swap2\n      swap1\n      pop\n      jump\t// out\n        /* \"#utility.yul\":10668:10826   */\n    tag_401:\n        /* \"#utility.yul\":10808:10818   */\n      0x4e4f544f4b454e53000000000000000000000000000000000000000000000000\n        /* \"#utility.yul\":10804:10805   */\n      0x00\n        /* \"#utility.yul\":10796:10802   */\n      dup3\n        /* \"#utility.yul\":10792:10806   */\n      add\n        /* \"#utility.yul\":10785:10819   */\n      mstore\n        /* \"#utility.yul\":10668:10826   */\n      pop\n      jump\t// out\n        /* \"#utility.yul\":10832:11197   */\n    tag_402:\n        /* \"#utility.yul\":10974:10977   */\n      0x00\n        /* \"#utility.yul\":10995:11061   */\n      tag_583\n        /* \"#utility.yul\":11059:11060   */\n      0x08\n        /* \"#utility.yul\":11054:11057   */\n      dup4\n        /* \"#utility.yul\":10995:11061   */\n      tag_369\n      jump\t// in\n    tag_583:\n        /* \"#utility.yul\":10988:11061   */\n      swap2\n      pop\n        /* \"#utility.yul\":11070:11163   */\n      tag_584\n        /* \"#utility.yul\":11159:11162   */\n      dup3\n        /* \"#utility.yul\":11070:11163   */\n      tag_401\n      jump\t// in\n    tag_584:\n        /* \"#utility.yul\":11188:11190   */\n      0x20\n        /* \"#utility.yul\":11183:11186   */\n      dup3\n        /* \"#utility.yul\":11179:11191   */\n      add\n        /* \"#utility.yul\":11172:11191   */\n      swap1\n      pop\n        /* \"#utility.yul\":10832:11197   */\n      swap2\n      swap1\n      pop\n      jump\t// out\n        /* \"#utility.yul\":11203:11622   */\n    tag_188:\n        /* \"#utility.yul\":11369:11373   */\n      0x00\n        /* \"#utility.yul\":11407:11409   */\n      0x20\n        /* \"#utility.yul\":11396:11405   */\n      dup3\n        /* \"#utility.yul\":11392:11410   */\n      add\n        /* \"#utility.yul\":11384:11410   */\n      swap1\n      pop\n        /* \"#utility.yul\":11456:11465   */\n      dup2\n        /* \"#utility.yul\":11450:11454   */\n      dup2\n        /* \"#utility.yul\":11446:11466   */\n      sub\n        /* \"#utility.yul\":11442:11443   */\n      0x00\n        /* \"#utility.yul\":11431:11440   */\n      dup4\n        /* \"#utility.yul\":11427:11444   */\n      add\n        /* \"#utility.yul\":11420:11467   */\n      mstore\n        /* \"#utility.yul\":11484:11615   */\n      tag_586\n        /* \"#utility.yul\":11610:11614   */\n      dup2\n        /* \"#utility.yul\":11484:11615   */\n      tag_402\n      jump\t// in\n    tag_586:\n        /* \"#utility.yul\":11476:11615   */\n      swap1\n      pop\n        /* \"#utility.yul\":11203:11622   */\n      swap2\n      swap1\n      pop\n      jump\t// out\n        /* \"#utility.yul\":11628:11788   */\n    tag_403:\n        /* \"#utility.yul\":11768:11780   */\n      0x54494d4549534f56455200000000000000000000000000000000000000000000\n        /* \"#utility.yul\":11764:11765   */\n      0x00\n        /* \"#utility.yul\":11756:11762   */\n      dup3\n        /* \"#utility.yul\":11752:11766   */\n      add\n        /* \"#utility.yul\":11745:11781   */\n      mstore\n        /* \"#utility.yul\":11628:11788   */\n      pop\n      jump\t// out\n        /* \"#utility.yul\":11794:12160   */\n    tag_404:\n        /* \"#utility.yul\":11936:11939   */\n      0x00\n        /* \"#utility.yul\":11957:12024   */\n      tag_589\n        /* \"#utility.yul\":12021:12023   */\n      0x0a\n        /* \"#utility.yul\":12016:12019   */\n      dup4\n        /* \"#utility.yul\":11957:12024   */\n      tag_369\n      jump\t// in\n    tag_589:\n        /* \"#utility.yul\":11950:12024   */\n      swap2\n      pop\n        /* \"#utility.yul\":12033:12126   */\n      tag_590\n        /* \"#utility.yul\":12122:12125   */\n      dup3\n        /* \"#utility.yul\":12033:12126   */\n      tag_403\n      jump\t// in\n    tag_590:\n        /* \"#utility.yul\":12151:12153   */\n      0x20\n        /* \"#utility.yul\":12146:12149   */\n      dup3\n        /* \"#utility.yul\":12142:12154   */\n      add\n        /* \"#utility.yul\":12135:12154   */\n      swap1\n      pop\n        /* \"#utility.yul\":11794:12160   */\n      swap2\n      swap1\n      pop\n      jump\t// out\n        /* \"#utility.yul\":12166:12585   */\n    tag_192:\n        /* \"#utility.yul\":12332:12336   */\n      0x00\n        /* \"#utility.yul\":12370:12372   */\n      0x20\n        /* \"#utility.yul\":12359:12368   */\n      dup3\n        /* \"#utility.yul\":12355:12373   */\n      add\n        /* \"#utility.yul\":12347:12373   */\n      swap1\n      pop\n        /* \"#utility.yul\":12419:12428   */\n      dup2\n        /* \"#utility.yul\":12413:12417   */\n      dup2\n        /* \"#utility.yul\":12409:12429   */\n      sub\n        /* \"#utility.yul\":12405:12406   */\n      0x00\n        /* \"#utility.yul\":12394:12403   */\n      dup4\n        /* \"#utility.yul\":12390:12407   */\n      add\n        /* \"#utility.yul\":12383:12430   */\n      mstore\n        /* \"#utility.yul\":12447:12578   */\n      tag_592\n        /* \"#utility.yul\":12573:12577   */\n      dup2\n        /* \"#utility.yul\":12447:12578   */\n      tag_404\n      jump\t// in\n    tag_592:\n        /* \"#utility.yul\":12439:12578   */\n      swap1\n      pop\n        /* \"#utility.yul\":12166:12585   */\n      swap2\n      swap1\n      pop\n      jump\t// out\n        /* \"#utility.yul\":12591:12750   */\n    tag_405:\n        /* \"#utility.yul\":12731:12742   */\n      0x434c41494d4f4e43450000000000000000000000000000000000000000000000\n        /* \"#utility.yul\":12727:12728   */\n      0x00\n        /* \"#utility.yul\":12719:12725   */\n      dup3\n        /* \"#utility.yul\":12715:12729   */\n      add\n        /* \"#utility.yul\":12708:12743   */\n      mstore\n        /* \"#utility.yul\":12591:12750   */\n      pop\n      jump\t// out\n        /* \"#utility.yul\":12756:13121   */\n    tag_406:\n        /* \"#utility.yul\":12898:12901   */\n      0x00\n        /* \"#utility.yul\":12919:12985   */\n      tag_595\n        /* \"#utility.yul\":12983:12984   */\n      0x09\n        /* \"#utility.yul\":12978:12981   */\n      dup4\n        /* \"#utility.yul\":12919:12985   */\n      tag_369\n      jump\t// in\n    tag_595:\n        /* \"#utility.yul\":12912:12985   */\n      swap2\n      pop\n        /* \"#utility.yul\":12994:13087   */\n      tag_596\n        /* \"#utility.yul\":13083:13086   */\n      dup3\n        /* \"#utility.yul\":12994:13087   */\n      tag_405\n      jump\t// in\n    tag_596:\n        /* \"#utility.yul\":13112:13114   */\n      0x20\n        /* \"#utility.yul\":13107:13110   */\n      dup3\n        /* \"#utility.yul\":13103:13115   */\n      add\n        /* \"#utility.yul\":13096:13115   */\n      swap1\n      pop\n        /* \"#utility.yul\":12756:13121   */\n      swap2\n      swap1\n      pop\n      jump\t// out\n        /* \"#utility.yul\":13127:13546   */\n    tag_195:\n        /* \"#utility.yul\":13293:13297   */\n      0x00\n        /* \"#utility.yul\":13331:13333   */\n      0x20\n        /* \"#utility.yul\":13320:13329   */\n      dup3\n        /* \"#utility.yul\":13316:13334   */\n      add\n        /* \"#utility.yul\":13308:13334   */\n      swap1\n      pop\n        /* \"#utility.yul\":13380:13389   */\n      dup2\n        /* \"#utility.yul\":13374:13378   */\n      dup2\n        /* \"#utility.yul\":13370:13390   */\n      sub\n        /* \"#utility.yul\":13366:13367   */\n      0x00\n        /* \"#utility.yul\":13355:13364   */\n      dup4\n        /* \"#utility.yul\":13351:13368   */\n      add\n        /* \"#utility.yul\":13344:13391   */\n      mstore\n        /* \"#utility.yul\":13408:13539   */\n      tag_598\n        /* \"#utility.yul\":13534:13538   */\n      dup2\n        /* \"#utility.yul\":13408:13539   */\n      tag_406\n      jump\t// in\n    tag_598:\n        /* \"#utility.yul\":13400:13539   */\n      swap1\n      pop\n        /* \"#utility.yul\":13127:13546   */\n      swap2\n      swap1\n      pop\n      jump\t// out\n        /* \"#utility.yul\":13552:13732   */\n    tag_407:\n        /* \"#utility.yul\":13600:13677   */\n      0x4e487b7100000000000000000000000000000000000000000000000000000000\n        /* \"#utility.yul\":13597:13598   */\n      0x00\n        /* \"#utility.yul\":13590:13678   */\n      mstore\n        /* \"#utility.yul\":13697:13701   */\n      0x11\n        /* \"#utility.yul\":13694:13695   */\n      0x04\n        /* \"#utility.yul\":13687:13702   */\n      mstore\n        /* \"#utility.yul\":13721:13725   */\n      0x24\n        /* \"#utility.yul\":13718:13719   */\n      0x00\n        /* \"#utility.yul\":13711:13726   */\n      revert\n        /* \"#utility.yul\":13738:13932   */\n    tag_203:\n        /* \"#utility.yul\":13778:13782   */\n      0x00\n        /* \"#utility.yul\":13798:13818   */\n      tag_601\n        /* \"#utility.yul\":13816:13817   */\n      dup3\n        /* \"#utility.yul\":13798:13818   */\n      tag_373\n      jump\t// in\n    tag_601:\n        /* \"#utility.yul\":13793:13818   */\n      swap2\n      pop\n        /* \"#utility.yul\":13832:13852   */\n      tag_602\n        /* \"#utility.yul\":13850:13851   */\n      dup4\n        /* \"#utility.yul\":13832:13852   */\n      tag_373\n      jump\t// in\n    tag_602:\n        /* \"#utility.yul\":13827:13852   */\n      swap3\n      pop\n        /* \"#utility.yul\":13876:13877   */\n      dup3\n        /* \"#utility.yul\":13873:13874   */\n      dup3\n        /* \"#utility.yul\":13869:13878   */\n      sub\n        /* \"#utility.yul\":13861:13878   */\n      swap1\n      pop\n        /* \"#utility.yul\":13900:13901   */\n      dup2\n        /* \"#utility.yul\":13894:13898   */\n      dup2\n        /* \"#utility.yul\":13891:13902   */\n      gt\n        /* \"#utility.yul\":13888:13925   */\n      iszero\n      tag_603\n      jumpi\n        /* \"#utility.yul\":13905:13923   */\n      tag_604\n      tag_407\n      jump\t// in\n    tag_604:\n        /* \"#utility.yul\":13888:13925   */\n    tag_603:\n        /* \"#utility.yul\":13738:13932   */\n      swap3\n      swap2\n      pop\n      pop\n      jump\t// out\n        /* \"#utility.yul\":13938:14086   */\n    tag_408:\n        /* \"#utility.yul\":14040:14051   */\n      0x00\n        /* \"#utility.yul\":14077:14080   */\n      dup2\n        /* \"#utility.yul\":14062:14080   */\n      swap1\n      pop\n        /* \"#utility.yul\":13938:14086   */\n      swap3\n      swap2\n      pop\n      pop\n      jump\t// out\n        /* \"#utility.yul\":14092:14306   */\n    tag_409:\n        /* \"#utility.yul\":14232:14298   */\n      0x19457468657265756d205369676e6564204d6573736167653a0a333200000000\n        /* \"#utility.yul\":14228:14229   */\n      0x00\n        /* \"#utility.yul\":14220:14226   */\n      dup3\n        /* \"#utility.yul\":14216:14230   */\n      add\n        /* \"#utility.yul\":14209:14299   */\n      mstore\n        /* \"#utility.yul\":14092:14306   */\n      pop\n      jump\t// out\n        /* \"#utility.yul\":14312:14714   */\n    tag_410:\n        /* \"#utility.yul\":14472:14475   */\n      0x00\n        /* \"#utility.yul\":14493:14578   */\n      tag_608\n        /* \"#utility.yul\":14575:14577   */\n      0x1c\n        /* \"#utility.yul\":14570:14573   */\n      dup4\n        /* \"#utility.yul\":14493:14578   */\n      tag_408\n      jump\t// in\n    tag_608:\n        /* \"#utility.yul\":14486:14578   */\n      swap2\n      pop\n        /* \"#utility.yul\":14587:14680   */\n      tag_609\n        /* \"#utility.yul\":14676:14679   */\n      dup3\n        /* \"#utility.yul\":14587:14680   */\n      tag_409\n      jump\t// in\n    tag_609:\n        /* \"#utility.yul\":14705:14707   */\n      0x1c\n        /* \"#utility.yul\":14700:14703   */\n      dup3\n        /* \"#utility.yul\":14696:14708   */\n      add\n        /* \"#utility.yul\":14689:14708   */\n      swap1\n      pop\n        /* \"#utility.yul\":14312:14714   */\n      swap2\n      swap1\n      pop\n      jump\t// out\n        /* \"#utility.yul\":14720:14797   */\n    tag_411:\n        /* \"#utility.yul\":14757:14764   */\n      0x00\n        /* \"#utility.yul\":14786:14791   */\n      dup2\n        /* \"#utility.yul\":14775:14791   */\n      swap1\n      pop\n        /* \"#utility.yul\":14720:14797   */\n      swap2\n      swap1\n      pop\n      jump\t// out\n        /* \"#utility.yul\":14803:14882   */\n    tag_412:\n        /* \"#utility.yul\":14842:14849   */\n      0x00\n        /* \"#utility.yul\":14871:14876   */\n      dup2\n        /* \"#utility.yul\":14860:14876   */\n      swap1\n      pop\n        /* \"#utility.yul\":14803:14882   */\n      swap2\n      swap1\n      pop\n      jump\t// out\n        /* \"#utility.yul\":14888:15045   */\n    tag_413:\n        /* \"#utility.yul\":14993:15038   */\n      tag_613\n        /* \"#utility.yul\":15013:15037   */\n      tag_614\n        /* \"#utility.yul\":15031:15036   */\n      dup3\n        /* \"#utility.yul\":15013:15037   */\n      tag_411\n      jump\t// in\n    tag_614:\n        /* \"#utility.yul\":14993:15038   */\n      tag_412\n      jump\t// in\n    tag_613:\n        /* \"#utility.yul\":14988:14991   */\n      dup3\n        /* \"#utility.yul\":14981:15039   */\n      mstore\n        /* \"#utility.yul\":14888:15045   */\n      pop\n      pop\n      jump\t// out\n        /* \"#utility.yul\":15051:15573   */\n    tag_213:\n        /* \"#utility.yul\":15264:15267   */\n      0x00\n        /* \"#utility.yul\":15286:15434   */\n      tag_616\n        /* \"#utility.yul\":15430:15433   */\n      dup3\n        /* \"#utility.yul\":15286:15434   */\n      tag_410\n      jump\t// in\n    tag_616:\n        /* \"#utility.yul\":15279:15434   */\n      swap2\n      pop\n        /* \"#utility.yul\":15444:15519   */\n      tag_617\n        /* \"#utility.yul\":15515:15518   */\n      dup3\n        /* \"#utility.yul\":15506:15512   */\n      dup5\n        /* \"#utility.yul\":15444:15519   */\n      tag_413\n      jump\t// in\n    tag_617:\n        /* \"#utility.yul\":15544:15546   */\n      0x20\n        /* \"#utility.yul\":15539:15542   */\n      dup3\n        /* \"#utility.yul\":15535:15547   */\n      add\n        /* \"#utility.yul\":15528:15547   */\n      swap2\n      pop\n        /* \"#utility.yul\":15564:15567   */\n      dup2\n        /* \"#utility.yul\":15557:15567   */\n      swap1\n      pop\n        /* \"#utility.yul\":15051:15573   */\n      swap3\n      swap2\n      pop\n      pop\n      jump\t// out\n        /* \"#utility.yul\":15579:15701   */\n    tag_414:\n        /* \"#utility.yul\":15652:15676   */\n      tag_619\n        /* \"#utility.yul\":15670:15675   */\n      dup2\n        /* \"#utility.yul\":15652:15676   */\n      tag_411\n      jump\t// in\n    tag_619:\n        /* \"#utility.yul\":15645:15650   */\n      dup2\n        /* \"#utility.yul\":15642:15677   */\n      eq\n        /* \"#utility.yul\":15632:15695   */\n      tag_620\n      jumpi\n        /* \"#utility.yul\":15691:15692   */\n      0x00\n        /* \"#utility.yul\":15688:15689   */\n      dup1\n        /* \"#utility.yul\":15681:15693   */\n      revert\n        /* \"#utility.yul\":15632:15695   */\n    tag_620:\n        /* \"#utility.yul\":15579:15701   */\n      pop\n      jump\t// out\n        /* \"#utility.yul\":15707:15850   */\n    tag_415:\n        /* \"#utility.yul\":15764:15769   */\n      0x00\n        /* \"#utility.yul\":15795:15801   */\n      dup2\n        /* \"#utility.yul\":15789:15802   */\n      mload\n        /* \"#utility.yul\":15780:15802   */\n      swap1\n      pop\n        /* \"#utility.yul\":15811:15844   */\n      tag_622\n        /* \"#utility.yul\":15838:15843   */\n      dup2\n        /* \"#utility.yul\":15811:15844   */\n      tag_414\n      jump\t// in\n    tag_622:\n        /* \"#utility.yul\":15707:15850   */\n      swap3\n      swap2\n      pop\n      pop\n      jump\t// out\n        /* \"#utility.yul\":15856:15974   */\n    tag_416:\n        /* \"#utility.yul\":15927:15949   */\n      tag_624\n        /* \"#utility.yul\":15943:15948   */\n      dup2\n        /* \"#utility.yul\":15927:15949   */\n      tag_396\n      jump\t// in\n    tag_624:\n        /* \"#utility.yul\":15920:15925   */\n      dup2\n        /* \"#utility.yul\":15917:15950   */\n      eq\n        /* \"#utility.yul\":15907:15968   */\n      tag_625\n      jumpi\n        /* \"#utility.yul\":15964:15965   */\n      0x00\n        /* \"#utility.yul\":15961:15962   */\n      dup1\n        /* \"#utility.yul\":15954:15966   */\n      revert\n        /* \"#utility.yul\":15907:15968   */\n    tag_625:\n        /* \"#utility.yul\":15856:15974   */\n      pop\n      jump\t// out\n        /* \"#utility.yul\":15980:16119   */\n    tag_417:\n        /* \"#utility.yul\":16035:16040   */\n      0x00\n        /* \"#utility.yul\":16066:16072   */\n      dup2\n        /* \"#utility.yul\":16060:16073   */\n      mload\n        /* \"#utility.yul\":16051:16073   */\n      swap1\n      pop\n        /* \"#utility.yul\":16082:16113   */\n      tag_627\n        /* \"#utility.yul\":16107:16112   */\n      dup2\n        /* \"#utility.yul\":16082:16113   */\n      tag_416\n      jump\t// in\n    tag_627:\n        /* \"#utility.yul\":15980:16119   */\n      swap3\n      swap2\n      pop\n      pop\n      jump\t// out\n        /* \"#utility.yul\":16125:16784   */\n    tag_215:\n        /* \"#utility.yul\":16211:16217   */\n      0x00\n        /* \"#utility.yul\":16219:16225   */\n      dup1\n        /* \"#utility.yul\":16227:16233   */\n      0x00\n        /* \"#utility.yul\":16276:16278   */\n      0x60\n        /* \"#utility.yul\":16264:16273   */\n      dup5\n        /* \"#utility.yul\":16255:16262   */\n      dup7\n        /* \"#utility.yul\":16251:16274   */\n      sub\n        /* \"#utility.yul\":16247:16279   */\n      slt\n        /* \"#utility.yul\":16244:16363   */\n      iszero\n      tag_629\n      jumpi\n        /* \"#utility.yul\":16282:16361   */\n      tag_630\n      tag_376\n      jump\t// in\n    tag_630:\n        /* \"#utility.yul\":16244:16363   */\n    tag_629:\n        /* \"#utility.yul\":16402:16403   */\n      0x00\n        /* \"#utility.yul\":16427:16491   */\n      tag_631\n        /* \"#utility.yul\":16483:16490   */\n      dup7\n        /* \"#utility.yul\":16474:16480   */\n      dup3\n        /* \"#utility.yul\":16463:16472   */\n      dup8\n        /* \"#utility.yul\":16459:16481   */\n      add\n        /* \"#utility.yul\":16427:16491   */\n      tag_415\n      jump\t// in\n    tag_631:\n        /* \"#utility.yul\":16417:16491   */\n      swap4\n      pop\n        /* \"#utility.yul\":16373:16501   */\n      pop\n        /* \"#utility.yul\":16540:16542   */\n      0x20\n        /* \"#utility.yul\":16566:16630   */\n      tag_632\n        /* \"#utility.yul\":16622:16629   */\n      dup7\n        /* \"#utility.yul\":16613:16619   */\n      dup3\n        /* \"#utility.yul\":16602:16611   */\n      dup8\n        /* \"#utility.yul\":16598:16620   */\n      add\n        /* \"#utility.yul\":16566:16630   */\n      tag_415\n      jump\t// in\n    tag_632:\n        /* \"#utility.yul\":16556:16630   */\n      swap3\n      pop\n        /* \"#utility.yul\":16511:16640   */\n      pop\n        /* \"#utility.yul\":16679:16681   */\n      0x40\n        /* \"#utility.yul\":16705:16767   */\n      tag_633\n        /* \"#utility.yul\":16759:16766   */\n      dup7\n        /* \"#utility.yul\":16750:16756   */\n      dup3\n        /* \"#utility.yul\":16739:16748   */\n      dup8\n        /* \"#utility.yul\":16735:16757   */\n      add\n        /* \"#utility.yul\":16705:16767   */\n      tag_417\n      jump\t// in\n    tag_633:\n        /* \"#utility.yul\":16695:16767   */\n      swap2\n      pop\n        /* \"#utility.yul\":16650:16777   */\n      pop\n        /* \"#utility.yul\":16125:16784   */\n      swap3\n      pop\n      swap3\n      pop\n      swap3\n      jump\t// out\n        /* \"#utility.yul\":16790:16908   */\n    tag_418:\n        /* \"#utility.yul\":16877:16901   */\n      tag_635\n        /* \"#utility.yul\":16895:16900   */\n      dup2\n        /* \"#utility.yul\":16877:16901   */\n      tag_411\n      jump\t// in\n    tag_635:\n        /* \"#utility.yul\":16872:16875   */\n      dup3\n        /* \"#utility.yul\":16865:16902   */\n      mstore\n        /* \"#utility.yul\":16790:16908   */\n      pop\n      pop\n      jump\t// out\n        /* \"#utility.yul\":16914:17459   */\n    tag_217:\n        /* \"#utility.yul\":17087:17091   */\n      0x00\n        /* \"#utility.yul\":17125:17128   */\n      0x80\n        /* \"#utility.yul\":17114:17123   */\n      dup3\n        /* \"#utility.yul\":17110:17129   */\n      add\n        /* \"#utility.yul\":17102:17129   */\n      swap1\n      pop\n        /* \"#utility.yul\":17139:17210   */\n      tag_637\n        /* \"#utility.yul\":17207:17208   */\n      0x00\n        /* \"#utility.yul\":17196:17205   */\n      dup4\n        /* \"#utility.yul\":17192:17209   */\n      add\n        /* \"#utility.yul\":17183:17189   */\n      dup8\n        /* \"#utility.yul\":17139:17210   */\n      tag_418\n      jump\t// in\n    tag_637:\n        /* \"#utility.yul\":17220:17288   */\n      tag_638\n        /* \"#utility.yul\":17284:17286   */\n      0x20\n        /* \"#utility.yul\":17273:17282   */\n      dup4\n        /* \"#utility.yul\":17269:17287   */\n      add\n        /* \"#utility.yul\":17260:17266   */\n      dup7\n        /* \"#utility.yul\":17220:17288   */\n      tag_397\n      jump\t// in\n    tag_638:\n        /* \"#utility.yul\":17298:17370   */\n      tag_639\n        /* \"#utility.yul\":17366:17368   */\n      0x40\n        /* \"#utility.yul\":17355:17364   */\n      dup4\n        /* \"#utility.yul\":17351:17369   */\n      add\n        /* \"#utility.yul\":17342:17348   */\n      dup6\n        /* \"#utility.yul\":17298:17370   */\n      tag_418\n      jump\t// in\n    tag_639:\n        /* \"#utility.yul\":17380:17452   */\n      tag_640\n        /* \"#utility.yul\":17448:17450   */\n      0x60\n        /* \"#utility.yul\":17437:17446   */\n      dup4\n        /* \"#utility.yul\":17433:17451   */\n      add\n        /* \"#utility.yul\":17424:17430   */\n      dup5\n        /* \"#utility.yul\":17380:17452   */\n      tag_418\n      jump\t// in\n    tag_640:\n        /* \"#utility.yul\":16914:17459   */\n      swap6\n      swap5\n      pop\n      pop\n      pop\n      pop\n      pop\n      jump\t// out\n        /* \"#utility.yul\":17465:17656   */\n    tag_226:\n        /* \"#utility.yul\":17505:17508   */\n      0x00\n        /* \"#utility.yul\":17524:17544   */\n      tag_642\n        /* \"#utility.yul\":17542:17543   */\n      dup3\n        /* \"#utility.yul\":17524:17544   */\n      tag_373\n      jump\t// in\n    tag_642:\n        /* \"#utility.yul\":17519:17544   */\n      swap2\n      pop\n        /* \"#utility.yul\":17558:17578   */\n      tag_643\n        /* \"#utility.yul\":17576:17577   */\n      dup4\n        /* \"#utility.yul\":17558:17578   */\n      tag_373\n      jump\t// in\n    tag_643:\n        /* \"#utility.yul\":17553:17578   */\n      swap3\n      pop\n        /* \"#utility.yul\":17601:17602   */\n      dup3\n        /* \"#utility.yul\":17598:17599   */\n      dup3\n        /* \"#utility.yul\":17594:17603   */\n      add\n        /* \"#utility.yul\":17587:17603   */\n      swap1\n      pop\n        /* \"#utility.yul\":17622:17625   */\n      dup1\n        /* \"#utility.yul\":17619:17620   */\n      dup3\n        /* \"#utility.yul\":17616:17626   */\n      gt\n        /* \"#utility.yul\":17613:17649   */\n      iszero\n      tag_644\n      jumpi\n        /* \"#utility.yul\":17629:17647   */\n      tag_645\n      tag_407\n      jump\t// in\n    tag_645:\n        /* \"#utility.yul\":17613:17649   */\n    tag_644:\n        /* \"#utility.yul\":17465:17656   */\n      swap3\n      swap2\n      pop\n      pop\n      jump\t// out\n        /* \"#utility.yul\":17662:17821   */\n    tag_419:\n        /* \"#utility.yul\":17802:17813   */\n      0x4f4e4c594f574e45520000000000000000000000000000000000000000000000\n        /* \"#utility.yul\":17798:17799   */\n      0x00\n        /* \"#utility.yul\":17790:17796   */\n      dup3\n        /* \"#utility.yul\":17786:17800   */\n      add\n        /* \"#utility.yul\":17779:17814   */\n      mstore\n        /* \"#utility.yul\":17662:17821   */\n      pop\n      jump\t// out\n        /* \"#utility.yul\":17827:18192   */\n    tag_420:\n        /* \"#utility.yul\":17969:17972   */\n      0x00\n        /* \"#utility.yul\":17990:18056   */\n      tag_648\n        /* \"#utility.yul\":18054:18055   */\n      0x09\n        /* \"#utility.yul\":18049:18052   */\n      dup4\n        /* \"#utility.yul\":17990:18056   */\n      tag_369\n      jump\t// in\n    tag_648:\n        /* \"#utility.yul\":17983:18056   */\n      swap2\n      pop\n        /* \"#utility.yul\":18065:18158   */\n      tag_649\n        /* \"#utility.yul\":18154:18157   */\n      dup3\n        /* \"#utility.yul\":18065:18158   */\n      tag_419\n      jump\t// in\n    tag_649:\n        /* \"#utility.yul\":18183:18185   */\n      0x20\n        /* \"#utility.yul\":18178:18181   */\n      dup3\n        /* \"#utility.yul\":18174:18186   */\n      add\n        /* \"#utility.yul\":18167:18186   */\n      swap1\n      pop\n        /* \"#utility.yul\":17827:18192   */\n      swap2\n      swap1\n      pop\n      jump\t// out\n        /* \"#utility.yul\":18198:18617   */\n    tag_230:\n        /* \"#utility.yul\":18364:18368   */\n      0x00\n        /* \"#utility.yul\":18402:18404   */\n      0x20\n        /* \"#utility.yul\":18391:18400   */\n      dup3\n        /* \"#utility.yul\":18387:18405   */\n      add\n        /* \"#utility.yul\":18379:18405   */\n      swap1\n      pop\n        /* \"#utility.yul\":18451:18460   */\n      dup2\n        /* \"#utility.yul\":18445:18449   */\n      dup2\n        /* \"#utility.yul\":18441:18461   */\n      sub\n        /* \"#utility.yul\":18437:18438   */\n      0x00\n        /* \"#utility.yul\":18426:18435   */\n      dup4\n        /* \"#utility.yul\":18422:18439   */\n      add\n        /* \"#utility.yul\":18415:18462   */\n      mstore\n        /* \"#utility.yul\":18479:18610   */\n      tag_651\n        /* \"#utility.yul\":18605:18609   */\n      dup2\n        /* \"#utility.yul\":18479:18610   */\n      tag_420\n      jump\t// in\n    tag_651:\n        /* \"#utility.yul\":18471:18610   */\n      swap1\n      pop\n        /* \"#utility.yul\":18198:18617   */\n      swap2\n      swap1\n      pop\n      jump\t// out\n        /* \"#utility.yul\":18623:18781   */\n    tag_421:\n        /* \"#utility.yul\":18763:18773   */\n      0x4d41584c494d4954000000000000000000000000000000000000000000000000\n        /* \"#utility.yul\":18759:18760   */\n      0x00\n        /* \"#utility.yul\":18751:18757   */\n      dup3\n        /* \"#utility.yul\":18747:18761   */\n      add\n        /* \"#utility.yul\":18740:18774   */\n      mstore\n        /* \"#utility.yul\":18623:18781   */\n      pop\n      jump\t// out\n        /* \"#utility.yul\":18787:19152   */\n    tag_422:\n        /* \"#utility.yul\":18929:18932   */\n      0x00\n        /* \"#utility.yul\":18950:19016   */\n      tag_654\n        /* \"#utility.yul\":19014:19015   */\n      0x08\n        /* \"#utility.yul\":19009:19012   */\n      dup4\n        /* \"#utility.yul\":18950:19016   */\n      tag_369\n      jump\t// in\n    tag_654:\n        /* \"#utility.yul\":18943:19016   */\n      swap2\n      pop\n        /* \"#utility.yul\":19025:19118   */\n      tag_655\n        /* \"#utility.yul\":19114:19117   */\n      dup3\n        /* \"#utility.yul\":19025:19118   */\n      tag_421\n      jump\t// in\n    tag_655:\n        /* \"#utility.yul\":19143:19145   */\n      0x20\n        /* \"#utility.yul\":19138:19141   */\n      dup3\n        /* \"#utility.yul\":19134:19146   */\n      add\n        /* \"#utility.yul\":19127:19146   */\n      swap1\n      pop\n        /* \"#utility.yul\":18787:19152   */\n      swap2\n      swap1\n      pop\n      jump\t// out\n        /* \"#utility.yul\":19158:19577   */\n    tag_236:\n        /* \"#utility.yul\":19324:19328   */\n      0x00\n        /* \"#utility.yul\":19362:19364   */\n      0x20\n        /* \"#utility.yul\":19351:19360   */\n      dup3\n        /* \"#utility.yul\":19347:19365   */\n      add\n        /* \"#utility.yul\":19339:19365   */\n      swap1\n      pop\n        /* \"#utility.yul\":19411:19420   */\n      dup2\n        /* \"#utility.yul\":19405:19409   */\n      dup2\n        /* \"#utility.yul\":19401:19421   */\n      sub\n        /* \"#utility.yul\":19397:19398   */\n      0x00\n        /* \"#utility.yul\":19386:19395   */\n      dup4\n        /* \"#utility.yul\":19382:19399   */\n      add\n        /* \"#utility.yul\":19375:19422   */\n      mstore\n        /* \"#utility.yul\":19439:19570   */\n      tag_657\n        /* \"#utility.yul\":19565:19569   */\n      dup2\n        /* \"#utility.yul\":19439:19570   */\n      tag_422\n      jump\t// in\n    tag_657:\n        /* \"#utility.yul\":19431:19570   */\n      swap1\n      pop\n        /* \"#utility.yul\":19158:19577   */\n      swap2\n      swap1\n      pop\n      jump\t// out\n        /* \"#utility.yul\":19583:19741   */\n    tag_423:\n        /* \"#utility.yul\":19723:19733   */\n      0x4d494e5052494345000000000000000000000000000000000000000000000000\n        /* \"#utility.yul\":19719:19720   */\n      0x00\n        /* \"#utility.yul\":19711:19717   */\n      dup3\n        /* \"#utility.yul\":19707:19721   */\n      add\n        /* \"#utility.yul\":19700:19734   */\n      mstore\n        /* \"#utility.yul\":19583:19741   */\n      pop\n      jump\t// out\n        /* \"#utility.yul\":19747:20112   */\n    tag_424:\n        /* \"#utility.yul\":19889:19892   */\n      0x00\n        /* \"#utility.yul\":19910:19976   */\n      tag_660\n        /* \"#utility.yul\":19974:19975   */\n      0x08\n        /* \"#utility.yul\":19969:19972   */\n      dup4\n        /* \"#utility.yul\":19910:19976   */\n      tag_369\n      jump\t// in\n    tag_660:\n        /* \"#utility.yul\":19903:19976   */\n      swap2\n      pop\n        /* \"#utility.yul\":19985:20078   */\n      tag_661\n        /* \"#utility.yul\":20074:20077   */\n      dup3\n        /* \"#utility.yul\":19985:20078   */\n      tag_423\n      jump\t// in\n    tag_661:\n        /* \"#utility.yul\":20103:20105   */\n      0x20\n        /* \"#utility.yul\":20098:20101   */\n      dup3\n        /* \"#utility.yul\":20094:20106   */\n      add\n        /* \"#utility.yul\":20087:20106   */\n      swap1\n      pop\n        /* \"#utility.yul\":19747:20112   */\n      swap2\n      swap1\n      pop\n      jump\t// out\n        /* \"#utility.yul\":20118:20537   */\n    tag_239:\n        /* \"#utility.yul\":20284:20288   */\n      0x00\n        /* \"#utility.yul\":20322:20324   */\n      0x20\n        /* \"#utility.yul\":20311:20320   */\n      dup3\n        /* \"#utility.yul\":20307:20325   */\n      add\n        /* \"#utility.yul\":20299:20325   */\n      swap1\n      pop\n        /* \"#utility.yul\":20371:20380   */\n      dup2\n        /* \"#utility.yul\":20365:20369   */\n      dup2\n        /* \"#utility.yul\":20361:20381   */\n      sub\n        /* \"#utility.yul\":20357:20358   */\n      0x00\n        /* \"#utility.yul\":20346:20355   */\n      dup4\n        /* \"#utility.yul\":20342:20359   */\n      add\n        /* \"#utility.yul\":20335:20382   */\n      mstore\n        /* \"#utility.yul\":20399:20530   */\n      tag_663\n        /* \"#utility.yul\":20525:20529   */\n      dup2\n        /* \"#utility.yul\":20399:20530   */\n      tag_424\n      jump\t// in\n    tag_663:\n        /* \"#utility.yul\":20391:20530   */\n      swap1\n      pop\n        /* \"#utility.yul\":20118:20537   */\n      swap2\n      swap1\n      pop\n      jump\t// out\n        /* \"#utility.yul\":20543:20703   */\n    tag_425:\n        /* \"#utility.yul\":20683:20695   */\n      0x5550504552424f554e4400000000000000000000000000000000000000000000\n        /* \"#utility.yul\":20679:20680   */\n      0x00\n        /* \"#utility.yul\":20671:20677   */\n      dup3\n        /* \"#utility.yul\":20667:20681   */\n      add\n        /* \"#utility.yul\":20660:20696   */\n      mstore\n        /* \"#utility.yul\":20543:20703   */\n      pop\n      jump\t// out\n        /* \"#utility.yul\":20709:21075   */\n    tag_426:\n        /* \"#utility.yul\":20851:20854   */\n      0x00\n        /* \"#utility.yul\":20872:20939   */\n      tag_666\n        /* \"#utility.yul\":20936:20938   */\n      0x0a\n        /* \"#utility.yul\":20931:20934   */\n      dup4\n        /* \"#utility.yul\":20872:20939   */\n      tag_369\n      jump\t// in\n    tag_666:\n        /* \"#utility.yul\":20865:20939   */\n      swap2\n      pop\n        /* \"#utility.yul\":20948:21041   */\n      tag_667\n        /* \"#utility.yul\":21037:21040   */\n      dup3\n        /* \"#utility.yul\":20948:21041   */\n      tag_425\n      jump\t// in\n    tag_667:\n        /* \"#utility.yul\":21066:21068   */\n      0x20\n        /* \"#utility.yul\":21061:21064   */\n      dup3\n        /* \"#utility.yul\":21057:21069   */\n      add\n        /* \"#utility.yul\":21050:21069   */\n      swap1\n      pop\n        /* \"#utility.yul\":20709:21075   */\n      swap2\n      swap1\n      pop\n      jump\t// out\n        /* \"#utility.yul\":21081:21500   */\n    tag_246:\n        /* \"#utility.yul\":21247:21251   */\n      0x00\n        /* \"#utility.yul\":21285:21287   */\n      0x20\n        /* \"#utility.yul\":21274:21283   */\n      dup3\n        /* \"#utility.yul\":21270:21288   */\n      add\n        /* \"#utility.yul\":21262:21288   */\n      swap1\n      pop\n        /* \"#utility.yul\":21334:21343   */\n      dup2\n        /* \"#utility.yul\":21328:21332   */\n      dup2\n        /* \"#utility.yul\":21324:21344   */\n      sub\n        /* \"#utility.yul\":21320:21321   */\n      0x00\n        /* \"#utility.yul\":21309:21318   */\n      dup4\n        /* \"#utility.yul\":21305:21322   */\n      add\n        /* \"#utility.yul\":21298:21345   */\n      mstore\n        /* \"#utility.yul\":21362:21493   */\n      tag_669\n        /* \"#utility.yul\":21488:21492   */\n      dup2\n        /* \"#utility.yul\":21362:21493   */\n      tag_426\n      jump\t// in\n    tag_669:\n        /* \"#utility.yul\":21354:21493   */\n      swap1\n      pop\n        /* \"#utility.yul\":21081:21500   */\n      swap2\n      swap1\n      pop\n      jump\t// out\n        /* \"#utility.yul\":21506:21686   */\n    tag_427:\n        /* \"#utility.yul\":21554:21631   */\n      0x4e487b7100000000000000000000000000000000000000000000000000000000\n        /* \"#utility.yul\":21551:21552   */\n      0x00\n        /* \"#utility.yul\":21544:21632   */\n      mstore\n        /* \"#utility.yul\":21651:21655   */\n      0x12\n        /* \"#utility.yul\":21648:21649   */\n      0x04\n        /* \"#utility.yul\":21641:21656   */\n      mstore\n        /* \"#utility.yul\":21675:21679   */\n      0x24\n        /* \"#utility.yul\":21672:21673   */\n      0x00\n        /* \"#utility.yul\":21665:21680   */\n      revert\n        /* \"#utility.yul\":21692:21877   */\n    tag_248:\n        /* \"#utility.yul\":21732:21733   */\n      0x00\n        /* \"#utility.yul\":21749:21769   */\n      tag_672\n        /* \"#utility.yul\":21767:21768   */\n      dup3\n        /* \"#utility.yul\":21749:21769   */\n      tag_373\n      jump\t// in\n    tag_672:\n        /* \"#utility.yul\":21744:21769   */\n      swap2\n      pop\n        /* \"#utility.yul\":21783:21803   */\n      tag_673\n        /* \"#utility.yul\":21801:21802   */\n      dup4\n        /* \"#utility.yul\":21783:21803   */\n      tag_373\n      jump\t// in\n    tag_673:\n        /* \"#utility.yul\":21778:21803   */\n      swap3\n      pop\n        /* \"#utility.yul\":21822:21823   */\n      dup3\n        /* \"#utility.yul\":21812:21847   */\n      tag_674\n      jumpi\n        /* \"#utility.yul\":21827:21845   */\n      tag_675\n      tag_427\n      jump\t// in\n    tag_675:\n        /* \"#utility.yul\":21812:21847   */\n    tag_674:\n        /* \"#utility.yul\":21869:21870   */\n      dup3\n        /* \"#utility.yul\":21866:21867   */\n      dup3\n        /* \"#utility.yul\":21862:21871   */\n      div\n        /* \"#utility.yul\":21857:21871   */\n      swap1\n      pop\n        /* \"#utility.yul\":21692:21877   */\n      swap3\n      swap2\n      pop\n      pop\n      jump\t// out\n        /* \"#utility.yul\":21883:22293   */\n    tag_252:\n        /* \"#utility.yul\":21923:21930   */\n      0x00\n        /* \"#utility.yul\":21946:21966   */\n      tag_677\n        /* \"#utility.yul\":21964:21965   */\n      dup3\n        /* \"#utility.yul\":21946:21966   */\n      tag_373\n      jump\t// in\n    tag_677:\n        /* \"#utility.yul\":21941:21966   */\n      swap2\n      pop\n        /* \"#utility.yul\":21980:22000   */\n      tag_678\n        /* \"#utility.yul\":21998:21999   */\n      dup4\n        /* \"#utility.yul\":21980:22000   */\n      tag_373\n      jump\t// in\n    tag_678:\n        /* \"#utility.yul\":21975:22000   */\n      swap3\n      pop\n        /* \"#utility.yul\":22035:22036   */\n      dup3\n        /* \"#utility.yul\":22032:22033   */\n      dup3\n        /* \"#utility.yul\":22028:22037   */\n      mul\n        /* \"#utility.yul\":22057:22087   */\n      tag_679\n        /* \"#utility.yul\":22075:22086   */\n      dup2\n        /* \"#utility.yul\":22057:22087   */\n      tag_373\n      jump\t// in\n    tag_679:\n        /* \"#utility.yul\":22046:22087   */\n      swap2\n      pop\n        /* \"#utility.yul\":22236:22237   */\n      dup3\n        /* \"#utility.yul\":22227:22234   */\n      dup3\n        /* \"#utility.yul\":22223:22238   */\n      div\n        /* \"#utility.yul\":22220:22221   */\n      dup5\n        /* \"#utility.yul\":22217:22239   */\n      eq\n        /* \"#utility.yul\":22197:22198   */\n      dup4\n        /* \"#utility.yul\":22190:22199   */\n      iszero\n        /* \"#utility.yul\":22170:22253   */\n      or\n        /* \"#utility.yul\":22147:22286   */\n      tag_680\n      jumpi\n        /* \"#utility.yul\":22266:22284   */\n      tag_681\n      tag_407\n      jump\t// in\n    tag_681:\n        /* \"#utility.yul\":22147:22286   */\n    tag_680:\n        /* \"#utility.yul\":21931:22293   */\n      pop\n        /* \"#utility.yul\":21883:22293   */\n      swap3\n      swap2\n      pop\n      pop\n      jump\t// out\n        /* \"#utility.yul\":22299:22446   */\n    tag_428:\n        /* \"#utility.yul\":22400:22411   */\n      0x00\n        /* \"#utility.yul\":22437:22440   */\n      dup2\n        /* \"#utility.yul\":22422:22440   */\n      swap1\n      pop\n        /* \"#utility.yul\":22299:22446   */\n      swap3\n      swap2\n      pop\n      pop\n      jump\t// out\n        /* \"#utility.yul\":22452:22566   */\n    tag_429:\n      pop\n      jump\t// out\n        /* \"#utility.yul\":22572:22970   */\n    tag_430:\n        /* \"#utility.yul\":22731:22734   */\n      0x00\n        /* \"#utility.yul\":22752:22835   */\n      tag_685\n        /* \"#utility.yul\":22833:22834   */\n      0x00\n        /* \"#utility.yul\":22828:22831   */\n      dup4\n        /* \"#utility.yul\":22752:22835   */\n      tag_428\n      jump\t// in\n    tag_685:\n        /* \"#utility.yul\":22745:22835   */\n      swap2\n      pop\n        /* \"#utility.yul\":22844:22937   */\n      tag_686\n        /* \"#utility.yul\":22933:22936   */\n      dup3\n        /* \"#utility.yul\":22844:22937   */\n      tag_429\n      jump\t// in\n    tag_686:\n        /* \"#utility.yul\":22962:22963   */\n      0x00\n        /* \"#utility.yul\":22957:22960   */\n      dup3\n        /* \"#utility.yul\":22953:22964   */\n      add\n        /* \"#utility.yul\":22946:22964   */\n      swap1\n      pop\n        /* \"#utility.yul\":22572:22970   */\n      swap2\n      swap1\n      pop\n      jump\t// out\n        /* \"#utility.yul\":22976:23355   */\n    tag_271:\n        /* \"#utility.yul\":23160:23163   */\n      0x00\n        /* \"#utility.yul\":23182:23329   */\n      tag_688\n        /* \"#utility.yul\":23325:23328   */\n      dup3\n        /* \"#utility.yul\":23182:23329   */\n      tag_430\n      jump\t// in\n    tag_688:\n        /* \"#utility.yul\":23175:23329   */\n      swap2\n      pop\n        /* \"#utility.yul\":23346:23349   */\n      dup2\n        /* \"#utility.yul\":23339:23349   */\n      swap1\n      pop\n        /* \"#utility.yul\":22976:23355   */\n      swap2\n      swap1\n      pop\n      jump\t// out\n        /* \"#utility.yul\":23361:23519   */\n    tag_431:\n        /* \"#utility.yul\":23501:23511   */\n      0x494e56414c534947000000000000000000000000000000000000000000000000\n        /* \"#utility.yul\":23497:23498   */\n      0x00\n        /* \"#utility.yul\":23489:23495   */\n      dup3\n        /* \"#utility.yul\":23485:23499   */\n      add\n        /* \"#utility.yul\":23478:23512   */\n      mstore\n        /* \"#utility.yul\":23361:23519   */\n      pop\n      jump\t// out\n        /* \"#utility.yul\":23525:23890   */\n    tag_432:\n        /* \"#utility.yul\":23667:23670   */\n      0x00\n        /* \"#utility.yul\":23688:23754   */\n      tag_691\n        /* \"#utility.yul\":23752:23753   */\n      0x08\n        /* \"#utility.yul\":23747:23750   */\n      dup4\n        /* \"#utility.yul\":23688:23754   */\n      tag_369\n      jump\t// in\n    tag_691:\n        /* \"#utility.yul\":23681:23754   */\n      swap2\n      pop\n        /* \"#utility.yul\":23763:23856   */\n      tag_692\n        /* \"#utility.yul\":23852:23855   */\n      dup3\n        /* \"#utility.yul\":23763:23856   */\n      tag_431\n      jump\t// in\n    tag_692:\n        /* \"#utility.yul\":23881:23883   */\n      0x20\n        /* \"#utility.yul\":23876:23879   */\n      dup3\n        /* \"#utility.yul\":23872:23884   */\n      add\n        /* \"#utility.yul\":23865:23884   */\n      swap1\n      pop\n        /* \"#utility.yul\":23525:23890   */\n      swap2\n      swap1\n      pop\n      jump\t// out\n        /* \"#utility.yul\":23896:24315   */\n    tag_279:\n        /* \"#utility.yul\":24062:24066   */\n      0x00\n        /* \"#utility.yul\":24100:24102   */\n      0x20\n        /* \"#utility.yul\":24089:24098   */\n      dup3\n        /* \"#utility.yul\":24085:24103   */\n      add\n        /* \"#utility.yul\":24077:24103   */\n      swap1\n      pop\n        /* \"#utility.yul\":24149:24158   */\n      dup2\n        /* \"#utility.yul\":24143:24147   */\n      dup2\n        /* \"#utility.yul\":24139:24159   */\n      sub\n        /* \"#utility.yul\":24135:24136   */\n      0x00\n        /* \"#utility.yul\":24124:24133   */\n      dup4\n        /* \"#utility.yul\":24120:24137   */\n      add\n        /* \"#utility.yul\":24113:24160   */\n      mstore\n        /* \"#utility.yul\":24177:24308   */\n      tag_694\n        /* \"#utility.yul\":24303:24307   */\n      dup2\n        /* \"#utility.yul\":24177:24308   */\n      tag_432\n      jump\t// in\n    tag_694:\n        /* \"#utility.yul\":24169:24308   */\n      swap1\n      pop\n        /* \"#utility.yul\":23896:24315   */\n      swap2\n      swap1\n      pop\n      jump\t// out\n        /* \"#utility.yul\":24321:24653   */\n    tag_284:\n        /* \"#utility.yul\":24442:24446   */\n      0x00\n        /* \"#utility.yul\":24480:24482   */\n      0x40\n        /* \"#utility.yul\":24469:24478   */\n      dup3\n        /* \"#utility.yul\":24465:24483   */\n      add\n        /* \"#utility.yul\":24457:24483   */\n      swap1\n      pop\n        /* \"#utility.yul\":24493:24564   */\n      tag_696\n        /* \"#utility.yul\":24561:24562   */\n      0x00\n        /* \"#utility.yul\":24550:24559   */\n      dup4\n        /* \"#utility.yul\":24546:24563   */\n      add\n        /* \"#utility.yul\":24537:24543   */\n      dup6\n        /* \"#utility.yul\":24493:24564   */\n      tag_374\n      jump\t// in\n    tag_696:\n        /* \"#utility.yul\":24574:24646   */\n      tag_697\n        /* \"#utility.yul\":24642:24644   */\n      0x20\n        /* \"#utility.yul\":24631:24640   */\n      dup4\n        /* \"#utility.yul\":24627:24645   */\n      add\n        /* \"#utility.yul\":24618:24624   */\n      dup5\n        /* \"#utility.yul\":24574:24646   */\n      tag_374\n      jump\t// in\n    tag_697:\n        /* \"#utility.yul\":24321:24653   */\n      swap4\n      swap3\n      pop\n      pop\n      pop\n      jump\t// out\n        /* \"#utility.yul\":24659:24883   */\n    tag_433:\n        /* \"#utility.yul\":24799:24833   */\n      0x45524332303a2064656372656173656420616c6c6f77616e63652062656c6f77\n        /* \"#utility.yul\":24795:24796   */\n      0x00\n        /* \"#utility.yul\":24787:24793   */\n      dup3\n        /* \"#utility.yul\":24783:24797   */\n      add\n        /* \"#utility.yul\":24776:24834   */\n      mstore\n        /* \"#utility.yul\":24868:24875   */\n      0x207a65726f000000000000000000000000000000000000000000000000000000\n        /* \"#utility.yul\":24863:24865   */\n      0x20\n        /* \"#utility.yul\":24855:24861   */\n      dup3\n        /* \"#utility.yul\":24851:24866   */\n      add\n        /* \"#utility.yul\":24844:24876   */\n      mstore\n        /* \"#utility.yul\":24659:24883   */\n      pop\n      jump\t// out\n        /* \"#utility.yul\":24889:25255   */\n    tag_434:\n        /* \"#utility.yul\":25031:25034   */\n      0x00\n        /* \"#utility.yul\":25052:25119   */\n      tag_700\n        /* \"#utility.yul\":25116:25118   */\n      0x25\n        /* \"#utility.yul\":25111:25114   */\n      dup4\n        /* \"#utility.yul\":25052:25119   */\n      tag_369\n      jump\t// in\n    tag_700:\n        /* \"#utility.yul\":25045:25119   */\n      swap2\n      pop\n        /* \"#utility.yul\":25128:25221   */\n      tag_701\n        /* \"#utility.yul\":25217:25220   */\n      dup3\n        /* \"#utility.yul\":25128:25221   */\n      tag_433\n      jump\t// in\n    tag_701:\n        /* \"#utility.yul\":25246:25248   */\n      0x40\n        /* \"#utility.yul\":25241:25244   */\n      dup3\n        /* \"#utility.yul\":25237:25249   */\n      add\n        /* \"#utility.yul\":25230:25249   */\n      swap1\n      pop\n        /* \"#utility.yul\":24889:25255   */\n      swap2\n      swap1\n      pop\n      jump\t// out\n        /* \"#utility.yul\":25261:25680   */\n    tag_303:\n        /* \"#utility.yul\":25427:25431   */\n      0x00\n        /* \"#utility.yul\":25465:25467   */\n      0x20\n        /* \"#utility.yul\":25454:25463   */\n      dup3\n        /* \"#utility.yul\":25450:25468   */\n      add\n        /* \"#utility.yul\":25442:25468   */\n      swap1\n      pop\n        /* \"#utility.yul\":25514:25523   */\n      dup2\n        /* \"#utility.yul\":25508:25512   */\n      dup2\n        /* \"#utility.yul\":25504:25524   */\n      sub\n        /* \"#utility.yul\":25500:25501   */\n      0x00\n        /* \"#utility.yul\":25489:25498   */\n      dup4\n        /* \"#utility.yul\":25485:25502   */\n      add\n        /* \"#utility.yul\":25478:25525   */\n      mstore\n        /* \"#utility.yul\":25542:25673   */\n      tag_703\n        /* \"#utility.yul\":25668:25672   */\n      dup2\n        /* \"#utility.yul\":25542:25673   */\n      tag_434\n      jump\t// in\n    tag_703:\n        /* \"#utility.yul\":25534:25673   */\n      swap1\n      pop\n        /* \"#utility.yul\":25261:25680   */\n      swap2\n      swap1\n      pop\n      jump\t// out\n        /* \"#utility.yul\":25686:25855   */\n    tag_435:\n        /* \"#utility.yul\":25826:25847   */\n      0x4f4e4c594f574e4552435245415445504f4f4c00000000000000000000000000\n        /* \"#utility.yul\":25822:25823   */\n      0x00\n        /* \"#utility.yul\":25814:25820   */\n      dup3\n        /* \"#utility.yul\":25810:25824   */\n      add\n        /* \"#utility.yul\":25803:25848   */\n      mstore\n        /* \"#utility.yul\":25686:25855   */\n      pop\n      jump\t// out\n        /* \"#utility.yul\":25861:26227   */\n    tag_436:\n        /* \"#utility.yul\":26003:26006   */\n      0x00\n        /* \"#utility.yul\":26024:26091   */\n      tag_706\n        /* \"#utility.yul\":26088:26090   */\n      0x13\n        /* \"#utility.yul\":26083:26086   */\n      dup4\n        /* \"#utility.yul\":26024:26091   */\n      tag_369\n      jump\t// in\n    tag_706:\n        /* \"#utility.yul\":26017:26091   */\n      swap2\n      pop\n        /* \"#utility.yul\":26100:26193   */\n      tag_707\n        /* \"#utility.yul\":26189:26192   */\n      dup3\n        /* \"#utility.yul\":26100:26193   */\n      tag_435\n      jump\t// in\n    tag_707:\n        /* \"#utility.yul\":26218:26220   */\n      0x20\n        /* \"#utility.yul\":26213:26216   */\n      dup3\n        /* \"#utility.yul\":26209:26221   */\n      add\n        /* \"#utility.yul\":26202:26221   */\n      swap1\n      pop\n        /* \"#utility.yul\":25861:26227   */\n      swap2\n      swap1\n      pop\n      jump\t// out\n        /* \"#utility.yul\":26233:26652   */\n    tag_309:\n        /* \"#utility.yul\":26399:26403   */\n      0x00\n        /* \"#utility.yul\":26437:26439   */\n      0x20\n        /* \"#utility.yul\":26426:26435   */\n      dup3\n        /* \"#utility.yul\":26422:26440   */\n      add\n        /* \"#utility.yul\":26414:26440   */\n      swap1\n      pop\n        /* \"#utility.yul\":26486:26495   */\n      dup2\n        /* \"#utility.yul\":26480:26484   */\n      dup2\n        /* \"#utility.yul\":26476:26496   */\n      sub\n        /* \"#utility.yul\":26472:26473   */\n      0x00\n        /* \"#utility.yul\":26461:26470   */\n      dup4\n        /* \"#utility.yul\":26457:26474   */\n      add\n        /* \"#utility.yul\":26450:26497   */\n      mstore\n        /* \"#utility.yul\":26514:26645   */\n      tag_709\n        /* \"#utility.yul\":26640:26644   */\n      dup2\n        /* \"#utility.yul\":26514:26645   */\n      tag_436\n      jump\t// in\n    tag_709:\n        /* \"#utility.yul\":26506:26645   */\n      swap1\n      pop\n        /* \"#utility.yul\":26233:26652   */\n      swap2\n      swap1\n      pop\n      jump\t// out\n        /* \"#utility.yul\":26658:26812   */\n    tag_437:\n        /* \"#utility.yul\":26798:26804   */\n      0x5541424c00000000000000000000000000000000000000000000000000000000\n        /* \"#utility.yul\":26794:26795   */\n      0x00\n        /* \"#utility.yul\":26786:26792   */\n      dup3\n        /* \"#utility.yul\":26782:26796   */\n      add\n        /* \"#utility.yul\":26775:26805   */\n      mstore\n        /* \"#utility.yul\":26658:26812   */\n      pop\n      jump\t// out\n        /* \"#utility.yul\":26818:27183   */\n    tag_438:\n        /* \"#utility.yul\":26960:26963   */\n      0x00\n        /* \"#utility.yul\":26981:27047   */\n      tag_712\n        /* \"#utility.yul\":27045:27046   */\n      0x04\n        /* \"#utility.yul\":27040:27043   */\n      dup4\n        /* \"#utility.yul\":26981:27047   */\n      tag_369\n      jump\t// in\n    tag_712:\n        /* \"#utility.yul\":26974:27047   */\n      swap2\n      pop\n        /* \"#utility.yul\":27056:27149   */\n      tag_713\n        /* \"#utility.yul\":27145:27148   */\n      dup3\n        /* \"#utility.yul\":27056:27149   */\n      tag_437\n      jump\t// in\n    tag_713:\n        /* \"#utility.yul\":27174:27176   */\n      0x20\n        /* \"#utility.yul\":27169:27172   */\n      dup3\n        /* \"#utility.yul\":27165:27177   */\n      add\n        /* \"#utility.yul\":27158:27177   */\n      swap1\n      pop\n        /* \"#utility.yul\":26818:27183   */\n      swap2\n      swap1\n      pop\n      jump\t// out\n        /* \"#utility.yul\":27189:27608   */\n    tag_313:\n        /* \"#utility.yul\":27355:27359   */\n      0x00\n        /* \"#utility.yul\":27393:27395   */\n      0x20\n        /* \"#utility.yul\":27382:27391   */\n      dup3\n        /* \"#utility.yul\":27378:27396   */\n      add\n        /* \"#utility.yul\":27370:27396   */\n      swap1\n      pop\n        /* \"#utility.yul\":27442:27451   */\n      dup2\n        /* \"#utility.yul\":27436:27440   */\n      dup2\n        /* \"#utility.yul\":27432:27452   */\n      sub\n        /* \"#utility.yul\":27428:27429   */\n      0x00\n        /* \"#utility.yul\":27417:27426   */\n      dup4\n        /* \"#utility.yul\":27413:27430   */\n      add\n        /* \"#utility.yul\":27406:27453   */\n      mstore\n        /* \"#utility.yul\":27470:27601   */\n      tag_715\n        /* \"#utility.yul\":27596:27600   */\n      dup2\n        /* \"#utility.yul\":27470:27601   */\n      tag_438\n      jump\t// in\n    tag_715:\n        /* \"#utility.yul\":27462:27601   */\n      swap1\n      pop\n        /* \"#utility.yul\":27189:27608   */\n      swap2\n      swap1\n      pop\n      jump\t// out\n        /* \"#utility.yul\":27614:27837   */\n    tag_439:\n        /* \"#utility.yul\":27754:27788   */\n      0x45524332303a20617070726f76652066726f6d20746865207a65726f20616464\n        /* \"#utility.yul\":27750:27751   */\n      0x00\n        /* \"#utility.yul\":27742:27748   */\n      dup3\n        /* \"#utility.yul\":27738:27752   */\n      add\n        /* \"#utility.yul\":27731:27789   */\n      mstore\n        /* \"#utility.yul\":27823:27829   */\n      0x7265737300000000000000000000000000000000000000000000000000000000\n        /* \"#utility.yul\":27818:27820   */\n      0x20\n        /* \"#utility.yul\":27810:27816   */\n      dup3\n        /* \"#utility.yul\":27806:27821   */\n      add\n        /* \"#utility.yul\":27799:27830   */\n      mstore\n        /* \"#utility.yul\":27614:27837   */\n      pop\n      jump\t// out\n        /* \"#utility.yul\":27843:28209   */\n    tag_440:\n        /* \"#utility.yul\":27985:27988   */\n      0x00\n        /* \"#utility.yul\":28006:28073   */\n      tag_718\n        /* \"#utility.yul\":28070:28072   */\n      0x24\n        /* \"#utility.yul\":28065:28068   */\n      dup4\n        /* \"#utility.yul\":28006:28073   */\n      tag_369\n      jump\t// in\n    tag_718:\n        /* \"#utility.yul\":27999:28073   */\n      swap2\n      pop\n        /* \"#utility.yul\":28082:28175   */\n      tag_719\n        /* \"#utility.yul\":28171:28174   */\n      dup3\n        /* \"#utility.yul\":28082:28175   */\n      tag_439\n      jump\t// in\n    tag_719:\n        /* \"#utility.yul\":28200:28202   */\n      0x40\n        /* \"#utility.yul\":28195:28198   */\n      dup3\n        /* \"#utility.yul\":28191:28203   */\n      add\n        /* \"#utility.yul\":28184:28203   */\n      swap1\n      pop\n        /* \"#utility.yul\":27843:28209   */\n      swap2\n      swap1\n      pop\n      jump\t// out\n        /* \"#utility.yul\":28215:28634   */\n    tag_321:\n        /* \"#utility.yul\":28381:28385   */\n      0x00\n        /* \"#utility.yul\":28419:28421   */\n      0x20\n        /* \"#utility.yul\":28408:28417   */\n      dup3\n        /* \"#utility.yul\":28404:28422   */\n      add\n        /* \"#utility.yul\":28396:28422   */\n      swap1\n      pop\n        /* \"#utility.yul\":28468:28477   */\n      dup2\n        /* \"#utility.yul\":28462:28466   */\n      dup2\n        /* \"#utility.yul\":28458:28478   */\n      sub\n        /* \"#utility.yul\":28454:28455   */\n      0x00\n        /* \"#utility.yul\":28443:28452   */\n      dup4\n        /* \"#utility.yul\":28439:28456   */\n      add\n        /* \"#utility.yul\":28432:28479   */\n      mstore\n        /* \"#utility.yul\":28496:28627   */\n      tag_721\n        /* \"#utility.yul\":28622:28626   */\n      dup2\n        /* \"#utility.yul\":28496:28627   */\n      tag_440\n      jump\t// in\n    tag_721:\n        /* \"#utility.yul\":28488:28627   */\n      swap1\n      pop\n        /* \"#utility.yul\":28215:28634   */\n      swap2\n      swap1\n      pop\n      jump\t// out\n        /* \"#utility.yul\":28640:28861   */\n    tag_441:\n        /* \"#utility.yul\":28780:28814   */\n      0x45524332303a20617070726f766520746f20746865207a65726f206164647265\n        /* \"#utility.yul\":28776:28777   */\n      0x00\n        /* \"#utility.yul\":28768:28774   */\n      dup3\n        /* \"#utility.yul\":28764:28778   */\n      add\n        /* \"#utility.yul\":28757:28815   */\n      mstore\n        /* \"#utility.yul\":28849:28853   */\n      0x7373000000000000000000000000000000000000000000000000000000000000\n        /* \"#utility.yul\":28844:28846   */\n      0x20\n        /* \"#utility.yul\":28836:28842   */\n      dup3\n        /* \"#utility.yul\":28832:28847   */\n      add\n        /* \"#utility.yul\":28825:28854   */\n      mstore\n        /* \"#utility.yul\":28640:28861   */\n      pop\n      jump\t// out\n        /* \"#utility.yul\":28867:29233   */\n    tag_442:\n        /* \"#utility.yul\":29009:29012   */\n      0x00\n        /* \"#utility.yul\":29030:29097   */\n      tag_724\n        /* \"#utility.yul\":29094:29096   */\n      0x22\n        /* \"#utility.yul\":29089:29092   */\n      dup4\n        /* \"#utility.yul\":29030:29097   */\n      tag_369\n      jump\t// in\n    tag_724:\n        /* \"#utility.yul\":29023:29097   */\n      swap2\n      pop\n        /* \"#utility.yul\":29106:29199   */\n      tag_725\n        /* \"#utility.yul\":29195:29198   */\n      dup3\n        /* \"#utility.yul\":29106:29199   */\n      tag_441\n      jump\t// in\n    tag_725:\n        /* \"#utility.yul\":29224:29226   */\n      0x40\n        /* \"#utility.yul\":29219:29222   */\n      dup3\n        /* \"#utility.yul\":29215:29227   */\n      add\n        /* \"#utility.yul\":29208:29227   */\n      swap1\n      pop\n        /* \"#utility.yul\":28867:29233   */\n      swap2\n      swap1\n      pop\n      jump\t// out\n        /* \"#utility.yul\":29239:29658   */\n    tag_324:\n        /* \"#utility.yul\":29405:29409   */\n      0x00\n        /* \"#utility.yul\":29443:29445   */\n      0x20\n        /* \"#utility.yul\":29432:29441   */\n      dup3\n        /* \"#utility.yul\":29428:29446   */\n      add\n        /* \"#utility.yul\":29420:29446   */\n      swap1\n      pop\n        /* \"#utility.yul\":29492:29501   */\n      dup2\n        /* \"#utility.yul\":29486:29490   */\n      dup2\n        /* \"#utility.yul\":29482:29502   */\n      sub\n        /* \"#utility.yul\":29478:29479   */\n      0x00\n        /* \"#utility.yul\":29467:29476   */\n      dup4\n        /* \"#utility.yul\":29463:29480   */\n      add\n        /* \"#utility.yul\":29456:29503   */\n      mstore\n        /* \"#utility.yul\":29520:29651   */\n      tag_727\n        /* \"#utility.yul\":29646:29650   */\n      dup2\n        /* \"#utility.yul\":29520:29651   */\n      tag_442\n      jump\t// in\n    tag_727:\n        /* \"#utility.yul\":29512:29651   */\n      swap1\n      pop\n        /* \"#utility.yul\":29239:29658   */\n      swap2\n      swap1\n      pop\n      jump\t// out\n        /* \"#utility.yul\":29664:29888   */\n    tag_443:\n        /* \"#utility.yul\":29804:29838   */\n      0x45524332303a207472616e736665722066726f6d20746865207a65726f206164\n        /* \"#utility.yul\":29800:29801   */\n      0x00\n        /* \"#utility.yul\":29792:29798   */\n      dup3\n        /* \"#utility.yul\":29788:29802   */\n      add\n        /* \"#utility.yul\":29781:29839   */\n      mstore\n        /* \"#utility.yul\":29873:29880   */\n      0x6472657373000000000000000000000000000000000000000000000000000000\n        /* \"#utility.yul\":29868:29870   */\n      0x20\n        /* \"#utility.yul\":29860:29866   */\n      dup3\n        /* \"#utility.yul\":29856:29871   */\n      add\n        /* \"#utility.yul\":29849:29881   */\n      mstore\n        /* \"#utility.yul\":29664:29888   */\n      pop\n      jump\t// out\n        /* \"#utility.yul\":29894:30260   */\n    tag_444:\n        /* \"#utility.yul\":30036:30039   */\n      0x00\n        /* \"#utility.yul\":30057:30124   */\n      tag_730\n        /* \"#utility.yul\":30121:30123   */\n      0x25\n        /* \"#utility.yul\":30116:30119   */\n      dup4\n        /* \"#utility.yul\":30057:30124   */\n      tag_369\n      jump\t// in\n    tag_730:\n        /* \"#utility.yul\":30050:30124   */\n      swap2\n      pop\n        /* \"#utility.yul\":30133:30226   */\n      tag_731\n        /* \"#utility.yul\":30222:30225   */\n      dup3\n        /* \"#utility.yul\":30133:30226   */\n      tag_443\n      jump\t// in\n    tag_731:\n        /* \"#utility.yul\":30251:30253   */\n      0x40\n        /* \"#utility.yul\":30246:30249   */\n      dup3\n        /* \"#utility.yul\":30242:30254   */\n      add\n        /* \"#utility.yul\":30235:30254   */\n      swap1\n      pop\n        /* \"#utility.yul\":29894:30260   */\n      swap2\n      swap1\n      pop\n      jump\t// out\n        /* \"#utility.yul\":30266:30685   */\n    tag_329:\n        /* \"#utility.yul\":30432:30436   */\n      0x00\n        /* \"#utility.yul\":30470:30472   */\n      0x20\n        /* \"#utility.yul\":30459:30468   */\n      dup3\n        /* \"#utility.yul\":30455:30473   */\n      add\n        /* \"#utility.yul\":30447:30473   */\n      swap1\n      pop\n        /* \"#utility.yul\":30519:30528   */\n      dup2\n        /* \"#utility.yul\":30513:30517   */\n      dup2\n        /* \"#utility.yul\":30509:30529   */\n      sub\n        /* \"#utility.yul\":30505:30506   */\n      0x00\n        /* \"#utility.yul\":30494:30503   */\n      dup4\n        /* \"#utility.yul\":30490:30507   */\n      add\n        /* \"#utility.yul\":30483:30530   */\n      mstore\n        /* \"#utility.yul\":30547:30678   */\n      tag_733\n        /* \"#utility.yul\":30673:30677   */\n      dup2\n        /* \"#utility.yul\":30547:30678   */\n      tag_444\n      jump\t// in\n    tag_733:\n        /* \"#utility.yul\":30539:30678   */\n      swap1\n      pop\n        /* \"#utility.yul\":30266:30685   */\n      swap2\n      swap1\n      pop\n      jump\t// out\n        /* \"#utility.yul\":30691:30913   */\n    tag_445:\n        /* \"#utility.yul\":30831:30865   */\n      0x45524332303a207472616e7366657220746f20746865207a65726f2061646472\n        /* \"#utility.yul\":30827:30828   */\n      0x00\n        /* \"#utility.yul\":30819:30825   */\n      dup3\n        /* \"#utility.yul\":30815:30829   */\n      add\n        /* \"#utility.yul\":30808:30866   */\n      mstore\n        /* \"#utility.yul\":30900:30905   */\n      0x6573730000000000000000000000000000000000000000000000000000000000\n        /* \"#utility.yul\":30895:30897   */\n      0x20\n        /* \"#utility.yul\":30887:30893   */\n      dup3\n        /* \"#utility.yul\":30883:30898   */\n      add\n        /* \"#utility.yul\":30876:30906   */\n      mstore\n        /* \"#utility.yul\":30691:30913   */\n      pop\n      jump\t// out\n        /* \"#utility.yul\":30919:31285   */\n    tag_446:\n        /* \"#utility.yul\":31061:31064   */\n      0x00\n        /* \"#utility.yul\":31082:31149   */\n      tag_736\n        /* \"#utility.yul\":31146:31148   */\n      0x23\n        /* \"#utility.yul\":31141:31144   */\n      dup4\n        /* \"#utility.yul\":31082:31149   */\n      tag_369\n      jump\t// in\n    tag_736:\n        /* \"#utility.yul\":31075:31149   */\n      swap2\n      pop\n        /* \"#utility.yul\":31158:31251   */\n      tag_737\n        /* \"#utility.yul\":31247:31250   */\n      dup3\n        /* \"#utility.yul\":31158:31251   */\n      tag_445\n      jump\t// in\n    tag_737:\n        /* \"#utility.yul\":31276:31278   */\n      0x40\n        /* \"#utility.yul\":31271:31274   */\n      dup3\n        /* \"#utility.yul\":31267:31279   */\n      add\n        /* \"#utility.yul\":31260:31279   */\n      swap1\n      pop\n        /* \"#utility.yul\":30919:31285   */\n      swap2\n      swap1\n      pop\n      jump\t// out\n        /* \"#utility.yul\":31291:31710   */\n    tag_332:\n        /* \"#utility.yul\":31457:31461   */\n      0x00\n        /* \"#utility.yul\":31495:31497   */\n      0x20\n        /* \"#utility.yul\":31484:31493   */\n      dup3\n        /* \"#utility.yul\":31480:31498   */\n      add\n        /* \"#utility.yul\":31472:31498   */\n      swap1\n      pop\n        /* \"#utility.yul\":31544:31553   */\n      dup2\n        /* \"#utility.yul\":31538:31542   */\n      dup2\n        /* \"#utility.yul\":31534:31554   */\n      sub\n        /* \"#utility.yul\":31530:31531   */\n      0x00\n        /* \"#utility.yul\":31519:31528   */\n      dup4\n        /* \"#utility.yul\":31515:31532   */\n      add\n        /* \"#utility.yul\":31508:31555   */\n      mstore\n        /* \"#utility.yul\":31572:31703   */\n      tag_739\n        /* \"#utility.yul\":31698:31702   */\n      dup2\n        /* \"#utility.yul\":31572:31703   */\n      tag_446\n      jump\t// in\n    tag_739:\n        /* \"#utility.yul\":31564:31703   */\n      swap1\n      pop\n        /* \"#utility.yul\":31291:31710   */\n      swap2\n      swap1\n      pop\n      jump\t// out\n        /* \"#utility.yul\":31716:31941   */\n    tag_447:\n        /* \"#utility.yul\":31856:31890   */\n      0x45524332303a207472616e7366657220616d6f756e7420657863656564732062\n        /* \"#utility.yul\":31852:31853   */\n      0x00\n        /* \"#utility.yul\":31844:31850   */\n      dup3\n        /* \"#utility.yul\":31840:31854   */\n      add\n        /* \"#utility.yul\":31833:31891   */\n      mstore\n        /* \"#utility.yul\":31925:31933   */\n      0x616c616e63650000000000000000000000000000000000000000000000000000\n        /* \"#utility.yul\":31920:31922   */\n      0x20\n        /* \"#utility.yul\":31912:31918   */\n      dup3\n        /* \"#utility.yul\":31908:31923   */\n      add\n        /* \"#utility.yul\":31901:31934   */\n      mstore\n        /* \"#utility.yul\":31716:31941   */\n      pop\n      jump\t// out\n        /* \"#utility.yul\":31947:32313   */\n    tag_448:\n        /* \"#utility.yul\":32089:32092   */\n      0x00\n        /* \"#utility.yul\":32110:32177   */\n      tag_742\n        /* \"#utility.yul\":32174:32176   */\n      0x26\n        /* \"#utility.yul\":32169:32172   */\n      dup4\n        /* \"#utility.yul\":32110:32177   */\n      tag_369\n      jump\t// in\n    tag_742:\n        /* \"#utility.yul\":32103:32177   */\n      swap2\n      pop\n        /* \"#utility.yul\":32186:32279   */\n      tag_743\n        /* \"#utility.yul\":32275:32278   */\n      dup3\n        /* \"#utility.yul\":32186:32279   */\n      tag_447\n      jump\t// in\n    tag_743:\n        /* \"#utility.yul\":32304:32306   */\n      0x40\n        /* \"#utility.yul\":32299:32302   */\n      dup3\n        /* \"#utility.yul\":32295:32307   */\n      add\n        /* \"#utility.yul\":32288:32307   */\n      swap1\n      pop\n        /* \"#utility.yul\":31947:32313   */\n      swap2\n      swap1\n      pop\n      jump\t// out\n        /* \"#utility.yul\":32319:32738   */\n    tag_337:\n        /* \"#utility.yul\":32485:32489   */\n      0x00\n        /* \"#utility.yul\":32523:32525   */\n      0x20\n        /* \"#utility.yul\":32512:32521   */\n      dup3\n        /* \"#utility.yul\":32508:32526   */\n      add\n        /* \"#utility.yul\":32500:32526   */\n      swap1\n      pop\n        /* \"#utility.yul\":32572:32581   */\n      dup2\n        /* \"#utility.yul\":32566:32570   */\n      dup2\n        /* \"#utility.yul\":32562:32582   */\n      sub\n        /* \"#utility.yul\":32558:32559   */\n      0x00\n        /* \"#utility.yul\":32547:32556   */\n      dup4\n        /* \"#utility.yul\":32543:32560   */\n      add\n        /* \"#utility.yul\":32536:32583   */\n      mstore\n        /* \"#utility.yul\":32600:32731   */\n      tag_745\n        /* \"#utility.yul\":32726:32730   */\n      dup2\n        /* \"#utility.yul\":32600:32731   */\n      tag_448\n      jump\t// in\n    tag_745:\n        /* \"#utility.yul\":32592:32731   */\n      swap1\n      pop\n        /* \"#utility.yul\":32319:32738   */\n      swap2\n      swap1\n      pop\n      jump\t// out\n        /* \"#utility.yul\":32744:32923   */\n    tag_449:\n        /* \"#utility.yul\":32884:32915   */\n      0x45524332303a20696e73756666696369656e7420616c6c6f77616e6365000000\n        /* \"#utility.yul\":32880:32881   */\n      0x00\n        /* \"#utility.yul\":32872:32878   */\n      dup3\n        /* \"#utility.yul\":32868:32882   */\n      add\n        /* \"#utility.yul\":32861:32916   */\n      mstore\n        /* \"#utility.yul\":32744:32923   */\n      pop\n      jump\t// out\n        /* \"#utility.yul\":32929:33295   */\n    tag_450:\n        /* \"#utility.yul\":33071:33074   */\n      0x00\n        /* \"#utility.yul\":33092:33159   */\n      tag_748\n        /* \"#utility.yul\":33156:33158   */\n      0x1d\n        /* \"#utility.yul\":33151:33154   */\n      dup4\n        /* \"#utility.yul\":33092:33159   */\n      tag_369\n      jump\t// in\n    tag_748:\n        /* \"#utility.yul\":33085:33159   */\n      swap2\n      pop\n        /* \"#utility.yul\":33168:33261   */\n      tag_749\n        /* \"#utility.yul\":33257:33260   */\n      dup3\n        /* \"#utility.yul\":33168:33261   */\n      tag_449\n      jump\t// in\n    tag_749:\n        /* \"#utility.yul\":33286:33288   */\n      0x20\n        /* \"#utility.yul\":33281:33284   */\n      dup3\n        /* \"#utility.yul\":33277:33289   */\n      add\n        /* \"#utility.yul\":33270:33289   */\n      swap1\n      pop\n        /* \"#utility.yul\":32929:33295   */\n      swap2\n      swap1\n      pop\n      jump\t// out\n        /* \"#utility.yul\":33301:33720   */\n    tag_346:\n        /* \"#utility.yul\":33467:33471   */\n      0x00\n        /* \"#utility.yul\":33505:33507   */\n      0x20\n        /* \"#utility.yul\":33494:33503   */\n      dup3\n        /* \"#utility.yul\":33490:33508   */\n      add\n        /* \"#utility.yul\":33482:33508   */\n      swap1\n      pop\n        /* \"#utility.yul\":33554:33563   */\n      dup2\n        /* \"#utility.yul\":33548:33552   */\n      dup2\n        /* \"#utility.yul\":33544:33564   */\n      sub\n        /* \"#utility.yul\":33540:33541   */\n      0x00\n        /* \"#utility.yul\":33529:33538   */\n      dup4\n        /* \"#utility.yul\":33525:33542   */\n      add\n        /* \"#utility.yul\":33518:33565   */\n      mstore\n        /* \"#utility.yul\":33582:33713   */\n      tag_751\n        /* \"#utility.yul\":33708:33712   */\n      dup2\n        /* \"#utility.yul\":33582:33713   */\n      tag_450\n      jump\t// in\n    tag_751:\n        /* \"#utility.yul\":33574:33713   */\n      swap1\n      pop\n        /* \"#utility.yul\":33301:33720   */\n      swap2\n      swap1\n      pop\n      jump\t// out\n        /* \"#utility.yul\":33726:33946   */\n    tag_451:\n        /* \"#utility.yul\":33866:33900   */\n      0x45524332303a206275726e2066726f6d20746865207a65726f20616464726573\n        /* \"#utility.yul\":33862:33863   */\n      0x00\n        /* \"#utility.yul\":33854:33860   */\n      dup3\n        /* \"#utility.yul\":33850:33864   */\n      add\n        /* \"#utility.yul\":33843:33901   */\n      mstore\n        /* \"#utility.yul\":33935:33938   */\n      0x7300000000000000000000000000000000000000000000000000000000000000\n        /* \"#utility.yul\":33930:33932   */\n      0x20\n        /* \"#utility.yul\":33922:33928   */\n      dup3\n        /* \"#utility.yul\":33918:33933   */\n      add\n        /* \"#utility.yul\":33911:33939   */\n      mstore\n        /* \"#utility.yul\":33726:33946   */\n      pop\n      jump\t// out\n        /* \"#utility.yul\":33952:34318   */\n    tag_452:\n        /* \"#utility.yul\":34094:34097   */\n      0x00\n        /* \"#utility.yul\":34115:34182   */\n      tag_754\n        /* \"#utility.yul\":34179:34181   */\n      0x21\n        /* \"#utility.yul\":34174:34177   */\n      dup4\n        /* \"#utility.yul\":34115:34182   */\n      tag_369\n      jump\t// in\n    tag_754:\n        /* \"#utility.yul\":34108:34182   */\n      swap2\n      pop\n        /* \"#utility.yul\":34191:34284   */\n      tag_755\n        /* \"#utility.yul\":34280:34283   */\n      dup3\n        /* \"#utility.yul\":34191:34284   */\n      tag_451\n      jump\t// in\n    tag_755:\n        /* \"#utility.yul\":34309:34311   */\n      0x40\n        /* \"#utility.yul\":34304:34307   */\n      dup3\n        /* \"#utility.yul\":34300:34312   */\n      add\n        /* \"#utility.yul\":34293:34312   */\n      swap1\n      pop\n        /* \"#utility.yul\":33952:34318   */\n      swap2\n      swap1\n      pop\n      jump\t// out\n        /* \"#utility.yul\":34324:34743   */\n    tag_351:\n        /* \"#utility.yul\":34490:34494   */\n      0x00\n        /* \"#utility.yul\":34528:34530   */\n      0x20\n        /* \"#utility.yul\":34517:34526   */\n      dup3\n        /* \"#utility.yul\":34513:34531   */\n      add\n        /* \"#utility.yul\":34505:34531   */\n      swap1\n      pop\n        /* \"#utility.yul\":34577:34586   */\n      dup2\n        /* \"#utility.yul\":34571:34575   */\n      dup2\n        /* \"#utility.yul\":34567:34587   */\n      sub\n        /* \"#utility.yul\":34563:34564   */\n      0x00\n        /* \"#utility.yul\":34552:34561   */\n      dup4\n        /* \"#utility.yul\":34548:34565   */\n      add\n        /* \"#utility.yul\":34541:34588   */\n      mstore\n        /* \"#utility.yul\":34605:34736   */\n      tag_757\n        /* \"#utility.yul\":34731:34735   */\n      dup2\n        /* \"#utility.yul\":34605:34736   */\n      tag_452\n      jump\t// in\n    tag_757:\n        /* \"#utility.yul\":34597:34736   */\n      swap1\n      pop\n        /* \"#utility.yul\":34324:34743   */\n      swap2\n      swap1\n      pop\n      jump\t// out\n        /* \"#utility.yul\":34749:34970   */\n    tag_453:\n        /* \"#utility.yul\":34889:34923   */\n      0x45524332303a206275726e20616d6f756e7420657863656564732062616c616e\n        /* \"#utility.yul\":34885:34886   */\n      0x00\n        /* \"#utility.yul\":34877:34883   */\n      dup3\n        /* \"#utility.yul\":34873:34887   */\n      add\n        /* \"#utility.yul\":34866:34924   */\n      mstore\n        /* \"#utility.yul\":34958:34962   */\n      0x6365000000000000000000000000000000000000000000000000000000000000\n        /* \"#utility.yul\":34953:34955   */\n      0x20\n        /* \"#utility.yul\":34945:34951   */\n      dup3\n        /* \"#utility.yul\":34941:34956   */\n      add\n        /* \"#utility.yul\":34934:34963   */\n      mstore\n        /* \"#utility.yul\":34749:34970   */\n      pop\n      jump\t// out\n        /* \"#utility.yul\":34976:35342   */\n    tag_454:\n        /* \"#utility.yul\":35118:35121   */\n      0x00\n        /* \"#utility.yul\":35139:35206   */\n      tag_760\n        /* \"#utility.yul\":35203:35205   */\n      0x22\n        /* \"#utility.yul\":35198:35201   */\n      dup4\n        /* \"#utility.yul\":35139:35206   */\n      tag_369\n      jump\t// in\n    tag_760:\n        /* \"#utility.yul\":35132:35206   */\n      swap2\n      pop\n        /* \"#utility.yul\":35215:35308   */\n      tag_761\n        /* \"#utility.yul\":35304:35307   */\n      dup3\n        /* \"#utility.yul\":35215:35308   */\n      tag_453\n      jump\t// in\n    tag_761:\n        /* \"#utility.yul\":35333:35335   */\n      0x40\n        /* \"#utility.yul\":35328:35331   */\n      dup3\n        /* \"#utility.yul\":35324:35336   */\n      add\n        /* \"#utility.yul\":35317:35336   */\n      swap1\n      pop\n        /* \"#utility.yul\":34976:35342   */\n      swap2\n      swap1\n      pop\n      jump\t// out\n        /* \"#utility.yul\":35348:35767   */\n    tag_355:\n        /* \"#utility.yul\":35514:35518   */\n      0x00\n        /* \"#utility.yul\":35552:35554   */\n      0x20\n        /* \"#utility.yul\":35541:35550   */\n      dup3\n        /* \"#utility.yul\":35537:35555   */\n      add\n        /* \"#utility.yul\":35529:35555   */\n      swap1\n      pop\n        /* \"#utility.yul\":35601:35610   */\n      dup2\n        /* \"#utility.yul\":35595:35599   */\n      dup2\n        /* \"#utility.yul\":35591:35611   */\n      sub\n        /* \"#utility.yul\":35587:35588   */\n      0x00\n        /* \"#utility.yul\":35576:35585   */\n      dup4\n        /* \"#utility.yul\":35572:35589   */\n      add\n        /* \"#utility.yul\":35565:35612   */\n      mstore\n        /* \"#utility.yul\":35629:35760   */\n      tag_763\n        /* \"#utility.yul\":35755:35759   */\n      dup2\n        /* \"#utility.yul\":35629:35760   */\n      tag_454\n      jump\t// in\n    tag_763:\n        /* \"#utility.yul\":35621:35760   */\n      swap1\n      pop\n        /* \"#utility.yul\":35348:35767   */\n      swap2\n      swap1\n      pop\n      jump\t// out\n        /* \"#utility.yul\":35773:35954   */\n    tag_455:\n        /* \"#utility.yul\":35913:35946   */\n      0x45524332303a206d696e7420746f20746865207a65726f206164647265737300\n        /* \"#utility.yul\":35909:35910   */\n      0x00\n        /* \"#utility.yul\":35901:35907   */\n      dup3\n        /* \"#utility.yul\":35897:35911   */\n      add\n        /* \"#utility.yul\":35890:35947   */\n      mstore\n        /* \"#utility.yul\":35773:35954   */\n      pop\n      jump\t// out\n        /* \"#utility.yul\":35960:36326   */\n    tag_456:\n        /* \"#utility.yul\":36102:36105   */\n      0x00\n        /* \"#utility.yul\":36123:36190   */\n      tag_766\n        /* \"#utility.yul\":36187:36189   */\n      0x1f\n        /* \"#utility.yul\":36182:36185   */\n      dup4\n        /* \"#utility.yul\":36123:36190   */\n      tag_369\n      jump\t// in\n    tag_766:\n        /* \"#utility.yul\":36116:36190   */\n      swap2\n      pop\n        /* \"#utility.yul\":36199:36292   */\n      tag_767\n        /* \"#utility.yul\":36288:36291   */\n      dup3\n        /* \"#utility.yul\":36199:36292   */\n      tag_455\n      jump\t// in\n    tag_767:\n        /* \"#utility.yul\":36317:36319   */\n      0x20\n        /* \"#utility.yul\":36312:36315   */\n      dup3\n        /* \"#utility.yul\":36308:36320   */\n      add\n        /* \"#utility.yul\":36301:36320   */\n      swap1\n      pop\n        /* \"#utility.yul\":35960:36326   */\n      swap2\n      swap1\n      pop\n      jump\t// out\n        /* \"#utility.yul\":36332:36751   */\n    tag_361:\n        /* \"#utility.yul\":36498:36502   */\n      0x00\n        /* \"#utility.yul\":36536:36538   */\n      0x20\n        /* \"#utility.yul\":36525:36534   */\n      dup3\n        /* \"#utility.yul\":36521:36539   */\n      add\n        /* \"#utility.yul\":36513:36539   */\n      swap1\n      pop\n        /* \"#utility.yul\":36585:36594   */\n      dup2\n        /* \"#utility.yul\":36579:36583   */\n      dup2\n        /* \"#utility.yul\":36575:36595   */\n      sub\n        /* \"#utility.yul\":36571:36572   */\n      0x00\n        /* \"#utility.yul\":36560:36569   */\n      dup4\n        /* \"#utility.yul\":36556:36573   */\n      add\n        /* \"#utility.yul\":36549:36596   */\n      mstore\n        /* \"#utility.yul\":36613:36744   */\n      tag_769\n        /* \"#utility.yul\":36739:36743   */\n      dup2\n        /* \"#utility.yul\":36613:36744   */\n      tag_456\n      jump\t// in\n    tag_769:\n        /* \"#utility.yul\":36605:36744   */\n      swap1\n      pop\n        /* \"#utility.yul\":36332:36751   */\n      swap2\n      swap1\n      pop\n      jump\t// out\n\n    auxdata: 0xa2646970667358221220048602c2578fabc0f7cfb69896d73cf1f4eab0de7204b7d4374b1ba94f18d4c664736f6c63430008120033\n}\n",
				"bytecode": {
					"linkReferences": {},
					"object": "6080604052620186a0600755631dcd65006008556413fb2a5490600955640d521c3860600a553480156200003257600080fd5b506040518060400160405280600381526020017f474f4f00000000000000000000000000000000000000000000000000000000008152506040518060400160405280600281526020017f474f0000000000000000000000000000000000000000000000000000000000008152508160039081620000b09190620005b8565b508060049081620000c29190620005b8565b50505033600b60006101000a81548173ffffffffffffffffffffffffffffffffffffffff021916908373ffffffffffffffffffffffffffffffffffffffff1602179055506200011d3064214d468cf0620001c760201b60201c565b426005819055506201518042620001359190620006ce565b6006819055507f406b456ff3f22ed8c574547a645dd085d2a645955dd676e0d136d5677d61bd7060055460065460095460405162000176939291906200071a565b60405180910390a17f2652f6f8f660f8f79a623da8e0a1fae21d1acbe89464c6471fcb75ab2246b639600554600654600a54604051620001b9939291906200071a565b60405180910390a1620007f7565b600073ffffffffffffffffffffffffffffffffffffffff168273ffffffffffffffffffffffffffffffffffffffff160362000239576040517f08c379a00000000000000000000000000000000000000000000000000000000081526004016200023090620007b8565b60405180910390fd5b6200024d600083836200033460201b60201c565b8060026000828254620002619190620006ce565b92505081905550806000808473ffffffffffffffffffffffffffffffffffffffff1673ffffffffffffffffffffffffffffffffffffffff168152602001908152602001600020600082825401925050819055508173ffffffffffffffffffffffffffffffffffffffff16600073ffffffffffffffffffffffffffffffffffffffff167fddf252ad1be2c89b69c2b068fc378daa952ba7f163c4a11628f55a4df523b3ef83604051620003149190620007da565b60405180910390a362000330600083836200033960201b60201c565b5050565b505050565b505050565b600081519050919050565b7f4e487b7100000000000000000000000000000000000000000000000000000000600052604160045260246000fd5b7f4e487b7100000000000000000000000000000000000000000000000000000000600052602260045260246000fd5b60006002820490506001821680620003c057607f821691505b602082108103620003d657620003d562000378565b5b50919050565b60008190508160005260206000209050919050565b60006020601f8301049050919050565b600082821b905092915050565b600060088302620004407fffffffffffffffffffffffffffffffffffffffffffffffffffffffffffffffff8262000401565b6200044c868362000401565b95508019841693508086168417925050509392505050565b6000819050919050565b6000819050919050565b600062000499620004936200048d8462000464565b6200046e565b62000464565b9050919050565b6000819050919050565b620004b58362000478565b620004cd620004c482620004a0565b8484546200040e565b825550505050565b600090565b620004e4620004d5565b620004f1818484620004aa565b505050565b5b8181101562000519576200050d600082620004da565b600181019050620004f7565b5050565b601f82111562000568576200053281620003dc565b6200053d84620003f1565b810160208510156200054d578190505b620005656200055c85620003f1565b830182620004f6565b50505b505050565b600082821c905092915050565b60006200058d600019846008026200056d565b1980831691505092915050565b6000620005a883836200057a565b9150826002028217905092915050565b620005c3826200033e565b67ffffffffffffffff811115620005df57620005de62000349565b5b620005eb8254620003a7565b620005f88282856200051d565b600060209050601f8311600181146200063057600084156200061b578287015190505b6200062785826200059a565b86555062000697565b601f1984166200064086620003dc565b60005b828110156200066a5784890151825560018201915060208501945060208101905062000643565b868310156200068a578489015162000686601f8916826200057a565b8355505b6001600288020188555050505b505050505050565b7f4e487b7100000000000000000000000000000000000000000000000000000000600052601160045260246000fd5b6000620006db8262000464565b9150620006e88362000464565b92508282019050808211156200070357620007026200069f565b5b92915050565b620007148162000464565b82525050565b600060608201905062000731600083018662000709565b62000740602083018562000709565b6200074f604083018462000709565b949350505050565b600082825260208201905092915050565b7f45524332303a206d696e7420746f20746865207a65726f206164647265737300600082015250565b6000620007a0601f8362000757565b9150620007ad8262000768565b602082019050919050565b60006020820190508181036000830152620007d38162000791565b9050919050565b6000602082019050620007f1600083018462000709565b92915050565b61313980620008076000396000f3fe6080604052600436106101b75760003560e01c8063667022fd116100ec578063a0712d681161008a578063aa8c217c11610064578063aa8c217c14610653578063d69b197f1461067e578063dbac26e9146106ab578063dd62ed3e146106e8576101b7565b8063a0712d68146105b0578063a457c2d7146105d9578063a9059cbb14610616576101b7565b80637ff9b596116100c65780637ff9b5961461051a578063853828b61461054557806391d391551461055c57806395d89b4114610585576101b7565b8063667022fd1461047557806370a08231146104b257806378e97925146104ef576101b7565b8063313ce567116101595780633cebff9c116101335780633cebff9c146103c4578063404e5129146103ef5780634d1d03d1146104185780636643ef9f14610445576101b7565b8063313ce567146103315780633197cbb61461035c5780633950935114610387576101b7565b806318160ddd1161019557806318160ddd1461024f5780631e83409a1461027a57806323b872dd146102b75780632d77f07c146102f4576101b7565b806306fdde03146101bc5780630723fa42146101e7578063095ea7b314610212575b600080fd5b3480156101c857600080fd5b506101d1610725565b6040516101de9190611edb565b60405180910390f35b3480156101f357600080fd5b506101fc6107b7565b6040516102099190611f16565b60405180910390f35b34801561021e57600080fd5b5061023960048036038101906102349190611fcf565b6107bd565b604051610246919061202a565b60405180910390f35b34801561025b57600080fd5b506102646107e0565b6040516102719190611f16565b60405180910390f35b34801561028657600080fd5b506102a1600480360381019061029c9190612045565b6107ea565b6040516102ae919061202a565b60405180910390f35b3480156102c357600080fd5b506102de60048036038101906102d99190612072565b610a3e565b6040516102eb919061202a565b60405180910390f35b34801561030057600080fd5b5061031b600480360381019061031691906121fa565b610a6d565b6040516103289190612252565b60405180910390f35b34801561033d57600080fd5b50610346610b54565b6040516103539190612289565b60405180910390f35b34801561036857600080fd5b50610371610b5d565b60405161037e9190611f16565b60405180910390f35b34801561039357600080fd5b506103ae60048036038101906103a99190611fcf565b610b63565b6040516103bb919061202a565b60405180910390f35b3480156103d057600080fd5b506103d9610b9a565b6040516103e69190611f16565b60405180910390f35b3480156103fb57600080fd5b50610416600480360381019061041191906122d0565b610ba0565b005b34801561042457600080fd5b5061042d610c8b565b60405161043c93929190612310565b60405180910390f35b61045f600480360381019061045a9190612045565b610ca4565b60405161046c9190611f16565b60405180910390f35b34801561048157600080fd5b5061049c60048036038101906104979190612045565b610fdf565b6040516104a99190611f16565b60405180910390f35b3480156104be57600080fd5b506104d960048036038101906104d49190612045565b610ff7565b6040516104e69190611f16565b60405180910390f35b3480156104fb57600080fd5b5061050461103f565b6040516105119190611f16565b60405180910390f35b34801561052657600080fd5b5061052f611045565b60405161053c9190611f16565b60405180910390f35b34801561055157600080fd5b5061055a61104b565b005b34801561056857600080fd5b50610583600480360381019061057e91906121fa565b611159565b005b34801561059157600080fd5b5061059a611288565b6040516105a79190611edb565b60405180910390f35b3480156105bc57600080fd5b506105d760048036038101906105d29190612347565b61131a565b005b3480156105e557600080fd5b5061060060048036038101906105fb9190611fcf565b6113b7565b60405161060d919061202a565b60405180910390f35b34801561062257600080fd5b5061063d60048036038101906106389190611fcf565b61142e565b60405161064a919061202a565b60405180910390f35b34801561065f57600080fd5b50610668611585565b6040516106759190611f16565b60405180910390f35b34801561068a57600080fd5b5061069361158b565b6040516106a293929190612310565b60405180910390f35b3480156106b757600080fd5b506106d260048036038101906106cd9190612045565b6115a4565b6040516106df919061202a565b60405180910390f35b3480156106f457600080fd5b5061070f600480360381019061070a9190612374565b6115c4565b60405161071c9190611f16565b60405180910390f35b606060038054610734906123e3565b80601f0160208091040260200160405190810160405280929190818152602001828054610760906123e3565b80156107ad5780601f10610782576101008083540402835291602001916107ad565b820191906000526020600020905b81548152906001019060200180831161079057829003601f168201915b5050505050905090565b600a5481565b6000806107c861164b565b90506107d5818585611653565b600191505092915050565b6000600254905090565b60006007546009541015610833576040517f08c379a000000000000000000000000000000000000000000000000000000000815260040161082a90612460565b60405180910390fd5b426005541115801561084757506006544211155b610886576040517f08c379a000000000000000000000000000000000000000000000000000000000815260040161087d906124cc565b60405180910390fd5b600c60003373ffffffffffffffffffffffffffffffffffffffff1673ffffffffffffffffffffffffffffffffffffffff16815260200190815260200160002060009054906101000a900460ff1615610913576040517f08c379a000000000000000000000000000000000000000000000000000000000815260040161090a90612538565b60405180910390fd5b8173ffffffffffffffffffffffffffffffffffffffff163373ffffffffffffffffffffffffffffffffffffffff16141580156109585750600061095583610ff7565b14155b80156109915750600073ffffffffffffffffffffffffffffffffffffffff168273ffffffffffffffffffffffffffffffffffffffff1614155b156109ba576109a3308360075461181c565b6007546009546109b39190612587565b6009819055505b6109c7303360075461181c565b6007546009546109d79190612587565b6009819055506001600c60003373ffffffffffffffffffffffffffffffffffffffff1673ffffffffffffffffffffffffffffffffffffffff16815260200190815260200160002060006101000a81548160ff02191690831515021790555060019050919050565b600080610a4961164b565b9050610a56858285611a92565b610a6185858561181c565b60019150509392505050565b6000806040518060400160405280600781526020017f6275726e416c6c00000000000000000000000000000000000000000000000000815250805190602001209050600081604051602001610ac2919061263d565b604051602081830303815290604052805190602001209050600080600086806020019051810190610af391906126bb565b92509250925060018482858560405160008152602001604052604051610b1c949392919061271d565b6020604051602081039080840390855afa158015610b3e573d6000803e3d6000fd5b5050506020604051035195505050505050919050565b60006012905090565b60065481565b600080610b6e61164b565b9050610b8f818585610b8085896115c4565b610b8a9190612762565b611653565b600191505092915050565b60095481565b600b60009054906101000a900473ffffffffffffffffffffffffffffffffffffffff1673ffffffffffffffffffffffffffffffffffffffff163373ffffffffffffffffffffffffffffffffffffffff1614610c30576040517f08c379a0000000000000000000000000000000000000000000000000000000008152600401610c27906127e2565b60405180910390fd5b80600e60008473ffffffffffffffffffffffffffffffffffffffff1673ffffffffffffffffffffffffffffffffffffffff16815260200190815260200160002060006101000a81548160ff0219169083151502179055505050565b6000806000600554600654600a54925092509250909192565b6000670de0b6b3a7640000600d60003373ffffffffffffffffffffffffffffffffffffffff1673ffffffffffffffffffffffffffffffffffffffff168152602001908152602001600020541115610d30576040517f08c379a0000000000000000000000000000000000000000000000000000000008152600401610d279061284e565b60405180910390fd5b6611c37937e08000341015610d7a576040517f08c379a0000000000000000000000000000000000000000000000000000000008152600401610d71906128ba565b60405180910390fd5b4260055411158015610d8e57506006544211155b610dcd576040517f08c379a0000000000000000000000000000000000000000000000000000000008152600401610dc4906124cc565b60405180910390fd5b670de0b6b3a764000034600d60003373ffffffffffffffffffffffffffffffffffffffff1673ffffffffffffffffffffffffffffffffffffffff16815260200190815260200160002054610e219190612762565b1115610e62576040517f08c379a0000000000000000000000000000000000000000000000000000000008152600401610e5990612926565b60405180910390fd5b600034905060008060085483610e789190612975565b9150600a606460085485610e8c9190612975565b610e969190612975565b610ea091906129a6565b90508082610eae9190612762565b600a541015610ebc57600080fd5b8473ffffffffffffffffffffffffffffffffffffffff163373ffffffffffffffffffffffffffffffffffffffff1614158015610f0157506000610efe86610ff7565b14155b8015610f3a5750600073ffffffffffffffffffffffffffffffffffffffff168573ffffffffffffffffffffffffffffffffffffffff1614155b15610f5f5780600a54610f4d9190612587565b600a81905550610f5e30868361181c565b5b81600a54610f6d9190612587565b600a81905550610f7e30338461181c565b34600d60003373ffffffffffffffffffffffffffffffffffffffff1673ffffffffffffffffffffffffffffffffffffffff1681526020019081526020016000206000828254610fcd9190612762565b92505081905550819350505050919050565b600d6020528060005260406000206000915090505481565b60008060008373ffffffffffffffffffffffffffffffffffffffff1673ffffffffffffffffffffffffffffffffffffffff168152602001908152602001600020549050919050565b60055481565b60085481565b600b60009054906101000a900473ffffffffffffffffffffffffffffffffffffffff1673ffffffffffffffffffffffffffffffffffffffff163373ffffffffffffffffffffffffffffffffffffffff16146110db576040517f08c379a00000000000000000000000000000000000000000000000000000000081526004016110d2906127e2565b60405180910390fd5b4260065411156110ea57600080fd5b60003373ffffffffffffffffffffffffffffffffffffffff164760405161111090612a19565b60006040518083038185875af1925050503d806000811461114d576040519150601f19603f3d011682016040523d82523d6000602084013e611152565b606091505b5050905050565b600061116482610a6d565b9050600b60009054906101000a900473ffffffffffffffffffffffffffffffffffffffff1673ffffffffffffffffffffffffffffffffffffffff168173ffffffffffffffffffffffffffffffffffffffff16146111f6576040517f08c379a00000000000000000000000000000000000000000000000000000000081526004016111ed90612a7a565b60405180910390fd5b600061120130610ff7565b905061120d3082611b1e565b7fb1fe961f963661a542fa1ff991c895fc463bbbfc4a441759a11f8d0e94e3151f42600954604051611240929190612a9a565b60405180910390a17fb4e6cb40663c1ac63bcd620dbe3d98c44526baa45e310f545f425ebaab36a29342600a5460405161127b929190612a9a565b60405180910390a1505050565b606060048054611297906123e3565b80601f01602080910402602001604051908101604052809291908181526020018280546112c3906123e3565b80156113105780601f106112e557610100808354040283529160200191611310565b820191906000526020600020905b8154815290600101906020018083116112f357829003601f168201915b5050505050905090565b600b60009054906101000a900473ffffffffffffffffffffffffffffffffffffffff1673ffffffffffffffffffffffffffffffffffffffff163373ffffffffffffffffffffffffffffffffffffffff16146113aa576040517f08c379a00000000000000000000000000000000000000000000000000000000081526004016113a1906127e2565b60405180910390fd5b6113b43382611ceb565b50565b6000806113c261164b565b905060006113d082866115c4565b905083811015611415576040517f08c379a000000000000000000000000000000000000000000000000000000000815260040161140c90612b35565b60405180910390fd5b6114228286868403611653565b60019250505092915050565b600082600b60009054906101000a900473ffffffffffffffffffffffffffffffffffffffff1673ffffffffffffffffffffffffffffffffffffffff163373ffffffffffffffffffffffffffffffffffffffff16146114e25760008173ffffffffffffffffffffffffffffffffffffffff163b11156114e1576040517f08c379a00000000000000000000000000000000000000000000000000000000081526004016114d890612ba1565b60405180910390fd5b5b600e60003373ffffffffffffffffffffffffffffffffffffffff1673ffffffffffffffffffffffffffffffffffffffff16815260200190815260200160002060009054906101000a900460ff161561156f576040517f08c379a000000000000000000000000000000000000000000000000000000000815260040161156690612c0d565b60405180910390fd5b61157a33858561181c565b600191505092915050565b60075481565b6000806000600554600654600954925092509250909192565b600e6020528060005260406000206000915054906101000a900460ff1681565b6000600160008473ffffffffffffffffffffffffffffffffffffffff1673ffffffffffffffffffffffffffffffffffffffff16815260200190815260200160002060008373ffffffffffffffffffffffffffffffffffffffff1673ffffffffffffffffffffffffffffffffffffffff16815260200190815260200160002054905092915050565b600033905090565b600073ffffffffffffffffffffffffffffffffffffffff168373ffffffffffffffffffffffffffffffffffffffff16036116c2576040517f08c379a00000000000000000000000000000000000000000000000000000000081526004016116b990612c9f565b60405180910390fd5b600073ffffffffffffffffffffffffffffffffffffffff168273ffffffffffffffffffffffffffffffffffffffff1603611731576040517f08c379a000000000000000000000000000000000000000000000000000000000815260040161172890612d31565b60405180910390fd5b80600160008573ffffffffffffffffffffffffffffffffffffffff1673ffffffffffffffffffffffffffffffffffffffff16815260200190815260200160002060008473ffffffffffffffffffffffffffffffffffffffff1673ffffffffffffffffffffffffffffffffffffffff168152602001908152602001600020819055508173ffffffffffffffffffffffffffffffffffffffff168373ffffffffffffffffffffffffffffffffffffffff167f8c5be1e5ebec7d5bd14f71427d1e84f3dd0314c0f7b2291e5b200ac8c7c3b9258360405161180f9190611f16565b60405180910390a3505050565b600073ffffffffffffffffffffffffffffffffffffffff168373ffffffffffffffffffffffffffffffffffffffff160361188b576040517f08c379a000000000000000000000000000000000000000000000000000000000815260040161188290612dc3565b60405180910390fd5b600073ffffffffffffffffffffffffffffffffffffffff168273ffffffffffffffffffffffffffffffffffffffff16036118fa576040517f08c379a00000000000000000000000000000000000000000000000000000000081526004016118f190612e55565b60405180910390fd5b611905838383611e41565b60008060008573ffffffffffffffffffffffffffffffffffffffff1673ffffffffffffffffffffffffffffffffffffffff1681526020019081526020016000205490508181101561198b576040517f08c379a000000000000000000000000000000000000000000000000000000000815260040161198290612ee7565b60405180910390fd5b8181036000808673ffffffffffffffffffffffffffffffffffffffff1673ffffffffffffffffffffffffffffffffffffffff16815260200190815260200160002081905550816000808573ffffffffffffffffffffffffffffffffffffffff1673ffffffffffffffffffffffffffffffffffffffff168152602001908152602001600020600082825401925050819055508273ffffffffffffffffffffffffffffffffffffffff168473ffffffffffffffffffffffffffffffffffffffff167fddf252ad1be2c89b69c2b068fc378daa952ba7f163c4a11628f55a4df523b3ef84604051611a799190611f16565b60405180910390a3611a8c848484611e46565b50505050565b6000611a9e84846115c4565b90507fffffffffffffffffffffffffffffffffffffffffffffffffffffffffffffffff8114611b185781811015611b0a576040517f08c379a0000000000000000000000000000000000000000000000000000000008152600401611b0190612f53565b60405180910390fd5b611b178484848403611653565b5b50505050565b600073ffffffffffffffffffffffffffffffffffffffff168273ffffffffffffffffffffffffffffffffffffffff1603611b8d576040517f08c379a0000000000000000000000000000000000000000000000000000000008152600401611b8490612fe5565b60405180910390fd5b611b9982600083611e41565b60008060008473ffffffffffffffffffffffffffffffffffffffff1673ffffffffffffffffffffffffffffffffffffffff16815260200190815260200160002054905081811015611c1f576040517f08c379a0000000000000000000000000000000000000000000000000000000008152600401611c1690613077565b60405180910390fd5b8181036000808573ffffffffffffffffffffffffffffffffffffffff1673ffffffffffffffffffffffffffffffffffffffff1681526020019081526020016000208190555081600260008282540392505081905550600073ffffffffffffffffffffffffffffffffffffffff168373ffffffffffffffffffffffffffffffffffffffff167fddf252ad1be2c89b69c2b068fc378daa952ba7f163c4a11628f55a4df523b3ef84604051611cd29190611f16565b60405180910390a3611ce683600084611e46565b505050565b600073ffffffffffffffffffffffffffffffffffffffff168273ffffffffffffffffffffffffffffffffffffffff1603611d5a576040517f08c379a0000000000000000000000000000000000000000000000000000000008152600401611d51906130e3565b60405180910390fd5b611d6660008383611e41565b8060026000828254611d789190612762565b92505081905550806000808473ffffffffffffffffffffffffffffffffffffffff1673ffffffffffffffffffffffffffffffffffffffff168152602001908152602001600020600082825401925050819055508173ffffffffffffffffffffffffffffffffffffffff16600073ffffffffffffffffffffffffffffffffffffffff167fddf252ad1be2c89b69c2b068fc378daa952ba7f163c4a11628f55a4df523b3ef83604051611e299190611f16565b60405180910390a3611e3d60008383611e46565b5050565b505050565b505050565b600081519050919050565b600082825260208201905092915050565b60005b83811015611e85578082015181840152602081019050611e6a565b60008484015250505050565b6000601f19601f8301169050919050565b6000611ead82611e4b565b611eb78185611e56565b9350611ec7818560208601611e67565b611ed081611e91565b840191505092915050565b60006020820190508181036000830152611ef58184611ea2565b905092915050565b6000819050919050565b611f1081611efd565b82525050565b6000602082019050611f2b6000830184611f07565b92915050565b6000604051905090565b600080fd5b600080fd5b600073ffffffffffffffffffffffffffffffffffffffff82169050919050565b6000611f7082611f45565b9050919050565b611f8081611f65565b8114611f8b57600080fd5b50565b600081359050611f9d81611f77565b92915050565b611fac81611efd565b8114611fb757600080fd5b50565b600081359050611fc981611fa3565b92915050565b60008060408385031215611fe657611fe5611f3b565b5b6000611ff485828601611f8e565b925050602061200585828601611fba565b9150509250929050565b60008115159050919050565b6120248161200f565b82525050565b600060208201905061203f600083018461201b565b92915050565b60006020828403121561205b5761205a611f3b565b5b600061206984828501611f8e565b91505092915050565b60008060006060848603121561208b5761208a611f3b565b5b600061209986828701611f8e565b93505060206120aa86828701611f8e565b92505060406120bb86828701611fba565b9150509250925092565b600080fd5b600080fd5b7f4e487b7100000000000000000000000000000000000000000000000000000000600052604160045260246000fd5b61210782611e91565b810181811067ffffffffffffffff82111715612126576121256120cf565b5b80604052505050565b6000612139611f31565b905061214582826120fe565b919050565b600067ffffffffffffffff821115612165576121646120cf565b5b61216e82611e91565b9050602081019050919050565b82818337600083830152505050565b600061219d6121988461214a565b61212f565b9050828152602081018484840111156121b9576121b86120ca565b5b6121c484828561217b565b509392505050565b600082601f8301126121e1576121e06120c5565b5b81356121f184826020860161218a565b91505092915050565b6000602082840312156122105761220f611f3b565b5b600082013567ffffffffffffffff81111561222e5761222d611f40565b5b61223a848285016121cc565b91505092915050565b61224c81611f65565b82525050565b60006020820190506122676000830184612243565b92915050565b600060ff82169050919050565b6122838161226d565b82525050565b600060208201905061229e600083018461227a565b92915050565b6122ad8161200f565b81146122b857600080fd5b50565b6000813590506122ca816122a4565b92915050565b600080604083850312156122e7576122e6611f3b565b5b60006122f585828601611f8e565b9250506020612306858286016122bb565b9150509250929050565b60006060820190506123256000830186611f07565b6123326020830185611f07565b61233f6040830184611f07565b949350505050565b60006020828403121561235d5761235c611f3b565b5b600061236b84828501611fba565b91505092915050565b6000806040838503121561238b5761238a611f3b565b5b600061239985828601611f8e565b92505060206123aa85828601611f8e565b9150509250929050565b7f4e487b7100000000000000000000000000000000000000000000000000000000600052602260045260246000fd5b600060028204905060018216806123fb57607f821691505b60208210810361240e5761240d6123b4565b5b50919050565b7f4e4f544f4b454e53000000000000000000000000000000000000000000000000600082015250565b600061244a600883611e56565b915061245582612414565b602082019050919050565b600060208201905081810360008301526124798161243d565b9050919050565b7f54494d4549534f56455200000000000000000000000000000000000000000000600082015250565b60006124b6600a83611e56565b91506124c182612480565b602082019050919050565b600060208201905081810360008301526124e5816124a9565b9050919050565b7f434c41494d4f4e43450000000000000000000000000000000000000000000000600082015250565b6000612522600983611e56565b915061252d826124ec565b602082019050919050565b6000602082019050818103600083015261255181612515565b9050919050565b7f4e487b7100000000000000000000000000000000000000000000000000000000600052601160045260246000fd5b600061259282611efd565b915061259d83611efd565b92508282039050818111156125b5576125b4612558565b5b92915050565b600081905092915050565b7f19457468657265756d205369676e6564204d6573736167653a0a333200000000600082015250565b60006125fc601c836125bb565b9150612607826125c6565b601c82019050919050565b6000819050919050565b6000819050919050565b61263761263282612612565b61261c565b82525050565b6000612648826125ef565b91506126548284612626565b60208201915081905092915050565b61266c81612612565b811461267757600080fd5b50565b60008151905061268981612663565b92915050565b6126988161226d565b81146126a357600080fd5b50565b6000815190506126b58161268f565b92915050565b6000806000606084860312156126d4576126d3611f3b565b5b60006126e28682870161267a565b93505060206126f38682870161267a565b9250506040612704868287016126a6565b9150509250925092565b61271781612612565b82525050565b6000608082019050612732600083018761270e565b61273f602083018661227a565b61274c604083018561270e565b612759606083018461270e565b95945050505050565b600061276d82611efd565b915061277883611efd565b92508282019050808211156127905761278f612558565b5b92915050565b7f4f4e4c594f574e45520000000000000000000000000000000000000000000000600082015250565b60006127cc600983611e56565b91506127d782612796565b602082019050919050565b600060208201905081810360008301526127fb816127bf565b9050919050565b7f4d41584c494d4954000000000000000000000000000000000000000000000000600082015250565b6000612838600883611e56565b915061284382612802565b602082019050919050565b600060208201905081810360008301526128678161282b565b9050919050565b7f4d494e5052494345000000000000000000000000000000000000000000000000600082015250565b60006128a4600883611e56565b91506128af8261286e565b602082019050919050565b600060208201905081810360008301526128d381612897565b9050919050565b7f5550504552424f554e4400000000000000000000000000000000000000000000600082015250565b6000612910600a83611e56565b915061291b826128da565b602082019050919050565b6000602082019050818103600083015261293f81612903565b9050919050565b7f4e487b7100000000000000000000000000000000000000000000000000000000600052601260045260246000fd5b600061298082611efd565b915061298b83611efd565b92508261299b5761299a612946565b5b828204905092915050565b60006129b182611efd565b91506129bc83611efd565b92508282026129ca81611efd565b915082820484148315176129e1576129e0612558565b5b5092915050565b600081905092915050565b50565b6000612a036000836129e8565b9150612a0e826129f3565b600082019050919050565b6000612a24826129f6565b9150819050919050565b7f494e56414c534947000000000000000000000000000000000000000000000000600082015250565b6000612a64600883611e56565b9150612a6f82612a2e565b602082019050919050565b60006020820190508181036000830152612a9381612a57565b9050919050565b6000604082019050612aaf6000830185611f07565b612abc6020830184611f07565b9392505050565b7f45524332303a2064656372656173656420616c6c6f77616e63652062656c6f7760008201527f207a65726f000000000000000000000000000000000000000000000000000000602082015250565b6000612b1f602583611e56565b9150612b2a82612ac3565b604082019050919050565b60006020820190508181036000830152612b4e81612b12565b9050919050565b7f4f4e4c594f574e4552435245415445504f4f4c00000000000000000000000000600082015250565b6000612b8b601383611e56565b9150612b9682612b55565b602082019050919050565b60006020820190508181036000830152612bba81612b7e565b9050919050565b7f5541424c00000000000000000000000000000000000000000000000000000000600082015250565b6000612bf7600483611e56565b9150612c0282612bc1565b602082019050919050565b60006020820190508181036000830152612c2681612bea565b9050919050565b7f45524332303a20617070726f76652066726f6d20746865207a65726f2061646460008201527f7265737300000000000000000000000000000000000000000000000000000000602082015250565b6000612c89602483611e56565b9150612c9482612c2d565b604082019050919050565b60006020820190508181036000830152612cb881612c7c565b9050919050565b7f45524332303a20617070726f766520746f20746865207a65726f20616464726560008201527f7373000000000000000000000000000000000000000000000000000000000000602082015250565b6000612d1b602283611e56565b9150612d2682612cbf565b604082019050919050565b60006020820190508181036000830152612d4a81612d0e565b9050919050565b7f45524332303a207472616e736665722066726f6d20746865207a65726f20616460008201527f6472657373000000000000000000000000000000000000000000000000000000602082015250565b6000612dad602583611e56565b9150612db882612d51565b604082019050919050565b60006020820190508181036000830152612ddc81612da0565b9050919050565b7f45524332303a207472616e7366657220746f20746865207a65726f206164647260008201527f6573730000000000000000000000000000000000000000000000000000000000602082015250565b6000612e3f602383611e56565b9150612e4a82612de3565b604082019050919050565b60006020820190508181036000830152612e6e81612e32565b9050919050565b7f45524332303a207472616e7366657220616d6f756e742065786365656473206260008201527f616c616e63650000000000000000000000000000000000000000000000000000602082015250565b6000612ed1602683611e56565b9150612edc82612e75565b604082019050919050565b60006020820190508181036000830152612f0081612ec4565b9050919050565b7f45524332303a20696e73756666696369656e7420616c6c6f77616e6365000000600082015250565b6000612f3d601d83611e56565b9150612f4882612f07565b602082019050919050565b60006020820190508181036000830152612f6c81612f30565b9050919050565b7f45524332303a206275726e2066726f6d20746865207a65726f2061646472657360008201527f7300000000000000000000000000000000000000000000000000000000000000602082015250565b6000612fcf602183611e56565b9150612fda82612f73565b604082019050919050565b60006020820190508181036000830152612ffe81612fc2565b9050919050565b7f45524332303a206275726e20616d6f756e7420657863656564732062616c616e60008201527f6365000000000000000000000000000000000000000000000000000000000000602082015250565b6000613061602283611e56565b915061306c82613005565b604082019050919050565b6000602082019050818103600083015261309081613054565b9050919050565b7f45524332303a206d696e7420746f20746865207a65726f206164647265737300600082015250565b60006130cd601f83611e56565b91506130d882613097565b602082019050919050565b600060208201905081810360008301526130fc816130c0565b905091905056fea2646970667358221220048602c2578fabc0f7cfb69896d73cf1f4eab0de7204b7d4374b1ba94f18d4c664736f6c63430008120033",
					"opcodes": "PUSH1 0x80 PUSH1 0x40 MSTORE PUSH3 0x186A0 PUSH1 0x7 SSTORE PUSH4 0x1DCD6500 PUSH1 0x8 SSTORE PUSH5 0x13FB2A5490 PUSH1 0x9 SSTORE PUSH5 0xD521C3860 PUSH1 0xA SSTORE CALLVALUE DUP1 ISZERO PUSH3 0x32 JUMPI PUSH1 0x0 DUP1 REVERT JUMPDEST POP PUSH1 0x40 MLOAD DUP1 PUSH1 0x40 ADD PUSH1 0x40 MSTORE DUP1 PUSH1 0x3 DUP2 MSTORE PUSH1 0x20 ADD PUSH32 0x474F4F0000000000000000000000000000000000000000000000000000000000 DUP2 MSTORE POP PUSH1 0x40 MLOAD DUP1 PUSH1 0x40 ADD PUSH1 0x40 MSTORE DUP1 PUSH1 0x2 DUP2 MSTORE PUSH1 0x20 ADD PUSH32 0x474F000000000000000000000000000000000000000000000000000000000000 DUP2 MSTORE POP DUP2 PUSH1 0x3 SWAP1 DUP2 PUSH3 0xB0 SWAP2 SWAP1 PUSH3 0x5B8 JUMP JUMPDEST POP DUP1 PUSH1 0x4 SWAP1 DUP2 PUSH3 0xC2 SWAP2 SWAP1 PUSH3 0x5B8 JUMP JUMPDEST POP POP POP CALLER PUSH1 0xB PUSH1 0x0 PUSH2 0x100 EXP DUP2 SLOAD DUP2 PUSH20 0xFFFFFFFFFFFFFFFFFFFFFFFFFFFFFFFFFFFFFFFF MUL NOT AND SWAP1 DUP4 PUSH20 0xFFFFFFFFFFFFFFFFFFFFFFFFFFFFFFFFFFFFFFFF AND MUL OR SWAP1 SSTORE POP PUSH3 0x11D ADDRESS PUSH5 0x214D468CF0 PUSH3 0x1C7 PUSH1 0x20 SHL PUSH1 0x20 SHR JUMP JUMPDEST TIMESTAMP PUSH1 0x5 DUP2 SWAP1 SSTORE POP PUSH3 0x15180 TIMESTAMP PUSH3 0x135 SWAP2 SWAP1 PUSH3 0x6CE JUMP JUMPDEST PUSH1 0x6 DUP2 SWAP1 SSTORE POP PUSH32 0x406B456FF3F22ED8C574547A645DD085D2A645955DD676E0D136D5677D61BD70 PUSH1 0x5 SLOAD PUSH1 0x6 SLOAD PUSH1 0x9 SLOAD PUSH1 0x40 MLOAD PUSH3 0x176 SWAP4 SWAP3 SWAP2 SWAP1 PUSH3 0x71A JUMP JUMPDEST PUSH1 0x40 MLOAD DUP1 SWAP2 SUB SWAP1 LOG1 PUSH32 0x2652F6F8F660F8F79A623DA8E0A1FAE21D1ACBE89464C6471FCB75AB2246B639 PUSH1 0x5 SLOAD PUSH1 0x6 SLOAD PUSH1 0xA SLOAD PUSH1 0x40 MLOAD PUSH3 0x1B9 SWAP4 SWAP3 SWAP2 SWAP1 PUSH3 0x71A JUMP JUMPDEST PUSH1 0x40 MLOAD DUP1 SWAP2 SUB SWAP1 LOG1 PUSH3 0x7F7 JUMP JUMPDEST PUSH1 0x0 PUSH20 0xFFFFFFFFFFFFFFFFFFFFFFFFFFFFFFFFFFFFFFFF AND DUP3 PUSH20 0xFFFFFFFFFFFFFFFFFFFFFFFFFFFFFFFFFFFFFFFF AND SUB PUSH3 0x239 JUMPI PUSH1 0x40 MLOAD PUSH32 0x8C379A000000000000000000000000000000000000000000000000000000000 DUP2 MSTORE PUSH1 0x4 ADD PUSH3 0x230 SWAP1 PUSH3 0x7B8 JUMP JUMPDEST PUSH1 0x40 MLOAD DUP1 SWAP2 SUB SWAP1 REVERT JUMPDEST PUSH3 0x24D PUSH1 0x0 DUP4 DUP4 PUSH3 0x334 PUSH1 0x20 SHL PUSH1 0x20 SHR JUMP JUMPDEST DUP1 PUSH1 0x2 PUSH1 0x0 DUP3 DUP3 SLOAD PUSH3 0x261 SWAP2 SWAP1 PUSH3 0x6CE JUMP JUMPDEST SWAP3 POP POP DUP2 SWAP1 SSTORE POP DUP1 PUSH1 0x0 DUP1 DUP5 PUSH20 0xFFFFFFFFFFFFFFFFFFFFFFFFFFFFFFFFFFFFFFFF AND PUSH20 0xFFFFFFFFFFFFFFFFFFFFFFFFFFFFFFFFFFFFFFFF AND DUP2 MSTORE PUSH1 0x20 ADD SWAP1 DUP2 MSTORE PUSH1 0x20 ADD PUSH1 0x0 KECCAK256 PUSH1 0x0 DUP3 DUP3 SLOAD ADD SWAP3 POP POP DUP2 SWAP1 SSTORE POP DUP2 PUSH20 0xFFFFFFFFFFFFFFFFFFFFFFFFFFFFFFFFFFFFFFFF AND PUSH1 0x0 PUSH20 0xFFFFFFFFFFFFFFFFFFFFFFFFFFFFFFFFFFFFFFFF AND PUSH32 0xDDF252AD1BE2C89B69C2B068FC378DAA952BA7F163C4A11628F55A4DF523B3EF DUP4 PUSH1 0x40 MLOAD PUSH3 0x314 SWAP2 SWAP1 PUSH3 0x7DA JUMP JUMPDEST PUSH1 0x40 MLOAD DUP1 SWAP2 SUB SWAP1 LOG3 PUSH3 0x330 PUSH1 0x0 DUP4 DUP4 PUSH3 0x339 PUSH1 0x20 SHL PUSH1 0x20 SHR JUMP JUMPDEST POP POP JUMP JUMPDEST POP POP POP JUMP JUMPDEST POP POP POP JUMP JUMPDEST PUSH1 0x0 DUP2 MLOAD SWAP1 POP SWAP2 SWAP1 POP JUMP JUMPDEST PUSH32 0x4E487B7100000000000000000000000000000000000000000000000000000000 PUSH1 0x0 MSTORE PUSH1 0x41 PUSH1 0x4 MSTORE PUSH1 0x24 PUSH1 0x0 REVERT JUMPDEST PUSH32 0x4E487B7100000000000000000000000000000000000000000000000000000000 PUSH1 0x0 MSTORE PUSH1 0x22 PUSH1 0x4 MSTORE PUSH1 0x24 PUSH1 0x0 REVERT JUMPDEST PUSH1 0x0 PUSH1 0x2 DUP3 DIV SWAP1 POP PUSH1 0x1 DUP3 AND DUP1 PUSH3 0x3C0 JUMPI PUSH1 0x7F DUP3 AND SWAP2 POP JUMPDEST PUSH1 0x20 DUP3 LT DUP2 SUB PUSH3 0x3D6 JUMPI PUSH3 0x3D5 PUSH3 0x378 JUMP JUMPDEST JUMPDEST POP SWAP2 SWAP1 POP JUMP JUMPDEST PUSH1 0x0 DUP2 SWAP1 POP DUP2 PUSH1 0x0 MSTORE PUSH1 0x20 PUSH1 0x0 KECCAK256 SWAP1 POP SWAP2 SWAP1 POP JUMP JUMPDEST PUSH1 0x0 PUSH1 0x20 PUSH1 0x1F DUP4 ADD DIV SWAP1 POP SWAP2 SWAP1 POP JUMP JUMPDEST PUSH1 0x0 DUP3 DUP3 SHL SWAP1 POP SWAP3 SWAP2 POP POP JUMP JUMPDEST PUSH1 0x0 PUSH1 0x8 DUP4 MUL PUSH3 0x440 PUSH32 0xFFFFFFFFFFFFFFFFFFFFFFFFFFFFFFFFFFFFFFFFFFFFFFFFFFFFFFFFFFFFFFFF DUP3 PUSH3 0x401 JUMP JUMPDEST PUSH3 0x44C DUP7 DUP4 PUSH3 0x401 JUMP JUMPDEST SWAP6 POP DUP1 NOT DUP5 AND SWAP4 POP DUP1 DUP7 AND DUP5 OR SWAP3 POP POP POP SWAP4 SWAP3 POP POP POP JUMP JUMPDEST PUSH1 0x0 DUP2 SWAP1 POP SWAP2 SWAP1 POP JUMP JUMPDEST PUSH1 0x0 DUP2 SWAP1 POP SWAP2 SWAP1 POP JUMP JUMPDEST PUSH1 0x0 PUSH3 0x499 PUSH3 0x493 PUSH3 0x48D DUP5 PUSH3 0x464 JUMP JUMPDEST PUSH3 0x46E JUMP JUMPDEST PUSH3 0x464 JUMP JUMPDEST SWAP1 POP SWAP2 SWAP1 POP JUMP JUMPDEST PUSH1 0x0 DUP2 SWAP1 POP SWAP2 SWAP1 POP JUMP JUMPDEST PUSH3 0x4B5 DUP4 PUSH3 0x478 JUMP JUMPDEST PUSH3 0x4CD PUSH3 0x4C4 DUP3 PUSH3 0x4A0 JUMP JUMPDEST DUP5 DUP5 SLOAD PUSH3 0x40E JUMP JUMPDEST DUP3 SSTORE POP POP POP POP JUMP JUMPDEST PUSH1 0x0 SWAP1 JUMP JUMPDEST PUSH3 0x4E4 PUSH3 0x4D5 JUMP JUMPDEST PUSH3 0x4F1 DUP2 DUP5 DUP5 PUSH3 0x4AA JUMP JUMPDEST POP POP POP JUMP JUMPDEST JUMPDEST DUP2 DUP2 LT ISZERO PUSH3 0x519 JUMPI PUSH3 0x50D PUSH1 0x0 DUP3 PUSH3 0x4DA JUMP JUMPDEST PUSH1 0x1 DUP2 ADD SWAP1 POP PUSH3 0x4F7 JUMP JUMPDEST POP POP JUMP JUMPDEST PUSH1 0x1F DUP3 GT ISZERO PUSH3 0x568 JUMPI PUSH3 0x532 DUP2 PUSH3 0x3DC JUMP JUMPDEST PUSH3 0x53D DUP5 PUSH3 0x3F1 JUMP JUMPDEST DUP2 ADD PUSH1 0x20 DUP6 LT ISZERO PUSH3 0x54D JUMPI DUP2 SWAP1 POP JUMPDEST PUSH3 0x565 PUSH3 0x55C DUP6 PUSH3 0x3F1 JUMP JUMPDEST DUP4 ADD DUP3 PUSH3 0x4F6 JUMP JUMPDEST POP POP JUMPDEST POP POP POP JUMP JUMPDEST PUSH1 0x0 DUP3 DUP3 SHR SWAP1 POP SWAP3 SWAP2 POP POP JUMP JUMPDEST PUSH1 0x0 PUSH3 0x58D PUSH1 0x0 NOT DUP5 PUSH1 0x8 MUL PUSH3 0x56D JUMP JUMPDEST NOT DUP1 DUP4 AND SWAP2 POP POP SWAP3 SWAP2 POP POP JUMP JUMPDEST PUSH1 0x0 PUSH3 0x5A8 DUP4 DUP4 PUSH3 0x57A JUMP JUMPDEST SWAP2 POP DUP3 PUSH1 0x2 MUL DUP3 OR SWAP1 POP SWAP3 SWAP2 POP POP JUMP JUMPDEST PUSH3 0x5C3 DUP3 PUSH3 0x33E JUMP JUMPDEST PUSH8 0xFFFFFFFFFFFFFFFF DUP2 GT ISZERO PUSH3 0x5DF JUMPI PUSH3 0x5DE PUSH3 0x349 JUMP JUMPDEST JUMPDEST PUSH3 0x5EB DUP3 SLOAD PUSH3 0x3A7 JUMP JUMPDEST PUSH3 0x5F8 DUP3 DUP3 DUP6 PUSH3 0x51D JUMP JUMPDEST PUSH1 0x0 PUSH1 0x20 SWAP1 POP PUSH1 0x1F DUP4 GT PUSH1 0x1 DUP2 EQ PUSH3 0x630 JUMPI PUSH1 0x0 DUP5 ISZERO PUSH3 0x61B JUMPI DUP3 DUP8 ADD MLOAD SWAP1 POP JUMPDEST PUSH3 0x627 DUP6 DUP3 PUSH3 0x59A JUMP JUMPDEST DUP7 SSTORE POP PUSH3 0x697 JUMP JUMPDEST PUSH1 0x1F NOT DUP5 AND PUSH3 0x640 DUP7 PUSH3 0x3DC JUMP JUMPDEST PUSH1 0x0 JUMPDEST DUP3 DUP2 LT ISZERO PUSH3 0x66A JUMPI DUP5 DUP10 ADD MLOAD DUP3 SSTORE PUSH1 0x1 DUP3 ADD SWAP2 POP PUSH1 0x20 DUP6 ADD SWAP5 POP PUSH1 0x20 DUP2 ADD SWAP1 POP PUSH3 0x643 JUMP JUMPDEST DUP7 DUP4 LT ISZERO PUSH3 0x68A JUMPI DUP5 DUP10 ADD MLOAD PUSH3 0x686 PUSH1 0x1F DUP10 AND DUP3 PUSH3 0x57A JUMP JUMPDEST DUP4 SSTORE POP JUMPDEST PUSH1 0x1 PUSH1 0x2 DUP9 MUL ADD DUP9 SSTORE POP POP POP JUMPDEST POP POP POP POP POP POP JUMP JUMPDEST PUSH32 0x4E487B7100000000000000000000000000000000000000000000000000000000 PUSH1 0x0 MSTORE PUSH1 0x11 PUSH1 0x4 MSTORE PUSH1 0x24 PUSH1 0x0 REVERT JUMPDEST PUSH1 0x0 PUSH3 0x6DB DUP3 PUSH3 0x464 JUMP JUMPDEST SWAP2 POP PUSH3 0x6E8 DUP4 PUSH3 0x464 JUMP JUMPDEST SWAP3 POP DUP3 DUP3 ADD SWAP1 POP DUP1 DUP3 GT ISZERO PUSH3 0x703 JUMPI PUSH3 0x702 PUSH3 0x69F JUMP JUMPDEST JUMPDEST SWAP3 SWAP2 POP POP JUMP JUMPDEST PUSH3 0x714 DUP2 PUSH3 0x464 JUMP JUMPDEST DUP3 MSTORE POP POP JUMP JUMPDEST PUSH1 0x0 PUSH1 0x60 DUP3 ADD SWAP1 POP PUSH3 0x731 PUSH1 0x0 DUP4 ADD DUP7 PUSH3 0x709 JUMP JUMPDEST PUSH3 0x740 PUSH1 0x20 DUP4 ADD DUP6 PUSH3 0x709 JUMP JUMPDEST PUSH3 0x74F PUSH1 0x40 DUP4 ADD DUP5 PUSH3 0x709 JUMP JUMPDEST SWAP5 SWAP4 POP POP POP POP JUMP JUMPDEST PUSH1 0x0 DUP3 DUP3 MSTORE PUSH1 0x20 DUP3 ADD SWAP1 POP SWAP3 SWAP2 POP POP JUMP JUMPDEST PUSH32 0x45524332303A206D696E7420746F20746865207A65726F206164647265737300 PUSH1 0x0 DUP3 ADD MSTORE POP JUMP JUMPDEST PUSH1 0x0 PUSH3 0x7A0 PUSH1 0x1F DUP4 PUSH3 0x757 JUMP JUMPDEST SWAP2 POP PUSH3 0x7AD DUP3 PUSH3 0x768 JUMP JUMPDEST PUSH1 0x20 DUP3 ADD SWAP1 POP SWAP2 SWAP1 POP JUMP JUMPDEST PUSH1 0x0 PUSH1 0x20 DUP3 ADD SWAP1 POP DUP2 DUP2 SUB PUSH1 0x0 DUP4 ADD MSTORE PUSH3 0x7D3 DUP2 PUSH3 0x791 JUMP JUMPDEST SWAP1 POP SWAP2 SWAP1 POP JUMP JUMPDEST PUSH1 0x0 PUSH1 0x20 DUP3 ADD SWAP1 POP PUSH3 0x7F1 PUSH1 0x0 DUP4 ADD DUP5 PUSH3 0x709 JUMP JUMPDEST SWAP3 SWAP2 POP POP JUMP JUMPDEST PUSH2 0x3139 DUP1 PUSH3 0x807 PUSH1 0x0 CODECOPY PUSH1 0x0 RETURN INVALID PUSH1 0x80 PUSH1 0x40 MSTORE PUSH1 0x4 CALLDATASIZE LT PUSH2 0x1B7 JUMPI PUSH1 0x0 CALLDATALOAD PUSH1 0xE0 SHR DUP1 PUSH4 0x667022FD GT PUSH2 0xEC JUMPI DUP1 PUSH4 0xA0712D68 GT PUSH2 0x8A JUMPI DUP1 PUSH4 0xAA8C217C GT PUSH2 0x64 JUMPI DUP1 PUSH4 0xAA8C217C EQ PUSH2 0x653 JUMPI DUP1 PUSH4 0xD69B197F EQ PUSH2 0x67E JUMPI DUP1 PUSH4 0xDBAC26E9 EQ PUSH2 0x6AB JUMPI DUP1 PUSH4 0xDD62ED3E EQ PUSH2 0x6E8 JUMPI PUSH2 0x1B7 JUMP JUMPDEST DUP1 PUSH4 0xA0712D68 EQ PUSH2 0x5B0 JUMPI DUP1 PUSH4 0xA457C2D7 EQ PUSH2 0x5D9 JUMPI DUP1 PUSH4 0xA9059CBB EQ PUSH2 0x616 JUMPI PUSH2 0x1B7 JUMP JUMPDEST DUP1 PUSH4 0x7FF9B596 GT PUSH2 0xC6 JUMPI DUP1 PUSH4 0x7FF9B596 EQ PUSH2 0x51A JUMPI DUP1 PUSH4 0x853828B6 EQ PUSH2 0x545 JUMPI DUP1 PUSH4 0x91D39155 EQ PUSH2 0x55C JUMPI DUP1 PUSH4 0x95D89B41 EQ PUSH2 0x585 JUMPI PUSH2 0x1B7 JUMP JUMPDEST DUP1 PUSH4 0x667022FD EQ PUSH2 0x475 JUMPI DUP1 PUSH4 0x70A08231 EQ PUSH2 0x4B2 JUMPI DUP1 PUSH4 0x78E97925 EQ PUSH2 0x4EF JUMPI PUSH2 0x1B7 JUMP JUMPDEST DUP1 PUSH4 0x313CE567 GT PUSH2 0x159 JUMPI DUP1 PUSH4 0x3CEBFF9C GT PUSH2 0x133 JUMPI DUP1 PUSH4 0x3CEBFF9C EQ PUSH2 0x3C4 JUMPI DUP1 PUSH4 0x404E5129 EQ PUSH2 0x3EF JUMPI DUP1 PUSH4 0x4D1D03D1 EQ PUSH2 0x418 JUMPI DUP1 PUSH4 0x6643EF9F EQ PUSH2 0x445 JUMPI PUSH2 0x1B7 JUMP JUMPDEST DUP1 PUSH4 0x313CE567 EQ PUSH2 0x331 JUMPI DUP1 PUSH4 0x3197CBB6 EQ PUSH2 0x35C JUMPI DUP1 PUSH4 0x39509351 EQ PUSH2 0x387 JUMPI PUSH2 0x1B7 JUMP JUMPDEST DUP1 PUSH4 0x18160DDD GT PUSH2 0x195 JUMPI DUP1 PUSH4 0x18160DDD EQ PUSH2 0x24F JUMPI DUP1 PUSH4 0x1E83409A EQ PUSH2 0x27A JUMPI DUP1 PUSH4 0x23B872DD EQ PUSH2 0x2B7 JUMPI DUP1 PUSH4 0x2D77F07C EQ PUSH2 0x2F4 JUMPI PUSH2 0x1B7 JUMP JUMPDEST DUP1 PUSH4 0x6FDDE03 EQ PUSH2 0x1BC JUMPI DUP1 PUSH4 0x723FA42 EQ PUSH2 0x1E7 JUMPI DUP1 PUSH4 0x95EA7B3 EQ PUSH2 0x212 JUMPI JUMPDEST PUSH1 0x0 DUP1 REVERT JUMPDEST CALLVALUE DUP1 ISZERO PUSH2 0x1C8 JUMPI PUSH1 0x0 DUP1 REVERT JUMPDEST POP PUSH2 0x1D1 PUSH2 0x725 JUMP JUMPDEST PUSH1 0x40 MLOAD PUSH2 0x1DE SWAP2 SWAP1 PUSH2 0x1EDB JUMP JUMPDEST PUSH1 0x40 MLOAD DUP1 SWAP2 SUB SWAP1 RETURN JUMPDEST CALLVALUE DUP1 ISZERO PUSH2 0x1F3 JUMPI PUSH1 0x0 DUP1 REVERT JUMPDEST POP PUSH2 0x1FC PUSH2 0x7B7 JUMP JUMPDEST PUSH1 0x40 MLOAD PUSH2 0x209 SWAP2 SWAP1 PUSH2 0x1F16 JUMP JUMPDEST PUSH1 0x40 MLOAD DUP1 SWAP2 SUB SWAP1 RETURN JUMPDEST CALLVALUE DUP1 ISZERO PUSH2 0x21E JUMPI PUSH1 0x0 DUP1 REVERT JUMPDEST POP PUSH2 0x239 PUSH1 0x4 DUP1 CALLDATASIZE SUB DUP2 ADD SWAP1 PUSH2 0x234 SWAP2 SWAP1 PUSH2 0x1FCF JUMP JUMPDEST PUSH2 0x7BD JUMP JUMPDEST PUSH1 0x40 MLOAD PUSH2 0x246 SWAP2 SWAP1 PUSH2 0x202A JUMP JUMPDEST PUSH1 0x40 MLOAD DUP1 SWAP2 SUB SWAP1 RETURN JUMPDEST CALLVALUE DUP1 ISZERO PUSH2 0x25B JUMPI PUSH1 0x0 DUP1 REVERT JUMPDEST POP PUSH2 0x264 PUSH2 0x7E0 JUMP JUMPDEST PUSH1 0x40 MLOAD PUSH2 0x271 SWAP2 SWAP1 PUSH2 0x1F16 JUMP JUMPDEST PUSH1 0x40 MLOAD DUP1 SWAP2 SUB SWAP1 RETURN JUMPDEST CALLVALUE DUP1 ISZERO PUSH2 0x286 JUMPI PUSH1 0x0 DUP1 REVERT JUMPDEST POP PUSH2 0x2A1 PUSH1 0x4 DUP1 CALLDATASIZE SUB DUP2 ADD SWAP1 PUSH2 0x29C SWAP2 SWAP1 PUSH2 0x2045 JUMP JUMPDEST PUSH2 0x7EA JUMP JUMPDEST PUSH1 0x40 MLOAD PUSH2 0x2AE SWAP2 SWAP1 PUSH2 0x202A JUMP JUMPDEST PUSH1 0x40 MLOAD DUP1 SWAP2 SUB SWAP1 RETURN JUMPDEST CALLVALUE DUP1 ISZERO PUSH2 0x2C3 JUMPI PUSH1 0x0 DUP1 REVERT JUMPDEST POP PUSH2 0x2DE PUSH1 0x4 DUP1 CALLDATASIZE SUB DUP2 ADD SWAP1 PUSH2 0x2D9 SWAP2 SWAP1 PUSH2 0x2072 JUMP JUMPDEST PUSH2 0xA3E JUMP JUMPDEST PUSH1 0x40 MLOAD PUSH2 0x2EB SWAP2 SWAP1 PUSH2 0x202A JUMP JUMPDEST PUSH1 0x40 MLOAD DUP1 SWAP2 SUB SWAP1 RETURN JUMPDEST CALLVALUE DUP1 ISZERO PUSH2 0x300 JUMPI PUSH1 0x0 DUP1 REVERT JUMPDEST POP PUSH2 0x31B PUSH1 0x4 DUP1 CALLDATASIZE SUB DUP2 ADD SWAP1 PUSH2 0x316 SWAP2 SWAP1 PUSH2 0x21FA JUMP JUMPDEST PUSH2 0xA6D JUMP JUMPDEST PUSH1 0x40 MLOAD PUSH2 0x328 SWAP2 SWAP1 PUSH2 0x2252 JUMP JUMPDEST PUSH1 0x40 MLOAD DUP1 SWAP2 SUB SWAP1 RETURN JUMPDEST CALLVALUE DUP1 ISZERO PUSH2 0x33D JUMPI PUSH1 0x0 DUP1 REVERT JUMPDEST POP PUSH2 0x346 PUSH2 0xB54 JUMP JUMPDEST PUSH1 0x40 MLOAD PUSH2 0x353 SWAP2 SWAP1 PUSH2 0x2289 JUMP JUMPDEST PUSH1 0x40 MLOAD DUP1 SWAP2 SUB SWAP1 RETURN JUMPDEST CALLVALUE DUP1 ISZERO PUSH2 0x368 JUMPI PUSH1 0x0 DUP1 REVERT JUMPDEST POP PUSH2 0x371 PUSH2 0xB5D JUMP JUMPDEST PUSH1 0x40 MLOAD PUSH2 0x37E SWAP2 SWAP1 PUSH2 0x1F16 JUMP JUMPDEST PUSH1 0x40 MLOAD DUP1 SWAP2 SUB SWAP1 RETURN JUMPDEST CALLVALUE DUP1 ISZERO PUSH2 0x393 JUMPI PUSH1 0x0 DUP1 REVERT JUMPDEST POP PUSH2 0x3AE PUSH1 0x4 DUP1 CALLDATASIZE SUB DUP2 ADD SWAP1 PUSH2 0x3A9 SWAP2 SWAP1 PUSH2 0x1FCF JUMP JUMPDEST PUSH2 0xB63 JUMP JUMPDEST PUSH1 0x40 MLOAD PUSH2 0x3BB SWAP2 SWAP1 PUSH2 0x202A JUMP JUMPDEST PUSH1 0x40 MLOAD DUP1 SWAP2 SUB SWAP1 RETURN JUMPDEST CALLVALUE DUP1 ISZERO PUSH2 0x3D0 JUMPI PUSH1 0x0 DUP1 REVERT JUMPDEST POP PUSH2 0x3D9 PUSH2 0xB9A JUMP JUMPDEST PUSH1 0x40 MLOAD PUSH2 0x3E6 SWAP2 SWAP1 PUSH2 0x1F16 JUMP JUMPDEST PUSH1 0x40 MLOAD DUP1 SWAP2 SUB SWAP1 RETURN JUMPDEST CALLVALUE DUP1 ISZERO PUSH2 0x3FB JUMPI PUSH1 0x0 DUP1 REVERT JUMPDEST POP PUSH2 0x416 PUSH1 0x4 DUP1 CALLDATASIZE SUB DUP2 ADD SWAP1 PUSH2 0x411 SWAP2 SWAP1 PUSH2 0x22D0 JUMP JUMPDEST PUSH2 0xBA0 JUMP JUMPDEST STOP JUMPDEST CALLVALUE DUP1 ISZERO PUSH2 0x424 JUMPI PUSH1 0x0 DUP1 REVERT JUMPDEST POP PUSH2 0x42D PUSH2 0xC8B JUMP JUMPDEST PUSH1 0x40 MLOAD PUSH2 0x43C SWAP4 SWAP3 SWAP2 SWAP1 PUSH2 0x2310 JUMP JUMPDEST PUSH1 0x40 MLOAD DUP1 SWAP2 SUB SWAP1 RETURN JUMPDEST PUSH2 0x45F PUSH1 0x4 DUP1 CALLDATASIZE SUB DUP2 ADD SWAP1 PUSH2 0x45A SWAP2 SWAP1 PUSH2 0x2045 JUMP JUMPDEST PUSH2 0xCA4 JUMP JUMPDEST PUSH1 0x40 MLOAD PUSH2 0x46C SWAP2 SWAP1 PUSH2 0x1F16 JUMP JUMPDEST PUSH1 0x40 MLOAD DUP1 SWAP2 SUB SWAP1 RETURN JUMPDEST CALLVALUE DUP1 ISZERO PUSH2 0x481 JUMPI PUSH1 0x0 DUP1 REVERT JUMPDEST POP PUSH2 0x49C PUSH1 0x4 DUP1 CALLDATASIZE SUB DUP2 ADD SWAP1 PUSH2 0x497 SWAP2 SWAP1 PUSH2 0x2045 JUMP JUMPDEST PUSH2 0xFDF JUMP JUMPDEST PUSH1 0x40 MLOAD PUSH2 0x4A9 SWAP2 SWAP1 PUSH2 0x1F16 JUMP JUMPDEST PUSH1 0x40 MLOAD DUP1 SWAP2 SUB SWAP1 RETURN JUMPDEST CALLVALUE DUP1 ISZERO PUSH2 0x4BE JUMPI PUSH1 0x0 DUP1 REVERT JUMPDEST POP PUSH2 0x4D9 PUSH1 0x4 DUP1 CALLDATASIZE SUB DUP2 ADD SWAP1 PUSH2 0x4D4 SWAP2 SWAP1 PUSH2 0x2045 JUMP JUMPDEST PUSH2 0xFF7 JUMP JUMPDEST PUSH1 0x40 MLOAD PUSH2 0x4E6 SWAP2 SWAP1 PUSH2 0x1F16 JUMP JUMPDEST PUSH1 0x40 MLOAD DUP1 SWAP2 SUB SWAP1 RETURN JUMPDEST CALLVALUE DUP1 ISZERO PUSH2 0x4FB JUMPI PUSH1 0x0 DUP1 REVERT JUMPDEST POP PUSH2 0x504 PUSH2 0x103F JUMP JUMPDEST PUSH1 0x40 MLOAD PUSH2 0x511 SWAP2 SWAP1 PUSH2 0x1F16 JUMP JUMPDEST PUSH1 0x40 MLOAD DUP1 SWAP2 SUB SWAP1 RETURN JUMPDEST CALLVALUE DUP1 ISZERO PUSH2 0x526 JUMPI PUSH1 0x0 DUP1 REVERT JUMPDEST POP PUSH2 0x52F PUSH2 0x1045 JUMP JUMPDEST PUSH1 0x40 MLOAD PUSH2 0x53C SWAP2 SWAP1 PUSH2 0x1F16 JUMP JUMPDEST PUSH1 0x40 MLOAD DUP1 SWAP2 SUB SWAP1 RETURN JUMPDEST CALLVALUE DUP1 ISZERO PUSH2 0x551 JUMPI PUSH1 0x0 DUP1 REVERT JUMPDEST POP PUSH2 0x55A PUSH2 0x104B JUMP JUMPDEST STOP JUMPDEST CALLVALUE DUP1 ISZERO PUSH2 0x568 JUMPI PUSH1 0x0 DUP1 REVERT JUMPDEST POP PUSH2 0x583 PUSH1 0x4 DUP1 CALLDATASIZE SUB DUP2 ADD SWAP1 PUSH2 0x57E SWAP2 SWAP1 PUSH2 0x21FA JUMP JUMPDEST PUSH2 0x1159 JUMP JUMPDEST STOP JUMPDEST CALLVALUE DUP1 ISZERO PUSH2 0x591 JUMPI PUSH1 0x0 DUP1 REVERT JUMPDEST POP PUSH2 0x59A PUSH2 0x1288 JUMP JUMPDEST PUSH1 0x40 MLOAD PUSH2 0x5A7 SWAP2 SWAP1 PUSH2 0x1EDB JUMP JUMPDEST PUSH1 0x40 MLOAD DUP1 SWAP2 SUB SWAP1 RETURN JUMPDEST CALLVALUE DUP1 ISZERO PUSH2 0x5BC JUMPI PUSH1 0x0 DUP1 REVERT JUMPDEST POP PUSH2 0x5D7 PUSH1 0x4 DUP1 CALLDATASIZE SUB DUP2 ADD SWAP1 PUSH2 0x5D2 SWAP2 SWAP1 PUSH2 0x2347 JUMP JUMPDEST PUSH2 0x131A JUMP JUMPDEST STOP JUMPDEST CALLVALUE DUP1 ISZERO PUSH2 0x5E5 JUMPI PUSH1 0x0 DUP1 REVERT JUMPDEST POP PUSH2 0x600 PUSH1 0x4 DUP1 CALLDATASIZE SUB DUP2 ADD SWAP1 PUSH2 0x5FB SWAP2 SWAP1 PUSH2 0x1FCF JUMP JUMPDEST PUSH2 0x13B7 JUMP JUMPDEST PUSH1 0x40 MLOAD PUSH2 0x60D SWAP2 SWAP1 PUSH2 0x202A JUMP JUMPDEST PUSH1 0x40 MLOAD DUP1 SWAP2 SUB SWAP1 RETURN JUMPDEST CALLVALUE DUP1 ISZERO PUSH2 0x622 JUMPI PUSH1 0x0 DUP1 REVERT JUMPDEST POP PUSH2 0x63D PUSH1 0x4 DUP1 CALLDATASIZE SUB DUP2 ADD SWAP1 PUSH2 0x638 SWAP2 SWAP1 PUSH2 0x1FCF JUMP JUMPDEST PUSH2 0x142E JUMP JUMPDEST PUSH1 0x40 MLOAD PUSH2 0x64A SWAP2 SWAP1 PUSH2 0x202A JUMP JUMPDEST PUSH1 0x40 MLOAD DUP1 SWAP2 SUB SWAP1 RETURN JUMPDEST CALLVALUE DUP1 ISZERO PUSH2 0x65F JUMPI PUSH1 0x0 DUP1 REVERT JUMPDEST POP PUSH2 0x668 PUSH2 0x1585 JUMP JUMPDEST PUSH1 0x40 MLOAD PUSH2 0x675 SWAP2 SWAP1 PUSH2 0x1F16 JUMP JUMPDEST PUSH1 0x40 MLOAD DUP1 SWAP2 SUB SWAP1 RETURN JUMPDEST CALLVALUE DUP1 ISZERO PUSH2 0x68A JUMPI PUSH1 0x0 DUP1 REVERT JUMPDEST POP PUSH2 0x693 PUSH2 0x158B JUMP JUMPDEST PUSH1 0x40 MLOAD PUSH2 0x6A2 SWAP4 SWAP3 SWAP2 SWAP1 PUSH2 0x2310 JUMP JUMPDEST PUSH1 0x40 MLOAD DUP1 SWAP2 SUB SWAP1 RETURN JUMPDEST CALLVALUE DUP1 ISZERO PUSH2 0x6B7 JUMPI PUSH1 0x0 DUP1 REVERT JUMPDEST POP PUSH2 0x6D2 PUSH1 0x4 DUP1 CALLDATASIZE SUB DUP2 ADD SWAP1 PUSH2 0x6CD SWAP2 SWAP1 PUSH2 0x2045 JUMP JUMPDEST PUSH2 0x15A4 JUMP JUMPDEST PUSH1 0x40 MLOAD PUSH2 0x6DF SWAP2 SWAP1 PUSH2 0x202A JUMP JUMPDEST PUSH1 0x40 MLOAD DUP1 SWAP2 SUB SWAP1 RETURN JUMPDEST CALLVALUE DUP1 ISZERO PUSH2 0x6F4 JUMPI PUSH1 0x0 DUP1 REVERT JUMPDEST POP PUSH2 0x70F PUSH1 0x4 DUP1 CALLDATASIZE SUB DUP2 ADD SWAP1 PUSH2 0x70A SWAP2 SWAP1 PUSH2 0x2374 JUMP JUMPDEST PUSH2 0x15C4 JUMP JUMPDEST PUSH1 0x40 MLOAD PUSH2 0x71C SWAP2 SWAP1 PUSH2 0x1F16 JUMP JUMPDEST PUSH1 0x40 MLOAD DUP1 SWAP2 SUB SWAP1 RETURN JUMPDEST PUSH1 0x60 PUSH1 0x3 DUP1 SLOAD PUSH2 0x734 SWAP1 PUSH2 0x23E3 JUMP JUMPDEST DUP1 PUSH1 0x1F ADD PUSH1 0x20 DUP1 SWAP2 DIV MUL PUSH1 0x20 ADD PUSH1 0x40 MLOAD SWAP1 DUP2 ADD PUSH1 0x40 MSTORE DUP1 SWAP3 SWAP2 SWAP1 DUP2 DUP2 MSTORE PUSH1 0x20 ADD DUP3 DUP1 SLOAD PUSH2 0x760 SWAP1 PUSH2 0x23E3 JUMP JUMPDEST DUP1 ISZERO PUSH2 0x7AD JUMPI DUP1 PUSH1 0x1F LT PUSH2 0x782 JUMPI PUSH2 0x100 DUP1 DUP4 SLOAD DIV MUL DUP4 MSTORE SWAP2 PUSH1 0x20 ADD SWAP2 PUSH2 0x7AD JUMP JUMPDEST DUP3 ADD SWAP2 SWAP1 PUSH1 0x0 MSTORE PUSH1 0x20 PUSH1 0x0 KECCAK256 SWAP1 JUMPDEST DUP2 SLOAD DUP2 MSTORE SWAP1 PUSH1 0x1 ADD SWAP1 PUSH1 0x20 ADD DUP1 DUP4 GT PUSH2 0x790 JUMPI DUP3 SWAP1 SUB PUSH1 0x1F AND DUP3 ADD SWAP2 JUMPDEST POP POP POP POP POP SWAP1 POP SWAP1 JUMP JUMPDEST PUSH1 0xA SLOAD DUP2 JUMP JUMPDEST PUSH1 0x0 DUP1 PUSH2 0x7C8 PUSH2 0x164B JUMP JUMPDEST SWAP1 POP PUSH2 0x7D5 DUP2 DUP6 DUP6 PUSH2 0x1653 JUMP JUMPDEST PUSH1 0x1 SWAP2 POP POP SWAP3 SWAP2 POP POP JUMP JUMPDEST PUSH1 0x0 PUSH1 0x2 SLOAD SWAP1 POP SWAP1 JUMP JUMPDEST PUSH1 0x0 PUSH1 0x7 SLOAD PUSH1 0x9 SLOAD LT ISZERO PUSH2 0x833 JUMPI PUSH1 0x40 MLOAD PUSH32 0x8C379A000000000000000000000000000000000000000000000000000000000 DUP2 MSTORE PUSH1 0x4 ADD PUSH2 0x82A SWAP1 PUSH2 0x2460 JUMP JUMPDEST PUSH1 0x40 MLOAD DUP1 SWAP2 SUB SWAP1 REVERT JUMPDEST TIMESTAMP PUSH1 0x5 SLOAD GT ISZERO DUP1 ISZERO PUSH2 0x847 JUMPI POP PUSH1 0x6 SLOAD TIMESTAMP GT ISZERO JUMPDEST PUSH2 0x886 JUMPI PUSH1 0x40 MLOAD PUSH32 0x8C379A000000000000000000000000000000000000000000000000000000000 DUP2 MSTORE PUSH1 0x4 ADD PUSH2 0x87D SWAP1 PUSH2 0x24CC JUMP JUMPDEST PUSH1 0x40 MLOAD DUP1 SWAP2 SUB SWAP1 REVERT JUMPDEST PUSH1 0xC PUSH1 0x0 CALLER PUSH20 0xFFFFFFFFFFFFFFFFFFFFFFFFFFFFFFFFFFFFFFFF AND PUSH20 0xFFFFFFFFFFFFFFFFFFFFFFFFFFFFFFFFFFFFFFFF AND DUP2 MSTORE PUSH1 0x20 ADD SWAP1 DUP2 MSTORE PUSH1 0x20 ADD PUSH1 0x0 KECCAK256 PUSH1 0x0 SWAP1 SLOAD SWAP1 PUSH2 0x100 EXP SWAP1 DIV PUSH1 0xFF AND ISZERO PUSH2 0x913 JUMPI PUSH1 0x40 MLOAD PUSH32 0x8C379A000000000000000000000000000000000000000000000000000000000 DUP2 MSTORE PUSH1 0x4 ADD PUSH2 0x90A SWAP1 PUSH2 0x2538 JUMP JUMPDEST PUSH1 0x40 MLOAD DUP1 SWAP2 SUB SWAP1 REVERT JUMPDEST DUP2 PUSH20 0xFFFFFFFFFFFFFFFFFFFFFFFFFFFFFFFFFFFFFFFF AND CALLER PUSH20 0xFFFFFFFFFFFFFFFFFFFFFFFFFFFFFFFFFFFFFFFF AND EQ ISZERO DUP1 ISZERO PUSH2 0x958 JUMPI POP PUSH1 0x0 PUSH2 0x955 DUP4 PUSH2 0xFF7 JUMP JUMPDEST EQ ISZERO JUMPDEST DUP1 ISZERO PUSH2 0x991 JUMPI POP PUSH1 0x0 PUSH20 0xFFFFFFFFFFFFFFFFFFFFFFFFFFFFFFFFFFFFFFFF AND DUP3 PUSH20 0xFFFFFFFFFFFFFFFFFFFFFFFFFFFFFFFFFFFFFFFF AND EQ ISZERO JUMPDEST ISZERO PUSH2 0x9BA JUMPI PUSH2 0x9A3 ADDRESS DUP4 PUSH1 0x7 SLOAD PUSH2 0x181C JUMP JUMPDEST PUSH1 0x7 SLOAD PUSH1 0x9 SLOAD PUSH2 0x9B3 SWAP2 SWAP1 PUSH2 0x2587 JUMP JUMPDEST PUSH1 0x9 DUP2 SWAP1 SSTORE POP JUMPDEST PUSH2 0x9C7 ADDRESS CALLER PUSH1 0x7 SLOAD PUSH2 0x181C JUMP JUMPDEST PUSH1 0x7 SLOAD PUSH1 0x9 SLOAD PUSH2 0x9D7 SWAP2 SWAP1 PUSH2 0x2587 JUMP JUMPDEST PUSH1 0x9 DUP2 SWAP1 SSTORE POP PUSH1 0x1 PUSH1 0xC PUSH1 0x0 CALLER PUSH20 0xFFFFFFFFFFFFFFFFFFFFFFFFFFFFFFFFFFFFFFFF AND PUSH20 0xFFFFFFFFFFFFFFFFFFFFFFFFFFFFFFFFFFFFFFFF AND DUP2 MSTORE PUSH1 0x20 ADD SWAP1 DUP2 MSTORE PUSH1 0x20 ADD PUSH1 0x0 KECCAK256 PUSH1 0x0 PUSH2 0x100 EXP DUP2 SLOAD DUP2 PUSH1 0xFF MUL NOT AND SWAP1 DUP4 ISZERO ISZERO MUL OR SWAP1 SSTORE POP PUSH1 0x1 SWAP1 POP SWAP2 SWAP1 POP JUMP JUMPDEST PUSH1 0x0 DUP1 PUSH2 0xA49 PUSH2 0x164B JUMP JUMPDEST SWAP1 POP PUSH2 0xA56 DUP6 DUP3 DUP6 PUSH2 0x1A92 JUMP JUMPDEST PUSH2 0xA61 DUP6 DUP6 DUP6 PUSH2 0x181C JUMP JUMPDEST PUSH1 0x1 SWAP2 POP POP SWAP4 SWAP3 POP POP POP JUMP JUMPDEST PUSH1 0x0 DUP1 PUSH1 0x40 MLOAD DUP1 PUSH1 0x40 ADD PUSH1 0x40 MSTORE DUP1 PUSH1 0x7 DUP2 MSTORE PUSH1 0x20 ADD PUSH32 0x6275726E416C6C00000000000000000000000000000000000000000000000000 DUP2 MSTORE POP DUP1 MLOAD SWAP1 PUSH1 0x20 ADD KECCAK256 SWAP1 POP PUSH1 0x0 DUP2 PUSH1 0x40 MLOAD PUSH1 0x20 ADD PUSH2 0xAC2 SWAP2 SWAP1 PUSH2 0x263D JUMP JUMPDEST PUSH1 0x40 MLOAD PUSH1 0x20 DUP2 DUP4 SUB SUB DUP2 MSTORE SWAP1 PUSH1 0x40 MSTORE DUP1 MLOAD SWAP1 PUSH1 0x20 ADD KECCAK256 SWAP1 POP PUSH1 0x0 DUP1 PUSH1 0x0 DUP7 DUP1 PUSH1 0x20 ADD SWAP1 MLOAD DUP2 ADD SWAP1 PUSH2 0xAF3 SWAP2 SWAP1 PUSH2 0x26BB JUMP JUMPDEST SWAP3 POP SWAP3 POP SWAP3 POP PUSH1 0x1 DUP5 DUP3 DUP6 DUP6 PUSH1 0x40 MLOAD PUSH1 0x0 DUP2 MSTORE PUSH1 0x20 ADD PUSH1 0x40 MSTORE PUSH1 0x40 MLOAD PUSH2 0xB1C SWAP5 SWAP4 SWAP3 SWAP2 SWAP1 PUSH2 0x271D JUMP JUMPDEST PUSH1 0x20 PUSH1 0x40 MLOAD PUSH1 0x20 DUP2 SUB SWAP1 DUP1 DUP5 SUB SWAP1 DUP6 GAS STATICCALL ISZERO DUP1 ISZERO PUSH2 0xB3E JUMPI RETURNDATASIZE PUSH1 0x0 DUP1 RETURNDATACOPY RETURNDATASIZE PUSH1 0x0 REVERT JUMPDEST POP POP POP PUSH1 0x20 PUSH1 0x40 MLOAD SUB MLOAD SWAP6 POP POP POP POP POP POP SWAP2 SWAP1 POP JUMP JUMPDEST PUSH1 0x0 PUSH1 0x12 SWAP1 POP SWAP1 JUMP JUMPDEST PUSH1 0x6 SLOAD DUP2 JUMP JUMPDEST PUSH1 0x0 DUP1 PUSH2 0xB6E PUSH2 0x164B JUMP JUMPDEST SWAP1 POP PUSH2 0xB8F DUP2 DUP6 DUP6 PUSH2 0xB80 DUP6 DUP10 PUSH2 0x15C4 JUMP JUMPDEST PUSH2 0xB8A SWAP2 SWAP1 PUSH2 0x2762 JUMP JUMPDEST PUSH2 0x1653 JUMP JUMPDEST PUSH1 0x1 SWAP2 POP POP SWAP3 SWAP2 POP POP JUMP JUMPDEST PUSH1 0x9 SLOAD DUP2 JUMP JUMPDEST PUSH1 0xB PUSH1 0x0 SWAP1 SLOAD SWAP1 PUSH2 0x100 EXP SWAP1 DIV PUSH20 0xFFFFFFFFFFFFFFFFFFFFFFFFFFFFFFFFFFFFFFFF AND PUSH20 0xFFFFFFFFFFFFFFFFFFFFFFFFFFFFFFFFFFFFFFFF AND CALLER PUSH20 0xFFFFFFFFFFFFFFFFFFFFFFFFFFFFFFFFFFFFFFFF AND EQ PUSH2 0xC30 JUMPI PUSH1 0x40 MLOAD PUSH32 0x8C379A000000000000000000000000000000000000000000000000000000000 DUP2 MSTORE PUSH1 0x4 ADD PUSH2 0xC27 SWAP1 PUSH2 0x27E2 JUMP JUMPDEST PUSH1 0x40 MLOAD DUP1 SWAP2 SUB SWAP1 REVERT JUMPDEST DUP1 PUSH1 0xE PUSH1 0x0 DUP5 PUSH20 0xFFFFFFFFFFFFFFFFFFFFFFFFFFFFFFFFFFFFFFFF AND PUSH20 0xFFFFFFFFFFFFFFFFFFFFFFFFFFFFFFFFFFFFFFFF AND DUP2 MSTORE PUSH1 0x20 ADD SWAP1 DUP2 MSTORE PUSH1 0x20 ADD PUSH1 0x0 KECCAK256 PUSH1 0x0 PUSH2 0x100 EXP DUP2 SLOAD DUP2 PUSH1 0xFF MUL NOT AND SWAP1 DUP4 ISZERO ISZERO MUL OR SWAP1 SSTORE POP POP POP JUMP JUMPDEST PUSH1 0x0 DUP1 PUSH1 0x0 PUSH1 0x5 SLOAD PUSH1 0x6 SLOAD PUSH1 0xA SLOAD SWAP3 POP SWAP3 POP SWAP3 POP SWAP1 SWAP2 SWAP3 JUMP JUMPDEST PUSH1 0x0 PUSH8 0xDE0B6B3A7640000 PUSH1 0xD PUSH1 0x0 CALLER PUSH20 0xFFFFFFFFFFFFFFFFFFFFFFFFFFFFFFFFFFFFFFFF AND PUSH20 0xFFFFFFFFFFFFFFFFFFFFFFFFFFFFFFFFFFFFFFFF AND DUP2 MSTORE PUSH1 0x20 ADD SWAP1 DUP2 MSTORE PUSH1 0x20 ADD PUSH1 0x0 KECCAK256 SLOAD GT ISZERO PUSH2 0xD30 JUMPI PUSH1 0x40 MLOAD PUSH32 0x8C379A000000000000000000000000000000000000000000000000000000000 DUP2 MSTORE PUSH1 0x4 ADD PUSH2 0xD27 SWAP1 PUSH2 0x284E JUMP JUMPDEST PUSH1 0x40 MLOAD DUP1 SWAP2 SUB SWAP1 REVERT JUMPDEST PUSH7 0x11C37937E08000 CALLVALUE LT ISZERO PUSH2 0xD7A JUMPI PUSH1 0x40 MLOAD PUSH32 0x8C379A000000000000000000000000000000000000000000000000000000000 DUP2 MSTORE PUSH1 0x4 ADD PUSH2 0xD71 SWAP1 PUSH2 0x28BA JUMP JUMPDEST PUSH1 0x40 MLOAD DUP1 SWAP2 SUB SWAP1 REVERT JUMPDEST TIMESTAMP PUSH1 0x5 SLOAD GT ISZERO DUP1 ISZERO PUSH2 0xD8E JUMPI POP PUSH1 0x6 SLOAD TIMESTAMP GT ISZERO JUMPDEST PUSH2 0xDCD JUMPI PUSH1 0x40 MLOAD PUSH32 0x8C379A000000000000000000000000000000000000000000000000000000000 DUP2 MSTORE PUSH1 0x4 ADD PUSH2 0xDC4 SWAP1 PUSH2 0x24CC JUMP JUMPDEST PUSH1 0x40 MLOAD DUP1 SWAP2 SUB SWAP1 REVERT JUMPDEST PUSH8 0xDE0B6B3A7640000 CALLVALUE PUSH1 0xD PUSH1 0x0 CALLER PUSH20 0xFFFFFFFFFFFFFFFFFFFFFFFFFFFFFFFFFFFFFFFF AND PUSH20 0xFFFFFFFFFFFFFFFFFFFFFFFFFFFFFFFFFFFFFFFF AND DUP2 MSTORE PUSH1 0x20 ADD SWAP1 DUP2 MSTORE PUSH1 0x20 ADD PUSH1 0x0 KECCAK256 SLOAD PUSH2 0xE21 SWAP2 SWAP1 PUSH2 0x2762 JUMP JUMPDEST GT ISZERO PUSH2 0xE62 JUMPI PUSH1 0x40 MLOAD PUSH32 0x8C379A000000000000000000000000000000000000000000000000000000000 DUP2 MSTORE PUSH1 0x4 ADD PUSH2 0xE59 SWAP1 PUSH2 0x2926 JUMP JUMPDEST PUSH1 0x40 MLOAD DUP1 SWAP2 SUB SWAP1 REVERT JUMPDEST PUSH1 0x0 CALLVALUE SWAP1 POP PUSH1 0x0 DUP1 PUSH1 0x8 SLOAD DUP4 PUSH2 0xE78 SWAP2 SWAP1 PUSH2 0x2975 JUMP JUMPDEST SWAP2 POP PUSH1 0xA PUSH1 0x64 PUSH1 0x8 SLOAD DUP6 PUSH2 0xE8C SWAP2 SWAP1 PUSH2 0x2975 JUMP JUMPDEST PUSH2 0xE96 SWAP2 SWAP1 PUSH2 0x2975 JUMP JUMPDEST PUSH2 0xEA0 SWAP2 SWAP1 PUSH2 0x29A6 JUMP JUMPDEST SWAP1 POP DUP1 DUP3 PUSH2 0xEAE SWAP2 SWAP1 PUSH2 0x2762 JUMP JUMPDEST PUSH1 0xA SLOAD LT ISZERO PUSH2 0xEBC JUMPI PUSH1 0x0 DUP1 REVERT JUMPDEST DUP5 PUSH20 0xFFFFFFFFFFFFFFFFFFFFFFFFFFFFFFFFFFFFFFFF AND CALLER PUSH20 0xFFFFFFFFFFFFFFFFFFFFFFFFFFFFFFFFFFFFFFFF AND EQ ISZERO DUP1 ISZERO PUSH2 0xF01 JUMPI POP PUSH1 0x0 PUSH2 0xEFE DUP7 PUSH2 0xFF7 JUMP JUMPDEST EQ ISZERO JUMPDEST DUP1 ISZERO PUSH2 0xF3A JUMPI POP PUSH1 0x0 PUSH20 0xFFFFFFFFFFFFFFFFFFFFFFFFFFFFFFFFFFFFFFFF AND DUP6 PUSH20 0xFFFFFFFFFFFFFFFFFFFFFFFFFFFFFFFFFFFFFFFF AND EQ ISZERO JUMPDEST ISZERO PUSH2 0xF5F JUMPI DUP1 PUSH1 0xA SLOAD PUSH2 0xF4D SWAP2 SWAP1 PUSH2 0x2587 JUMP JUMPDEST PUSH1 0xA DUP2 SWAP1 SSTORE POP PUSH2 0xF5E ADDRESS DUP7 DUP4 PUSH2 0x181C JUMP JUMPDEST JUMPDEST DUP2 PUSH1 0xA SLOAD PUSH2 0xF6D SWAP2 SWAP1 PUSH2 0x2587 JUMP JUMPDEST PUSH1 0xA DUP2 SWAP1 SSTORE POP PUSH2 0xF7E ADDRESS CALLER DUP5 PUSH2 0x181C JUMP JUMPDEST CALLVALUE PUSH1 0xD PUSH1 0x0 CALLER PUSH20 0xFFFFFFFFFFFFFFFFFFFFFFFFFFFFFFFFFFFFFFFF AND PUSH20 0xFFFFFFFFFFFFFFFFFFFFFFFFFFFFFFFFFFFFFFFF AND DUP2 MSTORE PUSH1 0x20 ADD SWAP1 DUP2 MSTORE PUSH1 0x20 ADD PUSH1 0x0 KECCAK256 PUSH1 0x0 DUP3 DUP3 SLOAD PUSH2 0xFCD SWAP2 SWAP1 PUSH2 0x2762 JUMP JUMPDEST SWAP3 POP POP DUP2 SWAP1 SSTORE POP DUP2 SWAP4 POP POP POP POP SWAP2 SWAP1 POP JUMP JUMPDEST PUSH1 0xD PUSH1 0x20 MSTORE DUP1 PUSH1 0x0 MSTORE PUSH1 0x40 PUSH1 0x0 KECCAK256 PUSH1 0x0 SWAP2 POP SWAP1 POP SLOAD DUP2 JUMP JUMPDEST PUSH1 0x0 DUP1 PUSH1 0x0 DUP4 PUSH20 0xFFFFFFFFFFFFFFFFFFFFFFFFFFFFFFFFFFFFFFFF AND PUSH20 0xFFFFFFFFFFFFFFFFFFFFFFFFFFFFFFFFFFFFFFFF AND DUP2 MSTORE PUSH1 0x20 ADD SWAP1 DUP2 MSTORE PUSH1 0x20 ADD PUSH1 0x0 KECCAK256 SLOAD SWAP1 POP SWAP2 SWAP1 POP JUMP JUMPDEST PUSH1 0x5 SLOAD DUP2 JUMP JUMPDEST PUSH1 0x8 SLOAD DUP2 JUMP JUMPDEST PUSH1 0xB PUSH1 0x0 SWAP1 SLOAD SWAP1 PUSH2 0x100 EXP SWAP1 DIV PUSH20 0xFFFFFFFFFFFFFFFFFFFFFFFFFFFFFFFFFFFFFFFF AND PUSH20 0xFFFFFFFFFFFFFFFFFFFFFFFFFFFFFFFFFFFFFFFF AND CALLER PUSH20 0xFFFFFFFFFFFFFFFFFFFFFFFFFFFFFFFFFFFFFFFF AND EQ PUSH2 0x10DB JUMPI PUSH1 0x40 MLOAD PUSH32 0x8C379A000000000000000000000000000000000000000000000000000000000 DUP2 MSTORE PUSH1 0x4 ADD PUSH2 0x10D2 SWAP1 PUSH2 0x27E2 JUMP JUMPDEST PUSH1 0x40 MLOAD DUP1 SWAP2 SUB SWAP1 REVERT JUMPDEST TIMESTAMP PUSH1 0x6 SLOAD GT ISZERO PUSH2 0x10EA JUMPI PUSH1 0x0 DUP1 REVERT JUMPDEST PUSH1 0x0 CALLER PUSH20 0xFFFFFFFFFFFFFFFFFFFFFFFFFFFFFFFFFFFFFFFF AND SELFBALANCE PUSH1 0x40 MLOAD PUSH2 0x1110 SWAP1 PUSH2 0x2A19 JUMP JUMPDEST PUSH1 0x0 PUSH1 0x40 MLOAD DUP1 DUP4 SUB DUP2 DUP6 DUP8 GAS CALL SWAP3 POP POP POP RETURNDATASIZE DUP1 PUSH1 0x0 DUP2 EQ PUSH2 0x114D JUMPI PUSH1 0x40 MLOAD SWAP2 POP PUSH1 0x1F NOT PUSH1 0x3F RETURNDATASIZE ADD AND DUP3 ADD PUSH1 0x40 MSTORE RETURNDATASIZE DUP3 MSTORE RETURNDATASIZE PUSH1 0x0 PUSH1 0x20 DUP5 ADD RETURNDATACOPY PUSH2 0x1152 JUMP JUMPDEST PUSH1 0x60 SWAP2 POP JUMPDEST POP POP SWAP1 POP POP JUMP JUMPDEST PUSH1 0x0 PUSH2 0x1164 DUP3 PUSH2 0xA6D JUMP JUMPDEST SWAP1 POP PUSH1 0xB PUSH1 0x0 SWAP1 SLOAD SWAP1 PUSH2 0x100 EXP SWAP1 DIV PUSH20 0xFFFFFFFFFFFFFFFFFFFFFFFFFFFFFFFFFFFFFFFF AND PUSH20 0xFFFFFFFFFFFFFFFFFFFFFFFFFFFFFFFFFFFFFFFF AND DUP2 PUSH20 0xFFFFFFFFFFFFFFFFFFFFFFFFFFFFFFFFFFFFFFFF AND EQ PUSH2 0x11F6 JUMPI PUSH1 0x40 MLOAD PUSH32 0x8C379A000000000000000000000000000000000000000000000000000000000 DUP2 MSTORE PUSH1 0x4 ADD PUSH2 0x11ED SWAP1 PUSH2 0x2A7A JUMP JUMPDEST PUSH1 0x40 MLOAD DUP1 SWAP2 SUB SWAP1 REVERT JUMPDEST PUSH1 0x0 PUSH2 0x1201 ADDRESS PUSH2 0xFF7 JUMP JUMPDEST SWAP1 POP PUSH2 0x120D ADDRESS DUP3 PUSH2 0x1B1E JUMP JUMPDEST PUSH32 0xB1FE961F963661A542FA1FF991C895FC463BBBFC4A441759A11F8D0E94E3151F TIMESTAMP PUSH1 0x9 SLOAD PUSH1 0x40 MLOAD PUSH2 0x1240 SWAP3 SWAP2 SWAP1 PUSH2 0x2A9A JUMP JUMPDEST PUSH1 0x40 MLOAD DUP1 SWAP2 SUB SWAP1 LOG1 PUSH32 0xB4E6CB40663C1AC63BCD620DBE3D98C44526BAA45E310F545F425EBAAB36A293 TIMESTAMP PUSH1 0xA SLOAD PUSH1 0x40 MLOAD PUSH2 0x127B SWAP3 SWAP2 SWAP1 PUSH2 0x2A9A JUMP JUMPDEST PUSH1 0x40 MLOAD DUP1 SWAP2 SUB SWAP1 LOG1 POP POP POP JUMP JUMPDEST PUSH1 0x60 PUSH1 0x4 DUP1 SLOAD PUSH2 0x1297 SWAP1 PUSH2 0x23E3 JUMP JUMPDEST DUP1 PUSH1 0x1F ADD PUSH1 0x20 DUP1 SWAP2 DIV MUL PUSH1 0x20 ADD PUSH1 0x40 MLOAD SWAP1 DUP2 ADD PUSH1 0x40 MSTORE DUP1 SWAP3 SWAP2 SWAP1 DUP2 DUP2 MSTORE PUSH1 0x20 ADD DUP3 DUP1 SLOAD PUSH2 0x12C3 SWAP1 PUSH2 0x23E3 JUMP JUMPDEST DUP1 ISZERO PUSH2 0x1310 JUMPI DUP1 PUSH1 0x1F LT PUSH2 0x12E5 JUMPI PUSH2 0x100 DUP1 DUP4 SLOAD DIV MUL DUP4 MSTORE SWAP2 PUSH1 0x20 ADD SWAP2 PUSH2 0x1310 JUMP JUMPDEST DUP3 ADD SWAP2 SWAP1 PUSH1 0x0 MSTORE PUSH1 0x20 PUSH1 0x0 KECCAK256 SWAP1 JUMPDEST DUP2 SLOAD DUP2 MSTORE SWAP1 PUSH1 0x1 ADD SWAP1 PUSH1 0x20 ADD DUP1 DUP4 GT PUSH2 0x12F3 JUMPI DUP3 SWAP1 SUB PUSH1 0x1F AND DUP3 ADD SWAP2 JUMPDEST POP POP POP POP POP SWAP1 POP SWAP1 JUMP JUMPDEST PUSH1 0xB PUSH1 0x0 SWAP1 SLOAD SWAP1 PUSH2 0x100 EXP SWAP1 DIV PUSH20 0xFFFFFFFFFFFFFFFFFFFFFFFFFFFFFFFFFFFFFFFF AND PUSH20 0xFFFFFFFFFFFFFFFFFFFFFFFFFFFFFFFFFFFFFFFF AND CALLER PUSH20 0xFFFFFFFFFFFFFFFFFFFFFFFFFFFFFFFFFFFFFFFF AND EQ PUSH2 0x13AA JUMPI PUSH1 0x40 MLOAD PUSH32 0x8C379A000000000000000000000000000000000000000000000000000000000 DUP2 MSTORE PUSH1 0x4 ADD PUSH2 0x13A1 SWAP1 PUSH2 0x27E2 JUMP JUMPDEST PUSH1 0x40 MLOAD DUP1 SWAP2 SUB SWAP1 REVERT JUMPDEST PUSH2 0x13B4 CALLER DUP3 PUSH2 0x1CEB JUMP JUMPDEST POP JUMP JUMPDEST PUSH1 0x0 DUP1 PUSH2 0x13C2 PUSH2 0x164B JUMP JUMPDEST SWAP1 POP PUSH1 0x0 PUSH2 0x13D0 DUP3 DUP7 PUSH2 0x15C4 JUMP JUMPDEST SWAP1 POP DUP4 DUP2 LT ISZERO PUSH2 0x1415 JUMPI PUSH1 0x40 MLOAD PUSH32 0x8C379A000000000000000000000000000000000000000000000000000000000 DUP2 MSTORE PUSH1 0x4 ADD PUSH2 0x140C SWAP1 PUSH2 0x2B35 JUMP JUMPDEST PUSH1 0x40 MLOAD DUP1 SWAP2 SUB SWAP1 REVERT JUMPDEST PUSH2 0x1422 DUP3 DUP7 DUP7 DUP5 SUB PUSH2 0x1653 JUMP JUMPDEST PUSH1 0x1 SWAP3 POP POP POP SWAP3 SWAP2 POP POP JUMP JUMPDEST PUSH1 0x0 DUP3 PUSH1 0xB PUSH1 0x0 SWAP1 SLOAD SWAP1 PUSH2 0x100 EXP SWAP1 DIV PUSH20 0xFFFFFFFFFFFFFFFFFFFFFFFFFFFFFFFFFFFFFFFF AND PUSH20 0xFFFFFFFFFFFFFFFFFFFFFFFFFFFFFFFFFFFFFFFF AND CALLER PUSH20 0xFFFFFFFFFFFFFFFFFFFFFFFFFFFFFFFFFFFFFFFF AND EQ PUSH2 0x14E2 JUMPI PUSH1 0x0 DUP2 PUSH20 0xFFFFFFFFFFFFFFFFFFFFFFFFFFFFFFFFFFFFFFFF AND EXTCODESIZE GT ISZERO PUSH2 0x14E1 JUMPI PUSH1 0x40 MLOAD PUSH32 0x8C379A000000000000000000000000000000000000000000000000000000000 DUP2 MSTORE PUSH1 0x4 ADD PUSH2 0x14D8 SWAP1 PUSH2 0x2BA1 JUMP JUMPDEST PUSH1 0x40 MLOAD DUP1 SWAP2 SUB SWAP1 REVERT JUMPDEST JUMPDEST PUSH1 0xE PUSH1 0x0 CALLER PUSH20 0xFFFFFFFFFFFFFFFFFFFFFFFFFFFFFFFFFFFFFFFF AND PUSH20 0xFFFFFFFFFFFFFFFFFFFFFFFFFFFFFFFFFFFFFFFF AND DUP2 MSTORE PUSH1 0x20 ADD SWAP1 DUP2 MSTORE PUSH1 0x20 ADD PUSH1 0x0 KECCAK256 PUSH1 0x0 SWAP1 SLOAD SWAP1 PUSH2 0x100 EXP SWAP1 DIV PUSH1 0xFF AND ISZERO PUSH2 0x156F JUMPI PUSH1 0x40 MLOAD PUSH32 0x8C379A000000000000000000000000000000000000000000000000000000000 DUP2 MSTORE PUSH1 0x4 ADD PUSH2 0x1566 SWAP1 PUSH2 0x2C0D JUMP JUMPDEST PUSH1 0x40 MLOAD DUP1 SWAP2 SUB SWAP1 REVERT JUMPDEST PUSH2 0x157A CALLER DUP6 DUP6 PUSH2 0x181C JUMP JUMPDEST PUSH1 0x1 SWAP2 POP POP SWAP3 SWAP2 POP POP JUMP JUMPDEST PUSH1 0x7 SLOAD DUP2 JUMP JUMPDEST PUSH1 0x0 DUP1 PUSH1 0x0 PUSH1 0x5 SLOAD PUSH1 0x6 SLOAD PUSH1 0x9 SLOAD SWAP3 POP SWAP3 POP SWAP3 POP SWAP1 SWAP2 SWAP3 JUMP JUMPDEST PUSH1 0xE PUSH1 0x20 MSTORE DUP1 PUSH1 0x0 MSTORE PUSH1 0x40 PUSH1 0x0 KECCAK256 PUSH1 0x0 SWAP2 POP SLOAD SWAP1 PUSH2 0x100 EXP SWAP1 DIV PUSH1 0xFF AND DUP2 JUMP JUMPDEST PUSH1 0x0 PUSH1 0x1 PUSH1 0x0 DUP5 PUSH20 0xFFFFFFFFFFFFFFFFFFFFFFFFFFFFFFFFFFFFFFFF AND PUSH20 0xFFFFFFFFFFFFFFFFFFFFFFFFFFFFFFFFFFFFFFFF AND DUP2 MSTORE PUSH1 0x20 ADD SWAP1 DUP2 MSTORE PUSH1 0x20 ADD PUSH1 0x0 KECCAK256 PUSH1 0x0 DUP4 PUSH20 0xFFFFFFFFFFFFFFFFFFFFFFFFFFFFFFFFFFFFFFFF AND PUSH20 0xFFFFFFFFFFFFFFFFFFFFFFFFFFFFFFFFFFFFFFFF AND DUP2 MSTORE PUSH1 0x20 ADD SWAP1 DUP2 MSTORE PUSH1 0x20 ADD PUSH1 0x0 KECCAK256 SLOAD SWAP1 POP SWAP3 SWAP2 POP POP JUMP JUMPDEST PUSH1 0x0 CALLER SWAP1 POP SWAP1 JUMP JUMPDEST PUSH1 0x0 PUSH20 0xFFFFFFFFFFFFFFFFFFFFFFFFFFFFFFFFFFFFFFFF AND DUP4 PUSH20 0xFFFFFFFFFFFFFFFFFFFFFFFFFFFFFFFFFFFFFFFF AND SUB PUSH2 0x16C2 JUMPI PUSH1 0x40 MLOAD PUSH32 0x8C379A000000000000000000000000000000000000000000000000000000000 DUP2 MSTORE PUSH1 0x4 ADD PUSH2 0x16B9 SWAP1 PUSH2 0x2C9F JUMP JUMPDEST PUSH1 0x40 MLOAD DUP1 SWAP2 SUB SWAP1 REVERT JUMPDEST PUSH1 0x0 PUSH20 0xFFFFFFFFFFFFFFFFFFFFFFFFFFFFFFFFFFFFFFFF AND DUP3 PUSH20 0xFFFFFFFFFFFFFFFFFFFFFFFFFFFFFFFFFFFFFFFF AND SUB PUSH2 0x1731 JUMPI PUSH1 0x40 MLOAD PUSH32 0x8C379A000000000000000000000000000000000000000000000000000000000 DUP2 MSTORE PUSH1 0x4 ADD PUSH2 0x1728 SWAP1 PUSH2 0x2D31 JUMP JUMPDEST PUSH1 0x40 MLOAD DUP1 SWAP2 SUB SWAP1 REVERT JUMPDEST DUP1 PUSH1 0x1 PUSH1 0x0 DUP6 PUSH20 0xFFFFFFFFFFFFFFFFFFFFFFFFFFFFFFFFFFFFFFFF AND PUSH20 0xFFFFFFFFFFFFFFFFFFFFFFFFFFFFFFFFFFFFFFFF AND DUP2 MSTORE PUSH1 0x20 ADD SWAP1 DUP2 MSTORE PUSH1 0x20 ADD PUSH1 0x0 KECCAK256 PUSH1 0x0 DUP5 PUSH20 0xFFFFFFFFFFFFFFFFFFFFFFFFFFFFFFFFFFFFFFFF AND PUSH20 0xFFFFFFFFFFFFFFFFFFFFFFFFFFFFFFFFFFFFFFFF AND DUP2 MSTORE PUSH1 0x20 ADD SWAP1 DUP2 MSTORE PUSH1 0x20 ADD PUSH1 0x0 KECCAK256 DUP2 SWAP1 SSTORE POP DUP2 PUSH20 0xFFFFFFFFFFFFFFFFFFFFFFFFFFFFFFFFFFFFFFFF AND DUP4 PUSH20 0xFFFFFFFFFFFFFFFFFFFFFFFFFFFFFFFFFFFFFFFF AND PUSH32 0x8C5BE1E5EBEC7D5BD14F71427D1E84F3DD0314C0F7B2291E5B200AC8C7C3B925 DUP4 PUSH1 0x40 MLOAD PUSH2 0x180F SWAP2 SWAP1 PUSH2 0x1F16 JUMP JUMPDEST PUSH1 0x40 MLOAD DUP1 SWAP2 SUB SWAP1 LOG3 POP POP POP JUMP JUMPDEST PUSH1 0x0 PUSH20 0xFFFFFFFFFFFFFFFFFFFFFFFFFFFFFFFFFFFFFFFF AND DUP4 PUSH20 0xFFFFFFFFFFFFFFFFFFFFFFFFFFFFFFFFFFFFFFFF AND SUB PUSH2 0x188B JUMPI PUSH1 0x40 MLOAD PUSH32 0x8C379A000000000000000000000000000000000000000000000000000000000 DUP2 MSTORE PUSH1 0x4 ADD PUSH2 0x1882 SWAP1 PUSH2 0x2DC3 JUMP JUMPDEST PUSH1 0x40 MLOAD DUP1 SWAP2 SUB SWAP1 REVERT JUMPDEST PUSH1 0x0 PUSH20 0xFFFFFFFFFFFFFFFFFFFFFFFFFFFFFFFFFFFFFFFF AND DUP3 PUSH20 0xFFFFFFFFFFFFFFFFFFFFFFFFFFFFFFFFFFFFFFFF AND SUB PUSH2 0x18FA JUMPI PUSH1 0x40 MLOAD PUSH32 0x8C379A000000000000000000000000000000000000000000000000000000000 DUP2 MSTORE PUSH1 0x4 ADD PUSH2 0x18F1 SWAP1 PUSH2 0x2E55 JUMP JUMPDEST PUSH1 0x40 MLOAD DUP1 SWAP2 SUB SWAP1 REVERT JUMPDEST PUSH2 0x1905 DUP4 DUP4 DUP4 PUSH2 0x1E41 JUMP JUMPDEST PUSH1 0x0 DUP1 PUSH1 0x0 DUP6 PUSH20 0xFFFFFFFFFFFFFFFFFFFFFFFFFFFFFFFFFFFFFFFF AND PUSH20 0xFFFFFFFFFFFFFFFFFFFFFFFFFFFFFFFFFFFFFFFF AND DUP2 MSTORE PUSH1 0x20 ADD SWAP1 DUP2 MSTORE PUSH1 0x20 ADD PUSH1 0x0 KECCAK256 SLOAD SWAP1 POP DUP2 DUP2 LT ISZERO PUSH2 0x198B JUMPI PUSH1 0x40 MLOAD PUSH32 0x8C379A000000000000000000000000000000000000000000000000000000000 DUP2 MSTORE PUSH1 0x4 ADD PUSH2 0x1982 SWAP1 PUSH2 0x2EE7 JUMP JUMPDEST PUSH1 0x40 MLOAD DUP1 SWAP2 SUB SWAP1 REVERT JUMPDEST DUP2 DUP2 SUB PUSH1 0x0 DUP1 DUP7 PUSH20 0xFFFFFFFFFFFFFFFFFFFFFFFFFFFFFFFFFFFFFFFF AND PUSH20 0xFFFFFFFFFFFFFFFFFFFFFFFFFFFFFFFFFFFFFFFF AND DUP2 MSTORE PUSH1 0x20 ADD SWAP1 DUP2 MSTORE PUSH1 0x20 ADD PUSH1 0x0 KECCAK256 DUP2 SWAP1 SSTORE POP DUP2 PUSH1 0x0 DUP1 DUP6 PUSH20 0xFFFFFFFFFFFFFFFFFFFFFFFFFFFFFFFFFFFFFFFF AND PUSH20 0xFFFFFFFFFFFFFFFFFFFFFFFFFFFFFFFFFFFFFFFF AND DUP2 MSTORE PUSH1 0x20 ADD SWAP1 DUP2 MSTORE PUSH1 0x20 ADD PUSH1 0x0 KECCAK256 PUSH1 0x0 DUP3 DUP3 SLOAD ADD SWAP3 POP POP DUP2 SWAP1 SSTORE POP DUP3 PUSH20 0xFFFFFFFFFFFFFFFFFFFFFFFFFFFFFFFFFFFFFFFF AND DUP5 PUSH20 0xFFFFFFFFFFFFFFFFFFFFFFFFFFFFFFFFFFFFFFFF AND PUSH32 0xDDF252AD1BE2C89B69C2B068FC378DAA952BA7F163C4A11628F55A4DF523B3EF DUP5 PUSH1 0x40 MLOAD PUSH2 0x1A79 SWAP2 SWAP1 PUSH2 0x1F16 JUMP JUMPDEST PUSH1 0x40 MLOAD DUP1 SWAP2 SUB SWAP1 LOG3 PUSH2 0x1A8C DUP5 DUP5 DUP5 PUSH2 0x1E46 JUMP JUMPDEST POP POP POP POP JUMP JUMPDEST PUSH1 0x0 PUSH2 0x1A9E DUP5 DUP5 PUSH2 0x15C4 JUMP JUMPDEST SWAP1 POP PUSH32 0xFFFFFFFFFFFFFFFFFFFFFFFFFFFFFFFFFFFFFFFFFFFFFFFFFFFFFFFFFFFFFFFF DUP2 EQ PUSH2 0x1B18 JUMPI DUP2 DUP2 LT ISZERO PUSH2 0x1B0A JUMPI PUSH1 0x40 MLOAD PUSH32 0x8C379A000000000000000000000000000000000000000000000000000000000 DUP2 MSTORE PUSH1 0x4 ADD PUSH2 0x1B01 SWAP1 PUSH2 0x2F53 JUMP JUMPDEST PUSH1 0x40 MLOAD DUP1 SWAP2 SUB SWAP1 REVERT JUMPDEST PUSH2 0x1B17 DUP5 DUP5 DUP5 DUP5 SUB PUSH2 0x1653 JUMP JUMPDEST JUMPDEST POP POP POP POP JUMP JUMPDEST PUSH1 0x0 PUSH20 0xFFFFFFFFFFFFFFFFFFFFFFFFFFFFFFFFFFFFFFFF AND DUP3 PUSH20 0xFFFFFFFFFFFFFFFFFFFFFFFFFFFFFFFFFFFFFFFF AND SUB PUSH2 0x1B8D JUMPI PUSH1 0x40 MLOAD PUSH32 0x8C379A000000000000000000000000000000000000000000000000000000000 DUP2 MSTORE PUSH1 0x4 ADD PUSH2 0x1B84 SWAP1 PUSH2 0x2FE5 JUMP JUMPDEST PUSH1 0x40 MLOAD DUP1 SWAP2 SUB SWAP1 REVERT JUMPDEST PUSH2 0x1B99 DUP3 PUSH1 0x0 DUP4 PUSH2 0x1E41 JUMP JUMPDEST PUSH1 0x0 DUP1 PUSH1 0x0 DUP5 PUSH20 0xFFFFFFFFFFFFFFFFFFFFFFFFFFFFFFFFFFFFFFFF AND PUSH20 0xFFFFFFFFFFFFFFFFFFFFFFFFFFFFFFFFFFFFFFFF AND DUP2 MSTORE PUSH1 0x20 ADD SWAP1 DUP2 MSTORE PUSH1 0x20 ADD PUSH1 0x0 KECCAK256 SLOAD SWAP1 POP DUP2 DUP2 LT ISZERO PUSH2 0x1C1F JUMPI PUSH1 0x40 MLOAD PUSH32 0x8C379A000000000000000000000000000000000000000000000000000000000 DUP2 MSTORE PUSH1 0x4 ADD PUSH2 0x1C16 SWAP1 PUSH2 0x3077 JUMP JUMPDEST PUSH1 0x40 MLOAD DUP1 SWAP2 SUB SWAP1 REVERT JUMPDEST DUP2 DUP2 SUB PUSH1 0x0 DUP1 DUP6 PUSH20 0xFFFFFFFFFFFFFFFFFFFFFFFFFFFFFFFFFFFFFFFF AND PUSH20 0xFFFFFFFFFFFFFFFFFFFFFFFFFFFFFFFFFFFFFFFF AND DUP2 MSTORE PUSH1 0x20 ADD SWAP1 DUP2 MSTORE PUSH1 0x20 ADD PUSH1 0x0 KECCAK256 DUP2 SWAP1 SSTORE POP DUP2 PUSH1 0x2 PUSH1 0x0 DUP3 DUP3 SLOAD SUB SWAP3 POP POP DUP2 SWAP1 SSTORE POP PUSH1 0x0 PUSH20 0xFFFFFFFFFFFFFFFFFFFFFFFFFFFFFFFFFFFFFFFF AND DUP4 PUSH20 0xFFFFFFFFFFFFFFFFFFFFFFFFFFFFFFFFFFFFFFFF AND PUSH32 0xDDF252AD1BE2C89B69C2B068FC378DAA952BA7F163C4A11628F55A4DF523B3EF DUP5 PUSH1 0x40 MLOAD PUSH2 0x1CD2 SWAP2 SWAP1 PUSH2 0x1F16 JUMP JUMPDEST PUSH1 0x40 MLOAD DUP1 SWAP2 SUB SWAP1 LOG3 PUSH2 0x1CE6 DUP4 PUSH1 0x0 DUP5 PUSH2 0x1E46 JUMP JUMPDEST POP POP POP JUMP JUMPDEST PUSH1 0x0 PUSH20 0xFFFFFFFFFFFFFFFFFFFFFFFFFFFFFFFFFFFFFFFF AND DUP3 PUSH20 0xFFFFFFFFFFFFFFFFFFFFFFFFFFFFFFFFFFFFFFFF AND SUB PUSH2 0x1D5A JUMPI PUSH1 0x40 MLOAD PUSH32 0x8C379A000000000000000000000000000000000000000000000000000000000 DUP2 MSTORE PUSH1 0x4 ADD PUSH2 0x1D51 SWAP1 PUSH2 0x30E3 JUMP JUMPDEST PUSH1 0x40 MLOAD DUP1 SWAP2 SUB SWAP1 REVERT JUMPDEST PUSH2 0x1D66 PUSH1 0x0 DUP4 DUP4 PUSH2 0x1E41 JUMP JUMPDEST DUP1 PUSH1 0x2 PUSH1 0x0 DUP3 DUP3 SLOAD PUSH2 0x1D78 SWAP2 SWAP1 PUSH2 0x2762 JUMP JUMPDEST SWAP3 POP POP DUP2 SWAP1 SSTORE POP DUP1 PUSH1 0x0 DUP1 DUP5 PUSH20 0xFFFFFFFFFFFFFFFFFFFFFFFFFFFFFFFFFFFFFFFF AND PUSH20 0xFFFFFFFFFFFFFFFFFFFFFFFFFFFFFFFFFFFFFFFF AND DUP2 MSTORE PUSH1 0x20 ADD SWAP1 DUP2 MSTORE PUSH1 0x20 ADD PUSH1 0x0 KECCAK256 PUSH1 0x0 DUP3 DUP3 SLOAD ADD SWAP3 POP POP DUP2 SWAP1 SSTORE POP DUP2 PUSH20 0xFFFFFFFFFFFFFFFFFFFFFFFFFFFFFFFFFFFFFFFF AND PUSH1 0x0 PUSH20 0xFFFFFFFFFFFFFFFFFFFFFFFFFFFFFFFFFFFFFFFF AND PUSH32 0xDDF252AD1BE2C89B69C2B068FC378DAA952BA7F163C4A11628F55A4DF523B3EF DUP4 PUSH1 0x40 MLOAD PUSH2 0x1E29 SWAP2 SWAP1 PUSH2 0x1F16 JUMP JUMPDEST PUSH1 0x40 MLOAD DUP1 SWAP2 SUB SWAP1 LOG3 PUSH2 0x1E3D PUSH1 0x0 DUP4 DUP4 PUSH2 0x1E46 JUMP JUMPDEST POP POP JUMP JUMPDEST POP POP POP JUMP JUMPDEST POP POP POP JUMP JUMPDEST PUSH1 0x0 DUP2 MLOAD SWAP1 POP SWAP2 SWAP1 POP JUMP JUMPDEST PUSH1 0x0 DUP3 DUP3 MSTORE PUSH1 0x20 DUP3 ADD SWAP1 POP SWAP3 SWAP2 POP POP JUMP JUMPDEST PUSH1 0x0 JUMPDEST DUP4 DUP2 LT ISZERO PUSH2 0x1E85 JUMPI DUP1 DUP3 ADD MLOAD DUP2 DUP5 ADD MSTORE PUSH1 0x20 DUP2 ADD SWAP1 POP PUSH2 0x1E6A JUMP JUMPDEST PUSH1 0x0 DUP5 DUP5 ADD MSTORE POP POP POP POP JUMP JUMPDEST PUSH1 0x0 PUSH1 0x1F NOT PUSH1 0x1F DUP4 ADD AND SWAP1 POP SWAP2 SWAP1 POP JUMP JUMPDEST PUSH1 0x0 PUSH2 0x1EAD DUP3 PUSH2 0x1E4B JUMP JUMPDEST PUSH2 0x1EB7 DUP2 DUP6 PUSH2 0x1E56 JUMP JUMPDEST SWAP4 POP PUSH2 0x1EC7 DUP2 DUP6 PUSH1 0x20 DUP7 ADD PUSH2 0x1E67 JUMP JUMPDEST PUSH2 0x1ED0 DUP2 PUSH2 0x1E91 JUMP JUMPDEST DUP5 ADD SWAP2 POP POP SWAP3 SWAP2 POP POP JUMP JUMPDEST PUSH1 0x0 PUSH1 0x20 DUP3 ADD SWAP1 POP DUP2 DUP2 SUB PUSH1 0x0 DUP4 ADD MSTORE PUSH2 0x1EF5 DUP2 DUP5 PUSH2 0x1EA2 JUMP JUMPDEST SWAP1 POP SWAP3 SWAP2 POP POP JUMP JUMPDEST PUSH1 0x0 DUP2 SWAP1 POP SWAP2 SWAP1 POP JUMP JUMPDEST PUSH2 0x1F10 DUP2 PUSH2 0x1EFD JUMP JUMPDEST DUP3 MSTORE POP POP JUMP JUMPDEST PUSH1 0x0 PUSH1 0x20 DUP3 ADD SWAP1 POP PUSH2 0x1F2B PUSH1 0x0 DUP4 ADD DUP5 PUSH2 0x1F07 JUMP JUMPDEST SWAP3 SWAP2 POP POP JUMP JUMPDEST PUSH1 0x0 PUSH1 0x40 MLOAD SWAP1 POP SWAP1 JUMP JUMPDEST PUSH1 0x0 DUP1 REVERT JUMPDEST PUSH1 0x0 DUP1 REVERT JUMPDEST PUSH1 0x0 PUSH20 0xFFFFFFFFFFFFFFFFFFFFFFFFFFFFFFFFFFFFFFFF DUP3 AND SWAP1 POP SWAP2 SWAP1 POP JUMP JUMPDEST PUSH1 0x0 PUSH2 0x1F70 DUP3 PUSH2 0x1F45 JUMP JUMPDEST SWAP1 POP SWAP2 SWAP1 POP JUMP JUMPDEST PUSH2 0x1F80 DUP2 PUSH2 0x1F65 JUMP JUMPDEST DUP2 EQ PUSH2 0x1F8B JUMPI PUSH1 0x0 DUP1 REVERT JUMPDEST POP JUMP JUMPDEST PUSH1 0x0 DUP2 CALLDATALOAD SWAP1 POP PUSH2 0x1F9D DUP2 PUSH2 0x1F77 JUMP JUMPDEST SWAP3 SWAP2 POP POP JUMP JUMPDEST PUSH2 0x1FAC DUP2 PUSH2 0x1EFD JUMP JUMPDEST DUP2 EQ PUSH2 0x1FB7 JUMPI PUSH1 0x0 DUP1 REVERT JUMPDEST POP JUMP JUMPDEST PUSH1 0x0 DUP2 CALLDATALOAD SWAP1 POP PUSH2 0x1FC9 DUP2 PUSH2 0x1FA3 JUMP JUMPDEST SWAP3 SWAP2 POP POP JUMP JUMPDEST PUSH1 0x0 DUP1 PUSH1 0x40 DUP4 DUP6 SUB SLT ISZERO PUSH2 0x1FE6 JUMPI PUSH2 0x1FE5 PUSH2 0x1F3B JUMP JUMPDEST JUMPDEST PUSH1 0x0 PUSH2 0x1FF4 DUP6 DUP3 DUP7 ADD PUSH2 0x1F8E JUMP JUMPDEST SWAP3 POP POP PUSH1 0x20 PUSH2 0x2005 DUP6 DUP3 DUP7 ADD PUSH2 0x1FBA JUMP JUMPDEST SWAP2 POP POP SWAP3 POP SWAP3 SWAP1 POP JUMP JUMPDEST PUSH1 0x0 DUP2 ISZERO ISZERO SWAP1 POP SWAP2 SWAP1 POP JUMP JUMPDEST PUSH2 0x2024 DUP2 PUSH2 0x200F JUMP JUMPDEST DUP3 MSTORE POP POP JUMP JUMPDEST PUSH1 0x0 PUSH1 0x20 DUP3 ADD SWAP1 POP PUSH2 0x203F PUSH1 0x0 DUP4 ADD DUP5 PUSH2 0x201B JUMP JUMPDEST SWAP3 SWAP2 POP POP JUMP JUMPDEST PUSH1 0x0 PUSH1 0x20 DUP3 DUP5 SUB SLT ISZERO PUSH2 0x205B JUMPI PUSH2 0x205A PUSH2 0x1F3B JUMP JUMPDEST JUMPDEST PUSH1 0x0 PUSH2 0x2069 DUP5 DUP3 DUP6 ADD PUSH2 0x1F8E JUMP JUMPDEST SWAP2 POP POP SWAP3 SWAP2 POP POP JUMP JUMPDEST PUSH1 0x0 DUP1 PUSH1 0x0 PUSH1 0x60 DUP5 DUP7 SUB SLT ISZERO PUSH2 0x208B JUMPI PUSH2 0x208A PUSH2 0x1F3B JUMP JUMPDEST JUMPDEST PUSH1 0x0 PUSH2 0x2099 DUP7 DUP3 DUP8 ADD PUSH2 0x1F8E JUMP JUMPDEST SWAP4 POP POP PUSH1 0x20 PUSH2 0x20AA DUP7 DUP3 DUP8 ADD PUSH2 0x1F8E JUMP JUMPDEST SWAP3 POP POP PUSH1 0x40 PUSH2 0x20BB DUP7 DUP3 DUP8 ADD PUSH2 0x1FBA JUMP JUMPDEST SWAP2 POP POP SWAP3 POP SWAP3 POP SWAP3 JUMP JUMPDEST PUSH1 0x0 DUP1 REVERT JUMPDEST PUSH1 0x0 DUP1 REVERT JUMPDEST PUSH32 0x4E487B7100000000000000000000000000000000000000000000000000000000 PUSH1 0x0 MSTORE PUSH1 0x41 PUSH1 0x4 MSTORE PUSH1 0x24 PUSH1 0x0 REVERT JUMPDEST PUSH2 0x2107 DUP3 PUSH2 0x1E91 JUMP JUMPDEST DUP2 ADD DUP2 DUP2 LT PUSH8 0xFFFFFFFFFFFFFFFF DUP3 GT OR ISZERO PUSH2 0x2126 JUMPI PUSH2 0x2125 PUSH2 0x20CF JUMP JUMPDEST JUMPDEST DUP1 PUSH1 0x40 MSTORE POP POP POP JUMP JUMPDEST PUSH1 0x0 PUSH2 0x2139 PUSH2 0x1F31 JUMP JUMPDEST SWAP1 POP PUSH2 0x2145 DUP3 DUP3 PUSH2 0x20FE JUMP JUMPDEST SWAP2 SWAP1 POP JUMP JUMPDEST PUSH1 0x0 PUSH8 0xFFFFFFFFFFFFFFFF DUP3 GT ISZERO PUSH2 0x2165 JUMPI PUSH2 0x2164 PUSH2 0x20CF JUMP JUMPDEST JUMPDEST PUSH2 0x216E DUP3 PUSH2 0x1E91 JUMP JUMPDEST SWAP1 POP PUSH1 0x20 DUP2 ADD SWAP1 POP SWAP2 SWAP1 POP JUMP JUMPDEST DUP3 DUP2 DUP4 CALLDATACOPY PUSH1 0x0 DUP4 DUP4 ADD MSTORE POP POP POP JUMP JUMPDEST PUSH1 0x0 PUSH2 0x219D PUSH2 0x2198 DUP5 PUSH2 0x214A JUMP JUMPDEST PUSH2 0x212F JUMP JUMPDEST SWAP1 POP DUP3 DUP2 MSTORE PUSH1 0x20 DUP2 ADD DUP5 DUP5 DUP5 ADD GT ISZERO PUSH2 0x21B9 JUMPI PUSH2 0x21B8 PUSH2 0x20CA JUMP JUMPDEST JUMPDEST PUSH2 0x21C4 DUP5 DUP3 DUP6 PUSH2 0x217B JUMP JUMPDEST POP SWAP4 SWAP3 POP POP POP JUMP JUMPDEST PUSH1 0x0 DUP3 PUSH1 0x1F DUP4 ADD SLT PUSH2 0x21E1 JUMPI PUSH2 0x21E0 PUSH2 0x20C5 JUMP JUMPDEST JUMPDEST DUP2 CALLDATALOAD PUSH2 0x21F1 DUP5 DUP3 PUSH1 0x20 DUP7 ADD PUSH2 0x218A JUMP JUMPDEST SWAP2 POP POP SWAP3 SWAP2 POP POP JUMP JUMPDEST PUSH1 0x0 PUSH1 0x20 DUP3 DUP5 SUB SLT ISZERO PUSH2 0x2210 JUMPI PUSH2 0x220F PUSH2 0x1F3B JUMP JUMPDEST JUMPDEST PUSH1 0x0 DUP3 ADD CALLDATALOAD PUSH8 0xFFFFFFFFFFFFFFFF DUP2 GT ISZERO PUSH2 0x222E JUMPI PUSH2 0x222D PUSH2 0x1F40 JUMP JUMPDEST JUMPDEST PUSH2 0x223A DUP5 DUP3 DUP6 ADD PUSH2 0x21CC JUMP JUMPDEST SWAP2 POP POP SWAP3 SWAP2 POP POP JUMP JUMPDEST PUSH2 0x224C DUP2 PUSH2 0x1F65 JUMP JUMPDEST DUP3 MSTORE POP POP JUMP JUMPDEST PUSH1 0x0 PUSH1 0x20 DUP3 ADD SWAP1 POP PUSH2 0x2267 PUSH1 0x0 DUP4 ADD DUP5 PUSH2 0x2243 JUMP JUMPDEST SWAP3 SWAP2 POP POP JUMP JUMPDEST PUSH1 0x0 PUSH1 0xFF DUP3 AND SWAP1 POP SWAP2 SWAP1 POP JUMP JUMPDEST PUSH2 0x2283 DUP2 PUSH2 0x226D JUMP JUMPDEST DUP3 MSTORE POP POP JUMP JUMPDEST PUSH1 0x0 PUSH1 0x20 DUP3 ADD SWAP1 POP PUSH2 0x229E PUSH1 0x0 DUP4 ADD DUP5 PUSH2 0x227A JUMP JUMPDEST SWAP3 SWAP2 POP POP JUMP JUMPDEST PUSH2 0x22AD DUP2 PUSH2 0x200F JUMP JUMPDEST DUP2 EQ PUSH2 0x22B8 JUMPI PUSH1 0x0 DUP1 REVERT JUMPDEST POP JUMP JUMPDEST PUSH1 0x0 DUP2 CALLDATALOAD SWAP1 POP PUSH2 0x22CA DUP2 PUSH2 0x22A4 JUMP JUMPDEST SWAP3 SWAP2 POP POP JUMP JUMPDEST PUSH1 0x0 DUP1 PUSH1 0x40 DUP4 DUP6 SUB SLT ISZERO PUSH2 0x22E7 JUMPI PUSH2 0x22E6 PUSH2 0x1F3B JUMP JUMPDEST JUMPDEST PUSH1 0x0 PUSH2 0x22F5 DUP6 DUP3 DUP7 ADD PUSH2 0x1F8E JUMP JUMPDEST SWAP3 POP POP PUSH1 0x20 PUSH2 0x2306 DUP6 DUP3 DUP7 ADD PUSH2 0x22BB JUMP JUMPDEST SWAP2 POP POP SWAP3 POP SWAP3 SWAP1 POP JUMP JUMPDEST PUSH1 0x0 PUSH1 0x60 DUP3 ADD SWAP1 POP PUSH2 0x2325 PUSH1 0x0 DUP4 ADD DUP7 PUSH2 0x1F07 JUMP JUMPDEST PUSH2 0x2332 PUSH1 0x20 DUP4 ADD DUP6 PUSH2 0x1F07 JUMP JUMPDEST PUSH2 0x233F PUSH1 0x40 DUP4 ADD DUP5 PUSH2 0x1F07 JUMP JUMPDEST SWAP5 SWAP4 POP POP POP POP JUMP JUMPDEST PUSH1 0x0 PUSH1 0x20 DUP3 DUP5 SUB SLT ISZERO PUSH2 0x235D JUMPI PUSH2 0x235C PUSH2 0x1F3B JUMP JUMPDEST JUMPDEST PUSH1 0x0 PUSH2 0x236B DUP5 DUP3 DUP6 ADD PUSH2 0x1FBA JUMP JUMPDEST SWAP2 POP POP SWAP3 SWAP2 POP POP JUMP JUMPDEST PUSH1 0x0 DUP1 PUSH1 0x40 DUP4 DUP6 SUB SLT ISZERO PUSH2 0x238B JUMPI PUSH2 0x238A PUSH2 0x1F3B JUMP JUMPDEST JUMPDEST PUSH1 0x0 PUSH2 0x2399 DUP6 DUP3 DUP7 ADD PUSH2 0x1F8E JUMP JUMPDEST SWAP3 POP POP PUSH1 0x20 PUSH2 0x23AA DUP6 DUP3 DUP7 ADD PUSH2 0x1F8E JUMP JUMPDEST SWAP2 POP POP SWAP3 POP SWAP3 SWAP1 POP JUMP JUMPDEST PUSH32 0x4E487B7100000000000000000000000000000000000000000000000000000000 PUSH1 0x0 MSTORE PUSH1 0x22 PUSH1 0x4 MSTORE PUSH1 0x24 PUSH1 0x0 REVERT JUMPDEST PUSH1 0x0 PUSH1 0x2 DUP3 DIV SWAP1 POP PUSH1 0x1 DUP3 AND DUP1 PUSH2 0x23FB JUMPI PUSH1 0x7F DUP3 AND SWAP2 POP JUMPDEST PUSH1 0x20 DUP3 LT DUP2 SUB PUSH2 0x240E JUMPI PUSH2 0x240D PUSH2 0x23B4 JUMP JUMPDEST JUMPDEST POP SWAP2 SWAP1 POP JUMP JUMPDEST PUSH32 0x4E4F544F4B454E53000000000000000000000000000000000000000000000000 PUSH1 0x0 DUP3 ADD MSTORE POP JUMP JUMPDEST PUSH1 0x0 PUSH2 0x244A PUSH1 0x8 DUP4 PUSH2 0x1E56 JUMP JUMPDEST SWAP2 POP PUSH2 0x2455 DUP3 PUSH2 0x2414 JUMP JUMPDEST PUSH1 0x20 DUP3 ADD SWAP1 POP SWAP2 SWAP1 POP JUMP JUMPDEST PUSH1 0x0 PUSH1 0x20 DUP3 ADD SWAP1 POP DUP2 DUP2 SUB PUSH1 0x0 DUP4 ADD MSTORE PUSH2 0x2479 DUP2 PUSH2 0x243D JUMP JUMPDEST SWAP1 POP SWAP2 SWAP1 POP JUMP JUMPDEST PUSH32 0x54494D4549534F56455200000000000000000000000000000000000000000000 PUSH1 0x0 DUP3 ADD MSTORE POP JUMP JUMPDEST PUSH1 0x0 PUSH2 0x24B6 PUSH1 0xA DUP4 PUSH2 0x1E56 JUMP JUMPDEST SWAP2 POP PUSH2 0x24C1 DUP3 PUSH2 0x2480 JUMP JUMPDEST PUSH1 0x20 DUP3 ADD SWAP1 POP SWAP2 SWAP1 POP JUMP JUMPDEST PUSH1 0x0 PUSH1 0x20 DUP3 ADD SWAP1 POP DUP2 DUP2 SUB PUSH1 0x0 DUP4 ADD MSTORE PUSH2 0x24E5 DUP2 PUSH2 0x24A9 JUMP JUMPDEST SWAP1 POP SWAP2 SWAP1 POP JUMP JUMPDEST PUSH32 0x434C41494D4F4E43450000000000000000000000000000000000000000000000 PUSH1 0x0 DUP3 ADD MSTORE POP JUMP JUMPDEST PUSH1 0x0 PUSH2 0x2522 PUSH1 0x9 DUP4 PUSH2 0x1E56 JUMP JUMPDEST SWAP2 POP PUSH2 0x252D DUP3 PUSH2 0x24EC JUMP JUMPDEST PUSH1 0x20 DUP3 ADD SWAP1 POP SWAP2 SWAP1 POP JUMP JUMPDEST PUSH1 0x0 PUSH1 0x20 DUP3 ADD SWAP1 POP DUP2 DUP2 SUB PUSH1 0x0 DUP4 ADD MSTORE PUSH2 0x2551 DUP2 PUSH2 0x2515 JUMP JUMPDEST SWAP1 POP SWAP2 SWAP1 POP JUMP JUMPDEST PUSH32 0x4E487B7100000000000000000000000000000000000000000000000000000000 PUSH1 0x0 MSTORE PUSH1 0x11 PUSH1 0x4 MSTORE PUSH1 0x24 PUSH1 0x0 REVERT JUMPDEST PUSH1 0x0 PUSH2 0x2592 DUP3 PUSH2 0x1EFD JUMP JUMPDEST SWAP2 POP PUSH2 0x259D DUP4 PUSH2 0x1EFD JUMP JUMPDEST SWAP3 POP DUP3 DUP3 SUB SWAP1 POP DUP2 DUP2 GT ISZERO PUSH2 0x25B5 JUMPI PUSH2 0x25B4 PUSH2 0x2558 JUMP JUMPDEST JUMPDEST SWAP3 SWAP2 POP POP JUMP JUMPDEST PUSH1 0x0 DUP2 SWAP1 POP SWAP3 SWAP2 POP POP JUMP JUMPDEST PUSH32 0x19457468657265756D205369676E6564204D6573736167653A0A333200000000 PUSH1 0x0 DUP3 ADD MSTORE POP JUMP JUMPDEST PUSH1 0x0 PUSH2 0x25FC PUSH1 0x1C DUP4 PUSH2 0x25BB JUMP JUMPDEST SWAP2 POP PUSH2 0x2607 DUP3 PUSH2 0x25C6 JUMP JUMPDEST PUSH1 0x1C DUP3 ADD SWAP1 POP SWAP2 SWAP1 POP JUMP JUMPDEST PUSH1 0x0 DUP2 SWAP1 POP SWAP2 SWAP1 POP JUMP JUMPDEST PUSH1 0x0 DUP2 SWAP1 POP SWAP2 SWAP1 POP JUMP JUMPDEST PUSH2 0x2637 PUSH2 0x2632 DUP3 PUSH2 0x2612 JUMP JUMPDEST PUSH2 0x261C JUMP JUMPDEST DUP3 MSTORE POP POP JUMP JUMPDEST PUSH1 0x0 PUSH2 0x2648 DUP3 PUSH2 0x25EF JUMP JUMPDEST SWAP2 POP PUSH2 0x2654 DUP3 DUP5 PUSH2 0x2626 JUMP JUMPDEST PUSH1 0x20 DUP3 ADD SWAP2 POP DUP2 SWAP1 POP SWAP3 SWAP2 POP POP JUMP JUMPDEST PUSH2 0x266C DUP2 PUSH2 0x2612 JUMP JUMPDEST DUP2 EQ PUSH2 0x2677 JUMPI PUSH1 0x0 DUP1 REVERT JUMPDEST POP JUMP JUMPDEST PUSH1 0x0 DUP2 MLOAD SWAP1 POP PUSH2 0x2689 DUP2 PUSH2 0x2663 JUMP JUMPDEST SWAP3 SWAP2 POP POP JUMP JUMPDEST PUSH2 0x2698 DUP2 PUSH2 0x226D JUMP JUMPDEST DUP2 EQ PUSH2 0x26A3 JUMPI PUSH1 0x0 DUP1 REVERT JUMPDEST POP JUMP JUMPDEST PUSH1 0x0 DUP2 MLOAD SWAP1 POP PUSH2 0x26B5 DUP2 PUSH2 0x268F JUMP JUMPDEST SWAP3 SWAP2 POP POP JUMP JUMPDEST PUSH1 0x0 DUP1 PUSH1 0x0 PUSH1 0x60 DUP5 DUP7 SUB SLT ISZERO PUSH2 0x26D4 JUMPI PUSH2 0x26D3 PUSH2 0x1F3B JUMP JUMPDEST JUMPDEST PUSH1 0x0 PUSH2 0x26E2 DUP7 DUP3 DUP8 ADD PUSH2 0x267A JUMP JUMPDEST SWAP4 POP POP PUSH1 0x20 PUSH2 0x26F3 DUP7 DUP3 DUP8 ADD PUSH2 0x267A JUMP JUMPDEST SWAP3 POP POP PUSH1 0x40 PUSH2 0x2704 DUP7 DUP3 DUP8 ADD PUSH2 0x26A6 JUMP JUMPDEST SWAP2 POP POP SWAP3 POP SWAP3 POP SWAP3 JUMP JUMPDEST PUSH2 0x2717 DUP2 PUSH2 0x2612 JUMP JUMPDEST DUP3 MSTORE POP POP JUMP JUMPDEST PUSH1 0x0 PUSH1 0x80 DUP3 ADD SWAP1 POP PUSH2 0x2732 PUSH1 0x0 DUP4 ADD DUP8 PUSH2 0x270E JUMP JUMPDEST PUSH2 0x273F PUSH1 0x20 DUP4 ADD DUP7 PUSH2 0x227A JUMP JUMPDEST PUSH2 0x274C PUSH1 0x40 DUP4 ADD DUP6 PUSH2 0x270E JUMP JUMPDEST PUSH2 0x2759 PUSH1 0x60 DUP4 ADD DUP5 PUSH2 0x270E JUMP JUMPDEST SWAP6 SWAP5 POP POP POP POP POP JUMP JUMPDEST PUSH1 0x0 PUSH2 0x276D DUP3 PUSH2 0x1EFD JUMP JUMPDEST SWAP2 POP PUSH2 0x2778 DUP4 PUSH2 0x1EFD JUMP JUMPDEST SWAP3 POP DUP3 DUP3 ADD SWAP1 POP DUP1 DUP3 GT ISZERO PUSH2 0x2790 JUMPI PUSH2 0x278F PUSH2 0x2558 JUMP JUMPDEST JUMPDEST SWAP3 SWAP2 POP POP JUMP JUMPDEST PUSH32 0x4F4E4C594F574E45520000000000000000000000000000000000000000000000 PUSH1 0x0 DUP3 ADD MSTORE POP JUMP JUMPDEST PUSH1 0x0 PUSH2 0x27CC PUSH1 0x9 DUP4 PUSH2 0x1E56 JUMP JUMPDEST SWAP2 POP PUSH2 0x27D7 DUP3 PUSH2 0x2796 JUMP JUMPDEST PUSH1 0x20 DUP3 ADD SWAP1 POP SWAP2 SWAP1 POP JUMP JUMPDEST PUSH1 0x0 PUSH1 0x20 DUP3 ADD SWAP1 POP DUP2 DUP2 SUB PUSH1 0x0 DUP4 ADD MSTORE PUSH2 0x27FB DUP2 PUSH2 0x27BF JUMP JUMPDEST SWAP1 POP SWAP2 SWAP1 POP JUMP JUMPDEST PUSH32 0x4D41584C494D4954000000000000000000000000000000000000000000000000 PUSH1 0x0 DUP3 ADD MSTORE POP JUMP JUMPDEST PUSH1 0x0 PUSH2 0x2838 PUSH1 0x8 DUP4 PUSH2 0x1E56 JUMP JUMPDEST SWAP2 POP PUSH2 0x2843 DUP3 PUSH2 0x2802 JUMP JUMPDEST PUSH1 0x20 DUP3 ADD SWAP1 POP SWAP2 SWAP1 POP JUMP JUMPDEST PUSH1 0x0 PUSH1 0x20 DUP3 ADD SWAP1 POP DUP2 DUP2 SUB PUSH1 0x0 DUP4 ADD MSTORE PUSH2 0x2867 DUP2 PUSH2 0x282B JUMP JUMPDEST SWAP1 POP SWAP2 SWAP1 POP JUMP JUMPDEST PUSH32 0x4D494E5052494345000000000000000000000000000000000000000000000000 PUSH1 0x0 DUP3 ADD MSTORE POP JUMP JUMPDEST PUSH1 0x0 PUSH2 0x28A4 PUSH1 0x8 DUP4 PUSH2 0x1E56 JUMP JUMPDEST SWAP2 POP PUSH2 0x28AF DUP3 PUSH2 0x286E JUMP JUMPDEST PUSH1 0x20 DUP3 ADD SWAP1 POP SWAP2 SWAP1 POP JUMP JUMPDEST PUSH1 0x0 PUSH1 0x20 DUP3 ADD SWAP1 POP DUP2 DUP2 SUB PUSH1 0x0 DUP4 ADD MSTORE PUSH2 0x28D3 DUP2 PUSH2 0x2897 JUMP JUMPDEST SWAP1 POP SWAP2 SWAP1 POP JUMP JUMPDEST PUSH32 0x5550504552424F554E4400000000000000000000000000000000000000000000 PUSH1 0x0 DUP3 ADD MSTORE POP JUMP JUMPDEST PUSH1 0x0 PUSH2 0x2910 PUSH1 0xA DUP4 PUSH2 0x1E56 JUMP JUMPDEST SWAP2 POP PUSH2 0x291B DUP3 PUSH2 0x28DA JUMP JUMPDEST PUSH1 0x20 DUP3 ADD SWAP1 POP SWAP2 SWAP1 POP JUMP JUMPDEST PUSH1 0x0 PUSH1 0x20 DUP3 ADD SWAP1 POP DUP2 DUP2 SUB PUSH1 0x0 DUP4 ADD MSTORE PUSH2 0x293F DUP2 PUSH2 0x2903 JUMP JUMPDEST SWAP1 POP SWAP2 SWAP1 POP JUMP JUMPDEST PUSH32 0x4E487B7100000000000000000000000000000000000000000000000000000000 PUSH1 0x0 MSTORE PUSH1 0x12 PUSH1 0x4 MSTORE PUSH1 0x24 PUSH1 0x0 REVERT JUMPDEST PUSH1 0x0 PUSH2 0x2980 DUP3 PUSH2 0x1EFD JUMP JUMPDEST SWAP2 POP PUSH2 0x298B DUP4 PUSH2 0x1EFD JUMP JUMPDEST SWAP3 POP DUP3 PUSH2 0x299B JUMPI PUSH2 0x299A PUSH2 0x2946 JUMP JUMPDEST JUMPDEST DUP3 DUP3 DIV SWAP1 POP SWAP3 SWAP2 POP POP JUMP JUMPDEST PUSH1 0x0 PUSH2 0x29B1 DUP3 PUSH2 0x1EFD JUMP JUMPDEST SWAP2 POP PUSH2 0x29BC DUP4 PUSH2 0x1EFD JUMP JUMPDEST SWAP3 POP DUP3 DUP3 MUL PUSH2 0x29CA DUP2 PUSH2 0x1EFD JUMP JUMPDEST SWAP2 POP DUP3 DUP3 DIV DUP5 EQ DUP4 ISZERO OR PUSH2 0x29E1 JUMPI PUSH2 0x29E0 PUSH2 0x2558 JUMP JUMPDEST JUMPDEST POP SWAP3 SWAP2 POP POP JUMP JUMPDEST PUSH1 0x0 DUP2 SWAP1 POP SWAP3 SWAP2 POP POP JUMP JUMPDEST POP JUMP JUMPDEST PUSH1 0x0 PUSH2 0x2A03 PUSH1 0x0 DUP4 PUSH2 0x29E8 JUMP JUMPDEST SWAP2 POP PUSH2 0x2A0E DUP3 PUSH2 0x29F3 JUMP JUMPDEST PUSH1 0x0 DUP3 ADD SWAP1 POP SWAP2 SWAP1 POP JUMP JUMPDEST PUSH1 0x0 PUSH2 0x2A24 DUP3 PUSH2 0x29F6 JUMP JUMPDEST SWAP2 POP DUP2 SWAP1 POP SWAP2 SWAP1 POP JUMP JUMPDEST PUSH32 0x494E56414C534947000000000000000000000000000000000000000000000000 PUSH1 0x0 DUP3 ADD MSTORE POP JUMP JUMPDEST PUSH1 0x0 PUSH2 0x2A64 PUSH1 0x8 DUP4 PUSH2 0x1E56 JUMP JUMPDEST SWAP2 POP PUSH2 0x2A6F DUP3 PUSH2 0x2A2E JUMP JUMPDEST PUSH1 0x20 DUP3 ADD SWAP1 POP SWAP2 SWAP1 POP JUMP JUMPDEST PUSH1 0x0 PUSH1 0x20 DUP3 ADD SWAP1 POP DUP2 DUP2 SUB PUSH1 0x0 DUP4 ADD MSTORE PUSH2 0x2A93 DUP2 PUSH2 0x2A57 JUMP JUMPDEST SWAP1 POP SWAP2 SWAP1 POP JUMP JUMPDEST PUSH1 0x0 PUSH1 0x40 DUP3 ADD SWAP1 POP PUSH2 0x2AAF PUSH1 0x0 DUP4 ADD DUP6 PUSH2 0x1F07 JUMP JUMPDEST PUSH2 0x2ABC PUSH1 0x20 DUP4 ADD DUP5 PUSH2 0x1F07 JUMP JUMPDEST SWAP4 SWAP3 POP POP POP JUMP JUMPDEST PUSH32 0x45524332303A2064656372656173656420616C6C6F77616E63652062656C6F77 PUSH1 0x0 DUP3 ADD MSTORE PUSH32 0x207A65726F000000000000000000000000000000000000000000000000000000 PUSH1 0x20 DUP3 ADD MSTORE POP JUMP JUMPDEST PUSH1 0x0 PUSH2 0x2B1F PUSH1 0x25 DUP4 PUSH2 0x1E56 JUMP JUMPDEST SWAP2 POP PUSH2 0x2B2A DUP3 PUSH2 0x2AC3 JUMP JUMPDEST PUSH1 0x40 DUP3 ADD SWAP1 POP SWAP2 SWAP1 POP JUMP JUMPDEST PUSH1 0x0 PUSH1 0x20 DUP3 ADD SWAP1 POP DUP2 DUP2 SUB PUSH1 0x0 DUP4 ADD MSTORE PUSH2 0x2B4E DUP2 PUSH2 0x2B12 JUMP JUMPDEST SWAP1 POP SWAP2 SWAP1 POP JUMP JUMPDEST PUSH32 0x4F4E4C594F574E4552435245415445504F4F4C00000000000000000000000000 PUSH1 0x0 DUP3 ADD MSTORE POP JUMP JUMPDEST PUSH1 0x0 PUSH2 0x2B8B PUSH1 0x13 DUP4 PUSH2 0x1E56 JUMP JUMPDEST SWAP2 POP PUSH2 0x2B96 DUP3 PUSH2 0x2B55 JUMP JUMPDEST PUSH1 0x20 DUP3 ADD SWAP1 POP SWAP2 SWAP1 POP JUMP JUMPDEST PUSH1 0x0 PUSH1 0x20 DUP3 ADD SWAP1 POP DUP2 DUP2 SUB PUSH1 0x0 DUP4 ADD MSTORE PUSH2 0x2BBA DUP2 PUSH2 0x2B7E JUMP JUMPDEST SWAP1 POP SWAP2 SWAP1 POP JUMP JUMPDEST PUSH32 0x5541424C00000000000000000000000000000000000000000000000000000000 PUSH1 0x0 DUP3 ADD MSTORE POP JUMP JUMPDEST PUSH1 0x0 PUSH2 0x2BF7 PUSH1 0x4 DUP4 PUSH2 0x1E56 JUMP JUMPDEST SWAP2 POP PUSH2 0x2C02 DUP3 PUSH2 0x2BC1 JUMP JUMPDEST PUSH1 0x20 DUP3 ADD SWAP1 POP SWAP2 SWAP1 POP JUMP JUMPDEST PUSH1 0x0 PUSH1 0x20 DUP3 ADD SWAP1 POP DUP2 DUP2 SUB PUSH1 0x0 DUP4 ADD MSTORE PUSH2 0x2C26 DUP2 PUSH2 0x2BEA JUMP JUMPDEST SWAP1 POP SWAP2 SWAP1 POP JUMP JUMPDEST PUSH32 0x45524332303A20617070726F76652066726F6D20746865207A65726F20616464 PUSH1 0x0 DUP3 ADD MSTORE PUSH32 0x7265737300000000000000000000000000000000000000000000000000000000 PUSH1 0x20 DUP3 ADD MSTORE POP JUMP JUMPDEST PUSH1 0x0 PUSH2 0x2C89 PUSH1 0x24 DUP4 PUSH2 0x1E56 JUMP JUMPDEST SWAP2 POP PUSH2 0x2C94 DUP3 PUSH2 0x2C2D JUMP JUMPDEST PUSH1 0x40 DUP3 ADD SWAP1 POP SWAP2 SWAP1 POP JUMP JUMPDEST PUSH1 0x0 PUSH1 0x20 DUP3 ADD SWAP1 POP DUP2 DUP2 SUB PUSH1 0x0 DUP4 ADD MSTORE PUSH2 0x2CB8 DUP2 PUSH2 0x2C7C JUMP JUMPDEST SWAP1 POP SWAP2 SWAP1 POP JUMP JUMPDEST PUSH32 0x45524332303A20617070726F766520746F20746865207A65726F206164647265 PUSH1 0x0 DUP3 ADD MSTORE PUSH32 0x7373000000000000000000000000000000000000000000000000000000000000 PUSH1 0x20 DUP3 ADD MSTORE POP JUMP JUMPDEST PUSH1 0x0 PUSH2 0x2D1B PUSH1 0x22 DUP4 PUSH2 0x1E56 JUMP JUMPDEST SWAP2 POP PUSH2 0x2D26 DUP3 PUSH2 0x2CBF JUMP JUMPDEST PUSH1 0x40 DUP3 ADD SWAP1 POP SWAP2 SWAP1 POP JUMP JUMPDEST PUSH1 0x0 PUSH1 0x20 DUP3 ADD SWAP1 POP DUP2 DUP2 SUB PUSH1 0x0 DUP4 ADD MSTORE PUSH2 0x2D4A DUP2 PUSH2 0x2D0E JUMP JUMPDEST SWAP1 POP SWAP2 SWAP1 POP JUMP JUMPDEST PUSH32 0x45524332303A207472616E736665722066726F6D20746865207A65726F206164 PUSH1 0x0 DUP3 ADD MSTORE PUSH32 0x6472657373000000000000000000000000000000000000000000000000000000 PUSH1 0x20 DUP3 ADD MSTORE POP JUMP JUMPDEST PUSH1 0x0 PUSH2 0x2DAD PUSH1 0x25 DUP4 PUSH2 0x1E56 JUMP JUMPDEST SWAP2 POP PUSH2 0x2DB8 DUP3 PUSH2 0x2D51 JUMP JUMPDEST PUSH1 0x40 DUP3 ADD SWAP1 POP SWAP2 SWAP1 POP JUMP JUMPDEST PUSH1 0x0 PUSH1 0x20 DUP3 ADD SWAP1 POP DUP2 DUP2 SUB PUSH1 0x0 DUP4 ADD MSTORE PUSH2 0x2DDC DUP2 PUSH2 0x2DA0 JUMP JUMPDEST SWAP1 POP SWAP2 SWAP1 POP JUMP JUMPDEST PUSH32 0x45524332303A207472616E7366657220746F20746865207A65726F2061646472 PUSH1 0x0 DUP3 ADD MSTORE PUSH32 0x6573730000000000000000000000000000000000000000000000000000000000 PUSH1 0x20 DUP3 ADD MSTORE POP JUMP JUMPDEST PUSH1 0x0 PUSH2 0x2E3F PUSH1 0x23 DUP4 PUSH2 0x1E56 JUMP JUMPDEST SWAP2 POP PUSH2 0x2E4A DUP3 PUSH2 0x2DE3 JUMP JUMPDEST PUSH1 0x40 DUP3 ADD SWAP1 POP SWAP2 SWAP1 POP JUMP JUMPDEST PUSH1 0x0 PUSH1 0x20 DUP3 ADD SWAP1 POP DUP2 DUP2 SUB PUSH1 0x0 DUP4 ADD MSTORE PUSH2 0x2E6E DUP2 PUSH2 0x2E32 JUMP JUMPDEST SWAP1 POP SWAP2 SWAP1 POP JUMP JUMPDEST PUSH32 0x45524332303A207472616E7366657220616D6F756E7420657863656564732062 PUSH1 0x0 DUP3 ADD MSTORE PUSH32 0x616C616E63650000000000000000000000000000000000000000000000000000 PUSH1 0x20 DUP3 ADD MSTORE POP JUMP JUMPDEST PUSH1 0x0 PUSH2 0x2ED1 PUSH1 0x26 DUP4 PUSH2 0x1E56 JUMP JUMPDEST SWAP2 POP PUSH2 0x2EDC DUP3 PUSH2 0x2E75 JUMP JUMPDEST PUSH1 0x40 DUP3 ADD SWAP1 POP SWAP2 SWAP1 POP JUMP JUMPDEST PUSH1 0x0 PUSH1 0x20 DUP3 ADD SWAP1 POP DUP2 DUP2 SUB PUSH1 0x0 DUP4 ADD MSTORE PUSH2 0x2F00 DUP2 PUSH2 0x2EC4 JUMP JUMPDEST SWAP1 POP SWAP2 SWAP1 POP JUMP JUMPDEST PUSH32 0x45524332303A20696E73756666696369656E7420616C6C6F77616E6365000000 PUSH1 0x0 DUP3 ADD MSTORE POP JUMP JUMPDEST PUSH1 0x0 PUSH2 0x2F3D PUSH1 0x1D DUP4 PUSH2 0x1E56 JUMP JUMPDEST SWAP2 POP PUSH2 0x2F48 DUP3 PUSH2 0x2F07 JUMP JUMPDEST PUSH1 0x20 DUP3 ADD SWAP1 POP SWAP2 SWAP1 POP JUMP JUMPDEST PUSH1 0x0 PUSH1 0x20 DUP3 ADD SWAP1 POP DUP2 DUP2 SUB PUSH1 0x0 DUP4 ADD MSTORE PUSH2 0x2F6C DUP2 PUSH2 0x2F30 JUMP JUMPDEST SWAP1 POP SWAP2 SWAP1 POP JUMP JUMPDEST PUSH32 0x45524332303A206275726E2066726F6D20746865207A65726F20616464726573 PUSH1 0x0 DUP3 ADD MSTORE PUSH32 0x7300000000000000000000000000000000000000000000000000000000000000 PUSH1 0x20 DUP3 ADD MSTORE POP JUMP JUMPDEST PUSH1 0x0 PUSH2 0x2FCF PUSH1 0x21 DUP4 PUSH2 0x1E56 JUMP JUMPDEST SWAP2 POP PUSH2 0x2FDA DUP3 PUSH2 0x2F73 JUMP JUMPDEST PUSH1 0x40 DUP3 ADD SWAP1 POP SWAP2 SWAP1 POP JUMP JUMPDEST PUSH1 0x0 PUSH1 0x20 DUP3 ADD SWAP1 POP DUP2 DUP2 SUB PUSH1 0x0 DUP4 ADD MSTORE PUSH2 0x2FFE DUP2 PUSH2 0x2FC2 JUMP JUMPDEST SWAP1 POP SWAP2 SWAP1 POP JUMP JUMPDEST PUSH32 0x45524332303A206275726E20616D6F756E7420657863656564732062616C616E PUSH1 0x0 DUP3 ADD MSTORE PUSH32 0x6365000000000000000000000000000000000000000000000000000000000000 PUSH1 0x20 DUP3 ADD MSTORE POP JUMP JUMPDEST PUSH1 0x0 PUSH2 0x3061 PUSH1 0x22 DUP4 PUSH2 0x1E56 JUMP JUMPDEST SWAP2 POP PUSH2 0x306C DUP3 PUSH2 0x3005 JUMP JUMPDEST PUSH1 0x40 DUP3 ADD SWAP1 POP SWAP2 SWAP1 POP JUMP JUMPDEST PUSH1 0x0 PUSH1 0x20 DUP3 ADD SWAP1 POP DUP2 DUP2 SUB PUSH1 0x0 DUP4 ADD MSTORE PUSH2 0x3090 DUP2 PUSH2 0x3054 JUMP JUMPDEST SWAP1 POP SWAP2 SWAP1 POP JUMP JUMPDEST PUSH32 0x45524332303A206D696E7420746F20746865207A65726F206164647265737300 PUSH1 0x0 DUP3 ADD MSTORE POP JUMP JUMPDEST PUSH1 0x0 PUSH2 0x30CD PUSH1 0x1F DUP4 PUSH2 0x1E56 JUMP JUMPDEST SWAP2 POP PUSH2 0x30D8 DUP3 PUSH2 0x3097 JUMP JUMPDEST PUSH1 0x20 DUP3 ADD SWAP1 POP SWAP2 SWAP1 POP JUMP JUMPDEST PUSH1 0x0 PUSH1 0x20 DUP3 ADD SWAP1 POP DUP2 DUP2 SUB PUSH1 0x0 DUP4 ADD MSTORE PUSH2 0x30FC DUP2 PUSH2 0x30C0 JUMP JUMPDEST SWAP1 POP SWAP2 SWAP1 POP JUMP INVALID LOG2 PUSH5 0x6970667358 0x22 SLT KECCAK256 DIV DUP7 MUL 0xC2 JUMPI DUP16 0xAB 0xC0 0xF7 0xCF 0xB6 SWAP9 SWAP7 0xD7 EXTCODECOPY CALL DELEGATECALL 0xEA 0xB0 0xDE PUSH19 0x4B7D4374B1BA94F18D4C664736F6C63430008 SLT STOP CALLER "
				},
				"gasEstimates": {
					"creation": {
						"codeDepositCost": "2520200",
						"executionCost": "infinite",
						"totalCost": "infinite"
					},
					"external": {
						"airdropPool()": "2474",
						"allowance(address,address)": "infinite",
						"amount()": "2473",
						"approve(address,uint256)": "infinite",
						"balanceOf(address)": "2909",
						"blacklist(address,bool)": "27228",
						"blacklisted(address)": "2933",
						"bought(address)": "2860",
						"burnAll(bytes)": "infinite",
						"claim(address)": "infinite",
						"decimals()": "389",
						"decreaseAllowance(address,uint256)": "infinite",
						"endTime()": "2497",
						"increaseAllowance(address,uint256)": "infinite",
						"mint(uint256)": "infinite",
						"name()": "infinite",
						"presalePool()": "2498",
						"recoverSigner(bytes)": "infinite",
						"startTime()": "2519",
						"symbol()": "infinite",
						"tokenPrice()": "2474",
						"tokenSale(address)": "infinite",
						"totalSupply()": "2483",
						"transfer(address,uint256)": "infinite",
						"transferFrom(address,address,uint256)": "infinite",
						"viewAirdrop()": "infinite",
						"viewSale()": "infinite",
						"withdrawAll()": "infinite"
					}
				},
				"methodIdentifiers": {
					"airdropPool()": "3cebff9c",
					"allowance(address,address)": "dd62ed3e",
					"amount()": "aa8c217c",
					"approve(address,uint256)": "095ea7b3",
					"balanceOf(address)": "70a08231",
					"blacklist(address,bool)": "404e5129",
					"blacklisted(address)": "dbac26e9",
					"bought(address)": "667022fd",
					"burnAll(bytes)": "91d39155",
					"claim(address)": "1e83409a",
					"decimals()": "313ce567",
					"decreaseAllowance(address,uint256)": "a457c2d7",
					"endTime()": "3197cbb6",
					"increaseAllowance(address,uint256)": "39509351",
					"mint(uint256)": "a0712d68",
					"name()": "06fdde03",
					"presalePool()": "0723fa42",
					"recoverSigner(bytes)": "2d77f07c",
					"startTime()": "78e97925",
					"symbol()": "95d89b41",
					"tokenPrice()": "7ff9b596",
					"tokenSale(address)": "6643ef9f",
					"totalSupply()": "18160ddd",
					"transfer(address,uint256)": "a9059cbb",
					"transferFrom(address,address,uint256)": "23b872dd",
					"viewAirdrop()": "d69b197f",
					"viewSale()": "4d1d03d1",
					"withdrawAll()": "853828b6"
				}
			},
			"storageLayout": {
				"storage": [
					{
						"astId": 15,
						"contract": "hehe.sol:GTEsttoken",
						"label": "_balances",
						"offset": 0,
						"slot": "0",
						"type": "t_mapping(t_address,t_uint256)"
					},
					{
						"astId": 21,
						"contract": "hehe.sol:GTEsttoken",
						"label": "_allowances",
						"offset": 0,
						"slot": "1",
						"type": "t_mapping(t_address,t_mapping(t_address,t_uint256))"
					},
					{
						"astId": 23,
						"contract": "hehe.sol:GTEsttoken",
						"label": "_totalSupply",
						"offset": 0,
						"slot": "2",
						"type": "t_uint256"
					},
					{
						"astId": 25,
						"contract": "hehe.sol:GTEsttoken",
						"label": "_name",
						"offset": 0,
						"slot": "3",
						"type": "t_string_storage"
					},
					{
						"astId": 27,
						"contract": "hehe.sol:GTEsttoken",
						"label": "_symbol",
						"offset": 0,
						"slot": "4",
						"type": "t_string_storage"
					},
					{
						"astId": 718,
						"contract": "hehe.sol:GTEsttoken",
						"label": "startTime",
						"offset": 0,
						"slot": "5",
						"type": "t_uint256"
					},
					{
						"astId": 720,
						"contract": "hehe.sol:GTEsttoken",
						"label": "endTime",
						"offset": 0,
						"slot": "6",
						"type": "t_uint256"
					},
					{
						"astId": 723,
						"contract": "hehe.sol:GTEsttoken",
						"label": "amount",
						"offset": 0,
						"slot": "7",
						"type": "t_uint256"
					},
					{
						"astId": 726,
						"contract": "hehe.sol:GTEsttoken",
						"label": "tokenPrice",
						"offset": 0,
						"slot": "8",
						"type": "t_uint256"
					},
					{
						"astId": 729,
						"contract": "hehe.sol:GTEsttoken",
						"label": "airdropPool",
						"offset": 0,
						"slot": "9",
						"type": "t_uint256"
					},
					{
						"astId": 732,
						"contract": "hehe.sol:GTEsttoken",
						"label": "presalePool",
						"offset": 0,
						"slot": "10",
						"type": "t_uint256"
					},
					{
						"astId": 734,
						"contract": "hehe.sol:GTEsttoken",
						"label": "owner1",
						"offset": 0,
						"slot": "11",
						"type": "t_address"
					},
					{
						"astId": 766,
						"contract": "hehe.sol:GTEsttoken",
						"label": "claimed",
						"offset": 0,
						"slot": "12",
						"type": "t_mapping(t_address,t_bool)"
					},
					{
						"astId": 770,
						"contract": "hehe.sol:GTEsttoken",
						"label": "bought",
						"offset": 0,
						"slot": "13",
						"type": "t_mapping(t_address,t_uint256)"
					},
					{
						"astId": 774,
						"contract": "hehe.sol:GTEsttoken",
						"label": "blacklisted",
						"offset": 0,
						"slot": "14",
						"type": "t_mapping(t_address,t_bool)"
					}
				],
				"types": {
					"t_address": {
						"encoding": "inplace",
						"label": "address",
						"numberOfBytes": "20"
					},
					"t_bool": {
						"encoding": "inplace",
						"label": "bool",
						"numberOfBytes": "1"
					},
					"t_mapping(t_address,t_bool)": {
						"encoding": "mapping",
						"key": "t_address",
						"label": "mapping(address => bool)",
						"numberOfBytes": "32",
						"value": "t_bool"
					},
					"t_mapping(t_address,t_mapping(t_address,t_uint256))": {
						"encoding": "mapping",
						"key": "t_address",
						"label": "mapping(address => mapping(address => uint256))",
						"numberOfBytes": "32",
						"value": "t_mapping(t_address,t_uint256)"
					},
					"t_mapping(t_address,t_uint256)": {
						"encoding": "mapping",
						"key": "t_address",
						"label": "mapping(address => uint256)",
						"numberOfBytes": "32",
						"value": "t_uint256"
					},
					"t_string_storage": {
						"encoding": "bytes",
						"label": "string",
						"numberOfBytes": "32"
					},
					"t_uint256": {
						"encoding": "inplace",
						"label": "uint256",
						"numberOfBytes": "32"
					}
				}
			},
			"userdoc": {
				"kind": "user",
				"methods": {},
				"version": 1
			}
		}
	}
}