{
	"Token.sol": {
		"HKPtoken": {
			"abi": [
				{
					"inputs": [],
					"stateMutability": "nonpayable",
					"type": "constructor"
				},
				{
					"anonymous": false,
					"inputs": [
						{
							"indexed": true,
							"internalType": "address",
							"name": "owner",
							"type": "address"
						},
						{
							"indexed": true,
							"internalType": "address",
							"name": "spender",
							"type": "address"
						},
						{
							"indexed": false,
							"internalType": "uint256",
							"name": "value",
							"type": "uint256"
						}
					],
					"name": "Approval",
					"type": "event"
				},
				{
					"anonymous": false,
					"inputs": [
						{
							"indexed": true,
							"internalType": "address",
							"name": "previousOwner",
							"type": "address"
						},
						{
							"indexed": true,
							"internalType": "address",
							"name": "newOwner",
							"type": "address"
						}
					],
					"name": "OwnershipTransferred",
					"type": "event"
				},
				{
					"anonymous": false,
					"inputs": [
						{
							"indexed": true,
							"internalType": "address",
							"name": "from",
							"type": "address"
						},
						{
							"indexed": true,
							"internalType": "address",
							"name": "to",
							"type": "address"
						},
						{
							"indexed": false,
							"internalType": "uint256",
							"name": "value",
							"type": "uint256"
						}
					],
					"name": "Transfer",
					"type": "event"
				},
				{
					"inputs": [
						{
							"internalType": "address",
							"name": "owner",
							"type": "address"
						},
						{
							"internalType": "address",
							"name": "spender",
							"type": "address"
						}
					],
					"name": "allowance",
					"outputs": [
						{
							"internalType": "uint256",
							"name": "",
							"type": "uint256"
						}
					],
					"stateMutability": "view",
					"type": "function"
				},
				{
					"inputs": [
						{
							"internalType": "address",
							"name": "spender",
							"type": "address"
						},
						{
							"internalType": "uint256",
							"name": "amount",
							"type": "uint256"
						}
					],
					"name": "approve",
					"outputs": [
						{
							"internalType": "bool",
							"name": "",
							"type": "bool"
						}
					],
					"stateMutability": "nonpayable",
					"type": "function"
				},
				{
					"inputs": [
						{
							"internalType": "address",
							"name": "account",
							"type": "address"
						}
					],
					"name": "balanceOf",
					"outputs": [
						{
							"internalType": "uint256",
							"name": "",
							"type": "uint256"
						}
					],
					"stateMutability": "view",
					"type": "function"
				},
				{
					"inputs": [
						{
							"internalType": "uint256",
							"name": "amount",
							"type": "uint256"
						}
					],
					"name": "burn",
					"outputs": [],
					"stateMutability": "nonpayable",
					"type": "function"
				},
				{
					"inputs": [
						{
							"internalType": "address",
							"name": "account",
							"type": "address"
						},
						{
							"internalType": "uint256",
							"name": "amount",
							"type": "uint256"
						}
					],
					"name": "burnFrom",
					"outputs": [],
					"stateMutability": "nonpayable",
					"type": "function"
				},
				{
					"inputs": [],
					"name": "decimals",
					"outputs": [
						{
							"internalType": "uint8",
							"name": "",
							"type": "uint8"
						}
					],
					"stateMutability": "view",
					"type": "function"
				},
				{
					"inputs": [
						{
							"internalType": "address",
							"name": "spender",
							"type": "address"
						},
						{
							"internalType": "uint256",
							"name": "subtractedValue",
							"type": "uint256"
						}
					],
					"name": "decreaseAllowance",
					"outputs": [
						{
							"internalType": "bool",
							"name": "",
							"type": "bool"
						}
					],
					"stateMutability": "nonpayable",
					"type": "function"
				},
				{
					"inputs": [
						{
							"internalType": "address",
							"name": "spender",
							"type": "address"
						},
						{
							"internalType": "uint256",
							"name": "addedValue",
							"type": "uint256"
						}
					],
					"name": "increaseAllowance",
					"outputs": [
						{
							"internalType": "bool",
							"name": "",
							"type": "bool"
						}
					],
					"stateMutability": "nonpayable",
					"type": "function"
				},
				{
					"inputs": [],
					"name": "maxSupply",
					"outputs": [
						{
							"internalType": "uint256",
							"name": "",
							"type": "uint256"
						}
					],
					"stateMutability": "view",
					"type": "function"
				},
				{
					"inputs": [
						{
							"internalType": "uint256",
							"name": "amount",
							"type": "uint256"
						}
					],
					"name": "mint",
					"outputs": [],
					"stateMutability": "payable",
					"type": "function"
				},
				{
					"inputs": [],
					"name": "name",
					"outputs": [
						{
							"internalType": "string",
							"name": "",
							"type": "string"
						}
					],
					"stateMutability": "view",
					"type": "function"
				},
				{
					"inputs": [],
					"name": "owner",
					"outputs": [
						{
							"internalType": "address",
							"name": "",
							"type": "address"
						}
					],
					"stateMutability": "view",
					"type": "function"
				},
				{
					"inputs": [],
					"name": "renounceOwnership",
					"outputs": [],
					"stateMutability": "nonpayable",
					"type": "function"
				},
				{
					"inputs": [],
					"name": "returnState",
					"outputs": [
						{
							"internalType": "uint256",
							"name": "_myBalance",
							"type": "uint256"
						},
						{
							"internalType": "uint256",
							"name": "_maxSupply",
							"type": "uint256"
						},
						{
							"internalType": "uint256",
							"name": "_totalSupply",
							"type": "uint256"
						},
						{
							"internalType": "uint256",
							"name": "_tokenPrice",
							"type": "uint256"
						}
					],
					"stateMutability": "view",
					"type": "function"
				},
				{
					"inputs": [],
					"name": "symbol",
					"outputs": [
						{
							"internalType": "string",
							"name": "",
							"type": "string"
						}
					],
					"stateMutability": "view",
					"type": "function"
				},
				{
					"inputs": [],
					"name": "tokenPrice",
					"outputs": [
						{
							"internalType": "uint256",
							"name": "",
							"type": "uint256"
						}
					],
					"stateMutability": "view",
					"type": "function"
				},
				{
					"inputs": [],
					"name": "totalSupply",
					"outputs": [
						{
							"internalType": "uint256",
							"name": "",
							"type": "uint256"
						}
					],
					"stateMutability": "view",
					"type": "function"
				},
				{
					"inputs": [
						{
							"internalType": "address",
							"name": "to",
							"type": "address"
						},
						{
							"internalType": "uint256",
							"name": "amount",
							"type": "uint256"
						}
					],
					"name": "transfer",
					"outputs": [
						{
							"internalType": "bool",
							"name": "",
							"type": "bool"
						}
					],
					"stateMutability": "nonpayable",
					"type": "function"
				},
				{
					"inputs": [
						{
							"internalType": "address",
							"name": "from",
							"type": "address"
						},
						{
							"internalType": "address",
							"name": "to",
							"type": "address"
						},
						{
							"internalType": "uint256",
							"name": "amount",
							"type": "uint256"
						}
					],
					"name": "transferFrom",
					"outputs": [
						{
							"internalType": "bool",
							"name": "",
							"type": "bool"
						}
					],
					"stateMutability": "nonpayable",
					"type": "function"
				},
				{
					"inputs": [
						{
							"internalType": "address",
							"name": "newOwner",
							"type": "address"
						}
					],
					"name": "transferOwnership",
					"outputs": [],
					"stateMutability": "nonpayable",
					"type": "function"
				},
				{
					"inputs": [],
					"name": "withdrawEther",
					"outputs": [],
					"stateMutability": "nonpayable",
					"type": "function"
				}
			],
			"devdoc": {
				"events": {
					"Approval(address,address,uint256)": {
						"details": "Emitted when the allowance of a `spender` for an `owner` is set by a call to {approve}. `value` is the new allowance."
					},
					"Transfer(address,address,uint256)": {
						"details": "Emitted when `value` tokens are moved from one account (`from`) to another (`to`). Note that `value` may be zero."
					}
				},
				"kind": "dev",
				"methods": {
					"allowance(address,address)": {
						"details": "See {IERC20-allowance}."
					},
					"approve(address,uint256)": {
						"details": "See {IERC20-approve}. NOTE: If `amount` is the maximum `uint256`, the allowance is not updated on `transferFrom`. This is semantically equivalent to an infinite approval. Requirements: - `spender` cannot be the zero address."
					},
					"balanceOf(address)": {
						"details": "See {IERC20-balanceOf}."
					},
					"burn(uint256)": {
						"details": "Destroys `amount` tokens from the caller. See {ERC20-_burn}."
					},
					"burnFrom(address,uint256)": {
						"details": "Destroys `amount` tokens from `account`, deducting from the caller's allowance. See {ERC20-_burn} and {ERC20-allowance}. Requirements: - the caller must have allowance for ``accounts``'s tokens of at least `amount`."
					},
					"decimals()": {
						"details": "Returns the number of decimals used to get its user representation. For example, if `decimals` equals `2`, a balance of `505` tokens should be displayed to a user as `5.05` (`505 / 10 ** 2`). Tokens usually opt for a value of 18, imitating the relationship between Ether and Wei. This is the value {ERC20} uses, unless this function is overridden; NOTE: This information is only used for _display_ purposes: it in no way affects any of the arithmetic of the contract, including {IERC20-balanceOf} and {IERC20-transfer}."
					},
					"decreaseAllowance(address,uint256)": {
						"details": "Atomically decreases the allowance granted to `spender` by the caller. This is an alternative to {approve} that can be used as a mitigation for problems described in {IERC20-approve}. Emits an {Approval} event indicating the updated allowance. Requirements: - `spender` cannot be the zero address. - `spender` must have allowance for the caller of at least `subtractedValue`."
					},
					"increaseAllowance(address,uint256)": {
						"details": "Atomically increases the allowance granted to `spender` by the caller. This is an alternative to {approve} that can be used as a mitigation for problems described in {IERC20-approve}. Emits an {Approval} event indicating the updated allowance. Requirements: - `spender` cannot be the zero address."
					},
					"name()": {
						"details": "Returns the name of the token."
					},
					"owner()": {
						"details": "Returns the address of the current owner."
					},
					"renounceOwnership()": {
						"details": "Leaves the contract without owner. It will not be possible to call `onlyOwner` functions anymore. Can only be called by the current owner. NOTE: Renouncing ownership will leave the contract without an owner, thereby removing any functionality that is only available to the owner."
					},
					"symbol()": {
						"details": "Returns the symbol of the token, usually a shorter version of the name."
					},
					"totalSupply()": {
						"details": "See {IERC20-totalSupply}."
					},
					"transfer(address,uint256)": {
						"details": "See {IERC20-transfer}. Requirements: - `to` cannot be the zero address. - the caller must have a balance of at least `amount`."
					},
					"transferFrom(address,address,uint256)": {
						"details": "See {IERC20-transferFrom}. Emits an {Approval} event indicating the updated allowance. This is not required by the EIP. See the note at the beginning of {ERC20}. NOTE: Does not update the allowance if the current allowance is the maximum `uint256`. Requirements: - `from` and `to` cannot be the zero address. - `from` must have a balance of at least `amount`. - the caller must have allowance for ``from``'s tokens of at least `amount`."
					},
					"transferOwnership(address)": {
						"details": "Transfers ownership of the contract to a new account (`newOwner`). Can only be called by the current owner."
					}
				},
				"version": 1
			},
			"evm": {
				"assembly": "    /* \"Token.sol\":243:1149  contract HKPtoken is ERC20, ERC20Burnable, Ownable  {... */\n  mstore(0x40, 0x80)\n    /* \"Token.sol\":359:484  constructor() ERC20(\"HKPtoken\", \"HKP\") {... */\n  callvalue\n  dup1\n  iszero\n  tag_1\n  jumpi\n  0x00\n  dup1\n  revert\ntag_1:\n  pop\n    /* \"@openzeppelin/contracts/token/ERC20/ERC20.sol\":1976:2089  constructor(string memory name_, string memory symbol_) {... */\n  mload(0x40)\n  dup1\n  0x40\n  add\n  0x40\n  mstore\n  dup1\n  0x08\n  dup2\n  mstore\n  0x20\n  add\n  0x484b50746f6b656e000000000000000000000000000000000000000000000000\n  dup2\n  mstore\n  pop\n  mload(0x40)\n  dup1\n  0x40\n  add\n  0x40\n  mstore\n  dup1\n  0x03\n  dup2\n  mstore\n  0x20\n  add\n  0x484b500000000000000000000000000000000000000000000000000000000000\n  dup2\n  mstore\n  pop\n    /* \"@openzeppelin/contracts/token/ERC20/ERC20.sol\":2050:2055  name_ */\n  dup2\n    /* \"@openzeppelin/contracts/token/ERC20/ERC20.sol\":2042:2047  _name */\n  0x03\n    /* \"@openzeppelin/contracts/token/ERC20/ERC20.sol\":2042:2055  _name = name_ */\n  swap1\n  dup2\n  tag_6\n  swap2\n  swap1\n  tag_7\n  jump\t// in\ntag_6:\n  pop\n    /* \"@openzeppelin/contracts/token/ERC20/ERC20.sol\":2075:2082  symbol_ */\n  dup1\n    /* \"@openzeppelin/contracts/token/ERC20/ERC20.sol\":2065:2072  _symbol */\n  0x04\n    /* \"@openzeppelin/contracts/token/ERC20/ERC20.sol\":2065:2082  _symbol = symbol_ */\n  swap1\n  dup2\n  tag_8\n  swap2\n  swap1\n  tag_7\n  jump\t// in\ntag_8:\n  pop\n    /* \"@openzeppelin/contracts/token/ERC20/ERC20.sol\":1976:2089  constructor(string memory name_, string memory symbol_) {... */\n  pop\n  pop\n    /* \"@openzeppelin/contracts/access/Ownable.sol\":936:968  _transferOwnership(_msgSender()) */\n  tag_10\n    /* \"@openzeppelin/contracts/access/Ownable.sol\":955:967  _msgSender() */\n  tag_11\n    /* \"@openzeppelin/contracts/access/Ownable.sol\":955:965  _msgSender */\n  shl(0x20, tag_12)\n    /* \"@openzeppelin/contracts/access/Ownable.sol\":955:967  _msgSender() */\n  0x20\n  shr\n  jump\t// in\ntag_11:\n    /* \"@openzeppelin/contracts/access/Ownable.sol\":936:954  _transferOwnership */\n  shl(0x20, tag_13)\n    /* \"@openzeppelin/contracts/access/Ownable.sol\":936:968  _transferOwnership(_msgSender()) */\n  0x20\n  shr\n  jump\t// in\ntag_10:\n    /* \"Token.sol\":420:436  2000000000000000 */\n  0x071afd498d0000\n    /* \"Token.sol\":407:417  tokenPrice */\n  0x06\n    /* \"Token.sol\":407:436  tokenPrice = 2000000000000000 */\n  dup2\n  swap1\n  sstore\n  pop\n    /* \"Token.sol\":456:477  150000000000000000000 */\n  0x0821ab0d4414980000\n    /* \"Token.sol\":444:453  maxSupply */\n  0x07\n    /* \"Token.sol\":444:477  maxSupply = 150000000000000000000 */\n  dup2\n  swap1\n  sstore\n  pop\n    /* \"Token.sol\":243:1149  contract HKPtoken is ERC20, ERC20Burnable, Ownable  {... */\n  jump(tag_15)\n    /* \"@openzeppelin/contracts/utils/Context.sol\":640:736  function _msgSender() internal view virtual returns (address) {... */\ntag_12:\n    /* \"@openzeppelin/contracts/utils/Context.sol\":693:700  address */\n  0x00\n    /* \"@openzeppelin/contracts/utils/Context.sol\":719:729  msg.sender */\n  caller\n    /* \"@openzeppelin/contracts/utils/Context.sol\":712:729  return msg.sender */\n  swap1\n  pop\n    /* \"@openzeppelin/contracts/utils/Context.sol\":640:736  function _msgSender() internal view virtual returns (address) {... */\n  swap1\n  jump\t// out\n    /* \"@openzeppelin/contracts/access/Ownable.sol\":2433:2620  function _transferOwnership(address newOwner) internal virtual {... */\ntag_13:\n    /* \"@openzeppelin/contracts/access/Ownable.sol\":2506:2522  address oldOwner */\n  0x00\n    /* \"@openzeppelin/contracts/access/Ownable.sol\":2525:2531  _owner */\n  0x05\n  0x00\n  swap1\n  sload\n  swap1\n  0x0100\n  exp\n  swap1\n  div\n  0xffffffffffffffffffffffffffffffffffffffff\n  and\n    /* \"@openzeppelin/contracts/access/Ownable.sol\":2506:2531  address oldOwner = _owner */\n  swap1\n  pop\n    /* \"@openzeppelin/contracts/access/Ownable.sol\":2550:2558  newOwner */\n  dup2\n    /* \"@openzeppelin/contracts/access/Ownable.sol\":2541:2547  _owner */\n  0x05\n  0x00\n    /* \"@openzeppelin/contracts/access/Ownable.sol\":2541:2558  _owner = newOwner */\n  0x0100\n  exp\n  dup2\n  sload\n  dup2\n  0xffffffffffffffffffffffffffffffffffffffff\n  mul\n  not\n  and\n  swap1\n  dup4\n  0xffffffffffffffffffffffffffffffffffffffff\n  and\n  mul\n  or\n  swap1\n  sstore\n  pop\n    /* \"@openzeppelin/contracts/access/Ownable.sol\":2604:2612  newOwner */\n  dup2\n    /* \"@openzeppelin/contracts/access/Ownable.sol\":2573:2613  OwnershipTransferred(oldOwner, newOwner) */\n  0xffffffffffffffffffffffffffffffffffffffff\n  and\n    /* \"@openzeppelin/contracts/access/Ownable.sol\":2594:2602  oldOwner */\n  dup2\n    /* \"@openzeppelin/contracts/access/Ownable.sol\":2573:2613  OwnershipTransferred(oldOwner, newOwner) */\n  0xffffffffffffffffffffffffffffffffffffffff\n  and\n  0x8be0079c531659141344cd1fd0a4f28419497f9722a3daafe3b4186f6b6457e0\n  mload(0x40)\n  mload(0x40)\n  dup1\n  swap2\n  sub\n  swap1\n  log3\n    /* \"@openzeppelin/contracts/access/Ownable.sol\":2496:2620  {... */\n  pop\n    /* \"@openzeppelin/contracts/access/Ownable.sol\":2433:2620  function _transferOwnership(address newOwner) internal virtual {... */\n  pop\n  jump\t// out\n    /* \"#utility.yul\":7:106   */\ntag_18:\n    /* \"#utility.yul\":59:65   */\n  0x00\n    /* \"#utility.yul\":93:98   */\n  dup2\n    /* \"#utility.yul\":87:99   */\n  mload\n    /* \"#utility.yul\":77:99   */\n  swap1\n  pop\n    /* \"#utility.yul\":7:106   */\n  swap2\n  swap1\n  pop\n  jump\t// out\n    /* \"#utility.yul\":112:292   */\ntag_19:\n    /* \"#utility.yul\":160:237   */\n  0x4e487b7100000000000000000000000000000000000000000000000000000000\n    /* \"#utility.yul\":157:158   */\n  0x00\n    /* \"#utility.yul\":150:238   */\n  mstore\n    /* \"#utility.yul\":257:261   */\n  0x41\n    /* \"#utility.yul\":254:255   */\n  0x04\n    /* \"#utility.yul\":247:262   */\n  mstore\n    /* \"#utility.yul\":281:285   */\n  0x24\n    /* \"#utility.yul\":278:279   */\n  0x00\n    /* \"#utility.yul\":271:286   */\n  revert\n    /* \"#utility.yul\":298:478   */\ntag_20:\n    /* \"#utility.yul\":346:423   */\n  0x4e487b7100000000000000000000000000000000000000000000000000000000\n    /* \"#utility.yul\":343:344   */\n  0x00\n    /* \"#utility.yul\":336:424   */\n  mstore\n    /* \"#utility.yul\":443:447   */\n  0x22\n    /* \"#utility.yul\":440:441   */\n  0x04\n    /* \"#utility.yul\":433:448   */\n  mstore\n    /* \"#utility.yul\":467:471   */\n  0x24\n    /* \"#utility.yul\":464:465   */\n  0x00\n    /* \"#utility.yul\":457:472   */\n  revert\n    /* \"#utility.yul\":484:804   */\ntag_21:\n    /* \"#utility.yul\":528:534   */\n  0x00\n    /* \"#utility.yul\":565:566   */\n  0x02\n    /* \"#utility.yul\":559:563   */\n  dup3\n    /* \"#utility.yul\":555:567   */\n  div\n    /* \"#utility.yul\":545:567   */\n  swap1\n  pop\n    /* \"#utility.yul\":612:613   */\n  0x01\n    /* \"#utility.yul\":606:610   */\n  dup3\n    /* \"#utility.yul\":602:614   */\n  and\n    /* \"#utility.yul\":633:651   */\n  dup1\n    /* \"#utility.yul\":623:704   */\n  tag_43\n  jumpi\n    /* \"#utility.yul\":689:693   */\n  0x7f\n    /* \"#utility.yul\":681:687   */\n  dup3\n    /* \"#utility.yul\":677:694   */\n  and\n    /* \"#utility.yul\":667:694   */\n  swap2\n  pop\n    /* \"#utility.yul\":623:704   */\ntag_43:\n    /* \"#utility.yul\":751:753   */\n  0x20\n    /* \"#utility.yul\":743:749   */\n  dup3\n    /* \"#utility.yul\":740:754   */\n  lt\n    /* \"#utility.yul\":720:738   */\n  dup2\n    /* \"#utility.yul\":717:755   */\n  sub\n    /* \"#utility.yul\":714:798   */\n  tag_44\n  jumpi\n    /* \"#utility.yul\":770:788   */\n  tag_45\n  tag_20\n  jump\t// in\ntag_45:\n    /* \"#utility.yul\":714:798   */\ntag_44:\n    /* \"#utility.yul\":535:804   */\n  pop\n    /* \"#utility.yul\":484:804   */\n  swap2\n  swap1\n  pop\n  jump\t// out\n    /* \"#utility.yul\":810:951   */\ntag_22:\n    /* \"#utility.yul\":859:863   */\n  0x00\n    /* \"#utility.yul\":882:885   */\n  dup2\n    /* \"#utility.yul\":874:885   */\n  swap1\n  pop\n    /* \"#utility.yul\":905:908   */\n  dup2\n    /* \"#utility.yul\":902:903   */\n  0x00\n    /* \"#utility.yul\":895:909   */\n  mstore\n    /* \"#utility.yul\":939:943   */\n  0x20\n    /* \"#utility.yul\":936:937   */\n  0x00\n    /* \"#utility.yul\":926:944   */\n  keccak256\n    /* \"#utility.yul\":918:944   */\n  swap1\n  pop\n    /* \"#utility.yul\":810:951   */\n  swap2\n  swap1\n  pop\n  jump\t// out\n    /* \"#utility.yul\":957:1050   */\ntag_23:\n    /* \"#utility.yul\":994:1000   */\n  0x00\n    /* \"#utility.yul\":1041:1043   */\n  0x20\n    /* \"#utility.yul\":1036:1038   */\n  0x1f\n    /* \"#utility.yul\":1029:1034   */\n  dup4\n    /* \"#utility.yul\":1025:1039   */\n  add\n    /* \"#utility.yul\":1021:1044   */\n  div\n    /* \"#utility.yul\":1011:1044   */\n  swap1\n  pop\n    /* \"#utility.yul\":957:1050   */\n  swap2\n  swap1\n  pop\n  jump\t// out\n    /* \"#utility.yul\":1056:1163   */\ntag_24:\n    /* \"#utility.yul\":1100:1108   */\n  0x00\n    /* \"#utility.yul\":1150:1155   */\n  dup3\n    /* \"#utility.yul\":1144:1148   */\n  dup3\n    /* \"#utility.yul\":1140:1156   */\n  shl\n    /* \"#utility.yul\":1119:1156   */\n  swap1\n  pop\n    /* \"#utility.yul\":1056:1163   */\n  swap3\n  swap2\n  pop\n  pop\n  jump\t// out\n    /* \"#utility.yul\":1169:1562   */\ntag_25:\n    /* \"#utility.yul\":1238:1244   */\n  0x00\n    /* \"#utility.yul\":1288:1289   */\n  0x08\n    /* \"#utility.yul\":1276:1286   */\n  dup4\n    /* \"#utility.yul\":1272:1290   */\n  mul\n    /* \"#utility.yul\":1311:1408   */\n  tag_50\n    /* \"#utility.yul\":1341:1407   */\n  0xffffffffffffffffffffffffffffffffffffffffffffffffffffffffffffffff\n    /* \"#utility.yul\":1330:1339   */\n  dup3\n    /* \"#utility.yul\":1311:1408   */\n  tag_24\n  jump\t// in\ntag_50:\n    /* \"#utility.yul\":1429:1468   */\n  tag_51\n    /* \"#utility.yul\":1459:1467   */\n  dup7\n    /* \"#utility.yul\":1448:1457   */\n  dup4\n    /* \"#utility.yul\":1429:1468   */\n  tag_24\n  jump\t// in\ntag_51:\n    /* \"#utility.yul\":1417:1468   */\n  swap6\n  pop\n    /* \"#utility.yul\":1501:1505   */\n  dup1\n    /* \"#utility.yul\":1497:1506   */\n  not\n    /* \"#utility.yul\":1490:1495   */\n  dup5\n    /* \"#utility.yul\":1486:1507   */\n  and\n    /* \"#utility.yul\":1477:1507   */\n  swap4\n  pop\n    /* \"#utility.yul\":1550:1554   */\n  dup1\n    /* \"#utility.yul\":1540:1548   */\n  dup7\n    /* \"#utility.yul\":1536:1555   */\n  and\n    /* \"#utility.yul\":1529:1534   */\n  dup5\n    /* \"#utility.yul\":1526:1556   */\n  or\n    /* \"#utility.yul\":1516:1556   */\n  swap3\n  pop\n    /* \"#utility.yul\":1245:1562   */\n  pop\n  pop\n    /* \"#utility.yul\":1169:1562   */\n  swap4\n  swap3\n  pop\n  pop\n  pop\n  jump\t// out\n    /* \"#utility.yul\":1568:1645   */\ntag_26:\n    /* \"#utility.yul\":1605:1612   */\n  0x00\n    /* \"#utility.yul\":1634:1639   */\n  dup2\n    /* \"#utility.yul\":1623:1639   */\n  swap1\n  pop\n    /* \"#utility.yul\":1568:1645   */\n  swap2\n  swap1\n  pop\n  jump\t// out\n    /* \"#utility.yul\":1651:1711   */\ntag_27:\n    /* \"#utility.yul\":1679:1682   */\n  0x00\n    /* \"#utility.yul\":1700:1705   */\n  dup2\n    /* \"#utility.yul\":1693:1705   */\n  swap1\n  pop\n    /* \"#utility.yul\":1651:1711   */\n  swap2\n  swap1\n  pop\n  jump\t// out\n    /* \"#utility.yul\":1717:1859   */\ntag_28:\n    /* \"#utility.yul\":1767:1776   */\n  0x00\n    /* \"#utility.yul\":1800:1853   */\n  tag_55\n    /* \"#utility.yul\":1818:1852   */\n  tag_56\n    /* \"#utility.yul\":1827:1851   */\n  tag_57\n    /* \"#utility.yul\":1845:1850   */\n  dup5\n    /* \"#utility.yul\":1827:1851   */\n  tag_26\n  jump\t// in\ntag_57:\n    /* \"#utility.yul\":1818:1852   */\n  tag_27\n  jump\t// in\ntag_56:\n    /* \"#utility.yul\":1800:1853   */\n  tag_26\n  jump\t// in\ntag_55:\n    /* \"#utility.yul\":1787:1853   */\n  swap1\n  pop\n    /* \"#utility.yul\":1717:1859   */\n  swap2\n  swap1\n  pop\n  jump\t// out\n    /* \"#utility.yul\":1865:1940   */\ntag_29:\n    /* \"#utility.yul\":1908:1911   */\n  0x00\n    /* \"#utility.yul\":1929:1934   */\n  dup2\n    /* \"#utility.yul\":1922:1934   */\n  swap1\n  pop\n    /* \"#utility.yul\":1865:1940   */\n  swap2\n  swap1\n  pop\n  jump\t// out\n    /* \"#utility.yul\":1946:2215   */\ntag_30:\n    /* \"#utility.yul\":2056:2095   */\n  tag_60\n    /* \"#utility.yul\":2087:2094   */\n  dup4\n    /* \"#utility.yul\":2056:2095   */\n  tag_28\n  jump\t// in\ntag_60:\n    /* \"#utility.yul\":2117:2208   */\n  tag_61\n    /* \"#utility.yul\":2166:2207   */\n  tag_62\n    /* \"#utility.yul\":2190:2206   */\n  dup3\n    /* \"#utility.yul\":2166:2207   */\n  tag_29\n  jump\t// in\ntag_62:\n    /* \"#utility.yul\":2158:2164   */\n  dup5\n    /* \"#utility.yul\":2151:2155   */\n  dup5\n    /* \"#utility.yul\":2145:2156   */\n  sload\n    /* \"#utility.yul\":2117:2208   */\n  tag_25\n  jump\t// in\ntag_61:\n    /* \"#utility.yul\":2111:2115   */\n  dup3\n    /* \"#utility.yul\":2104:2209   */\n  sstore\n    /* \"#utility.yul\":2022:2215   */\n  pop\n    /* \"#utility.yul\":1946:2215   */\n  pop\n  pop\n  pop\n  jump\t// out\n    /* \"#utility.yul\":2221:2294   */\ntag_31:\n    /* \"#utility.yul\":2266:2269   */\n  0x00\n    /* \"#utility.yul\":2221:2294   */\n  swap1\n  jump\t// out\n    /* \"#utility.yul\":2300:2489   */\ntag_32:\n    /* \"#utility.yul\":2377:2409   */\n  tag_65\n  tag_31\n  jump\t// in\ntag_65:\n    /* \"#utility.yul\":2418:2483   */\n  tag_66\n    /* \"#utility.yul\":2476:2482   */\n  dup2\n    /* \"#utility.yul\":2468:2474   */\n  dup5\n    /* \"#utility.yul\":2462:2466   */\n  dup5\n    /* \"#utility.yul\":2418:2483   */\n  tag_30\n  jump\t// in\ntag_66:\n    /* \"#utility.yul\":2353:2489   */\n  pop\n    /* \"#utility.yul\":2300:2489   */\n  pop\n  pop\n  jump\t// out\n    /* \"#utility.yul\":2495:2681   */\ntag_33:\n    /* \"#utility.yul\":2555:2675   */\ntag_68:\n    /* \"#utility.yul\":2572:2575   */\n  dup2\n    /* \"#utility.yul\":2565:2570   */\n  dup2\n    /* \"#utility.yul\":2562:2576   */\n  lt\n    /* \"#utility.yul\":2555:2675   */\n  iszero\n  tag_70\n  jumpi\n    /* \"#utility.yul\":2626:2665   */\n  tag_71\n    /* \"#utility.yul\":2663:2664   */\n  0x00\n    /* \"#utility.yul\":2656:2661   */\n  dup3\n    /* \"#utility.yul\":2626:2665   */\n  tag_32\n  jump\t// in\ntag_71:\n    /* \"#utility.yul\":2599:2600   */\n  0x01\n    /* \"#utility.yul\":2592:2597   */\n  dup2\n    /* \"#utility.yul\":2588:2601   */\n  add\n    /* \"#utility.yul\":2579:2601   */\n  swap1\n  pop\n    /* \"#utility.yul\":2555:2675   */\n  jump(tag_68)\ntag_70:\n    /* \"#utility.yul\":2495:2681   */\n  pop\n  pop\n  jump\t// out\n    /* \"#utility.yul\":2687:3230   */\ntag_34:\n    /* \"#utility.yul\":2788:2790   */\n  0x1f\n    /* \"#utility.yul\":2783:2786   */\n  dup3\n    /* \"#utility.yul\":2780:2791   */\n  gt\n    /* \"#utility.yul\":2777:3223   */\n  iszero\n  tag_73\n  jumpi\n    /* \"#utility.yul\":2822:2860   */\n  tag_74\n    /* \"#utility.yul\":2854:2859   */\n  dup2\n    /* \"#utility.yul\":2822:2860   */\n  tag_22\n  jump\t// in\ntag_74:\n    /* \"#utility.yul\":2906:2935   */\n  tag_75\n    /* \"#utility.yul\":2924:2934   */\n  dup5\n    /* \"#utility.yul\":2906:2935   */\n  tag_23\n  jump\t// in\ntag_75:\n    /* \"#utility.yul\":2896:2904   */\n  dup2\n    /* \"#utility.yul\":2892:2936   */\n  add\n    /* \"#utility.yul\":3089:3091   */\n  0x20\n    /* \"#utility.yul\":3077:3087   */\n  dup6\n    /* \"#utility.yul\":3074:3092   */\n  lt\n    /* \"#utility.yul\":3071:3120   */\n  iszero\n  tag_76\n  jumpi\n    /* \"#utility.yul\":3110:3118   */\n  dup2\n    /* \"#utility.yul\":3095:3118   */\n  swap1\n  pop\n    /* \"#utility.yul\":3071:3120   */\ntag_76:\n    /* \"#utility.yul\":3133:3213   */\n  tag_77\n    /* \"#utility.yul\":3189:3211   */\n  tag_78\n    /* \"#utility.yul\":3207:3210   */\n  dup6\n    /* \"#utility.yul\":3189:3211   */\n  tag_23\n  jump\t// in\ntag_78:\n    /* \"#utility.yul\":3179:3187   */\n  dup4\n    /* \"#utility.yul\":3175:3212   */\n  add\n    /* \"#utility.yul\":3162:3173   */\n  dup3\n    /* \"#utility.yul\":3133:3213   */\n  tag_33\n  jump\t// in\ntag_77:\n    /* \"#utility.yul\":2792:3223   */\n  pop\n  pop\n    /* \"#utility.yul\":2777:3223   */\ntag_73:\n    /* \"#utility.yul\":2687:3230   */\n  pop\n  pop\n  pop\n  jump\t// out\n    /* \"#utility.yul\":3236:3353   */\ntag_35:\n    /* \"#utility.yul\":3290:3298   */\n  0x00\n    /* \"#utility.yul\":3340:3345   */\n  dup3\n    /* \"#utility.yul\":3334:3338   */\n  dup3\n    /* \"#utility.yul\":3330:3346   */\n  shr\n    /* \"#utility.yul\":3309:3346   */\n  swap1\n  pop\n    /* \"#utility.yul\":3236:3353   */\n  swap3\n  swap2\n  pop\n  pop\n  jump\t// out\n    /* \"#utility.yul\":3359:3528   */\ntag_36:\n    /* \"#utility.yul\":3403:3409   */\n  0x00\n    /* \"#utility.yul\":3436:3487   */\n  tag_81\n    /* \"#utility.yul\":3484:3485   */\n  0x00\n    /* \"#utility.yul\":3480:3486   */\n  not\n    /* \"#utility.yul\":3472:3477   */\n  dup5\n    /* \"#utility.yul\":3469:3470   */\n  0x08\n    /* \"#utility.yul\":3465:3478   */\n  mul\n    /* \"#utility.yul\":3436:3487   */\n  tag_35\n  jump\t// in\ntag_81:\n    /* \"#utility.yul\":3432:3488   */\n  not\n    /* \"#utility.yul\":3517:3521   */\n  dup1\n    /* \"#utility.yul\":3511:3515   */\n  dup4\n    /* \"#utility.yul\":3507:3522   */\n  and\n    /* \"#utility.yul\":3497:3522   */\n  swap2\n  pop\n    /* \"#utility.yul\":3410:3528   */\n  pop\n    /* \"#utility.yul\":3359:3528   */\n  swap3\n  swap2\n  pop\n  pop\n  jump\t// out\n    /* \"#utility.yul\":3533:3828   */\ntag_37:\n    /* \"#utility.yul\":3609:3613   */\n  0x00\n    /* \"#utility.yul\":3755:3784   */\n  tag_83\n    /* \"#utility.yul\":3780:3783   */\n  dup4\n    /* \"#utility.yul\":3774:3778   */\n  dup4\n    /* \"#utility.yul\":3755:3784   */\n  tag_36\n  jump\t// in\ntag_83:\n    /* \"#utility.yul\":3747:3784   */\n  swap2\n  pop\n    /* \"#utility.yul\":3817:3820   */\n  dup3\n    /* \"#utility.yul\":3814:3815   */\n  0x02\n    /* \"#utility.yul\":3810:3821   */\n  mul\n    /* \"#utility.yul\":3804:3808   */\n  dup3\n    /* \"#utility.yul\":3801:3822   */\n  or\n    /* \"#utility.yul\":3793:3822   */\n  swap1\n  pop\n    /* \"#utility.yul\":3533:3828   */\n  swap3\n  swap2\n  pop\n  pop\n  jump\t// out\n    /* \"#utility.yul\":3833:5228   */\ntag_7:\n    /* \"#utility.yul\":3950:3987   */\n  tag_85\n    /* \"#utility.yul\":3983:3986   */\n  dup3\n    /* \"#utility.yul\":3950:3987   */\n  tag_18\n  jump\t// in\ntag_85:\n    /* \"#utility.yul\":4052:4070   */\n  0xffffffffffffffff\n    /* \"#utility.yul\":4044:4050   */\n  dup2\n    /* \"#utility.yul\":4041:4071   */\n  gt\n    /* \"#utility.yul\":4038:4094   */\n  iszero\n  tag_86\n  jumpi\n    /* \"#utility.yul\":4074:4092   */\n  tag_87\n  tag_19\n  jump\t// in\ntag_87:\n    /* \"#utility.yul\":4038:4094   */\ntag_86:\n    /* \"#utility.yul\":4118:4156   */\n  tag_88\n    /* \"#utility.yul\":4150:4154   */\n  dup3\n    /* \"#utility.yul\":4144:4155   */\n  sload\n    /* \"#utility.yul\":4118:4156   */\n  tag_21\n  jump\t// in\ntag_88:\n    /* \"#utility.yul\":4203:4270   */\n  tag_89\n    /* \"#utility.yul\":4263:4269   */\n  dup3\n    /* \"#utility.yul\":4255:4261   */\n  dup3\n    /* \"#utility.yul\":4249:4253   */\n  dup6\n    /* \"#utility.yul\":4203:4270   */\n  tag_34\n  jump\t// in\ntag_89:\n    /* \"#utility.yul\":4297:4298   */\n  0x00\n    /* \"#utility.yul\":4321:4325   */\n  0x20\n    /* \"#utility.yul\":4308:4325   */\n  swap1\n  pop\n    /* \"#utility.yul\":4353:4355   */\n  0x1f\n    /* \"#utility.yul\":4345:4351   */\n  dup4\n    /* \"#utility.yul\":4342:4356   */\n  gt\n    /* \"#utility.yul\":4370:4371   */\n  0x01\n    /* \"#utility.yul\":4365:4983   */\n  dup2\n  eq\n  tag_91\n  jumpi\n    /* \"#utility.yul\":5027:5028   */\n  0x00\n    /* \"#utility.yul\":5044:5050   */\n  dup5\n    /* \"#utility.yul\":5041:5118   */\n  iszero\n  tag_92\n  jumpi\n    /* \"#utility.yul\":5093:5102   */\n  dup3\n    /* \"#utility.yul\":5088:5091   */\n  dup8\n    /* \"#utility.yul\":5084:5103   */\n  add\n    /* \"#utility.yul\":5078:5104   */\n  mload\n    /* \"#utility.yul\":5069:5104   */\n  swap1\n  pop\n    /* \"#utility.yul\":5041:5118   */\ntag_92:\n    /* \"#utility.yul\":5144:5211   */\n  tag_93\n    /* \"#utility.yul\":5204:5210   */\n  dup6\n    /* \"#utility.yul\":5197:5202   */\n  dup3\n    /* \"#utility.yul\":5144:5211   */\n  tag_37\n  jump\t// in\ntag_93:\n    /* \"#utility.yul\":5138:5142   */\n  dup7\n    /* \"#utility.yul\":5131:5212   */\n  sstore\n    /* \"#utility.yul\":5000:5222   */\n  pop\n    /* \"#utility.yul\":4335:5222   */\n  jump(tag_90)\n    /* \"#utility.yul\":4365:4983   */\ntag_91:\n    /* \"#utility.yul\":4417:4421   */\n  0x1f\n    /* \"#utility.yul\":4413:4422   */\n  not\n    /* \"#utility.yul\":4405:4411   */\n  dup5\n    /* \"#utility.yul\":4401:4423   */\n  and\n    /* \"#utility.yul\":4451:4488   */\n  tag_94\n    /* \"#utility.yul\":4483:4487   */\n  dup7\n    /* \"#utility.yul\":4451:4488   */\n  tag_22\n  jump\t// in\ntag_94:\n    /* \"#utility.yul\":4510:4511   */\n  0x00\n    /* \"#utility.yul\":4524:4732   */\ntag_95:\n    /* \"#utility.yul\":4538:4545   */\n  dup3\n    /* \"#utility.yul\":4535:4536   */\n  dup2\n    /* \"#utility.yul\":4532:4546   */\n  lt\n    /* \"#utility.yul\":4524:4732   */\n  iszero\n  tag_97\n  jumpi\n    /* \"#utility.yul\":4617:4626   */\n  dup5\n    /* \"#utility.yul\":4612:4615   */\n  dup10\n    /* \"#utility.yul\":4608:4627   */\n  add\n    /* \"#utility.yul\":4602:4628   */\n  mload\n    /* \"#utility.yul\":4594:4600   */\n  dup3\n    /* \"#utility.yul\":4587:4629   */\n  sstore\n    /* \"#utility.yul\":4668:4669   */\n  0x01\n    /* \"#utility.yul\":4660:4666   */\n  dup3\n    /* \"#utility.yul\":4656:4670   */\n  add\n    /* \"#utility.yul\":4646:4670   */\n  swap2\n  pop\n    /* \"#utility.yul\":4715:4717   */\n  0x20\n    /* \"#utility.yul\":4704:4713   */\n  dup6\n    /* \"#utility.yul\":4700:4718   */\n  add\n    /* \"#utility.yul\":4687:4718   */\n  swap5\n  pop\n    /* \"#utility.yul\":4561:4565   */\n  0x20\n    /* \"#utility.yul\":4558:4559   */\n  dup2\n    /* \"#utility.yul\":4554:4566   */\n  add\n    /* \"#utility.yul\":4549:4566   */\n  swap1\n  pop\n    /* \"#utility.yul\":4524:4732   */\n  jump(tag_95)\ntag_97:\n    /* \"#utility.yul\":4760:4766   */\n  dup7\n    /* \"#utility.yul\":4751:4758   */\n  dup4\n    /* \"#utility.yul\":4748:4767   */\n  lt\n    /* \"#utility.yul\":4745:4924   */\n  iszero\n  tag_98\n  jumpi\n    /* \"#utility.yul\":4818:4827   */\n  dup5\n    /* \"#utility.yul\":4813:4816   */\n  dup10\n    /* \"#utility.yul\":4809:4828   */\n  add\n    /* \"#utility.yul\":4803:4829   */\n  mload\n    /* \"#utility.yul\":4861:4909   */\n  tag_99\n    /* \"#utility.yul\":4903:4907   */\n  0x1f\n    /* \"#utility.yul\":4895:4901   */\n  dup10\n    /* \"#utility.yul\":4891:4908   */\n  and\n    /* \"#utility.yul\":4880:4889   */\n  dup3\n    /* \"#utility.yul\":4861:4909   */\n  tag_36\n  jump\t// in\ntag_99:\n    /* \"#utility.yul\":4853:4859   */\n  dup4\n    /* \"#utility.yul\":4846:4910   */\n  sstore\n    /* \"#utility.yul\":4768:4924   */\n  pop\n    /* \"#utility.yul\":4745:4924   */\ntag_98:\n    /* \"#utility.yul\":4970:4971   */\n  0x01\n    /* \"#utility.yul\":4966:4967   */\n  0x02\n    /* \"#utility.yul\":4958:4964   */\n  dup9\n    /* \"#utility.yul\":4954:4968   */\n  mul\n    /* \"#utility.yul\":4950:4972   */\n  add\n    /* \"#utility.yul\":4944:4948   */\n  dup9\n    /* \"#utility.yul\":4937:4973   */\n  sstore\n    /* \"#utility.yul\":4372:4983   */\n  pop\n  pop\n  pop\n    /* \"#utility.yul\":4335:5222   */\ntag_90:\n  pop\n    /* \"#utility.yul\":3925:5228   */\n  pop\n  pop\n  pop\n    /* \"#utility.yul\":3833:5228   */\n  pop\n  pop\n  jump\t// out\n    /* \"Token.sol\":243:1149  contract HKPtoken is ERC20, ERC20Burnable, Ownable  {... */\ntag_15:\n  dataSize(sub_0)\n  dup1\n  dataOffset(sub_0)\n  0x00\n  codecopy\n  0x00\n  return\nstop\n\nsub_0: assembly {\n        /* \"Token.sol\":243:1149  contract HKPtoken is ERC20, ERC20Burnable, Ownable  {... */\n      mstore(0x40, 0x80)\n      jumpi(tag_1, lt(calldatasize, 0x04))\n      shr(0xe0, calldataload(0x00))\n      dup1\n      0x7362377b\n      gt\n      tag_23\n      jumpi\n      dup1\n      0xa0712d68\n      gt\n      tag_24\n      jumpi\n      dup1\n      0xa0712d68\n      eq\n      tag_17\n      jumpi\n      dup1\n      0xa457c2d7\n      eq\n      tag_18\n      jumpi\n      dup1\n      0xa9059cbb\n      eq\n      tag_19\n      jumpi\n      dup1\n      0xd5abeb01\n      eq\n      tag_20\n      jumpi\n      dup1\n      0xdd62ed3e\n      eq\n      tag_21\n      jumpi\n      dup1\n      0xf2fde38b\n      eq\n      tag_22\n      jumpi\n      jump(tag_1)\n    tag_24:\n      dup1\n      0x7362377b\n      eq\n      tag_12\n      jumpi\n      dup1\n      0x79cc6790\n      eq\n      tag_13\n      jumpi\n      dup1\n      0x7ff9b596\n      eq\n      tag_14\n      jumpi\n      dup1\n      0x8da5cb5b\n      eq\n      tag_15\n      jumpi\n      dup1\n      0x95d89b41\n      eq\n      tag_16\n      jumpi\n      jump(tag_1)\n    tag_23:\n      dup1\n      0x39509351\n      gt\n      tag_25\n      jumpi\n      dup1\n      0x39509351\n      eq\n      tag_7\n      jumpi\n      dup1\n      0x42966c68\n      eq\n      tag_8\n      jumpi\n      dup1\n      0x58b45557\n      eq\n      tag_9\n      jumpi\n      dup1\n      0x70a08231\n      eq\n      tag_10\n      jumpi\n      dup1\n      0x715018a6\n      eq\n      tag_11\n      jumpi\n      jump(tag_1)\n    tag_25:\n      dup1\n      0x06fdde03\n      eq\n      tag_2\n      jumpi\n      dup1\n      0x095ea7b3\n      eq\n      tag_3\n      jumpi\n      dup1\n      0x18160ddd\n      eq\n      tag_4\n      jumpi\n      dup1\n      0x23b872dd\n      eq\n      tag_5\n      jumpi\n      dup1\n      0x313ce567\n      eq\n      tag_6\n      jumpi\n    tag_1:\n      0x00\n      dup1\n      revert\n        /* \"@openzeppelin/contracts/token/ERC20/ERC20.sol\":2154:2252  function name() public view virtual override returns (string memory) {... */\n    tag_2:\n      callvalue\n      dup1\n      iszero\n      tag_26\n      jumpi\n      0x00\n      dup1\n      revert\n    tag_26:\n      pop\n      tag_27\n      tag_28\n      jump\t// in\n    tag_27:\n      mload(0x40)\n      tag_29\n      swap2\n      swap1\n      tag_30\n      jump\t// in\n    tag_29:\n      mload(0x40)\n      dup1\n      swap2\n      sub\n      swap1\n      return\n        /* \"@openzeppelin/contracts/token/ERC20/ERC20.sol\":4435:4632  function approve(address spender, uint256 amount) public virtual override returns (bool) {... */\n    tag_3:\n      callvalue\n      dup1\n      iszero\n      tag_31\n      jumpi\n      0x00\n      dup1\n      revert\n    tag_31:\n      pop\n      tag_32\n      0x04\n      dup1\n      calldatasize\n      sub\n      dup2\n      add\n      swap1\n      tag_33\n      swap2\n      swap1\n      tag_34\n      jump\t// in\n    tag_33:\n      tag_35\n      jump\t// in\n    tag_32:\n      mload(0x40)\n      tag_36\n      swap2\n      swap1\n      tag_37\n      jump\t// in\n    tag_36:\n      mload(0x40)\n      dup1\n      swap2\n      sub\n      swap1\n      return\n        /* \"@openzeppelin/contracts/token/ERC20/ERC20.sol\":3242:3348  function totalSupply() public view virtual override returns (uint256) {... */\n    tag_4:\n      callvalue\n      dup1\n      iszero\n      tag_38\n      jumpi\n      0x00\n      dup1\n      revert\n    tag_38:\n      pop\n      tag_39\n      tag_40\n      jump\t// in\n    tag_39:\n      mload(0x40)\n      tag_41\n      swap2\n      swap1\n      tag_42\n      jump\t// in\n    tag_41:\n      mload(0x40)\n      dup1\n      swap2\n      sub\n      swap1\n      return\n        /* \"@openzeppelin/contracts/token/ERC20/ERC20.sol\":5194:5480  function transferFrom(... */\n    tag_5:\n      callvalue\n      dup1\n      iszero\n      tag_43\n      jumpi\n      0x00\n      dup1\n      revert\n    tag_43:\n      pop\n      tag_44\n      0x04\n      dup1\n      calldatasize\n      sub\n      dup2\n      add\n      swap1\n      tag_45\n      swap2\n      swap1\n      tag_46\n      jump\t// in\n    tag_45:\n      tag_47\n      jump\t// in\n    tag_44:\n      mload(0x40)\n      tag_48\n      swap2\n      swap1\n      tag_37\n      jump\t// in\n    tag_48:\n      mload(0x40)\n      dup1\n      swap2\n      sub\n      swap1\n      return\n        /* \"@openzeppelin/contracts/token/ERC20/ERC20.sol\":3091:3182  function decimals() public view virtual override returns (uint8) {... */\n    tag_6:\n      callvalue\n      dup1\n      iszero\n      tag_49\n      jumpi\n      0x00\n      dup1\n      revert\n    tag_49:\n      pop\n      tag_50\n      tag_51\n      jump\t// in\n    tag_50:\n      mload(0x40)\n      tag_52\n      swap2\n      swap1\n      tag_53\n      jump\t// in\n    tag_52:\n      mload(0x40)\n      dup1\n      swap2\n      sub\n      swap1\n      return\n        /* \"@openzeppelin/contracts/token/ERC20/ERC20.sol\":5875:6109  function increaseAllowance(address spender, uint256 addedValue) public virtual returns (bool) {... */\n    tag_7:\n      callvalue\n      dup1\n      iszero\n      tag_54\n      jumpi\n      0x00\n      dup1\n      revert\n    tag_54:\n      pop\n      tag_55\n      0x04\n      dup1\n      calldatasize\n      sub\n      dup2\n      add\n      swap1\n      tag_56\n      swap2\n      swap1\n      tag_34\n      jump\t// in\n    tag_56:\n      tag_57\n      jump\t// in\n    tag_55:\n      mload(0x40)\n      tag_58\n      swap2\n      swap1\n      tag_37\n      jump\t// in\n    tag_58:\n      mload(0x40)\n      dup1\n      swap2\n      sub\n      swap1\n      return\n        /* \"@openzeppelin/contracts/token/ERC20/extensions/ERC20Burnable.sol\":578:667  function burn(uint256 amount) public virtual {... */\n    tag_8:\n      callvalue\n      dup1\n      iszero\n      tag_59\n      jumpi\n      0x00\n      dup1\n      revert\n    tag_59:\n      pop\n      tag_60\n      0x04\n      dup1\n      calldatasize\n      sub\n      dup2\n      add\n      swap1\n      tag_61\n      swap2\n      swap1\n      tag_62\n      jump\t// in\n    tag_61:\n      tag_63\n      jump\t// in\n    tag_60:\n      stop\n        /* \"Token.sol\":948:1147  function returnState() public view returns(uint _myBalance, uint _maxSupply, uint _totalSupply, uint _tokenPrice ){... */\n    tag_9:\n      callvalue\n      dup1\n      iszero\n      tag_64\n      jumpi\n      0x00\n      dup1\n      revert\n    tag_64:\n      pop\n      tag_65\n      tag_66\n      jump\t// in\n    tag_65:\n      mload(0x40)\n      tag_67\n      swap5\n      swap4\n      swap3\n      swap2\n      swap1\n      tag_68\n      jump\t// in\n    tag_67:\n      mload(0x40)\n      dup1\n      swap2\n      sub\n      swap1\n      return\n        /* \"@openzeppelin/contracts/token/ERC20/ERC20.sol\":3406:3531  function balanceOf(address account) public view virtual override returns (uint256) {... */\n    tag_10:\n      callvalue\n      dup1\n      iszero\n      tag_69\n      jumpi\n      0x00\n      dup1\n      revert\n    tag_69:\n      pop\n      tag_70\n      0x04\n      dup1\n      calldatasize\n      sub\n      dup2\n      add\n      swap1\n      tag_71\n      swap2\n      swap1\n      tag_72\n      jump\t// in\n    tag_71:\n      tag_73\n      jump\t// in\n    tag_70:\n      mload(0x40)\n      tag_74\n      swap2\n      swap1\n      tag_42\n      jump\t// in\n    tag_74:\n      mload(0x40)\n      dup1\n      swap2\n      sub\n      swap1\n      return\n        /* \"@openzeppelin/contracts/access/Ownable.sol\":1831:1932  function renounceOwnership() public virtual onlyOwner {... */\n    tag_11:\n      callvalue\n      dup1\n      iszero\n      tag_75\n      jumpi\n      0x00\n      dup1\n      revert\n    tag_75:\n      pop\n      tag_76\n      tag_77\n      jump\t// in\n    tag_76:\n      stop\n        /* \"Token.sol\":835:942  function withdrawEther() public onlyOwner {... */\n    tag_12:\n      callvalue\n      dup1\n      iszero\n      tag_78\n      jumpi\n      0x00\n      dup1\n      revert\n    tag_78:\n      pop\n      tag_79\n      tag_80\n      jump\t// in\n    tag_79:\n      stop\n        /* \"@openzeppelin/contracts/token/ERC20/extensions/ERC20Burnable.sol\":973:1134  function burnFrom(address account, uint256 amount) public virtual {... */\n    tag_13:\n      callvalue\n      dup1\n      iszero\n      tag_81\n      jumpi\n      0x00\n      dup1\n      revert\n    tag_81:\n      pop\n      tag_82\n      0x04\n      dup1\n      calldatasize\n      sub\n      dup2\n      add\n      swap1\n      tag_83\n      swap2\n      swap1\n      tag_34\n      jump\t// in\n    tag_83:\n      tag_84\n      jump\t// in\n    tag_82:\n      stop\n        /* \"Token.sol\":302:324  uint public tokenPrice */\n    tag_14:\n      callvalue\n      dup1\n      iszero\n      tag_85\n      jumpi\n      0x00\n      dup1\n      revert\n    tag_85:\n      pop\n      tag_86\n      tag_87\n      jump\t// in\n    tag_86:\n      mload(0x40)\n      tag_88\n      swap2\n      swap1\n      tag_42\n      jump\t// in\n    tag_88:\n      mload(0x40)\n      dup1\n      swap2\n      sub\n      swap1\n      return\n        /* \"@openzeppelin/contracts/access/Ownable.sol\":1201:1286  function owner() public view virtual returns (address) {... */\n    tag_15:\n      callvalue\n      dup1\n      iszero\n      tag_89\n      jumpi\n      0x00\n      dup1\n      revert\n    tag_89:\n      pop\n      tag_90\n      tag_91\n      jump\t// in\n    tag_90:\n      mload(0x40)\n      tag_92\n      swap2\n      swap1\n      tag_93\n      jump\t// in\n    tag_92:\n      mload(0x40)\n      dup1\n      swap2\n      sub\n      swap1\n      return\n        /* \"@openzeppelin/contracts/token/ERC20/ERC20.sol\":2365:2467  function symbol() public view virtual override returns (string memory) {... */\n    tag_16:\n      callvalue\n      dup1\n      iszero\n      tag_94\n      jumpi\n      0x00\n      dup1\n      revert\n    tag_94:\n      pop\n      tag_95\n      tag_96\n      jump\t// in\n    tag_95:\n      mload(0x40)\n      tag_97\n      swap2\n      swap1\n      tag_30\n      jump\t// in\n    tag_97:\n      mload(0x40)\n      dup1\n      swap2\n      sub\n      swap1\n      return\n        /* \"Token.sol\":490:829  function mint(uint amount) public payable{... */\n    tag_17:\n      tag_98\n      0x04\n      dup1\n      calldatasize\n      sub\n      dup2\n      add\n      swap1\n      tag_99\n      swap2\n      swap1\n      tag_62\n      jump\t// in\n    tag_99:\n      tag_100\n      jump\t// in\n    tag_98:\n      stop\n        /* \"@openzeppelin/contracts/token/ERC20/ERC20.sol\":6596:7023  function decreaseAllowance(address spender, uint256 subtractedValue) public virtual returns (bool) {... */\n    tag_18:\n      callvalue\n      dup1\n      iszero\n      tag_101\n      jumpi\n      0x00\n      dup1\n      revert\n    tag_101:\n      pop\n      tag_102\n      0x04\n      dup1\n      calldatasize\n      sub\n      dup2\n      add\n      swap1\n      tag_103\n      swap2\n      swap1\n      tag_34\n      jump\t// in\n    tag_103:\n      tag_104\n      jump\t// in\n    tag_102:\n      mload(0x40)\n      tag_105\n      swap2\n      swap1\n      tag_37\n      jump\t// in\n    tag_105:\n      mload(0x40)\n      dup1\n      swap2\n      sub\n      swap1\n      return\n        /* \"@openzeppelin/contracts/token/ERC20/ERC20.sol\":3727:3916  function transfer(address to, uint256 amount) public virtual override returns (bool) {... */\n    tag_19:\n      callvalue\n      dup1\n      iszero\n      tag_106\n      jumpi\n      0x00\n      dup1\n      revert\n    tag_106:\n      pop\n      tag_107\n      0x04\n      dup1\n      calldatasize\n      sub\n      dup2\n      add\n      swap1\n      tag_108\n      swap2\n      swap1\n      tag_34\n      jump\t// in\n    tag_108:\n      tag_109\n      jump\t// in\n    tag_107:\n      mload(0x40)\n      tag_110\n      swap2\n      swap1\n      tag_37\n      jump\t// in\n    tag_110:\n      mload(0x40)\n      dup1\n      swap2\n      sub\n      swap1\n      return\n        /* \"Token.sol\":330:351  uint public maxSupply */\n    tag_20:\n      callvalue\n      dup1\n      iszero\n      tag_111\n      jumpi\n      0x00\n      dup1\n      revert\n    tag_111:\n      pop\n      tag_112\n      tag_113\n      jump\t// in\n    tag_112:\n      mload(0x40)\n      tag_114\n      swap2\n      swap1\n      tag_42\n      jump\t// in\n    tag_114:\n      mload(0x40)\n      dup1\n      swap2\n      sub\n      swap1\n      return\n        /* \"@openzeppelin/contracts/token/ERC20/ERC20.sol\":3978:4127  function allowance(address owner, address spender) public view virtual override returns (uint256) {... */\n    tag_21:\n      callvalue\n      dup1\n      iszero\n      tag_115\n      jumpi\n      0x00\n      dup1\n      revert\n    tag_115:\n      pop\n      tag_116\n      0x04\n      dup1\n      calldatasize\n      sub\n      dup2\n      add\n      swap1\n      tag_117\n      swap2\n      swap1\n      tag_118\n      jump\t// in\n    tag_117:\n      tag_119\n      jump\t// in\n    tag_116:\n      mload(0x40)\n      tag_120\n      swap2\n      swap1\n      tag_42\n      jump\t// in\n    tag_120:\n      mload(0x40)\n      dup1\n      swap2\n      sub\n      swap1\n      return\n        /* \"@openzeppelin/contracts/access/Ownable.sol\":2081:2279  function transferOwnership(address newOwner) public virtual onlyOwner {... */\n    tag_22:\n      callvalue\n      dup1\n      iszero\n      tag_121\n      jumpi\n      0x00\n      dup1\n      revert\n    tag_121:\n      pop\n      tag_122\n      0x04\n      dup1\n      calldatasize\n      sub\n      dup2\n      add\n      swap1\n      tag_123\n      swap2\n      swap1\n      tag_72\n      jump\t// in\n    tag_123:\n      tag_124\n      jump\t// in\n    tag_122:\n      stop\n        /* \"@openzeppelin/contracts/token/ERC20/ERC20.sol\":2154:2252  function name() public view virtual override returns (string memory) {... */\n    tag_28:\n        /* \"@openzeppelin/contracts/token/ERC20/ERC20.sol\":2208:2221  string memory */\n      0x60\n        /* \"@openzeppelin/contracts/token/ERC20/ERC20.sol\":2240:2245  _name */\n      0x03\n        /* \"@openzeppelin/contracts/token/ERC20/ERC20.sol\":2233:2245  return _name */\n      dup1\n      sload\n      tag_126\n      swap1\n      tag_127\n      jump\t// in\n    tag_126:\n      dup1\n      0x1f\n      add\n      0x20\n      dup1\n      swap2\n      div\n      mul\n      0x20\n      add\n      mload(0x40)\n      swap1\n      dup2\n      add\n      0x40\n      mstore\n      dup1\n      swap3\n      swap2\n      swap1\n      dup2\n      dup2\n      mstore\n      0x20\n      add\n      dup3\n      dup1\n      sload\n      tag_128\n      swap1\n      tag_127\n      jump\t// in\n    tag_128:\n      dup1\n      iszero\n      tag_129\n      jumpi\n      dup1\n      0x1f\n      lt\n      tag_130\n      jumpi\n      0x0100\n      dup1\n      dup4\n      sload\n      div\n      mul\n      dup4\n      mstore\n      swap2\n      0x20\n      add\n      swap2\n      jump(tag_129)\n    tag_130:\n      dup3\n      add\n      swap2\n      swap1\n      0x00\n      mstore\n      keccak256(0x00, 0x20)\n      swap1\n    tag_131:\n      dup2\n      sload\n      dup2\n      mstore\n      swap1\n      0x01\n      add\n      swap1\n      0x20\n      add\n      dup1\n      dup4\n      gt\n      tag_131\n      jumpi\n      dup3\n      swap1\n      sub\n      0x1f\n      and\n      dup3\n      add\n      swap2\n    tag_129:\n      pop\n      pop\n      pop\n      pop\n      pop\n      swap1\n      pop\n        /* \"@openzeppelin/contracts/token/ERC20/ERC20.sol\":2154:2252  function name() public view virtual override returns (string memory) {... */\n      swap1\n      jump\t// out\n        /* \"@openzeppelin/contracts/token/ERC20/ERC20.sol\":4435:4632  function approve(address spender, uint256 amount) public virtual override returns (bool) {... */\n    tag_35:\n        /* \"@openzeppelin/contracts/token/ERC20/ERC20.sol\":4518:4522  bool */\n      0x00\n        /* \"@openzeppelin/contracts/token/ERC20/ERC20.sol\":4534:4547  address owner */\n      dup1\n        /* \"@openzeppelin/contracts/token/ERC20/ERC20.sol\":4550:4562  _msgSender() */\n      tag_133\n        /* \"@openzeppelin/contracts/token/ERC20/ERC20.sol\":4550:4560  _msgSender */\n      tag_134\n        /* \"@openzeppelin/contracts/token/ERC20/ERC20.sol\":4550:4562  _msgSender() */\n      jump\t// in\n    tag_133:\n        /* \"@openzeppelin/contracts/token/ERC20/ERC20.sol\":4534:4562  address owner = _msgSender() */\n      swap1\n      pop\n        /* \"@openzeppelin/contracts/token/ERC20/ERC20.sol\":4572:4604  _approve(owner, spender, amount) */\n      tag_135\n        /* \"@openzeppelin/contracts/token/ERC20/ERC20.sol\":4581:4586  owner */\n      dup2\n        /* \"@openzeppelin/contracts/token/ERC20/ERC20.sol\":4588:4595  spender */\n      dup6\n        /* \"@openzeppelin/contracts/token/ERC20/ERC20.sol\":4597:4603  amount */\n      dup6\n        /* \"@openzeppelin/contracts/token/ERC20/ERC20.sol\":4572:4580  _approve */\n      tag_136\n        /* \"@openzeppelin/contracts/token/ERC20/ERC20.sol\":4572:4604  _approve(owner, spender, amount) */\n      jump\t// in\n    tag_135:\n        /* \"@openzeppelin/contracts/token/ERC20/ERC20.sol\":4621:4625  true */\n      0x01\n        /* \"@openzeppelin/contracts/token/ERC20/ERC20.sol\":4614:4625  return true */\n      swap2\n      pop\n      pop\n        /* \"@openzeppelin/contracts/token/ERC20/ERC20.sol\":4435:4632  function approve(address spender, uint256 amount) public virtual override returns (bool) {... */\n      swap3\n      swap2\n      pop\n      pop\n      jump\t// out\n        /* \"@openzeppelin/contracts/token/ERC20/ERC20.sol\":3242:3348  function totalSupply() public view virtual override returns (uint256) {... */\n    tag_40:\n        /* \"@openzeppelin/contracts/token/ERC20/ERC20.sol\":3303:3310  uint256 */\n      0x00\n        /* \"@openzeppelin/contracts/token/ERC20/ERC20.sol\":3329:3341  _totalSupply */\n      sload(0x02)\n        /* \"@openzeppelin/contracts/token/ERC20/ERC20.sol\":3322:3341  return _totalSupply */\n      swap1\n      pop\n        /* \"@openzeppelin/contracts/token/ERC20/ERC20.sol\":3242:3348  function totalSupply() public view virtual override returns (uint256) {... */\n      swap1\n      jump\t// out\n        /* \"@openzeppelin/contracts/token/ERC20/ERC20.sol\":5194:5480  function transferFrom(... */\n    tag_47:\n        /* \"@openzeppelin/contracts/token/ERC20/ERC20.sol\":5321:5325  bool */\n      0x00\n        /* \"@openzeppelin/contracts/token/ERC20/ERC20.sol\":5337:5352  address spender */\n      dup1\n        /* \"@openzeppelin/contracts/token/ERC20/ERC20.sol\":5355:5367  _msgSender() */\n      tag_139\n        /* \"@openzeppelin/contracts/token/ERC20/ERC20.sol\":5355:5365  _msgSender */\n      tag_134\n        /* \"@openzeppelin/contracts/token/ERC20/ERC20.sol\":5355:5367  _msgSender() */\n      jump\t// in\n    tag_139:\n        /* \"@openzeppelin/contracts/token/ERC20/ERC20.sol\":5337:5367  address spender = _msgSender() */\n      swap1\n      pop\n        /* \"@openzeppelin/contracts/token/ERC20/ERC20.sol\":5377:5415  _spendAllowance(from, spender, amount) */\n      tag_140\n        /* \"@openzeppelin/contracts/token/ERC20/ERC20.sol\":5393:5397  from */\n      dup6\n        /* \"@openzeppelin/contracts/token/ERC20/ERC20.sol\":5399:5406  spender */\n      dup3\n        /* \"@openzeppelin/contracts/token/ERC20/ERC20.sol\":5408:5414  amount */\n      dup6\n        /* \"@openzeppelin/contracts/token/ERC20/ERC20.sol\":5377:5392  _spendAllowance */\n      tag_141\n        /* \"@openzeppelin/contracts/token/ERC20/ERC20.sol\":5377:5415  _spendAllowance(from, spender, amount) */\n      jump\t// in\n    tag_140:\n        /* \"@openzeppelin/contracts/token/ERC20/ERC20.sol\":5425:5452  _transfer(from, to, amount) */\n      tag_142\n        /* \"@openzeppelin/contracts/token/ERC20/ERC20.sol\":5435:5439  from */\n      dup6\n        /* \"@openzeppelin/contracts/token/ERC20/ERC20.sol\":5441:5443  to */\n      dup6\n        /* \"@openzeppelin/contracts/token/ERC20/ERC20.sol\":5445:5451  amount */\n      dup6\n        /* \"@openzeppelin/contracts/token/ERC20/ERC20.sol\":5425:5434  _transfer */\n      tag_143\n        /* \"@openzeppelin/contracts/token/ERC20/ERC20.sol\":5425:5452  _transfer(from, to, amount) */\n      jump\t// in\n    tag_142:\n        /* \"@openzeppelin/contracts/token/ERC20/ERC20.sol\":5469:5473  true */\n      0x01\n        /* \"@openzeppelin/contracts/token/ERC20/ERC20.sol\":5462:5473  return true */\n      swap2\n      pop\n      pop\n        /* \"@openzeppelin/contracts/token/ERC20/ERC20.sol\":5194:5480  function transferFrom(... */\n      swap4\n      swap3\n      pop\n      pop\n      pop\n      jump\t// out\n        /* \"@openzeppelin/contracts/token/ERC20/ERC20.sol\":3091:3182  function decimals() public view virtual override returns (uint8) {... */\n    tag_51:\n        /* \"@openzeppelin/contracts/token/ERC20/ERC20.sol\":3149:3154  uint8 */\n      0x00\n        /* \"@openzeppelin/contracts/token/ERC20/ERC20.sol\":3173:3175  18 */\n      0x12\n        /* \"@openzeppelin/contracts/token/ERC20/ERC20.sol\":3166:3175  return 18 */\n      swap1\n      pop\n        /* \"@openzeppelin/contracts/token/ERC20/ERC20.sol\":3091:3182  function decimals() public view virtual override returns (uint8) {... */\n      swap1\n      jump\t// out\n        /* \"@openzeppelin/contracts/token/ERC20/ERC20.sol\":5875:6109  function increaseAllowance(address spender, uint256 addedValue) public virtual returns (bool) {... */\n    tag_57:\n        /* \"@openzeppelin/contracts/token/ERC20/ERC20.sol\":5963:5967  bool */\n      0x00\n        /* \"@openzeppelin/contracts/token/ERC20/ERC20.sol\":5979:5992  address owner */\n      dup1\n        /* \"@openzeppelin/contracts/token/ERC20/ERC20.sol\":5995:6007  _msgSender() */\n      tag_146\n        /* \"@openzeppelin/contracts/token/ERC20/ERC20.sol\":5995:6005  _msgSender */\n      tag_134\n        /* \"@openzeppelin/contracts/token/ERC20/ERC20.sol\":5995:6007  _msgSender() */\n      jump\t// in\n    tag_146:\n        /* \"@openzeppelin/contracts/token/ERC20/ERC20.sol\":5979:6007  address owner = _msgSender() */\n      swap1\n      pop\n        /* \"@openzeppelin/contracts/token/ERC20/ERC20.sol\":6017:6081  _approve(owner, spender, allowance(owner, spender) + addedValue) */\n      tag_147\n        /* \"@openzeppelin/contracts/token/ERC20/ERC20.sol\":6026:6031  owner */\n      dup2\n        /* \"@openzeppelin/contracts/token/ERC20/ERC20.sol\":6033:6040  spender */\n      dup6\n        /* \"@openzeppelin/contracts/token/ERC20/ERC20.sol\":6070:6080  addedValue */\n      dup6\n        /* \"@openzeppelin/contracts/token/ERC20/ERC20.sol\":6042:6067  allowance(owner, spender) */\n      tag_148\n        /* \"@openzeppelin/contracts/token/ERC20/ERC20.sol\":6052:6057  owner */\n      dup6\n        /* \"@openzeppelin/contracts/token/ERC20/ERC20.sol\":6059:6066  spender */\n      dup10\n        /* \"@openzeppelin/contracts/token/ERC20/ERC20.sol\":6042:6051  allowance */\n      tag_119\n        /* \"@openzeppelin/contracts/token/ERC20/ERC20.sol\":6042:6067  allowance(owner, spender) */\n      jump\t// in\n    tag_148:\n        /* \"@openzeppelin/contracts/token/ERC20/ERC20.sol\":6042:6080  allowance(owner, spender) + addedValue */\n      tag_149\n      swap2\n      swap1\n      tag_150\n      jump\t// in\n    tag_149:\n        /* \"@openzeppelin/contracts/token/ERC20/ERC20.sol\":6017:6025  _approve */\n      tag_136\n        /* \"@openzeppelin/contracts/token/ERC20/ERC20.sol\":6017:6081  _approve(owner, spender, allowance(owner, spender) + addedValue) */\n      jump\t// in\n    tag_147:\n        /* \"@openzeppelin/contracts/token/ERC20/ERC20.sol\":6098:6102  true */\n      0x01\n        /* \"@openzeppelin/contracts/token/ERC20/ERC20.sol\":6091:6102  return true */\n      swap2\n      pop\n      pop\n        /* \"@openzeppelin/contracts/token/ERC20/ERC20.sol\":5875:6109  function increaseAllowance(address spender, uint256 addedValue) public virtual returns (bool) {... */\n      swap3\n      swap2\n      pop\n      pop\n      jump\t// out\n        /* \"@openzeppelin/contracts/token/ERC20/extensions/ERC20Burnable.sol\":578:667  function burn(uint256 amount) public virtual {... */\n    tag_63:\n        /* \"@openzeppelin/contracts/token/ERC20/extensions/ERC20Burnable.sol\":633:660  _burn(_msgSender(), amount) */\n      tag_152\n        /* \"@openzeppelin/contracts/token/ERC20/extensions/ERC20Burnable.sol\":639:651  _msgSender() */\n      tag_153\n        /* \"@openzeppelin/contracts/token/ERC20/extensions/ERC20Burnable.sol\":639:649  _msgSender */\n      tag_134\n        /* \"@openzeppelin/contracts/token/ERC20/extensions/ERC20Burnable.sol\":639:651  _msgSender() */\n      jump\t// in\n    tag_153:\n        /* \"@openzeppelin/contracts/token/ERC20/extensions/ERC20Burnable.sol\":653:659  amount */\n      dup3\n        /* \"@openzeppelin/contracts/token/ERC20/extensions/ERC20Burnable.sol\":633:638  _burn */\n      tag_154\n        /* \"@openzeppelin/contracts/token/ERC20/extensions/ERC20Burnable.sol\":633:660  _burn(_msgSender(), amount) */\n      jump\t// in\n    tag_152:\n        /* \"@openzeppelin/contracts/token/ERC20/extensions/ERC20Burnable.sol\":578:667  function burn(uint256 amount) public virtual {... */\n      pop\n      jump\t// out\n        /* \"Token.sol\":948:1147  function returnState() public view returns(uint _myBalance, uint _maxSupply, uint _totalSupply, uint _tokenPrice ){... */\n    tag_66:\n        /* \"Token.sol\":991:1006  uint _myBalance */\n      0x00\n        /* \"Token.sol\":1008:1023  uint _maxSupply */\n      dup1\n        /* \"Token.sol\":1025:1042  uint _totalSupply */\n      0x00\n        /* \"Token.sol\":1044:1060  uint _tokenPrice */\n      dup1\n        /* \"Token.sol\":1080:1101  balanceOf(msg.sender) */\n      tag_156\n        /* \"Token.sol\":1090:1100  msg.sender */\n      caller\n        /* \"Token.sol\":1080:1089  balanceOf */\n      tag_73\n        /* \"Token.sol\":1080:1101  balanceOf(msg.sender) */\n      jump\t// in\n    tag_156:\n        /* \"Token.sol\":1103:1112  maxSupply */\n      sload(0x07)\n        /* \"Token.sol\":1114:1127  totalSupply() */\n      tag_157\n        /* \"Token.sol\":1114:1125  totalSupply */\n      tag_40\n        /* \"Token.sol\":1114:1127  totalSupply() */\n      jump\t// in\n    tag_157:\n        /* \"Token.sol\":1129:1139  tokenPrice */\n      sload(0x06)\n        /* \"Token.sol\":1072:1140  return (balanceOf(msg.sender), maxSupply, totalSupply(), tokenPrice) */\n      swap4\n      pop\n      swap4\n      pop\n      swap4\n      pop\n      swap4\n      pop\n        /* \"Token.sol\":948:1147  function returnState() public view returns(uint _myBalance, uint _maxSupply, uint _totalSupply, uint _tokenPrice ){... */\n      swap1\n      swap2\n      swap3\n      swap4\n      jump\t// out\n        /* \"@openzeppelin/contracts/token/ERC20/ERC20.sol\":3406:3531  function balanceOf(address account) public view virtual override returns (uint256) {... */\n    tag_73:\n        /* \"@openzeppelin/contracts/token/ERC20/ERC20.sol\":3480:3487  uint256 */\n      0x00\n        /* \"@openzeppelin/contracts/token/ERC20/ERC20.sol\":3506:3515  _balances */\n      dup1\n        /* \"@openzeppelin/contracts/token/ERC20/ERC20.sol\":3506:3524  _balances[account] */\n      0x00\n        /* \"@openzeppelin/contracts/token/ERC20/ERC20.sol\":3516:3523  account */\n      dup4\n        /* \"@openzeppelin/contracts/token/ERC20/ERC20.sol\":3506:3524  _balances[account] */\n      0xffffffffffffffffffffffffffffffffffffffff\n      and\n      0xffffffffffffffffffffffffffffffffffffffff\n      and\n      dup2\n      mstore\n      0x20\n      add\n      swap1\n      dup2\n      mstore\n      0x20\n      add\n      0x00\n      keccak256\n      sload\n        /* \"@openzeppelin/contracts/token/ERC20/ERC20.sol\":3499:3524  return _balances[account] */\n      swap1\n      pop\n        /* \"@openzeppelin/contracts/token/ERC20/ERC20.sol\":3406:3531  function balanceOf(address account) public view virtual override returns (uint256) {... */\n      swap2\n      swap1\n      pop\n      jump\t// out\n        /* \"@openzeppelin/contracts/access/Ownable.sol\":1831:1932  function renounceOwnership() public virtual onlyOwner {... */\n    tag_77:\n        /* \"@openzeppelin/contracts/access/Ownable.sol\":1094:1107  _checkOwner() */\n      tag_160\n        /* \"@openzeppelin/contracts/access/Ownable.sol\":1094:1105  _checkOwner */\n      tag_161\n        /* \"@openzeppelin/contracts/access/Ownable.sol\":1094:1107  _checkOwner() */\n      jump\t// in\n    tag_160:\n        /* \"@openzeppelin/contracts/access/Ownable.sol\":1895:1925  _transferOwnership(address(0)) */\n      tag_163\n        /* \"@openzeppelin/contracts/access/Ownable.sol\":1922:1923  0 */\n      0x00\n        /* \"@openzeppelin/contracts/access/Ownable.sol\":1895:1913  _transferOwnership */\n      tag_164\n        /* \"@openzeppelin/contracts/access/Ownable.sol\":1895:1925  _transferOwnership(address(0)) */\n      jump\t// in\n    tag_163:\n        /* \"@openzeppelin/contracts/access/Ownable.sol\":1831:1932  function renounceOwnership() public virtual onlyOwner {... */\n      jump\t// out\n        /* \"Token.sol\":835:942  function withdrawEther() public onlyOwner {... */\n    tag_80:\n        /* \"@openzeppelin/contracts/access/Ownable.sol\":1094:1107  _checkOwner() */\n      tag_166\n        /* \"@openzeppelin/contracts/access/Ownable.sol\":1094:1105  _checkOwner */\n      tag_161\n        /* \"@openzeppelin/contracts/access/Ownable.sol\":1094:1107  _checkOwner() */\n      jump\t// in\n    tag_166:\n        /* \"Token.sol\":895:902  owner() */\n      tag_168\n        /* \"Token.sol\":895:900  owner */\n      tag_91\n        /* \"Token.sol\":895:902  owner() */\n      jump\t// in\n    tag_168:\n        /* \"Token.sol\":887:912  payable(owner()).transfer */\n      0xffffffffffffffffffffffffffffffffffffffff\n      and\n        /* \"Token.sol\":887:935  payable(owner()).transfer(address(this).balance) */\n      0x08fc\n        /* \"Token.sol\":913:934  address(this).balance */\n      selfbalance\n        /* \"Token.sol\":887:935  payable(owner()).transfer(address(this).balance) */\n      swap1\n      dup2\n      iszero\n      mul\n      swap1\n      mload(0x40)\n      0x00\n      mload(0x40)\n      dup1\n      dup4\n      sub\n      dup2\n      dup6\n      dup9\n      dup9\n      call\n      swap4\n      pop\n      pop\n      pop\n      pop\n      iszero\n      dup1\n      iszero\n      tag_170\n      jumpi\n      returndatasize\n      0x00\n      dup1\n      returndatacopy\n      revert(0x00, returndatasize)\n    tag_170:\n      pop\n        /* \"Token.sol\":835:942  function withdrawEther() public onlyOwner {... */\n      jump\t// out\n        /* \"@openzeppelin/contracts/token/ERC20/extensions/ERC20Burnable.sol\":973:1134  function burnFrom(address account, uint256 amount) public virtual {... */\n    tag_84:\n        /* \"@openzeppelin/contracts/token/ERC20/extensions/ERC20Burnable.sol\":1049:1095  _spendAllowance(account, _msgSender(), amount) */\n      tag_172\n        /* \"@openzeppelin/contracts/token/ERC20/extensions/ERC20Burnable.sol\":1065:1072  account */\n      dup3\n        /* \"@openzeppelin/contracts/token/ERC20/extensions/ERC20Burnable.sol\":1074:1086  _msgSender() */\n      tag_173\n        /* \"@openzeppelin/contracts/token/ERC20/extensions/ERC20Burnable.sol\":1074:1084  _msgSender */\n      tag_134\n        /* \"@openzeppelin/contracts/token/ERC20/extensions/ERC20Burnable.sol\":1074:1086  _msgSender() */\n      jump\t// in\n    tag_173:\n        /* \"@openzeppelin/contracts/token/ERC20/extensions/ERC20Burnable.sol\":1088:1094  amount */\n      dup4\n        /* \"@openzeppelin/contracts/token/ERC20/extensions/ERC20Burnable.sol\":1049:1064  _spendAllowance */\n      tag_141\n        /* \"@openzeppelin/contracts/token/ERC20/extensions/ERC20Burnable.sol\":1049:1095  _spendAllowance(account, _msgSender(), amount) */\n      jump\t// in\n    tag_172:\n        /* \"@openzeppelin/contracts/token/ERC20/extensions/ERC20Burnable.sol\":1105:1127  _burn(account, amount) */\n      tag_174\n        /* \"@openzeppelin/contracts/token/ERC20/extensions/ERC20Burnable.sol\":1111:1118  account */\n      dup3\n        /* \"@openzeppelin/contracts/token/ERC20/extensions/ERC20Burnable.sol\":1120:1126  amount */\n      dup3\n        /* \"@openzeppelin/contracts/token/ERC20/extensions/ERC20Burnable.sol\":1105:1110  _burn */\n      tag_154\n        /* \"@openzeppelin/contracts/token/ERC20/extensions/ERC20Burnable.sol\":1105:1127  _burn(account, amount) */\n      jump\t// in\n    tag_174:\n        /* \"@openzeppelin/contracts/token/ERC20/extensions/ERC20Burnable.sol\":973:1134  function burnFrom(address account, uint256 amount) public virtual {... */\n      pop\n      pop\n      jump\t// out\n        /* \"Token.sol\":302:324  uint public tokenPrice */\n    tag_87:\n      sload(0x06)\n      dup2\n      jump\t// out\n        /* \"@openzeppelin/contracts/access/Ownable.sol\":1201:1286  function owner() public view virtual returns (address) {... */\n    tag_91:\n        /* \"@openzeppelin/contracts/access/Ownable.sol\":1247:1254  address */\n      0x00\n        /* \"@openzeppelin/contracts/access/Ownable.sol\":1273:1279  _owner */\n      0x05\n      0x00\n      swap1\n      sload\n      swap1\n      0x0100\n      exp\n      swap1\n      div\n      0xffffffffffffffffffffffffffffffffffffffff\n      and\n        /* \"@openzeppelin/contracts/access/Ownable.sol\":1266:1279  return _owner */\n      swap1\n      pop\n        /* \"@openzeppelin/contracts/access/Ownable.sol\":1201:1286  function owner() public view virtual returns (address) {... */\n      swap1\n      jump\t// out\n        /* \"@openzeppelin/contracts/token/ERC20/ERC20.sol\":2365:2467  function symbol() public view virtual override returns (string memory) {... */\n    tag_96:\n        /* \"@openzeppelin/contracts/token/ERC20/ERC20.sol\":2421:2434  string memory */\n      0x60\n        /* \"@openzeppelin/contracts/token/ERC20/ERC20.sol\":2453:2460  _symbol */\n      0x04\n        /* \"@openzeppelin/contracts/token/ERC20/ERC20.sol\":2446:2460  return _symbol */\n      dup1\n      sload\n      tag_177\n      swap1\n      tag_127\n      jump\t// in\n    tag_177:\n      dup1\n      0x1f\n      add\n      0x20\n      dup1\n      swap2\n      div\n      mul\n      0x20\n      add\n      mload(0x40)\n      swap1\n      dup2\n      add\n      0x40\n      mstore\n      dup1\n      swap3\n      swap2\n      swap1\n      dup2\n      dup2\n      mstore\n      0x20\n      add\n      dup3\n      dup1\n      sload\n      tag_178\n      swap1\n      tag_127\n      jump\t// in\n    tag_178:\n      dup1\n      iszero\n      tag_179\n      jumpi\n      dup1\n      0x1f\n      lt\n      tag_180\n      jumpi\n      0x0100\n      dup1\n      dup4\n      sload\n      div\n      mul\n      dup4\n      mstore\n      swap2\n      0x20\n      add\n      swap2\n      jump(tag_179)\n    tag_180:\n      dup3\n      add\n      swap2\n      swap1\n      0x00\n      mstore\n      keccak256(0x00, 0x20)\n      swap1\n    tag_181:\n      dup2\n      sload\n      dup2\n      mstore\n      swap1\n      0x01\n      add\n      swap1\n      0x20\n      add\n      dup1\n      dup4\n      gt\n      tag_181\n      jumpi\n      dup3\n      swap1\n      sub\n      0x1f\n      and\n      dup3\n      add\n      swap2\n    tag_179:\n      pop\n      pop\n      pop\n      pop\n      pop\n      swap1\n      pop\n        /* \"@openzeppelin/contracts/token/ERC20/ERC20.sol\":2365:2467  function symbol() public view virtual override returns (string memory) {... */\n      swap1\n      jump\t// out\n        /* \"Token.sol\":490:829  function mint(uint amount) public payable{... */\n    tag_100:\n        /* \"Token.sol\":588:597  maxSupply */\n      sload(0x07)\n        /* \"Token.sol\":578:584  amount */\n      dup2\n        /* \"Token.sol\":562:575  totalSupply() */\n      tag_183\n        /* \"Token.sol\":562:573  totalSupply */\n      tag_40\n        /* \"Token.sol\":562:575  totalSupply() */\n      jump\t// in\n    tag_183:\n        /* \"Token.sol\":562:584  totalSupply() + amount */\n      tag_184\n      swap2\n      swap1\n      tag_150\n      jump\t// in\n    tag_184:\n        /* \"Token.sol\":562:597  totalSupply() + amount <= maxSupply */\n      gt\n      iszero\n        /* \"Token.sol\":541:643  require(... */\n      tag_185\n      jumpi\n      mload(0x40)\n      0x08c379a000000000000000000000000000000000000000000000000000000000\n      dup2\n      mstore\n      0x04\n      add\n      tag_186\n      swap1\n      tag_187\n      jump\t// in\n    tag_186:\n      mload(0x40)\n      dup1\n      swap2\n      sub\n      swap1\n      revert\n    tag_185:\n        /* \"Token.sol\":716:726  tokenPrice */\n      sload(0x06)\n        /* \"Token.sol\":706:712  amount */\n      dup2\n        /* \"Token.sol\":693:703  decimals() */\n      tag_188\n        /* \"Token.sol\":693:701  decimals */\n      tag_51\n        /* \"Token.sol\":693:703  decimals() */\n      jump\t// in\n    tag_188:\n        /* \"Token.sol\":687:689  10 */\n      0x0a\n        /* \"Token.sol\":687:703  10 ** decimals() */\n      tag_189\n      swap2\n      swap1\n      tag_190\n      jump\t// in\n    tag_189:\n        /* \"Token.sol\":675:684  msg.value */\n      callvalue\n        /* \"Token.sol\":675:703  msg.value * 10 ** decimals() */\n      tag_191\n      swap2\n      swap1\n      tag_192\n      jump\t// in\n    tag_191:\n        /* \"Token.sol\":675:712  msg.value * 10 ** decimals() / amount */\n      tag_193\n      swap2\n      swap1\n      tag_194\n      jump\t// in\n    tag_193:\n        /* \"Token.sol\":675:726  msg.value * 10 ** decimals() / amount >= tokenPrice */\n      lt\n      iszero\n        /* \"Token.sol\":654:786  require(... */\n      tag_195\n      jumpi\n      mload(0x40)\n      0x08c379a000000000000000000000000000000000000000000000000000000000\n      dup2\n      mstore\n      0x04\n      add\n      tag_196\n      swap1\n      tag_197\n      jump\t// in\n    tag_196:\n      mload(0x40)\n      dup1\n      swap2\n      sub\n      swap1\n      revert\n    tag_195:\n        /* \"Token.sol\":797:822  _mint(msg.sender, amount) */\n      tag_198\n        /* \"Token.sol\":803:813  msg.sender */\n      caller\n        /* \"Token.sol\":815:821  amount */\n      dup3\n        /* \"Token.sol\":797:802  _mint */\n      tag_199\n        /* \"Token.sol\":797:822  _mint(msg.sender, amount) */\n      jump\t// in\n    tag_198:\n        /* \"Token.sol\":490:829  function mint(uint amount) public payable{... */\n      pop\n      jump\t// out\n        /* \"@openzeppelin/contracts/token/ERC20/ERC20.sol\":6596:7023  function decreaseAllowance(address spender, uint256 subtractedValue) public virtual returns (bool) {... */\n    tag_104:\n        /* \"@openzeppelin/contracts/token/ERC20/ERC20.sol\":6689:6693  bool */\n      0x00\n        /* \"@openzeppelin/contracts/token/ERC20/ERC20.sol\":6705:6718  address owner */\n      dup1\n        /* \"@openzeppelin/contracts/token/ERC20/ERC20.sol\":6721:6733  _msgSender() */\n      tag_201\n        /* \"@openzeppelin/contracts/token/ERC20/ERC20.sol\":6721:6731  _msgSender */\n      tag_134\n        /* \"@openzeppelin/contracts/token/ERC20/ERC20.sol\":6721:6733  _msgSender() */\n      jump\t// in\n    tag_201:\n        /* \"@openzeppelin/contracts/token/ERC20/ERC20.sol\":6705:6733  address owner = _msgSender() */\n      swap1\n      pop\n        /* \"@openzeppelin/contracts/token/ERC20/ERC20.sol\":6743:6767  uint256 currentAllowance */\n      0x00\n        /* \"@openzeppelin/contracts/token/ERC20/ERC20.sol\":6770:6795  allowance(owner, spender) */\n      tag_202\n        /* \"@openzeppelin/contracts/token/ERC20/ERC20.sol\":6780:6785  owner */\n      dup3\n        /* \"@openzeppelin/contracts/token/ERC20/ERC20.sol\":6787:6794  spender */\n      dup7\n        /* \"@openzeppelin/contracts/token/ERC20/ERC20.sol\":6770:6779  allowance */\n      tag_119\n        /* \"@openzeppelin/contracts/token/ERC20/ERC20.sol\":6770:6795  allowance(owner, spender) */\n      jump\t// in\n    tag_202:\n        /* \"@openzeppelin/contracts/token/ERC20/ERC20.sol\":6743:6795  uint256 currentAllowance = allowance(owner, spender) */\n      swap1\n      pop\n        /* \"@openzeppelin/contracts/token/ERC20/ERC20.sol\":6833:6848  subtractedValue */\n      dup4\n        /* \"@openzeppelin/contracts/token/ERC20/ERC20.sol\":6813:6829  currentAllowance */\n      dup2\n        /* \"@openzeppelin/contracts/token/ERC20/ERC20.sol\":6813:6848  currentAllowance >= subtractedValue */\n      lt\n      iszero\n        /* \"@openzeppelin/contracts/token/ERC20/ERC20.sol\":6805:6890  require(currentAllowance >= subtractedValue, \"ERC20: decreased allowance below zero\") */\n      tag_203\n      jumpi\n      mload(0x40)\n      0x08c379a000000000000000000000000000000000000000000000000000000000\n      dup2\n      mstore\n      0x04\n      add\n      tag_204\n      swap1\n      tag_205\n      jump\t// in\n    tag_204:\n      mload(0x40)\n      dup1\n      swap2\n      sub\n      swap1\n      revert\n    tag_203:\n        /* \"@openzeppelin/contracts/token/ERC20/ERC20.sol\":6924:6984  _approve(owner, spender, currentAllowance - subtractedValue) */\n      tag_206\n        /* \"@openzeppelin/contracts/token/ERC20/ERC20.sol\":6933:6938  owner */\n      dup3\n        /* \"@openzeppelin/contracts/token/ERC20/ERC20.sol\":6940:6947  spender */\n      dup7\n        /* \"@openzeppelin/contracts/token/ERC20/ERC20.sol\":6968:6983  subtractedValue */\n      dup7\n        /* \"@openzeppelin/contracts/token/ERC20/ERC20.sol\":6949:6965  currentAllowance */\n      dup5\n        /* \"@openzeppelin/contracts/token/ERC20/ERC20.sol\":6949:6983  currentAllowance - subtractedValue */\n      sub\n        /* \"@openzeppelin/contracts/token/ERC20/ERC20.sol\":6924:6932  _approve */\n      tag_136\n        /* \"@openzeppelin/contracts/token/ERC20/ERC20.sol\":6924:6984  _approve(owner, spender, currentAllowance - subtractedValue) */\n      jump\t// in\n    tag_206:\n        /* \"@openzeppelin/contracts/token/ERC20/ERC20.sol\":7012:7016  true */\n      0x01\n        /* \"@openzeppelin/contracts/token/ERC20/ERC20.sol\":7005:7016  return true */\n      swap3\n      pop\n      pop\n      pop\n        /* \"@openzeppelin/contracts/token/ERC20/ERC20.sol\":6596:7023  function decreaseAllowance(address spender, uint256 subtractedValue) public virtual returns (bool) {... */\n      swap3\n      swap2\n      pop\n      pop\n      jump\t// out\n        /* \"@openzeppelin/contracts/token/ERC20/ERC20.sol\":3727:3916  function transfer(address to, uint256 amount) public virtual override returns (bool) {... */\n    tag_109:\n        /* \"@openzeppelin/contracts/token/ERC20/ERC20.sol\":3806:3810  bool */\n      0x00\n        /* \"@openzeppelin/contracts/token/ERC20/ERC20.sol\":3822:3835  address owner */\n      dup1\n        /* \"@openzeppelin/contracts/token/ERC20/ERC20.sol\":3838:3850  _msgSender() */\n      tag_208\n        /* \"@openzeppelin/contracts/token/ERC20/ERC20.sol\":3838:3848  _msgSender */\n      tag_134\n        /* \"@openzeppelin/contracts/token/ERC20/ERC20.sol\":3838:3850  _msgSender() */\n      jump\t// in\n    tag_208:\n        /* \"@openzeppelin/contracts/token/ERC20/ERC20.sol\":3822:3850  address owner = _msgSender() */\n      swap1\n      pop\n        /* \"@openzeppelin/contracts/token/ERC20/ERC20.sol\":3860:3888  _transfer(owner, to, amount) */\n      tag_209\n        /* \"@openzeppelin/contracts/token/ERC20/ERC20.sol\":3870:3875  owner */\n      dup2\n        /* \"@openzeppelin/contracts/token/ERC20/ERC20.sol\":3877:3879  to */\n      dup6\n        /* \"@openzeppelin/contracts/token/ERC20/ERC20.sol\":3881:3887  amount */\n      dup6\n        /* \"@openzeppelin/contracts/token/ERC20/ERC20.sol\":3860:3869  _transfer */\n      tag_143\n        /* \"@openzeppelin/contracts/token/ERC20/ERC20.sol\":3860:3888  _transfer(owner, to, amount) */\n      jump\t// in\n    tag_209:\n        /* \"@openzeppelin/contracts/token/ERC20/ERC20.sol\":3905:3909  true */\n      0x01\n        /* \"@openzeppelin/contracts/token/ERC20/ERC20.sol\":3898:3909  return true */\n      swap2\n      pop\n      pop\n        /* \"@openzeppelin/contracts/token/ERC20/ERC20.sol\":3727:3916  function transfer(address to, uint256 amount) public virtual override returns (bool) {... */\n      swap3\n      swap2\n      pop\n      pop\n      jump\t// out\n        /* \"Token.sol\":330:351  uint public maxSupply */\n    tag_113:\n      sload(0x07)\n      dup2\n      jump\t// out\n        /* \"@openzeppelin/contracts/token/ERC20/ERC20.sol\":3978:4127  function allowance(address owner, address spender) public view virtual override returns (uint256) {... */\n    tag_119:\n        /* \"@openzeppelin/contracts/token/ERC20/ERC20.sol\":4067:4074  uint256 */\n      0x00\n        /* \"@openzeppelin/contracts/token/ERC20/ERC20.sol\":4093:4104  _allowances */\n      0x01\n        /* \"@openzeppelin/contracts/token/ERC20/ERC20.sol\":4093:4111  _allowances[owner] */\n      0x00\n        /* \"@openzeppelin/contracts/token/ERC20/ERC20.sol\":4105:4110  owner */\n      dup5\n        /* \"@openzeppelin/contracts/token/ERC20/ERC20.sol\":4093:4111  _allowances[owner] */\n      0xffffffffffffffffffffffffffffffffffffffff\n      and\n      0xffffffffffffffffffffffffffffffffffffffff\n      and\n      dup2\n      mstore\n      0x20\n      add\n      swap1\n      dup2\n      mstore\n      0x20\n      add\n      0x00\n      keccak256\n        /* \"@openzeppelin/contracts/token/ERC20/ERC20.sol\":4093:4120  _allowances[owner][spender] */\n      0x00\n        /* \"@openzeppelin/contracts/token/ERC20/ERC20.sol\":4112:4119  spender */\n      dup4\n        /* \"@openzeppelin/contracts/token/ERC20/ERC20.sol\":4093:4120  _allowances[owner][spender] */\n      0xffffffffffffffffffffffffffffffffffffffff\n      and\n      0xffffffffffffffffffffffffffffffffffffffff\n      and\n      dup2\n      mstore\n      0x20\n      add\n      swap1\n      dup2\n      mstore\n      0x20\n      add\n      0x00\n      keccak256\n      sload\n        /* \"@openzeppelin/contracts/token/ERC20/ERC20.sol\":4086:4120  return _allowances[owner][spender] */\n      swap1\n      pop\n        /* \"@openzeppelin/contracts/token/ERC20/ERC20.sol\":3978:4127  function allowance(address owner, address spender) public view virtual override returns (uint256) {... */\n      swap3\n      swap2\n      pop\n      pop\n      jump\t// out\n        /* \"@openzeppelin/contracts/access/Ownable.sol\":2081:2279  function transferOwnership(address newOwner) public virtual onlyOwner {... */\n    tag_124:\n        /* \"@openzeppelin/contracts/access/Ownable.sol\":1094:1107  _checkOwner() */\n      tag_212\n        /* \"@openzeppelin/contracts/access/Ownable.sol\":1094:1105  _checkOwner */\n      tag_161\n        /* \"@openzeppelin/contracts/access/Ownable.sol\":1094:1107  _checkOwner() */\n      jump\t// in\n    tag_212:\n        /* \"@openzeppelin/contracts/access/Ownable.sol\":2189:2190  0 */\n      0x00\n        /* \"@openzeppelin/contracts/access/Ownable.sol\":2169:2191  newOwner != address(0) */\n      0xffffffffffffffffffffffffffffffffffffffff\n      and\n        /* \"@openzeppelin/contracts/access/Ownable.sol\":2169:2177  newOwner */\n      dup2\n        /* \"@openzeppelin/contracts/access/Ownable.sol\":2169:2191  newOwner != address(0) */\n      0xffffffffffffffffffffffffffffffffffffffff\n      and\n      sub\n        /* \"@openzeppelin/contracts/access/Ownable.sol\":2161:2234  require(newOwner != address(0), \"Ownable: new owner is the zero address\") */\n      tag_214\n      jumpi\n      mload(0x40)\n      0x08c379a000000000000000000000000000000000000000000000000000000000\n      dup2\n      mstore\n      0x04\n      add\n      tag_215\n      swap1\n      tag_216\n      jump\t// in\n    tag_215:\n      mload(0x40)\n      dup1\n      swap2\n      sub\n      swap1\n      revert\n    tag_214:\n        /* \"@openzeppelin/contracts/access/Ownable.sol\":2244:2272  _transferOwnership(newOwner) */\n      tag_217\n        /* \"@openzeppelin/contracts/access/Ownable.sol\":2263:2271  newOwner */\n      dup2\n        /* \"@openzeppelin/contracts/access/Ownable.sol\":2244:2262  _transferOwnership */\n      tag_164\n        /* \"@openzeppelin/contracts/access/Ownable.sol\":2244:2272  _transferOwnership(newOwner) */\n      jump\t// in\n    tag_217:\n        /* \"@openzeppelin/contracts/access/Ownable.sol\":2081:2279  function transferOwnership(address newOwner) public virtual onlyOwner {... */\n      pop\n      jump\t// out\n        /* \"@openzeppelin/contracts/utils/Context.sol\":640:736  function _msgSender() internal view virtual returns (address) {... */\n    tag_134:\n        /* \"@openzeppelin/contracts/utils/Context.sol\":693:700  address */\n      0x00\n        /* \"@openzeppelin/contracts/utils/Context.sol\":719:729  msg.sender */\n      caller\n        /* \"@openzeppelin/contracts/utils/Context.sol\":712:729  return msg.sender */\n      swap1\n      pop\n        /* \"@openzeppelin/contracts/utils/Context.sol\":640:736  function _msgSender() internal view virtual returns (address) {... */\n      swap1\n      jump\t// out\n        /* \"@openzeppelin/contracts/token/ERC20/ERC20.sol\":10508:10878  function _approve(... */\n    tag_136:\n        /* \"@openzeppelin/contracts/token/ERC20/ERC20.sol\":10656:10657  0 */\n      0x00\n        /* \"@openzeppelin/contracts/token/ERC20/ERC20.sol\":10639:10658  owner != address(0) */\n      0xffffffffffffffffffffffffffffffffffffffff\n      and\n        /* \"@openzeppelin/contracts/token/ERC20/ERC20.sol\":10639:10644  owner */\n      dup4\n        /* \"@openzeppelin/contracts/token/ERC20/ERC20.sol\":10639:10658  owner != address(0) */\n      0xffffffffffffffffffffffffffffffffffffffff\n      and\n      sub\n        /* \"@openzeppelin/contracts/token/ERC20/ERC20.sol\":10631:10699  require(owner != address(0), \"ERC20: approve from the zero address\") */\n      tag_220\n      jumpi\n      mload(0x40)\n      0x08c379a000000000000000000000000000000000000000000000000000000000\n      dup2\n      mstore\n      0x04\n      add\n      tag_221\n      swap1\n      tag_222\n      jump\t// in\n    tag_221:\n      mload(0x40)\n      dup1\n      swap2\n      sub\n      swap1\n      revert\n    tag_220:\n        /* \"@openzeppelin/contracts/token/ERC20/ERC20.sol\":10736:10737  0 */\n      0x00\n        /* \"@openzeppelin/contracts/token/ERC20/ERC20.sol\":10717:10738  spender != address(0) */\n      0xffffffffffffffffffffffffffffffffffffffff\n      and\n        /* \"@openzeppelin/contracts/token/ERC20/ERC20.sol\":10717:10724  spender */\n      dup3\n        /* \"@openzeppelin/contracts/token/ERC20/ERC20.sol\":10717:10738  spender != address(0) */\n      0xffffffffffffffffffffffffffffffffffffffff\n      and\n      sub\n        /* \"@openzeppelin/contracts/token/ERC20/ERC20.sol\":10709:10777  require(spender != address(0), \"ERC20: approve to the zero address\") */\n      tag_223\n      jumpi\n      mload(0x40)\n      0x08c379a000000000000000000000000000000000000000000000000000000000\n      dup2\n      mstore\n      0x04\n      add\n      tag_224\n      swap1\n      tag_225\n      jump\t// in\n    tag_224:\n      mload(0x40)\n      dup1\n      swap2\n      sub\n      swap1\n      revert\n    tag_223:\n        /* \"@openzeppelin/contracts/token/ERC20/ERC20.sol\":10818:10824  amount */\n      dup1\n        /* \"@openzeppelin/contracts/token/ERC20/ERC20.sol\":10788:10799  _allowances */\n      0x01\n        /* \"@openzeppelin/contracts/token/ERC20/ERC20.sol\":10788:10806  _allowances[owner] */\n      0x00\n        /* \"@openzeppelin/contracts/token/ERC20/ERC20.sol\":10800:10805  owner */\n      dup6\n        /* \"@openzeppelin/contracts/token/ERC20/ERC20.sol\":10788:10806  _allowances[owner] */\n      0xffffffffffffffffffffffffffffffffffffffff\n      and\n      0xffffffffffffffffffffffffffffffffffffffff\n      and\n      dup2\n      mstore\n      0x20\n      add\n      swap1\n      dup2\n      mstore\n      0x20\n      add\n      0x00\n      keccak256\n        /* \"@openzeppelin/contracts/token/ERC20/ERC20.sol\":10788:10815  _allowances[owner][spender] */\n      0x00\n        /* \"@openzeppelin/contracts/token/ERC20/ERC20.sol\":10807:10814  spender */\n      dup5\n        /* \"@openzeppelin/contracts/token/ERC20/ERC20.sol\":10788:10815  _allowances[owner][spender] */\n      0xffffffffffffffffffffffffffffffffffffffff\n      and\n      0xffffffffffffffffffffffffffffffffffffffff\n      and\n      dup2\n      mstore\n      0x20\n      add\n      swap1\n      dup2\n      mstore\n      0x20\n      add\n      0x00\n      keccak256\n        /* \"@openzeppelin/contracts/token/ERC20/ERC20.sol\":10788:10824  _allowances[owner][spender] = amount */\n      dup2\n      swap1\n      sstore\n      pop\n        /* \"@openzeppelin/contracts/token/ERC20/ERC20.sol\":10855:10862  spender */\n      dup2\n        /* \"@openzeppelin/contracts/token/ERC20/ERC20.sol\":10839:10871  Approval(owner, spender, amount) */\n      0xffffffffffffffffffffffffffffffffffffffff\n      and\n        /* \"@openzeppelin/contracts/token/ERC20/ERC20.sol\":10848:10853  owner */\n      dup4\n        /* \"@openzeppelin/contracts/token/ERC20/ERC20.sol\":10839:10871  Approval(owner, spender, amount) */\n      0xffffffffffffffffffffffffffffffffffffffff\n      and\n      0x8c5be1e5ebec7d5bd14f71427d1e84f3dd0314c0f7b2291e5b200ac8c7c3b925\n        /* \"@openzeppelin/contracts/token/ERC20/ERC20.sol\":10864:10870  amount */\n      dup4\n        /* \"@openzeppelin/contracts/token/ERC20/ERC20.sol\":10839:10871  Approval(owner, spender, amount) */\n      mload(0x40)\n      tag_226\n      swap2\n      swap1\n      tag_42\n      jump\t// in\n    tag_226:\n      mload(0x40)\n      dup1\n      swap2\n      sub\n      swap1\n      log3\n        /* \"@openzeppelin/contracts/token/ERC20/ERC20.sol\":10508:10878  function _approve(... */\n      pop\n      pop\n      pop\n      jump\t// out\n        /* \"@openzeppelin/contracts/token/ERC20/ERC20.sol\":11159:11600  function _spendAllowance(... */\n    tag_141:\n        /* \"@openzeppelin/contracts/token/ERC20/ERC20.sol\":11289:11313  uint256 currentAllowance */\n      0x00\n        /* \"@openzeppelin/contracts/token/ERC20/ERC20.sol\":11316:11341  allowance(owner, spender) */\n      tag_228\n        /* \"@openzeppelin/contracts/token/ERC20/ERC20.sol\":11326:11331  owner */\n      dup5\n        /* \"@openzeppelin/contracts/token/ERC20/ERC20.sol\":11333:11340  spender */\n      dup5\n        /* \"@openzeppelin/contracts/token/ERC20/ERC20.sol\":11316:11325  allowance */\n      tag_119\n        /* \"@openzeppelin/contracts/token/ERC20/ERC20.sol\":11316:11341  allowance(owner, spender) */\n      jump\t// in\n    tag_228:\n        /* \"@openzeppelin/contracts/token/ERC20/ERC20.sol\":11289:11341  uint256 currentAllowance = allowance(owner, spender) */\n      swap1\n      pop\n        /* \"@openzeppelin/contracts/token/ERC20/ERC20.sol\":11375:11392  type(uint256).max */\n      0xffffffffffffffffffffffffffffffffffffffffffffffffffffffffffffffff\n        /* \"@openzeppelin/contracts/token/ERC20/ERC20.sol\":11355:11371  currentAllowance */\n      dup2\n        /* \"@openzeppelin/contracts/token/ERC20/ERC20.sol\":11355:11392  currentAllowance != type(uint256).max */\n      eq\n        /* \"@openzeppelin/contracts/token/ERC20/ERC20.sol\":11351:11594  if (currentAllowance != type(uint256).max) {... */\n      tag_229\n      jumpi\n        /* \"@openzeppelin/contracts/token/ERC20/ERC20.sol\":11436:11442  amount */\n      dup2\n        /* \"@openzeppelin/contracts/token/ERC20/ERC20.sol\":11416:11432  currentAllowance */\n      dup2\n        /* \"@openzeppelin/contracts/token/ERC20/ERC20.sol\":11416:11442  currentAllowance >= amount */\n      lt\n      iszero\n        /* \"@openzeppelin/contracts/token/ERC20/ERC20.sol\":11408:11476  require(currentAllowance >= amount, \"ERC20: insufficient allowance\") */\n      tag_230\n      jumpi\n      mload(0x40)\n      0x08c379a000000000000000000000000000000000000000000000000000000000\n      dup2\n      mstore\n      0x04\n      add\n      tag_231\n      swap1\n      tag_232\n      jump\t// in\n    tag_231:\n      mload(0x40)\n      dup1\n      swap2\n      sub\n      swap1\n      revert\n    tag_230:\n        /* \"@openzeppelin/contracts/token/ERC20/ERC20.sol\":11518:11569  _approve(owner, spender, currentAllowance - amount) */\n      tag_233\n        /* \"@openzeppelin/contracts/token/ERC20/ERC20.sol\":11527:11532  owner */\n      dup5\n        /* \"@openzeppelin/contracts/token/ERC20/ERC20.sol\":11534:11541  spender */\n      dup5\n        /* \"@openzeppelin/contracts/token/ERC20/ERC20.sol\":11562:11568  amount */\n      dup5\n        /* \"@openzeppelin/contracts/token/ERC20/ERC20.sol\":11543:11559  currentAllowance */\n      dup5\n        /* \"@openzeppelin/contracts/token/ERC20/ERC20.sol\":11543:11568  currentAllowance - amount */\n      sub\n        /* \"@openzeppelin/contracts/token/ERC20/ERC20.sol\":11518:11526  _approve */\n      tag_136\n        /* \"@openzeppelin/contracts/token/ERC20/ERC20.sol\":11518:11569  _approve(owner, spender, currentAllowance - amount) */\n      jump\t// in\n    tag_233:\n        /* \"@openzeppelin/contracts/token/ERC20/ERC20.sol\":11351:11594  if (currentAllowance != type(uint256).max) {... */\n    tag_229:\n        /* \"@openzeppelin/contracts/token/ERC20/ERC20.sol\":11279:11600  {... */\n      pop\n        /* \"@openzeppelin/contracts/token/ERC20/ERC20.sol\":11159:11600  function _spendAllowance(... */\n      pop\n      pop\n      pop\n      jump\t// out\n        /* \"@openzeppelin/contracts/token/ERC20/ERC20.sol\":7477:8295  function _transfer(... */\n    tag_143:\n        /* \"@openzeppelin/contracts/token/ERC20/ERC20.sol\":7619:7620  0 */\n      0x00\n        /* \"@openzeppelin/contracts/token/ERC20/ERC20.sol\":7603:7621  from != address(0) */\n      0xffffffffffffffffffffffffffffffffffffffff\n      and\n        /* \"@openzeppelin/contracts/token/ERC20/ERC20.sol\":7603:7607  from */\n      dup4\n        /* \"@openzeppelin/contracts/token/ERC20/ERC20.sol\":7603:7621  from != address(0) */\n      0xffffffffffffffffffffffffffffffffffffffff\n      and\n      sub\n        /* \"@openzeppelin/contracts/token/ERC20/ERC20.sol\":7595:7663  require(from != address(0), \"ERC20: transfer from the zero address\") */\n      tag_235\n      jumpi\n      mload(0x40)\n      0x08c379a000000000000000000000000000000000000000000000000000000000\n      dup2\n      mstore\n      0x04\n      add\n      tag_236\n      swap1\n      tag_237\n      jump\t// in\n    tag_236:\n      mload(0x40)\n      dup1\n      swap2\n      sub\n      swap1\n      revert\n    tag_235:\n        /* \"@openzeppelin/contracts/token/ERC20/ERC20.sol\":7695:7696  0 */\n      0x00\n        /* \"@openzeppelin/contracts/token/ERC20/ERC20.sol\":7681:7697  to != address(0) */\n      0xffffffffffffffffffffffffffffffffffffffff\n      and\n        /* \"@openzeppelin/contracts/token/ERC20/ERC20.sol\":7681:7683  to */\n      dup3\n        /* \"@openzeppelin/contracts/token/ERC20/ERC20.sol\":7681:7697  to != address(0) */\n      0xffffffffffffffffffffffffffffffffffffffff\n      and\n      sub\n        /* \"@openzeppelin/contracts/token/ERC20/ERC20.sol\":7673:7737  require(to != address(0), \"ERC20: transfer to the zero address\") */\n      tag_238\n      jumpi\n      mload(0x40)\n      0x08c379a000000000000000000000000000000000000000000000000000000000\n      dup2\n      mstore\n      0x04\n      add\n      tag_239\n      swap1\n      tag_240\n      jump\t// in\n    tag_239:\n      mload(0x40)\n      dup1\n      swap2\n      sub\n      swap1\n      revert\n    tag_238:\n        /* \"@openzeppelin/contracts/token/ERC20/ERC20.sol\":7748:7786  _beforeTokenTransfer(from, to, amount) */\n      tag_241\n        /* \"@openzeppelin/contracts/token/ERC20/ERC20.sol\":7769:7773  from */\n      dup4\n        /* \"@openzeppelin/contracts/token/ERC20/ERC20.sol\":7775:7777  to */\n      dup4\n        /* \"@openzeppelin/contracts/token/ERC20/ERC20.sol\":7779:7785  amount */\n      dup4\n        /* \"@openzeppelin/contracts/token/ERC20/ERC20.sol\":7748:7768  _beforeTokenTransfer */\n      tag_242\n        /* \"@openzeppelin/contracts/token/ERC20/ERC20.sol\":7748:7786  _beforeTokenTransfer(from, to, amount) */\n      jump\t// in\n    tag_241:\n        /* \"@openzeppelin/contracts/token/ERC20/ERC20.sol\":7797:7816  uint256 fromBalance */\n      0x00\n        /* \"@openzeppelin/contracts/token/ERC20/ERC20.sol\":7819:7828  _balances */\n      dup1\n        /* \"@openzeppelin/contracts/token/ERC20/ERC20.sol\":7819:7834  _balances[from] */\n      0x00\n        /* \"@openzeppelin/contracts/token/ERC20/ERC20.sol\":7829:7833  from */\n      dup6\n        /* \"@openzeppelin/contracts/token/ERC20/ERC20.sol\":7819:7834  _balances[from] */\n      0xffffffffffffffffffffffffffffffffffffffff\n      and\n      0xffffffffffffffffffffffffffffffffffffffff\n      and\n      dup2\n      mstore\n      0x20\n      add\n      swap1\n      dup2\n      mstore\n      0x20\n      add\n      0x00\n      keccak256\n      sload\n        /* \"@openzeppelin/contracts/token/ERC20/ERC20.sol\":7797:7834  uint256 fromBalance = _balances[from] */\n      swap1\n      pop\n        /* \"@openzeppelin/contracts/token/ERC20/ERC20.sol\":7867:7873  amount */\n      dup2\n        /* \"@openzeppelin/contracts/token/ERC20/ERC20.sol\":7852:7863  fromBalance */\n      dup2\n        /* \"@openzeppelin/contracts/token/ERC20/ERC20.sol\":7852:7873  fromBalance >= amount */\n      lt\n      iszero\n        /* \"@openzeppelin/contracts/token/ERC20/ERC20.sol\":7844:7916  require(fromBalance >= amount, \"ERC20: transfer amount exceeds balance\") */\n      tag_243\n      jumpi\n      mload(0x40)\n      0x08c379a000000000000000000000000000000000000000000000000000000000\n      dup2\n      mstore\n      0x04\n      add\n      tag_244\n      swap1\n      tag_245\n      jump\t// in\n    tag_244:\n      mload(0x40)\n      dup1\n      swap2\n      sub\n      swap1\n      revert\n    tag_243:\n        /* \"@openzeppelin/contracts/token/ERC20/ERC20.sol\":7982:7988  amount */\n      dup2\n        /* \"@openzeppelin/contracts/token/ERC20/ERC20.sol\":7968:7979  fromBalance */\n      dup2\n        /* \"@openzeppelin/contracts/token/ERC20/ERC20.sol\":7968:7988  fromBalance - amount */\n      sub\n        /* \"@openzeppelin/contracts/token/ERC20/ERC20.sol\":7950:7959  _balances */\n      0x00\n        /* \"@openzeppelin/contracts/token/ERC20/ERC20.sol\":7950:7965  _balances[from] */\n      dup1\n        /* \"@openzeppelin/contracts/token/ERC20/ERC20.sol\":7960:7964  from */\n      dup7\n        /* \"@openzeppelin/contracts/token/ERC20/ERC20.sol\":7950:7965  _balances[from] */\n      0xffffffffffffffffffffffffffffffffffffffff\n      and\n      0xffffffffffffffffffffffffffffffffffffffff\n      and\n      dup2\n      mstore\n      0x20\n      add\n      swap1\n      dup2\n      mstore\n      0x20\n      add\n      0x00\n      keccak256\n        /* \"@openzeppelin/contracts/token/ERC20/ERC20.sol\":7950:7988  _balances[from] = fromBalance - amount */\n      dup2\n      swap1\n      sstore\n      pop\n        /* \"@openzeppelin/contracts/token/ERC20/ERC20.sol\":8182:8188  amount */\n      dup2\n        /* \"@openzeppelin/contracts/token/ERC20/ERC20.sol\":8165:8174  _balances */\n      0x00\n        /* \"@openzeppelin/contracts/token/ERC20/ERC20.sol\":8165:8178  _balances[to] */\n      dup1\n        /* \"@openzeppelin/contracts/token/ERC20/ERC20.sol\":8175:8177  to */\n      dup6\n        /* \"@openzeppelin/contracts/token/ERC20/ERC20.sol\":8165:8178  _balances[to] */\n      0xffffffffffffffffffffffffffffffffffffffff\n      and\n      0xffffffffffffffffffffffffffffffffffffffff\n      and\n      dup2\n      mstore\n      0x20\n      add\n      swap1\n      dup2\n      mstore\n      0x20\n      add\n      0x00\n      keccak256\n      0x00\n        /* \"@openzeppelin/contracts/token/ERC20/ERC20.sol\":8165:8188  _balances[to] += amount */\n      dup3\n      dup3\n      sload\n      add\n      swap3\n      pop\n      pop\n      dup2\n      swap1\n      sstore\n      pop\n        /* \"@openzeppelin/contracts/token/ERC20/ERC20.sol\":8229:8231  to */\n      dup3\n        /* \"@openzeppelin/contracts/token/ERC20/ERC20.sol\":8214:8240  Transfer(from, to, amount) */\n      0xffffffffffffffffffffffffffffffffffffffff\n      and\n        /* \"@openzeppelin/contracts/token/ERC20/ERC20.sol\":8223:8227  from */\n      dup5\n        /* \"@openzeppelin/contracts/token/ERC20/ERC20.sol\":8214:8240  Transfer(from, to, amount) */\n      0xffffffffffffffffffffffffffffffffffffffff\n      and\n      0xddf252ad1be2c89b69c2b068fc378daa952ba7f163c4a11628f55a4df523b3ef\n        /* \"@openzeppelin/contracts/token/ERC20/ERC20.sol\":8233:8239  amount */\n      dup5\n        /* \"@openzeppelin/contracts/token/ERC20/ERC20.sol\":8214:8240  Transfer(from, to, amount) */\n      mload(0x40)\n      tag_246\n      swap2\n      swap1\n      tag_42\n      jump\t// in\n    tag_246:\n      mload(0x40)\n      dup1\n      swap2\n      sub\n      swap1\n      log3\n        /* \"@openzeppelin/contracts/token/ERC20/ERC20.sol\":8251:8288  _afterTokenTransfer(from, to, amount) */\n      tag_247\n        /* \"@openzeppelin/contracts/token/ERC20/ERC20.sol\":8271:8275  from */\n      dup5\n        /* \"@openzeppelin/contracts/token/ERC20/ERC20.sol\":8277:8279  to */\n      dup5\n        /* \"@openzeppelin/contracts/token/ERC20/ERC20.sol\":8281:8287  amount */\n      dup5\n        /* \"@openzeppelin/contracts/token/ERC20/ERC20.sol\":8251:8270  _afterTokenTransfer */\n      tag_248\n        /* \"@openzeppelin/contracts/token/ERC20/ERC20.sol\":8251:8288  _afterTokenTransfer(from, to, amount) */\n      jump\t// in\n    tag_247:\n        /* \"@openzeppelin/contracts/token/ERC20/ERC20.sol\":7585:8295  {... */\n      pop\n        /* \"@openzeppelin/contracts/token/ERC20/ERC20.sol\":7477:8295  function _transfer(... */\n      pop\n      pop\n      pop\n      jump\t// out\n        /* \"@openzeppelin/contracts/token/ERC20/ERC20.sol\":9426:10085  function _burn(address account, uint256 amount) internal virtual {... */\n    tag_154:\n        /* \"@openzeppelin/contracts/token/ERC20/ERC20.sol\":9528:9529  0 */\n      0x00\n        /* \"@openzeppelin/contracts/token/ERC20/ERC20.sol\":9509:9530  account != address(0) */\n      0xffffffffffffffffffffffffffffffffffffffff\n      and\n        /* \"@openzeppelin/contracts/token/ERC20/ERC20.sol\":9509:9516  account */\n      dup3\n        /* \"@openzeppelin/contracts/token/ERC20/ERC20.sol\":9509:9530  account != address(0) */\n      0xffffffffffffffffffffffffffffffffffffffff\n      and\n      sub\n        /* \"@openzeppelin/contracts/token/ERC20/ERC20.sol\":9501:9568  require(account != address(0), \"ERC20: burn from the zero address\") */\n      tag_250\n      jumpi\n      mload(0x40)\n      0x08c379a000000000000000000000000000000000000000000000000000000000\n      dup2\n      mstore\n      0x04\n      add\n      tag_251\n      swap1\n      tag_252\n      jump\t// in\n    tag_251:\n      mload(0x40)\n      dup1\n      swap2\n      sub\n      swap1\n      revert\n    tag_250:\n        /* \"@openzeppelin/contracts/token/ERC20/ERC20.sol\":9579:9628  _beforeTokenTransfer(account, address(0), amount) */\n      tag_253\n        /* \"@openzeppelin/contracts/token/ERC20/ERC20.sol\":9600:9607  account */\n      dup3\n        /* \"@openzeppelin/contracts/token/ERC20/ERC20.sol\":9617:9618  0 */\n      0x00\n        /* \"@openzeppelin/contracts/token/ERC20/ERC20.sol\":9621:9627  amount */\n      dup4\n        /* \"@openzeppelin/contracts/token/ERC20/ERC20.sol\":9579:9599  _beforeTokenTransfer */\n      tag_242\n        /* \"@openzeppelin/contracts/token/ERC20/ERC20.sol\":9579:9628  _beforeTokenTransfer(account, address(0), amount) */\n      jump\t// in\n    tag_253:\n        /* \"@openzeppelin/contracts/token/ERC20/ERC20.sol\":9639:9661  uint256 accountBalance */\n      0x00\n        /* \"@openzeppelin/contracts/token/ERC20/ERC20.sol\":9664:9673  _balances */\n      dup1\n        /* \"@openzeppelin/contracts/token/ERC20/ERC20.sol\":9664:9682  _balances[account] */\n      0x00\n        /* \"@openzeppelin/contracts/token/ERC20/ERC20.sol\":9674:9681  account */\n      dup5\n        /* \"@openzeppelin/contracts/token/ERC20/ERC20.sol\":9664:9682  _balances[account] */\n      0xffffffffffffffffffffffffffffffffffffffff\n      and\n      0xffffffffffffffffffffffffffffffffffffffff\n      and\n      dup2\n      mstore\n      0x20\n      add\n      swap1\n      dup2\n      mstore\n      0x20\n      add\n      0x00\n      keccak256\n      sload\n        /* \"@openzeppelin/contracts/token/ERC20/ERC20.sol\":9639:9682  uint256 accountBalance = _balances[account] */\n      swap1\n      pop\n        /* \"@openzeppelin/contracts/token/ERC20/ERC20.sol\":9718:9724  amount */\n      dup2\n        /* \"@openzeppelin/contracts/token/ERC20/ERC20.sol\":9700:9714  accountBalance */\n      dup2\n        /* \"@openzeppelin/contracts/token/ERC20/ERC20.sol\":9700:9724  accountBalance >= amount */\n      lt\n      iszero\n        /* \"@openzeppelin/contracts/token/ERC20/ERC20.sol\":9692:9763  require(accountBalance >= amount, \"ERC20: burn amount exceeds balance\") */\n      tag_254\n      jumpi\n      mload(0x40)\n      0x08c379a000000000000000000000000000000000000000000000000000000000\n      dup2\n      mstore\n      0x04\n      add\n      tag_255\n      swap1\n      tag_256\n      jump\t// in\n    tag_255:\n      mload(0x40)\n      dup1\n      swap2\n      sub\n      swap1\n      revert\n    tag_254:\n        /* \"@openzeppelin/contracts/token/ERC20/ERC20.sol\":9835:9841  amount */\n      dup2\n        /* \"@openzeppelin/contracts/token/ERC20/ERC20.sol\":9818:9832  accountBalance */\n      dup2\n        /* \"@openzeppelin/contracts/token/ERC20/ERC20.sol\":9818:9841  accountBalance - amount */\n      sub\n        /* \"@openzeppelin/contracts/token/ERC20/ERC20.sol\":9797:9806  _balances */\n      0x00\n        /* \"@openzeppelin/contracts/token/ERC20/ERC20.sol\":9797:9815  _balances[account] */\n      dup1\n        /* \"@openzeppelin/contracts/token/ERC20/ERC20.sol\":9807:9814  account */\n      dup6\n        /* \"@openzeppelin/contracts/token/ERC20/ERC20.sol\":9797:9815  _balances[account] */\n      0xffffffffffffffffffffffffffffffffffffffff\n      and\n      0xffffffffffffffffffffffffffffffffffffffff\n      and\n      dup2\n      mstore\n      0x20\n      add\n      swap1\n      dup2\n      mstore\n      0x20\n      add\n      0x00\n      keccak256\n        /* \"@openzeppelin/contracts/token/ERC20/ERC20.sol\":9797:9841  _balances[account] = accountBalance - amount */\n      dup2\n      swap1\n      sstore\n      pop\n        /* \"@openzeppelin/contracts/token/ERC20/ERC20.sol\":9950:9956  amount */\n      dup2\n        /* \"@openzeppelin/contracts/token/ERC20/ERC20.sol\":9934:9946  _totalSupply */\n      0x02\n      0x00\n        /* \"@openzeppelin/contracts/token/ERC20/ERC20.sol\":9934:9956  _totalSupply -= amount */\n      dup3\n      dup3\n      sload\n      sub\n      swap3\n      pop\n      pop\n      dup2\n      swap1\n      sstore\n      pop\n        /* \"@openzeppelin/contracts/token/ERC20/ERC20.sol\":10008:10009  0 */\n      0x00\n        /* \"@openzeppelin/contracts/token/ERC20/ERC20.sol\":9982:10019  Transfer(account, address(0), amount) */\n      0xffffffffffffffffffffffffffffffffffffffff\n      and\n        /* \"@openzeppelin/contracts/token/ERC20/ERC20.sol\":9991:9998  account */\n      dup4\n        /* \"@openzeppelin/contracts/token/ERC20/ERC20.sol\":9982:10019  Transfer(account, address(0), amount) */\n      0xffffffffffffffffffffffffffffffffffffffff\n      and\n      0xddf252ad1be2c89b69c2b068fc378daa952ba7f163c4a11628f55a4df523b3ef\n        /* \"@openzeppelin/contracts/token/ERC20/ERC20.sol\":10012:10018  amount */\n      dup5\n        /* \"@openzeppelin/contracts/token/ERC20/ERC20.sol\":9982:10019  Transfer(account, address(0), amount) */\n      mload(0x40)\n      tag_257\n      swap2\n      swap1\n      tag_42\n      jump\t// in\n    tag_257:\n      mload(0x40)\n      dup1\n      swap2\n      sub\n      swap1\n      log3\n        /* \"@openzeppelin/contracts/token/ERC20/ERC20.sol\":10030:10078  _afterTokenTransfer(account, address(0), amount) */\n      tag_258\n        /* \"@openzeppelin/contracts/token/ERC20/ERC20.sol\":10050:10057  account */\n      dup4\n        /* \"@openzeppelin/contracts/token/ERC20/ERC20.sol\":10067:10068  0 */\n      0x00\n        /* \"@openzeppelin/contracts/token/ERC20/ERC20.sol\":10071:10077  amount */\n      dup5\n        /* \"@openzeppelin/contracts/token/ERC20/ERC20.sol\":10030:10049  _afterTokenTransfer */\n      tag_248\n        /* \"@openzeppelin/contracts/token/ERC20/ERC20.sol\":10030:10078  _afterTokenTransfer(account, address(0), amount) */\n      jump\t// in\n    tag_258:\n        /* \"@openzeppelin/contracts/token/ERC20/ERC20.sol\":9491:10085  {... */\n      pop\n        /* \"@openzeppelin/contracts/token/ERC20/ERC20.sol\":9426:10085  function _burn(address account, uint256 amount) internal virtual {... */\n      pop\n      pop\n      jump\t// out\n        /* \"@openzeppelin/contracts/access/Ownable.sol\":1359:1489  function _checkOwner() internal view virtual {... */\n    tag_161:\n        /* \"@openzeppelin/contracts/access/Ownable.sol\":1433:1445  _msgSender() */\n      tag_260\n        /* \"@openzeppelin/contracts/access/Ownable.sol\":1433:1443  _msgSender */\n      tag_134\n        /* \"@openzeppelin/contracts/access/Ownable.sol\":1433:1445  _msgSender() */\n      jump\t// in\n    tag_260:\n        /* \"@openzeppelin/contracts/access/Ownable.sol\":1422:1445  owner() == _msgSender() */\n      0xffffffffffffffffffffffffffffffffffffffff\n      and\n        /* \"@openzeppelin/contracts/access/Ownable.sol\":1422:1429  owner() */\n      tag_261\n        /* \"@openzeppelin/contracts/access/Ownable.sol\":1422:1427  owner */\n      tag_91\n        /* \"@openzeppelin/contracts/access/Ownable.sol\":1422:1429  owner() */\n      jump\t// in\n    tag_261:\n        /* \"@openzeppelin/contracts/access/Ownable.sol\":1422:1445  owner() == _msgSender() */\n      0xffffffffffffffffffffffffffffffffffffffff\n      and\n      eq\n        /* \"@openzeppelin/contracts/access/Ownable.sol\":1414:1482  require(owner() == _msgSender(), \"Ownable: caller is not the owner\") */\n      tag_262\n      jumpi\n      mload(0x40)\n      0x08c379a000000000000000000000000000000000000000000000000000000000\n      dup2\n      mstore\n      0x04\n      add\n      tag_263\n      swap1\n      tag_264\n      jump\t// in\n    tag_263:\n      mload(0x40)\n      dup1\n      swap2\n      sub\n      swap1\n      revert\n    tag_262:\n        /* \"@openzeppelin/contracts/access/Ownable.sol\":1359:1489  function _checkOwner() internal view virtual {... */\n      jump\t// out\n        /* \"@openzeppelin/contracts/access/Ownable.sol\":2433:2620  function _transferOwnership(address newOwner) internal virtual {... */\n    tag_164:\n        /* \"@openzeppelin/contracts/access/Ownable.sol\":2506:2522  address oldOwner */\n      0x00\n        /* \"@openzeppelin/contracts/access/Ownable.sol\":2525:2531  _owner */\n      0x05\n      0x00\n      swap1\n      sload\n      swap1\n      0x0100\n      exp\n      swap1\n      div\n      0xffffffffffffffffffffffffffffffffffffffff\n      and\n        /* \"@openzeppelin/contracts/access/Ownable.sol\":2506:2531  address oldOwner = _owner */\n      swap1\n      pop\n        /* \"@openzeppelin/contracts/access/Ownable.sol\":2550:2558  newOwner */\n      dup2\n        /* \"@openzeppelin/contracts/access/Ownable.sol\":2541:2547  _owner */\n      0x05\n      0x00\n        /* \"@openzeppelin/contracts/access/Ownable.sol\":2541:2558  _owner = newOwner */\n      0x0100\n      exp\n      dup2\n      sload\n      dup2\n      0xffffffffffffffffffffffffffffffffffffffff\n      mul\n      not\n      and\n      swap1\n      dup4\n      0xffffffffffffffffffffffffffffffffffffffff\n      and\n      mul\n      or\n      swap1\n      sstore\n      pop\n        /* \"@openzeppelin/contracts/access/Ownable.sol\":2604:2612  newOwner */\n      dup2\n        /* \"@openzeppelin/contracts/access/Ownable.sol\":2573:2613  OwnershipTransferred(oldOwner, newOwner) */\n      0xffffffffffffffffffffffffffffffffffffffff\n      and\n        /* \"@openzeppelin/contracts/access/Ownable.sol\":2594:2602  oldOwner */\n      dup2\n        /* \"@openzeppelin/contracts/access/Ownable.sol\":2573:2613  OwnershipTransferred(oldOwner, newOwner) */\n      0xffffffffffffffffffffffffffffffffffffffff\n      and\n      0x8be0079c531659141344cd1fd0a4f28419497f9722a3daafe3b4186f6b6457e0\n      mload(0x40)\n      mload(0x40)\n      dup1\n      swap2\n      sub\n      swap1\n      log3\n        /* \"@openzeppelin/contracts/access/Ownable.sol\":2496:2620  {... */\n      pop\n        /* \"@openzeppelin/contracts/access/Ownable.sol\":2433:2620  function _transferOwnership(address newOwner) internal virtual {... */\n      pop\n      jump\t// out\n        /* \"@openzeppelin/contracts/token/ERC20/ERC20.sol\":8571:9106  function _mint(address account, uint256 amount) internal virtual {... */\n    tag_199:\n        /* \"@openzeppelin/contracts/token/ERC20/ERC20.sol\":8673:8674  0 */\n      0x00\n        /* \"@openzeppelin/contracts/token/ERC20/ERC20.sol\":8654:8675  account != address(0) */\n      0xffffffffffffffffffffffffffffffffffffffff\n      and\n        /* \"@openzeppelin/contracts/token/ERC20/ERC20.sol\":8654:8661  account */\n      dup3\n        /* \"@openzeppelin/contracts/token/ERC20/ERC20.sol\":8654:8675  account != address(0) */\n      0xffffffffffffffffffffffffffffffffffffffff\n      and\n      sub\n        /* \"@openzeppelin/contracts/token/ERC20/ERC20.sol\":8646:8711  require(account != address(0), \"ERC20: mint to the zero address\") */\n      tag_267\n      jumpi\n      mload(0x40)\n      0x08c379a000000000000000000000000000000000000000000000000000000000\n      dup2\n      mstore\n      0x04\n      add\n      tag_268\n      swap1\n      tag_269\n      jump\t// in\n    tag_268:\n      mload(0x40)\n      dup1\n      swap2\n      sub\n      swap1\n      revert\n    tag_267:\n        /* \"@openzeppelin/contracts/token/ERC20/ERC20.sol\":8722:8771  _beforeTokenTransfer(address(0), account, amount) */\n      tag_270\n        /* \"@openzeppelin/contracts/token/ERC20/ERC20.sol\":8751:8752  0 */\n      0x00\n        /* \"@openzeppelin/contracts/token/ERC20/ERC20.sol\":8755:8762  account */\n      dup4\n        /* \"@openzeppelin/contracts/token/ERC20/ERC20.sol\":8764:8770  amount */\n      dup4\n        /* \"@openzeppelin/contracts/token/ERC20/ERC20.sol\":8722:8742  _beforeTokenTransfer */\n      tag_242\n        /* \"@openzeppelin/contracts/token/ERC20/ERC20.sol\":8722:8771  _beforeTokenTransfer(address(0), account, amount) */\n      jump\t// in\n    tag_270:\n        /* \"@openzeppelin/contracts/token/ERC20/ERC20.sol\":8798:8804  amount */\n      dup1\n        /* \"@openzeppelin/contracts/token/ERC20/ERC20.sol\":8782:8794  _totalSupply */\n      0x02\n      0x00\n        /* \"@openzeppelin/contracts/token/ERC20/ERC20.sol\":8782:8804  _totalSupply += amount */\n      dup3\n      dup3\n      sload\n      tag_271\n      swap2\n      swap1\n      tag_150\n      jump\t// in\n    tag_271:\n      swap3\n      pop\n      pop\n      dup2\n      swap1\n      sstore\n      pop\n        /* \"@openzeppelin/contracts/token/ERC20/ERC20.sol\":8972:8978  amount */\n      dup1\n        /* \"@openzeppelin/contracts/token/ERC20/ERC20.sol\":8950:8959  _balances */\n      0x00\n        /* \"@openzeppelin/contracts/token/ERC20/ERC20.sol\":8950:8968  _balances[account] */\n      dup1\n        /* \"@openzeppelin/contracts/token/ERC20/ERC20.sol\":8960:8967  account */\n      dup5\n        /* \"@openzeppelin/contracts/token/ERC20/ERC20.sol\":8950:8968  _balances[account] */\n      0xffffffffffffffffffffffffffffffffffffffff\n      and\n      0xffffffffffffffffffffffffffffffffffffffff\n      and\n      dup2\n      mstore\n      0x20\n      add\n      swap1\n      dup2\n      mstore\n      0x20\n      add\n      0x00\n      keccak256\n      0x00\n        /* \"@openzeppelin/contracts/token/ERC20/ERC20.sol\":8950:8978  _balances[account] += amount */\n      dup3\n      dup3\n      sload\n      add\n      swap3\n      pop\n      pop\n      dup2\n      swap1\n      sstore\n      pop\n        /* \"@openzeppelin/contracts/token/ERC20/ERC20.sol\":9024:9031  account */\n      dup2\n        /* \"@openzeppelin/contracts/token/ERC20/ERC20.sol\":9003:9040  Transfer(address(0), account, amount) */\n      0xffffffffffffffffffffffffffffffffffffffff\n      and\n        /* \"@openzeppelin/contracts/token/ERC20/ERC20.sol\":9020:9021  0 */\n      0x00\n        /* \"@openzeppelin/contracts/token/ERC20/ERC20.sol\":9003:9040  Transfer(address(0), account, amount) */\n      0xffffffffffffffffffffffffffffffffffffffff\n      and\n      0xddf252ad1be2c89b69c2b068fc378daa952ba7f163c4a11628f55a4df523b3ef\n        /* \"@openzeppelin/contracts/token/ERC20/ERC20.sol\":9033:9039  amount */\n      dup4\n        /* \"@openzeppelin/contracts/token/ERC20/ERC20.sol\":9003:9040  Transfer(address(0), account, amount) */\n      mload(0x40)\n      tag_272\n      swap2\n      swap1\n      tag_42\n      jump\t// in\n    tag_272:\n      mload(0x40)\n      dup1\n      swap2\n      sub\n      swap1\n      log3\n        /* \"@openzeppelin/contracts/token/ERC20/ERC20.sol\":9051:9099  _afterTokenTransfer(address(0), account, amount) */\n      tag_273\n        /* \"@openzeppelin/contracts/token/ERC20/ERC20.sol\":9079:9080  0 */\n      0x00\n        /* \"@openzeppelin/contracts/token/ERC20/ERC20.sol\":9083:9090  account */\n      dup4\n        /* \"@openzeppelin/contracts/token/ERC20/ERC20.sol\":9092:9098  amount */\n      dup4\n        /* \"@openzeppelin/contracts/token/ERC20/ERC20.sol\":9051:9070  _afterTokenTransfer */\n      tag_248\n        /* \"@openzeppelin/contracts/token/ERC20/ERC20.sol\":9051:9099  _afterTokenTransfer(address(0), account, amount) */\n      jump\t// in\n    tag_273:\n        /* \"@openzeppelin/contracts/token/ERC20/ERC20.sol\":8571:9106  function _mint(address account, uint256 amount) internal virtual {... */\n      pop\n      pop\n      jump\t// out\n        /* \"@openzeppelin/contracts/token/ERC20/ERC20.sol\":12184:12305  function _beforeTokenTransfer(... */\n    tag_242:\n      pop\n      pop\n      pop\n      jump\t// out\n        /* \"@openzeppelin/contracts/token/ERC20/ERC20.sol\":12893:13013  function _afterTokenTransfer(... */\n    tag_248:\n      pop\n      pop\n      pop\n      jump\t// out\n        /* \"#utility.yul\":7:106   */\n    tag_276:\n        /* \"#utility.yul\":59:65   */\n      0x00\n        /* \"#utility.yul\":93:98   */\n      dup2\n        /* \"#utility.yul\":87:99   */\n      mload\n        /* \"#utility.yul\":77:99   */\n      swap1\n      pop\n        /* \"#utility.yul\":7:106   */\n      swap2\n      swap1\n      pop\n      jump\t// out\n        /* \"#utility.yul\":112:281   */\n    tag_277:\n        /* \"#utility.yul\":196:207   */\n      0x00\n        /* \"#utility.yul\":230:236   */\n      dup3\n        /* \"#utility.yul\":225:228   */\n      dup3\n        /* \"#utility.yul\":218:237   */\n      mstore\n        /* \"#utility.yul\":270:274   */\n      0x20\n        /* \"#utility.yul\":265:268   */\n      dup3\n        /* \"#utility.yul\":261:275   */\n      add\n        /* \"#utility.yul\":246:275   */\n      swap1\n      pop\n        /* \"#utility.yul\":112:281   */\n      swap3\n      swap2\n      pop\n      pop\n      jump\t// out\n        /* \"#utility.yul\":287:533   */\n    tag_278:\n        /* \"#utility.yul\":368:369   */\n      0x00\n        /* \"#utility.yul\":378:491   */\n    tag_335:\n        /* \"#utility.yul\":392:398   */\n      dup4\n        /* \"#utility.yul\":389:390   */\n      dup2\n        /* \"#utility.yul\":386:399   */\n      lt\n        /* \"#utility.yul\":378:491   */\n      iszero\n      tag_337\n      jumpi\n        /* \"#utility.yul\":477:478   */\n      dup1\n        /* \"#utility.yul\":472:475   */\n      dup3\n        /* \"#utility.yul\":468:479   */\n      add\n        /* \"#utility.yul\":462:480   */\n      mload\n        /* \"#utility.yul\":458:459   */\n      dup2\n        /* \"#utility.yul\":453:456   */\n      dup5\n        /* \"#utility.yul\":449:460   */\n      add\n        /* \"#utility.yul\":442:481   */\n      mstore\n        /* \"#utility.yul\":414:416   */\n      0x20\n        /* \"#utility.yul\":411:412   */\n      dup2\n        /* \"#utility.yul\":407:417   */\n      add\n        /* \"#utility.yul\":402:417   */\n      swap1\n      pop\n        /* \"#utility.yul\":378:491   */\n      jump(tag_335)\n    tag_337:\n        /* \"#utility.yul\":525:526   */\n      0x00\n        /* \"#utility.yul\":516:522   */\n      dup5\n        /* \"#utility.yul\":511:514   */\n      dup5\n        /* \"#utility.yul\":507:523   */\n      add\n        /* \"#utility.yul\":500:527   */\n      mstore\n        /* \"#utility.yul\":349:533   */\n      pop\n        /* \"#utility.yul\":287:533   */\n      pop\n      pop\n      pop\n      jump\t// out\n        /* \"#utility.yul\":539:641   */\n    tag_279:\n        /* \"#utility.yul\":580:586   */\n      0x00\n        /* \"#utility.yul\":631:633   */\n      0x1f\n        /* \"#utility.yul\":627:634   */\n      not\n        /* \"#utility.yul\":622:624   */\n      0x1f\n        /* \"#utility.yul\":615:620   */\n      dup4\n        /* \"#utility.yul\":611:625   */\n      add\n        /* \"#utility.yul\":607:635   */\n      and\n        /* \"#utility.yul\":597:635   */\n      swap1\n      pop\n        /* \"#utility.yul\":539:641   */\n      swap2\n      swap1\n      pop\n      jump\t// out\n        /* \"#utility.yul\":647:1024   */\n    tag_280:\n        /* \"#utility.yul\":735:738   */\n      0x00\n        /* \"#utility.yul\":763:802   */\n      tag_340\n        /* \"#utility.yul\":796:801   */\n      dup3\n        /* \"#utility.yul\":763:802   */\n      tag_276\n      jump\t// in\n    tag_340:\n        /* \"#utility.yul\":818:889   */\n      tag_341\n        /* \"#utility.yul\":882:888   */\n      dup2\n        /* \"#utility.yul\":877:880   */\n      dup6\n        /* \"#utility.yul\":818:889   */\n      tag_277\n      jump\t// in\n    tag_341:\n        /* \"#utility.yul\":811:889   */\n      swap4\n      pop\n        /* \"#utility.yul\":898:963   */\n      tag_342\n        /* \"#utility.yul\":956:962   */\n      dup2\n        /* \"#utility.yul\":951:954   */\n      dup6\n        /* \"#utility.yul\":944:948   */\n      0x20\n        /* \"#utility.yul\":937:942   */\n      dup7\n        /* \"#utility.yul\":933:949   */\n      add\n        /* \"#utility.yul\":898:963   */\n      tag_278\n      jump\t// in\n    tag_342:\n        /* \"#utility.yul\":988:1017   */\n      tag_343\n        /* \"#utility.yul\":1010:1016   */\n      dup2\n        /* \"#utility.yul\":988:1017   */\n      tag_279\n      jump\t// in\n    tag_343:\n        /* \"#utility.yul\":983:986   */\n      dup5\n        /* \"#utility.yul\":979:1018   */\n      add\n        /* \"#utility.yul\":972:1018   */\n      swap2\n      pop\n        /* \"#utility.yul\":739:1024   */\n      pop\n        /* \"#utility.yul\":647:1024   */\n      swap3\n      swap2\n      pop\n      pop\n      jump\t// out\n        /* \"#utility.yul\":1030:1343   */\n    tag_30:\n        /* \"#utility.yul\":1143:1147   */\n      0x00\n        /* \"#utility.yul\":1181:1183   */\n      0x20\n        /* \"#utility.yul\":1170:1179   */\n      dup3\n        /* \"#utility.yul\":1166:1184   */\n      add\n        /* \"#utility.yul\":1158:1184   */\n      swap1\n      pop\n        /* \"#utility.yul\":1230:1239   */\n      dup2\n        /* \"#utility.yul\":1224:1228   */\n      dup2\n        /* \"#utility.yul\":1220:1240   */\n      sub\n        /* \"#utility.yul\":1216:1217   */\n      0x00\n        /* \"#utility.yul\":1205:1214   */\n      dup4\n        /* \"#utility.yul\":1201:1218   */\n      add\n        /* \"#utility.yul\":1194:1241   */\n      mstore\n        /* \"#utility.yul\":1258:1336   */\n      tag_345\n        /* \"#utility.yul\":1331:1335   */\n      dup2\n        /* \"#utility.yul\":1322:1328   */\n      dup5\n        /* \"#utility.yul\":1258:1336   */\n      tag_280\n      jump\t// in\n    tag_345:\n        /* \"#utility.yul\":1250:1336   */\n      swap1\n      pop\n        /* \"#utility.yul\":1030:1343   */\n      swap3\n      swap2\n      pop\n      pop\n      jump\t// out\n        /* \"#utility.yul\":1430:1547   */\n    tag_282:\n        /* \"#utility.yul\":1539:1540   */\n      0x00\n        /* \"#utility.yul\":1536:1537   */\n      dup1\n        /* \"#utility.yul\":1529:1541   */\n      revert\n        /* \"#utility.yul\":1676:1802   */\n    tag_284:\n        /* \"#utility.yul\":1713:1720   */\n      0x00\n        /* \"#utility.yul\":1753:1795   */\n      0xffffffffffffffffffffffffffffffffffffffff\n        /* \"#utility.yul\":1746:1751   */\n      dup3\n        /* \"#utility.yul\":1742:1796   */\n      and\n        /* \"#utility.yul\":1731:1796   */\n      swap1\n      pop\n        /* \"#utility.yul\":1676:1802   */\n      swap2\n      swap1\n      pop\n      jump\t// out\n        /* \"#utility.yul\":1808:1904   */\n    tag_285:\n        /* \"#utility.yul\":1845:1852   */\n      0x00\n        /* \"#utility.yul\":1874:1898   */\n      tag_351\n        /* \"#utility.yul\":1892:1897   */\n      dup3\n        /* \"#utility.yul\":1874:1898   */\n      tag_284\n      jump\t// in\n    tag_351:\n        /* \"#utility.yul\":1863:1898   */\n      swap1\n      pop\n        /* \"#utility.yul\":1808:1904   */\n      swap2\n      swap1\n      pop\n      jump\t// out\n        /* \"#utility.yul\":1910:2032   */\n    tag_286:\n        /* \"#utility.yul\":1983:2007   */\n      tag_353\n        /* \"#utility.yul\":2001:2006   */\n      dup2\n        /* \"#utility.yul\":1983:2007   */\n      tag_285\n      jump\t// in\n    tag_353:\n        /* \"#utility.yul\":1976:1981   */\n      dup2\n        /* \"#utility.yul\":1973:2008   */\n      eq\n        /* \"#utility.yul\":1963:2026   */\n      tag_354\n      jumpi\n        /* \"#utility.yul\":2022:2023   */\n      0x00\n        /* \"#utility.yul\":2019:2020   */\n      dup1\n        /* \"#utility.yul\":2012:2024   */\n      revert\n        /* \"#utility.yul\":1963:2026   */\n    tag_354:\n        /* \"#utility.yul\":1910:2032   */\n      pop\n      jump\t// out\n        /* \"#utility.yul\":2038:2177   */\n    tag_287:\n        /* \"#utility.yul\":2084:2089   */\n      0x00\n        /* \"#utility.yul\":2122:2128   */\n      dup2\n        /* \"#utility.yul\":2109:2129   */\n      calldataload\n        /* \"#utility.yul\":2100:2129   */\n      swap1\n      pop\n        /* \"#utility.yul\":2138:2171   */\n      tag_356\n        /* \"#utility.yul\":2165:2170   */\n      dup2\n        /* \"#utility.yul\":2138:2171   */\n      tag_286\n      jump\t// in\n    tag_356:\n        /* \"#utility.yul\":2038:2177   */\n      swap3\n      swap2\n      pop\n      pop\n      jump\t// out\n        /* \"#utility.yul\":2183:2260   */\n    tag_288:\n        /* \"#utility.yul\":2220:2227   */\n      0x00\n        /* \"#utility.yul\":2249:2254   */\n      dup2\n        /* \"#utility.yul\":2238:2254   */\n      swap1\n      pop\n        /* \"#utility.yul\":2183:2260   */\n      swap2\n      swap1\n      pop\n      jump\t// out\n        /* \"#utility.yul\":2266:2388   */\n    tag_289:\n        /* \"#utility.yul\":2339:2363   */\n      tag_359\n        /* \"#utility.yul\":2357:2362   */\n      dup2\n        /* \"#utility.yul\":2339:2363   */\n      tag_288\n      jump\t// in\n    tag_359:\n        /* \"#utility.yul\":2332:2337   */\n      dup2\n        /* \"#utility.yul\":2329:2364   */\n      eq\n        /* \"#utility.yul\":2319:2382   */\n      tag_360\n      jumpi\n        /* \"#utility.yul\":2378:2379   */\n      0x00\n        /* \"#utility.yul\":2375:2376   */\n      dup1\n        /* \"#utility.yul\":2368:2380   */\n      revert\n        /* \"#utility.yul\":2319:2382   */\n    tag_360:\n        /* \"#utility.yul\":2266:2388   */\n      pop\n      jump\t// out\n        /* \"#utility.yul\":2394:2533   */\n    tag_290:\n        /* \"#utility.yul\":2440:2445   */\n      0x00\n        /* \"#utility.yul\":2478:2484   */\n      dup2\n        /* \"#utility.yul\":2465:2485   */\n      calldataload\n        /* \"#utility.yul\":2456:2485   */\n      swap1\n      pop\n        /* \"#utility.yul\":2494:2527   */\n      tag_362\n        /* \"#utility.yul\":2521:2526   */\n      dup2\n        /* \"#utility.yul\":2494:2527   */\n      tag_289\n      jump\t// in\n    tag_362:\n        /* \"#utility.yul\":2394:2533   */\n      swap3\n      swap2\n      pop\n      pop\n      jump\t// out\n        /* \"#utility.yul\":2539:3013   */\n    tag_34:\n        /* \"#utility.yul\":2607:2613   */\n      0x00\n        /* \"#utility.yul\":2615:2621   */\n      dup1\n        /* \"#utility.yul\":2664:2666   */\n      0x40\n        /* \"#utility.yul\":2652:2661   */\n      dup4\n        /* \"#utility.yul\":2643:2650   */\n      dup6\n        /* \"#utility.yul\":2639:2662   */\n      sub\n        /* \"#utility.yul\":2635:2667   */\n      slt\n        /* \"#utility.yul\":2632:2751   */\n      iszero\n      tag_364\n      jumpi\n        /* \"#utility.yul\":2670:2749   */\n      tag_365\n      tag_282\n      jump\t// in\n    tag_365:\n        /* \"#utility.yul\":2632:2751   */\n    tag_364:\n        /* \"#utility.yul\":2790:2791   */\n      0x00\n        /* \"#utility.yul\":2815:2868   */\n      tag_366\n        /* \"#utility.yul\":2860:2867   */\n      dup6\n        /* \"#utility.yul\":2851:2857   */\n      dup3\n        /* \"#utility.yul\":2840:2849   */\n      dup7\n        /* \"#utility.yul\":2836:2858   */\n      add\n        /* \"#utility.yul\":2815:2868   */\n      tag_287\n      jump\t// in\n    tag_366:\n        /* \"#utility.yul\":2805:2868   */\n      swap3\n      pop\n        /* \"#utility.yul\":2761:2878   */\n      pop\n        /* \"#utility.yul\":2917:2919   */\n      0x20\n        /* \"#utility.yul\":2943:2996   */\n      tag_367\n        /* \"#utility.yul\":2988:2995   */\n      dup6\n        /* \"#utility.yul\":2979:2985   */\n      dup3\n        /* \"#utility.yul\":2968:2977   */\n      dup7\n        /* \"#utility.yul\":2964:2986   */\n      add\n        /* \"#utility.yul\":2943:2996   */\n      tag_290\n      jump\t// in\n    tag_367:\n        /* \"#utility.yul\":2933:2996   */\n      swap2\n      pop\n        /* \"#utility.yul\":2888:3006   */\n      pop\n        /* \"#utility.yul\":2539:3013   */\n      swap3\n      pop\n      swap3\n      swap1\n      pop\n      jump\t// out\n        /* \"#utility.yul\":3019:3109   */\n    tag_291:\n        /* \"#utility.yul\":3053:3060   */\n      0x00\n        /* \"#utility.yul\":3096:3101   */\n      dup2\n        /* \"#utility.yul\":3089:3102   */\n      iszero\n        /* \"#utility.yul\":3082:3103   */\n      iszero\n        /* \"#utility.yul\":3071:3103   */\n      swap1\n      pop\n        /* \"#utility.yul\":3019:3109   */\n      swap2\n      swap1\n      pop\n      jump\t// out\n        /* \"#utility.yul\":3115:3224   */\n    tag_292:\n        /* \"#utility.yul\":3196:3217   */\n      tag_370\n        /* \"#utility.yul\":3211:3216   */\n      dup2\n        /* \"#utility.yul\":3196:3217   */\n      tag_291\n      jump\t// in\n    tag_370:\n        /* \"#utility.yul\":3191:3194   */\n      dup3\n        /* \"#utility.yul\":3184:3218   */\n      mstore\n        /* \"#utility.yul\":3115:3224   */\n      pop\n      pop\n      jump\t// out\n        /* \"#utility.yul\":3230:3440   */\n    tag_37:\n        /* \"#utility.yul\":3317:3321   */\n      0x00\n        /* \"#utility.yul\":3355:3357   */\n      0x20\n        /* \"#utility.yul\":3344:3353   */\n      dup3\n        /* \"#utility.yul\":3340:3358   */\n      add\n        /* \"#utility.yul\":3332:3358   */\n      swap1\n      pop\n        /* \"#utility.yul\":3368:3433   */\n      tag_372\n        /* \"#utility.yul\":3430:3431   */\n      0x00\n        /* \"#utility.yul\":3419:3428   */\n      dup4\n        /* \"#utility.yul\":3415:3432   */\n      add\n        /* \"#utility.yul\":3406:3412   */\n      dup5\n        /* \"#utility.yul\":3368:3433   */\n      tag_292\n      jump\t// in\n    tag_372:\n        /* \"#utility.yul\":3230:3440   */\n      swap3\n      swap2\n      pop\n      pop\n      jump\t// out\n        /* \"#utility.yul\":3446:3564   */\n    tag_293:\n        /* \"#utility.yul\":3533:3557   */\n      tag_374\n        /* \"#utility.yul\":3551:3556   */\n      dup2\n        /* \"#utility.yul\":3533:3557   */\n      tag_288\n      jump\t// in\n    tag_374:\n        /* \"#utility.yul\":3528:3531   */\n      dup3\n        /* \"#utility.yul\":3521:3558   */\n      mstore\n        /* \"#utility.yul\":3446:3564   */\n      pop\n      pop\n      jump\t// out\n        /* \"#utility.yul\":3570:3792   */\n    tag_42:\n        /* \"#utility.yul\":3663:3667   */\n      0x00\n        /* \"#utility.yul\":3701:3703   */\n      0x20\n        /* \"#utility.yul\":3690:3699   */\n      dup3\n        /* \"#utility.yul\":3686:3704   */\n      add\n        /* \"#utility.yul\":3678:3704   */\n      swap1\n      pop\n        /* \"#utility.yul\":3714:3785   */\n      tag_376\n        /* \"#utility.yul\":3782:3783   */\n      0x00\n        /* \"#utility.yul\":3771:3780   */\n      dup4\n        /* \"#utility.yul\":3767:3784   */\n      add\n        /* \"#utility.yul\":3758:3764   */\n      dup5\n        /* \"#utility.yul\":3714:3785   */\n      tag_293\n      jump\t// in\n    tag_376:\n        /* \"#utility.yul\":3570:3792   */\n      swap3\n      swap2\n      pop\n      pop\n      jump\t// out\n        /* \"#utility.yul\":3798:4417   */\n    tag_46:\n        /* \"#utility.yul\":3875:3881   */\n      0x00\n        /* \"#utility.yul\":3883:3889   */\n      dup1\n        /* \"#utility.yul\":3891:3897   */\n      0x00\n        /* \"#utility.yul\":3940:3942   */\n      0x60\n        /* \"#utility.yul\":3928:3937   */\n      dup5\n        /* \"#utility.yul\":3919:3926   */\n      dup7\n        /* \"#utility.yul\":3915:3938   */\n      sub\n        /* \"#utility.yul\":3911:3943   */\n      slt\n        /* \"#utility.yul\":3908:4027   */\n      iszero\n      tag_378\n      jumpi\n        /* \"#utility.yul\":3946:4025   */\n      tag_379\n      tag_282\n      jump\t// in\n    tag_379:\n        /* \"#utility.yul\":3908:4027   */\n    tag_378:\n        /* \"#utility.yul\":4066:4067   */\n      0x00\n        /* \"#utility.yul\":4091:4144   */\n      tag_380\n        /* \"#utility.yul\":4136:4143   */\n      dup7\n        /* \"#utility.yul\":4127:4133   */\n      dup3\n        /* \"#utility.yul\":4116:4125   */\n      dup8\n        /* \"#utility.yul\":4112:4134   */\n      add\n        /* \"#utility.yul\":4091:4144   */\n      tag_287\n      jump\t// in\n    tag_380:\n        /* \"#utility.yul\":4081:4144   */\n      swap4\n      pop\n        /* \"#utility.yul\":4037:4154   */\n      pop\n        /* \"#utility.yul\":4193:4195   */\n      0x20\n        /* \"#utility.yul\":4219:4272   */\n      tag_381\n        /* \"#utility.yul\":4264:4271   */\n      dup7\n        /* \"#utility.yul\":4255:4261   */\n      dup3\n        /* \"#utility.yul\":4244:4253   */\n      dup8\n        /* \"#utility.yul\":4240:4262   */\n      add\n        /* \"#utility.yul\":4219:4272   */\n      tag_287\n      jump\t// in\n    tag_381:\n        /* \"#utility.yul\":4209:4272   */\n      swap3\n      pop\n        /* \"#utility.yul\":4164:4282   */\n      pop\n        /* \"#utility.yul\":4321:4323   */\n      0x40\n        /* \"#utility.yul\":4347:4400   */\n      tag_382\n        /* \"#utility.yul\":4392:4399   */\n      dup7\n        /* \"#utility.yul\":4383:4389   */\n      dup3\n        /* \"#utility.yul\":4372:4381   */\n      dup8\n        /* \"#utility.yul\":4368:4390   */\n      add\n        /* \"#utility.yul\":4347:4400   */\n      tag_290\n      jump\t// in\n    tag_382:\n        /* \"#utility.yul\":4337:4400   */\n      swap2\n      pop\n        /* \"#utility.yul\":4292:4410   */\n      pop\n        /* \"#utility.yul\":3798:4417   */\n      swap3\n      pop\n      swap3\n      pop\n      swap3\n      jump\t// out\n        /* \"#utility.yul\":4423:4509   */\n    tag_294:\n        /* \"#utility.yul\":4458:4465   */\n      0x00\n        /* \"#utility.yul\":4498:4502   */\n      0xff\n        /* \"#utility.yul\":4491:4496   */\n      dup3\n        /* \"#utility.yul\":4487:4503   */\n      and\n        /* \"#utility.yul\":4476:4503   */\n      swap1\n      pop\n        /* \"#utility.yul\":4423:4509   */\n      swap2\n      swap1\n      pop\n      jump\t// out\n        /* \"#utility.yul\":4515:4627   */\n    tag_295:\n        /* \"#utility.yul\":4598:4620   */\n      tag_385\n        /* \"#utility.yul\":4614:4619   */\n      dup2\n        /* \"#utility.yul\":4598:4620   */\n      tag_294\n      jump\t// in\n    tag_385:\n        /* \"#utility.yul\":4593:4596   */\n      dup3\n        /* \"#utility.yul\":4586:4621   */\n      mstore\n        /* \"#utility.yul\":4515:4627   */\n      pop\n      pop\n      jump\t// out\n        /* \"#utility.yul\":4633:4847   */\n    tag_53:\n        /* \"#utility.yul\":4722:4726   */\n      0x00\n        /* \"#utility.yul\":4760:4762   */\n      0x20\n        /* \"#utility.yul\":4749:4758   */\n      dup3\n        /* \"#utility.yul\":4745:4763   */\n      add\n        /* \"#utility.yul\":4737:4763   */\n      swap1\n      pop\n        /* \"#utility.yul\":4773:4840   */\n      tag_387\n        /* \"#utility.yul\":4837:4838   */\n      0x00\n        /* \"#utility.yul\":4826:4835   */\n      dup4\n        /* \"#utility.yul\":4822:4839   */\n      add\n        /* \"#utility.yul\":4813:4819   */\n      dup5\n        /* \"#utility.yul\":4773:4840   */\n      tag_295\n      jump\t// in\n    tag_387:\n        /* \"#utility.yul\":4633:4847   */\n      swap3\n      swap2\n      pop\n      pop\n      jump\t// out\n        /* \"#utility.yul\":4853:5182   */\n    tag_62:\n        /* \"#utility.yul\":4912:4918   */\n      0x00\n        /* \"#utility.yul\":4961:4963   */\n      0x20\n        /* \"#utility.yul\":4949:4958   */\n      dup3\n        /* \"#utility.yul\":4940:4947   */\n      dup5\n        /* \"#utility.yul\":4936:4959   */\n      sub\n        /* \"#utility.yul\":4932:4964   */\n      slt\n        /* \"#utility.yul\":4929:5048   */\n      iszero\n      tag_389\n      jumpi\n        /* \"#utility.yul\":4967:5046   */\n      tag_390\n      tag_282\n      jump\t// in\n    tag_390:\n        /* \"#utility.yul\":4929:5048   */\n    tag_389:\n        /* \"#utility.yul\":5087:5088   */\n      0x00\n        /* \"#utility.yul\":5112:5165   */\n      tag_391\n        /* \"#utility.yul\":5157:5164   */\n      dup5\n        /* \"#utility.yul\":5148:5154   */\n      dup3\n        /* \"#utility.yul\":5137:5146   */\n      dup6\n        /* \"#utility.yul\":5133:5155   */\n      add\n        /* \"#utility.yul\":5112:5165   */\n      tag_290\n      jump\t// in\n    tag_391:\n        /* \"#utility.yul\":5102:5165   */\n      swap2\n      pop\n        /* \"#utility.yul\":5058:5175   */\n      pop\n        /* \"#utility.yul\":4853:5182   */\n      swap3\n      swap2\n      pop\n      pop\n      jump\t// out\n        /* \"#utility.yul\":5188:5741   */\n    tag_68:\n        /* \"#utility.yul\":5365:5369   */\n      0x00\n        /* \"#utility.yul\":5403:5406   */\n      0x80\n        /* \"#utility.yul\":5392:5401   */\n      dup3\n        /* \"#utility.yul\":5388:5407   */\n      add\n        /* \"#utility.yul\":5380:5407   */\n      swap1\n      pop\n        /* \"#utility.yul\":5417:5488   */\n      tag_393\n        /* \"#utility.yul\":5485:5486   */\n      0x00\n        /* \"#utility.yul\":5474:5483   */\n      dup4\n        /* \"#utility.yul\":5470:5487   */\n      add\n        /* \"#utility.yul\":5461:5467   */\n      dup8\n        /* \"#utility.yul\":5417:5488   */\n      tag_293\n      jump\t// in\n    tag_393:\n        /* \"#utility.yul\":5498:5570   */\n      tag_394\n        /* \"#utility.yul\":5566:5568   */\n      0x20\n        /* \"#utility.yul\":5555:5564   */\n      dup4\n        /* \"#utility.yul\":5551:5569   */\n      add\n        /* \"#utility.yul\":5542:5548   */\n      dup7\n        /* \"#utility.yul\":5498:5570   */\n      tag_293\n      jump\t// in\n    tag_394:\n        /* \"#utility.yul\":5580:5652   */\n      tag_395\n        /* \"#utility.yul\":5648:5650   */\n      0x40\n        /* \"#utility.yul\":5637:5646   */\n      dup4\n        /* \"#utility.yul\":5633:5651   */\n      add\n        /* \"#utility.yul\":5624:5630   */\n      dup6\n        /* \"#utility.yul\":5580:5652   */\n      tag_293\n      jump\t// in\n    tag_395:\n        /* \"#utility.yul\":5662:5734   */\n      tag_396\n        /* \"#utility.yul\":5730:5732   */\n      0x60\n        /* \"#utility.yul\":5719:5728   */\n      dup4\n        /* \"#utility.yul\":5715:5733   */\n      add\n        /* \"#utility.yul\":5706:5712   */\n      dup5\n        /* \"#utility.yul\":5662:5734   */\n      tag_293\n      jump\t// in\n    tag_396:\n        /* \"#utility.yul\":5188:5741   */\n      swap6\n      swap5\n      pop\n      pop\n      pop\n      pop\n      pop\n      jump\t// out\n        /* \"#utility.yul\":5747:6076   */\n    tag_72:\n        /* \"#utility.yul\":5806:5812   */\n      0x00\n        /* \"#utility.yul\":5855:5857   */\n      0x20\n        /* \"#utility.yul\":5843:5852   */\n      dup3\n        /* \"#utility.yul\":5834:5841   */\n      dup5\n        /* \"#utility.yul\":5830:5853   */\n      sub\n        /* \"#utility.yul\":5826:5858   */\n      slt\n        /* \"#utility.yul\":5823:5942   */\n      iszero\n      tag_398\n      jumpi\n        /* \"#utility.yul\":5861:5940   */\n      tag_399\n      tag_282\n      jump\t// in\n    tag_399:\n        /* \"#utility.yul\":5823:5942   */\n    tag_398:\n        /* \"#utility.yul\":5981:5982   */\n      0x00\n        /* \"#utility.yul\":6006:6059   */\n      tag_400\n        /* \"#utility.yul\":6051:6058   */\n      dup5\n        /* \"#utility.yul\":6042:6048   */\n      dup3\n        /* \"#utility.yul\":6031:6040   */\n      dup6\n        /* \"#utility.yul\":6027:6049   */\n      add\n        /* \"#utility.yul\":6006:6059   */\n      tag_287\n      jump\t// in\n    tag_400:\n        /* \"#utility.yul\":5996:6059   */\n      swap2\n      pop\n        /* \"#utility.yul\":5952:6069   */\n      pop\n        /* \"#utility.yul\":5747:6076   */\n      swap3\n      swap2\n      pop\n      pop\n      jump\t// out\n        /* \"#utility.yul\":6082:6200   */\n    tag_296:\n        /* \"#utility.yul\":6169:6193   */\n      tag_402\n        /* \"#utility.yul\":6187:6192   */\n      dup2\n        /* \"#utility.yul\":6169:6193   */\n      tag_285\n      jump\t// in\n    tag_402:\n        /* \"#utility.yul\":6164:6167   */\n      dup3\n        /* \"#utility.yul\":6157:6194   */\n      mstore\n        /* \"#utility.yul\":6082:6200   */\n      pop\n      pop\n      jump\t// out\n        /* \"#utility.yul\":6206:6428   */\n    tag_93:\n        /* \"#utility.yul\":6299:6303   */\n      0x00\n        /* \"#utility.yul\":6337:6339   */\n      0x20\n        /* \"#utility.yul\":6326:6335   */\n      dup3\n        /* \"#utility.yul\":6322:6340   */\n      add\n        /* \"#utility.yul\":6314:6340   */\n      swap1\n      pop\n        /* \"#utility.yul\":6350:6421   */\n      tag_404\n        /* \"#utility.yul\":6418:6419   */\n      0x00\n        /* \"#utility.yul\":6407:6416   */\n      dup4\n        /* \"#utility.yul\":6403:6420   */\n      add\n        /* \"#utility.yul\":6394:6400   */\n      dup5\n        /* \"#utility.yul\":6350:6421   */\n      tag_296\n      jump\t// in\n    tag_404:\n        /* \"#utility.yul\":6206:6428   */\n      swap3\n      swap2\n      pop\n      pop\n      jump\t// out\n        /* \"#utility.yul\":6434:6908   */\n    tag_118:\n        /* \"#utility.yul\":6502:6508   */\n      0x00\n        /* \"#utility.yul\":6510:6516   */\n      dup1\n        /* \"#utility.yul\":6559:6561   */\n      0x40\n        /* \"#utility.yul\":6547:6556   */\n      dup4\n        /* \"#utility.yul\":6538:6545   */\n      dup6\n        /* \"#utility.yul\":6534:6557   */\n      sub\n        /* \"#utility.yul\":6530:6562   */\n      slt\n        /* \"#utility.yul\":6527:6646   */\n      iszero\n      tag_406\n      jumpi\n        /* \"#utility.yul\":6565:6644   */\n      tag_407\n      tag_282\n      jump\t// in\n    tag_407:\n        /* \"#utility.yul\":6527:6646   */\n    tag_406:\n        /* \"#utility.yul\":6685:6686   */\n      0x00\n        /* \"#utility.yul\":6710:6763   */\n      tag_408\n        /* \"#utility.yul\":6755:6762   */\n      dup6\n        /* \"#utility.yul\":6746:6752   */\n      dup3\n        /* \"#utility.yul\":6735:6744   */\n      dup7\n        /* \"#utility.yul\":6731:6753   */\n      add\n        /* \"#utility.yul\":6710:6763   */\n      tag_287\n      jump\t// in\n    tag_408:\n        /* \"#utility.yul\":6700:6763   */\n      swap3\n      pop\n        /* \"#utility.yul\":6656:6773   */\n      pop\n        /* \"#utility.yul\":6812:6814   */\n      0x20\n        /* \"#utility.yul\":6838:6891   */\n      tag_409\n        /* \"#utility.yul\":6883:6890   */\n      dup6\n        /* \"#utility.yul\":6874:6880   */\n      dup3\n        /* \"#utility.yul\":6863:6872   */\n      dup7\n        /* \"#utility.yul\":6859:6881   */\n      add\n        /* \"#utility.yul\":6838:6891   */\n      tag_287\n      jump\t// in\n    tag_409:\n        /* \"#utility.yul\":6828:6891   */\n      swap2\n      pop\n        /* \"#utility.yul\":6783:6901   */\n      pop\n        /* \"#utility.yul\":6434:6908   */\n      swap3\n      pop\n      swap3\n      swap1\n      pop\n      jump\t// out\n        /* \"#utility.yul\":6914:7094   */\n    tag_297:\n        /* \"#utility.yul\":6962:7039   */\n      0x4e487b7100000000000000000000000000000000000000000000000000000000\n        /* \"#utility.yul\":6959:6960   */\n      0x00\n        /* \"#utility.yul\":6952:7040   */\n      mstore\n        /* \"#utility.yul\":7059:7063   */\n      0x22\n        /* \"#utility.yul\":7056:7057   */\n      0x04\n        /* \"#utility.yul\":7049:7064   */\n      mstore\n        /* \"#utility.yul\":7083:7087   */\n      0x24\n        /* \"#utility.yul\":7080:7081   */\n      0x00\n        /* \"#utility.yul\":7073:7088   */\n      revert\n        /* \"#utility.yul\":7100:7420   */\n    tag_127:\n        /* \"#utility.yul\":7144:7150   */\n      0x00\n        /* \"#utility.yul\":7181:7182   */\n      0x02\n        /* \"#utility.yul\":7175:7179   */\n      dup3\n        /* \"#utility.yul\":7171:7183   */\n      div\n        /* \"#utility.yul\":7161:7183   */\n      swap1\n      pop\n        /* \"#utility.yul\":7228:7229   */\n      0x01\n        /* \"#utility.yul\":7222:7226   */\n      dup3\n        /* \"#utility.yul\":7218:7230   */\n      and\n        /* \"#utility.yul\":7249:7267   */\n      dup1\n        /* \"#utility.yul\":7239:7320   */\n      tag_412\n      jumpi\n        /* \"#utility.yul\":7305:7309   */\n      0x7f\n        /* \"#utility.yul\":7297:7303   */\n      dup3\n        /* \"#utility.yul\":7293:7310   */\n      and\n        /* \"#utility.yul\":7283:7310   */\n      swap2\n      pop\n        /* \"#utility.yul\":7239:7320   */\n    tag_412:\n        /* \"#utility.yul\":7367:7369   */\n      0x20\n        /* \"#utility.yul\":7359:7365   */\n      dup3\n        /* \"#utility.yul\":7356:7370   */\n      lt\n        /* \"#utility.yul\":7336:7354   */\n      dup2\n        /* \"#utility.yul\":7333:7371   */\n      sub\n        /* \"#utility.yul\":7330:7414   */\n      tag_413\n      jumpi\n        /* \"#utility.yul\":7386:7404   */\n      tag_414\n      tag_297\n      jump\t// in\n    tag_414:\n        /* \"#utility.yul\":7330:7414   */\n    tag_413:\n        /* \"#utility.yul\":7151:7420   */\n      pop\n        /* \"#utility.yul\":7100:7420   */\n      swap2\n      swap1\n      pop\n      jump\t// out\n        /* \"#utility.yul\":7426:7606   */\n    tag_298:\n        /* \"#utility.yul\":7474:7551   */\n      0x4e487b7100000000000000000000000000000000000000000000000000000000\n        /* \"#utility.yul\":7471:7472   */\n      0x00\n        /* \"#utility.yul\":7464:7552   */\n      mstore\n        /* \"#utility.yul\":7571:7575   */\n      0x11\n        /* \"#utility.yul\":7568:7569   */\n      0x04\n        /* \"#utility.yul\":7561:7576   */\n      mstore\n        /* \"#utility.yul\":7595:7599   */\n      0x24\n        /* \"#utility.yul\":7592:7593   */\n      0x00\n        /* \"#utility.yul\":7585:7600   */\n      revert\n        /* \"#utility.yul\":7612:7803   */\n    tag_150:\n        /* \"#utility.yul\":7652:7655   */\n      0x00\n        /* \"#utility.yul\":7671:7691   */\n      tag_417\n        /* \"#utility.yul\":7689:7690   */\n      dup3\n        /* \"#utility.yul\":7671:7691   */\n      tag_288\n      jump\t// in\n    tag_417:\n        /* \"#utility.yul\":7666:7691   */\n      swap2\n      pop\n        /* \"#utility.yul\":7705:7725   */\n      tag_418\n        /* \"#utility.yul\":7723:7724   */\n      dup4\n        /* \"#utility.yul\":7705:7725   */\n      tag_288\n      jump\t// in\n    tag_418:\n        /* \"#utility.yul\":7700:7725   */\n      swap3\n      pop\n        /* \"#utility.yul\":7748:7749   */\n      dup3\n        /* \"#utility.yul\":7745:7746   */\n      dup3\n        /* \"#utility.yul\":7741:7750   */\n      add\n        /* \"#utility.yul\":7734:7750   */\n      swap1\n      pop\n        /* \"#utility.yul\":7769:7772   */\n      dup1\n        /* \"#utility.yul\":7766:7767   */\n      dup3\n        /* \"#utility.yul\":7763:7773   */\n      gt\n        /* \"#utility.yul\":7760:7796   */\n      iszero\n      tag_419\n      jumpi\n        /* \"#utility.yul\":7776:7794   */\n      tag_420\n      tag_298\n      jump\t// in\n    tag_420:\n        /* \"#utility.yul\":7760:7796   */\n    tag_419:\n        /* \"#utility.yul\":7612:7803   */\n      swap3\n      swap2\n      pop\n      pop\n      jump\t// out\n        /* \"#utility.yul\":7809:7979   */\n    tag_299:\n        /* \"#utility.yul\":7949:7971   */\n      0x457863656564696e67206d617820737570706c79000000000000000000000000\n        /* \"#utility.yul\":7945:7946   */\n      0x00\n        /* \"#utility.yul\":7937:7943   */\n      dup3\n        /* \"#utility.yul\":7933:7947   */\n      add\n        /* \"#utility.yul\":7926:7972   */\n      mstore\n        /* \"#utility.yul\":7809:7979   */\n      pop\n      jump\t// out\n        /* \"#utility.yul\":7985:8351   */\n    tag_300:\n        /* \"#utility.yul\":8127:8130   */\n      0x00\n        /* \"#utility.yul\":8148:8215   */\n      tag_423\n        /* \"#utility.yul\":8212:8214   */\n      0x14\n        /* \"#utility.yul\":8207:8210   */\n      dup4\n        /* \"#utility.yul\":8148:8215   */\n      tag_277\n      jump\t// in\n    tag_423:\n        /* \"#utility.yul\":8141:8215   */\n      swap2\n      pop\n        /* \"#utility.yul\":8224:8317   */\n      tag_424\n        /* \"#utility.yul\":8313:8316   */\n      dup3\n        /* \"#utility.yul\":8224:8317   */\n      tag_299\n      jump\t// in\n    tag_424:\n        /* \"#utility.yul\":8342:8344   */\n      0x20\n        /* \"#utility.yul\":8337:8340   */\n      dup3\n        /* \"#utility.yul\":8333:8345   */\n      add\n        /* \"#utility.yul\":8326:8345   */\n      swap1\n      pop\n        /* \"#utility.yul\":7985:8351   */\n      swap2\n      swap1\n      pop\n      jump\t// out\n        /* \"#utility.yul\":8357:8776   */\n    tag_187:\n        /* \"#utility.yul\":8523:8527   */\n      0x00\n        /* \"#utility.yul\":8561:8563   */\n      0x20\n        /* \"#utility.yul\":8550:8559   */\n      dup3\n        /* \"#utility.yul\":8546:8564   */\n      add\n        /* \"#utility.yul\":8538:8564   */\n      swap1\n      pop\n        /* \"#utility.yul\":8610:8619   */\n      dup2\n        /* \"#utility.yul\":8604:8608   */\n      dup2\n        /* \"#utility.yul\":8600:8620   */\n      sub\n        /* \"#utility.yul\":8596:8597   */\n      0x00\n        /* \"#utility.yul\":8585:8594   */\n      dup4\n        /* \"#utility.yul\":8581:8598   */\n      add\n        /* \"#utility.yul\":8574:8621   */\n      mstore\n        /* \"#utility.yul\":8638:8769   */\n      tag_426\n        /* \"#utility.yul\":8764:8768   */\n      dup2\n        /* \"#utility.yul\":8638:8769   */\n      tag_300\n      jump\t// in\n    tag_426:\n        /* \"#utility.yul\":8630:8769   */\n      swap1\n      pop\n        /* \"#utility.yul\":8357:8776   */\n      swap2\n      swap1\n      pop\n      jump\t// out\n        /* \"#utility.yul\":8782:8884   */\n    tag_301:\n        /* \"#utility.yul\":8824:8832   */\n      0x00\n        /* \"#utility.yul\":8871:8876   */\n      dup2\n        /* \"#utility.yul\":8868:8869   */\n      0x01\n        /* \"#utility.yul\":8864:8877   */\n      shr\n        /* \"#utility.yul\":8843:8877   */\n      swap1\n      pop\n        /* \"#utility.yul\":8782:8884   */\n      swap2\n      swap1\n      pop\n      jump\t// out\n        /* \"#utility.yul\":8890:9738   */\n    tag_302:\n        /* \"#utility.yul\":8951:8956   */\n      0x00\n        /* \"#utility.yul\":8958:8962   */\n      dup1\n        /* \"#utility.yul\":8982:8988   */\n      dup3\n        /* \"#utility.yul\":8973:8988   */\n      swap2\n      pop\n        /* \"#utility.yul\":9006:9011   */\n      dup4\n        /* \"#utility.yul\":8997:9011   */\n      swap1\n      pop\n        /* \"#utility.yul\":9020:9732   */\n    tag_429:\n        /* \"#utility.yul\":9041:9042   */\n      0x01\n        /* \"#utility.yul\":9031:9039   */\n      dup6\n        /* \"#utility.yul\":9028:9043   */\n      gt\n        /* \"#utility.yul\":9020:9732   */\n      iszero\n      tag_431\n      jumpi\n        /* \"#utility.yul\":9136:9140   */\n      dup1\n        /* \"#utility.yul\":9131:9134   */\n      dup7\n        /* \"#utility.yul\":9127:9141   */\n      div\n        /* \"#utility.yul\":9121:9125   */\n      dup2\n        /* \"#utility.yul\":9118:9142   */\n      gt\n        /* \"#utility.yul\":9115:9165   */\n      iszero\n      tag_432\n      jumpi\n        /* \"#utility.yul\":9145:9163   */\n      tag_433\n      tag_298\n      jump\t// in\n    tag_433:\n        /* \"#utility.yul\":9115:9165   */\n    tag_432:\n        /* \"#utility.yul\":9195:9196   */\n      0x01\n        /* \"#utility.yul\":9185:9193   */\n      dup6\n        /* \"#utility.yul\":9181:9197   */\n      and\n        /* \"#utility.yul\":9178:9629   */\n      iszero\n      tag_434\n      jumpi\n        /* \"#utility.yul\":9610:9614   */\n      dup1\n        /* \"#utility.yul\":9603:9608   */\n      dup3\n        /* \"#utility.yul\":9599:9615   */\n      mul\n        /* \"#utility.yul\":9590:9615   */\n      swap2\n      pop\n        /* \"#utility.yul\":9178:9629   */\n    tag_434:\n        /* \"#utility.yul\":9660:9664   */\n      dup1\n        /* \"#utility.yul\":9654:9658   */\n      dup2\n        /* \"#utility.yul\":9650:9665   */\n      mul\n        /* \"#utility.yul\":9642:9665   */\n      swap1\n      pop\n        /* \"#utility.yul\":9690:9722   */\n      tag_435\n        /* \"#utility.yul\":9713:9721   */\n      dup6\n        /* \"#utility.yul\":9690:9722   */\n      tag_301\n      jump\t// in\n    tag_435:\n        /* \"#utility.yul\":9678:9722   */\n      swap5\n      pop\n        /* \"#utility.yul\":9020:9732   */\n      jump(tag_429)\n    tag_431:\n        /* \"#utility.yul\":8890:9738   */\n      swap5\n      pop\n      swap5\n      swap3\n      pop\n      pop\n      pop\n      jump\t// out\n        /* \"#utility.yul\":9744:10817   */\n    tag_303:\n        /* \"#utility.yul\":9798:9803   */\n      0x00\n        /* \"#utility.yul\":9989:9997   */\n      dup3\n        /* \"#utility.yul\":9979:10019   */\n      tag_437\n      jumpi\n        /* \"#utility.yul\":10010:10011   */\n      0x01\n        /* \"#utility.yul\":10001:10011   */\n      swap1\n      pop\n        /* \"#utility.yul\":10012:10017   */\n      jump(tag_436)\n        /* \"#utility.yul\":9979:10019   */\n    tag_437:\n        /* \"#utility.yul\":10038:10042   */\n      dup2\n        /* \"#utility.yul\":10028:10064   */\n      tag_438\n      jumpi\n        /* \"#utility.yul\":10055:10056   */\n      0x00\n        /* \"#utility.yul\":10046:10056   */\n      swap1\n      pop\n        /* \"#utility.yul\":10057:10062   */\n      jump(tag_436)\n        /* \"#utility.yul\":10028:10064   */\n    tag_438:\n        /* \"#utility.yul\":10124:10128   */\n      dup2\n        /* \"#utility.yul\":10172:10173   */\n      0x01\n        /* \"#utility.yul\":10167:10194   */\n      dup2\n      eq\n      tag_440\n      jumpi\n        /* \"#utility.yul\":10208:10209   */\n      0x02\n        /* \"#utility.yul\":10203:10394   */\n      dup2\n      eq\n      tag_441\n      jumpi\n        /* \"#utility.yul\":10117:10394   */\n      jump(tag_439)\n        /* \"#utility.yul\":10167:10194   */\n    tag_440:\n        /* \"#utility.yul\":10185:10186   */\n      0x01\n        /* \"#utility.yul\":10176:10186   */\n      swap2\n      pop\n        /* \"#utility.yul\":10187:10192   */\n      pop\n      jump(tag_436)\n        /* \"#utility.yul\":10203:10394   */\n    tag_441:\n        /* \"#utility.yul\":10248:10251   */\n      0xff\n        /* \"#utility.yul\":10238:10246   */\n      dup5\n        /* \"#utility.yul\":10235:10252   */\n      gt\n        /* \"#utility.yul\":10232:10275   */\n      iszero\n      tag_442\n      jumpi\n        /* \"#utility.yul\":10255:10273   */\n      tag_443\n      tag_298\n      jump\t// in\n    tag_443:\n        /* \"#utility.yul\":10232:10275   */\n    tag_442:\n        /* \"#utility.yul\":10304:10312   */\n      dup4\n        /* \"#utility.yul\":10301:10302   */\n      0x02\n        /* \"#utility.yul\":10297:10313   */\n      exp\n        /* \"#utility.yul\":10288:10313   */\n      swap2\n      pop\n        /* \"#utility.yul\":10339:10342   */\n      dup5\n        /* \"#utility.yul\":10332:10337   */\n      dup3\n        /* \"#utility.yul\":10329:10343   */\n      gt\n        /* \"#utility.yul\":10326:10366   */\n      iszero\n      tag_444\n      jumpi\n        /* \"#utility.yul\":10346:10364   */\n      tag_445\n      tag_298\n      jump\t// in\n    tag_445:\n        /* \"#utility.yul\":10326:10366   */\n    tag_444:\n        /* \"#utility.yul\":10379:10384   */\n      pop\n      jump(tag_436)\n        /* \"#utility.yul\":10117:10394   */\n    tag_439:\n      pop\n        /* \"#utility.yul\":10503:10505   */\n      0x20\n        /* \"#utility.yul\":10493:10501   */\n      dup4\n        /* \"#utility.yul\":10490:10506   */\n      lt\n        /* \"#utility.yul\":10484:10487   */\n      0x0133\n        /* \"#utility.yul\":10478:10482   */\n      dup4\n        /* \"#utility.yul\":10475:10488   */\n      lt\n        /* \"#utility.yul\":10471:10507   */\n      and\n        /* \"#utility.yul\":10453:10455   */\n      0x4e\n        /* \"#utility.yul\":10443:10451   */\n      dup5\n        /* \"#utility.yul\":10440:10456   */\n      lt\n        /* \"#utility.yul\":10435:10437   */\n      0x0b\n        /* \"#utility.yul\":10429:10433   */\n      dup5\n        /* \"#utility.yul\":10426:10438   */\n      lt\n        /* \"#utility.yul\":10422:10457   */\n      and\n        /* \"#utility.yul\":10406:10517   */\n      or\n        /* \"#utility.yul\":10403:10649   */\n      iszero\n      tag_446\n      jumpi\n        /* \"#utility.yul\":10559:10567   */\n      dup3\n        /* \"#utility.yul\":10553:10557   */\n      dup3\n        /* \"#utility.yul\":10549:10568   */\n      exp\n        /* \"#utility.yul\":10540:10568   */\n      swap1\n      pop\n        /* \"#utility.yul\":10594:10597   */\n      dup4\n        /* \"#utility.yul\":10587:10592   */\n      dup2\n        /* \"#utility.yul\":10584:10598   */\n      gt\n        /* \"#utility.yul\":10581:10621   */\n      iszero\n      tag_447\n      jumpi\n        /* \"#utility.yul\":10601:10619   */\n      tag_448\n      tag_298\n      jump\t// in\n    tag_448:\n        /* \"#utility.yul\":10581:10621   */\n    tag_447:\n        /* \"#utility.yul\":10634:10639   */\n      jump(tag_436)\n        /* \"#utility.yul\":10403:10649   */\n    tag_446:\n        /* \"#utility.yul\":10674:10716   */\n      tag_449\n        /* \"#utility.yul\":10712:10715   */\n      dup5\n        /* \"#utility.yul\":10702:10710   */\n      dup5\n        /* \"#utility.yul\":10696:10700   */\n      dup5\n        /* \"#utility.yul\":10693:10694   */\n      0x01\n        /* \"#utility.yul\":10674:10716   */\n      tag_302\n      jump\t// in\n    tag_449:\n        /* \"#utility.yul\":10659:10716   */\n      swap3\n      pop\n      swap1\n      pop\n        /* \"#utility.yul\":10748:10752   */\n      dup2\n        /* \"#utility.yul\":10743:10746   */\n      dup5\n        /* \"#utility.yul\":10739:10753   */\n      div\n        /* \"#utility.yul\":10732:10737   */\n      dup2\n        /* \"#utility.yul\":10729:10754   */\n      gt\n        /* \"#utility.yul\":10726:10777   */\n      iszero\n      tag_450\n      jumpi\n        /* \"#utility.yul\":10757:10775   */\n      tag_451\n      tag_298\n      jump\t// in\n    tag_451:\n        /* \"#utility.yul\":10726:10777   */\n    tag_450:\n        /* \"#utility.yul\":10806:10810   */\n      dup2\n        /* \"#utility.yul\":10799:10804   */\n      dup2\n        /* \"#utility.yul\":10795:10811   */\n      mul\n        /* \"#utility.yul\":10786:10811   */\n      swap1\n      pop\n        /* \"#utility.yul\":9744:10817   */\n    tag_436:\n      swap4\n      swap3\n      pop\n      pop\n      pop\n      jump\t// out\n        /* \"#utility.yul\":10823:11104   */\n    tag_190:\n        /* \"#utility.yul\":10881:10886   */\n      0x00\n        /* \"#utility.yul\":10905:10928   */\n      tag_453\n        /* \"#utility.yul\":10923:10927   */\n      dup3\n        /* \"#utility.yul\":10905:10928   */\n      tag_288\n      jump\t// in\n    tag_453:\n        /* \"#utility.yul\":10897:10928   */\n      swap2\n      pop\n        /* \"#utility.yul\":10949:10974   */\n      tag_454\n        /* \"#utility.yul\":10965:10973   */\n      dup4\n        /* \"#utility.yul\":10949:10974   */\n      tag_294\n      jump\t// in\n    tag_454:\n        /* \"#utility.yul\":10937:10974   */\n      swap3\n      pop\n        /* \"#utility.yul\":10993:11097   */\n      tag_455\n        /* \"#utility.yul\":11030:11096   */\n      0xffffffffffffffffffffffffffffffffffffffffffffffffffffffffffffffff\n        /* \"#utility.yul\":11020:11028   */\n      dup5\n        /* \"#utility.yul\":11014:11018   */\n      dup5\n        /* \"#utility.yul\":10993:11097   */\n      tag_303\n      jump\t// in\n    tag_455:\n        /* \"#utility.yul\":10984:11097   */\n      swap1\n      pop\n        /* \"#utility.yul\":10823:11104   */\n      swap3\n      swap2\n      pop\n      pop\n      jump\t// out\n        /* \"#utility.yul\":11110:11520   */\n    tag_192:\n        /* \"#utility.yul\":11150:11157   */\n      0x00\n        /* \"#utility.yul\":11173:11193   */\n      tag_457\n        /* \"#utility.yul\":11191:11192   */\n      dup3\n        /* \"#utility.yul\":11173:11193   */\n      tag_288\n      jump\t// in\n    tag_457:\n        /* \"#utility.yul\":11168:11193   */\n      swap2\n      pop\n        /* \"#utility.yul\":11207:11227   */\n      tag_458\n        /* \"#utility.yul\":11225:11226   */\n      dup4\n        /* \"#utility.yul\":11207:11227   */\n      tag_288\n      jump\t// in\n    tag_458:\n        /* \"#utility.yul\":11202:11227   */\n      swap3\n      pop\n        /* \"#utility.yul\":11262:11263   */\n      dup3\n        /* \"#utility.yul\":11259:11260   */\n      dup3\n        /* \"#utility.yul\":11255:11264   */\n      mul\n        /* \"#utility.yul\":11284:11314   */\n      tag_459\n        /* \"#utility.yul\":11302:11313   */\n      dup2\n        /* \"#utility.yul\":11284:11314   */\n      tag_288\n      jump\t// in\n    tag_459:\n        /* \"#utility.yul\":11273:11314   */\n      swap2\n      pop\n        /* \"#utility.yul\":11463:11464   */\n      dup3\n        /* \"#utility.yul\":11454:11461   */\n      dup3\n        /* \"#utility.yul\":11450:11465   */\n      div\n        /* \"#utility.yul\":11447:11448   */\n      dup5\n        /* \"#utility.yul\":11444:11466   */\n      eq\n        /* \"#utility.yul\":11424:11425   */\n      dup4\n        /* \"#utility.yul\":11417:11426   */\n      iszero\n        /* \"#utility.yul\":11397:11480   */\n      or\n        /* \"#utility.yul\":11374:11513   */\n      tag_460\n      jumpi\n        /* \"#utility.yul\":11493:11511   */\n      tag_461\n      tag_298\n      jump\t// in\n    tag_461:\n        /* \"#utility.yul\":11374:11513   */\n    tag_460:\n        /* \"#utility.yul\":11158:11520   */\n      pop\n        /* \"#utility.yul\":11110:11520   */\n      swap3\n      swap2\n      pop\n      pop\n      jump\t// out\n        /* \"#utility.yul\":11526:11706   */\n    tag_304:\n        /* \"#utility.yul\":11574:11651   */\n      0x4e487b7100000000000000000000000000000000000000000000000000000000\n        /* \"#utility.yul\":11571:11572   */\n      0x00\n        /* \"#utility.yul\":11564:11652   */\n      mstore\n        /* \"#utility.yul\":11671:11675   */\n      0x12\n        /* \"#utility.yul\":11668:11669   */\n      0x04\n        /* \"#utility.yul\":11661:11676   */\n      mstore\n        /* \"#utility.yul\":11695:11699   */\n      0x24\n        /* \"#utility.yul\":11692:11693   */\n      0x00\n        /* \"#utility.yul\":11685:11700   */\n      revert\n        /* \"#utility.yul\":11712:11897   */\n    tag_194:\n        /* \"#utility.yul\":11752:11753   */\n      0x00\n        /* \"#utility.yul\":11769:11789   */\n      tag_464\n        /* \"#utility.yul\":11787:11788   */\n      dup3\n        /* \"#utility.yul\":11769:11789   */\n      tag_288\n      jump\t// in\n    tag_464:\n        /* \"#utility.yul\":11764:11789   */\n      swap2\n      pop\n        /* \"#utility.yul\":11803:11823   */\n      tag_465\n        /* \"#utility.yul\":11821:11822   */\n      dup4\n        /* \"#utility.yul\":11803:11823   */\n      tag_288\n      jump\t// in\n    tag_465:\n        /* \"#utility.yul\":11798:11823   */\n      swap3\n      pop\n        /* \"#utility.yul\":11842:11843   */\n      dup3\n        /* \"#utility.yul\":11832:11867   */\n      tag_466\n      jumpi\n        /* \"#utility.yul\":11847:11865   */\n      tag_467\n      tag_304\n      jump\t// in\n    tag_467:\n        /* \"#utility.yul\":11832:11867   */\n    tag_466:\n        /* \"#utility.yul\":11889:11890   */\n      dup3\n        /* \"#utility.yul\":11886:11887   */\n      dup3\n        /* \"#utility.yul\":11882:11891   */\n      div\n        /* \"#utility.yul\":11877:11891   */\n      swap1\n      pop\n        /* \"#utility.yul\":11712:11897   */\n      swap3\n      swap2\n      pop\n      pop\n      jump\t// out\n        /* \"#utility.yul\":11903:12124   */\n    tag_305:\n        /* \"#utility.yul\":12043:12077   */\n      0x506179204574686572206163636f7264696e6720746f20546f6b656e20507269\n        /* \"#utility.yul\":12039:12040   */\n      0x00\n        /* \"#utility.yul\":12031:12037   */\n      dup3\n        /* \"#utility.yul\":12027:12041   */\n      add\n        /* \"#utility.yul\":12020:12078   */\n      mstore\n        /* \"#utility.yul\":12112:12116   */\n      0x6365000000000000000000000000000000000000000000000000000000000000\n        /* \"#utility.yul\":12107:12109   */\n      0x20\n        /* \"#utility.yul\":12099:12105   */\n      dup3\n        /* \"#utility.yul\":12095:12110   */\n      add\n        /* \"#utility.yul\":12088:12117   */\n      mstore\n        /* \"#utility.yul\":11903:12124   */\n      pop\n      jump\t// out\n        /* \"#utility.yul\":12130:12496   */\n    tag_306:\n        /* \"#utility.yul\":12272:12275   */\n      0x00\n        /* \"#utility.yul\":12293:12360   */\n      tag_470\n        /* \"#utility.yul\":12357:12359   */\n      0x22\n        /* \"#utility.yul\":12352:12355   */\n      dup4\n        /* \"#utility.yul\":12293:12360   */\n      tag_277\n      jump\t// in\n    tag_470:\n        /* \"#utility.yul\":12286:12360   */\n      swap2\n      pop\n        /* \"#utility.yul\":12369:12462   */\n      tag_471\n        /* \"#utility.yul\":12458:12461   */\n      dup3\n        /* \"#utility.yul\":12369:12462   */\n      tag_305\n      jump\t// in\n    tag_471:\n        /* \"#utility.yul\":12487:12489   */\n      0x40\n        /* \"#utility.yul\":12482:12485   */\n      dup3\n        /* \"#utility.yul\":12478:12490   */\n      add\n        /* \"#utility.yul\":12471:12490   */\n      swap1\n      pop\n        /* \"#utility.yul\":12130:12496   */\n      swap2\n      swap1\n      pop\n      jump\t// out\n        /* \"#utility.yul\":12502:12921   */\n    tag_197:\n        /* \"#utility.yul\":12668:12672   */\n      0x00\n        /* \"#utility.yul\":12706:12708   */\n      0x20\n        /* \"#utility.yul\":12695:12704   */\n      dup3\n        /* \"#utility.yul\":12691:12709   */\n      add\n        /* \"#utility.yul\":12683:12709   */\n      swap1\n      pop\n        /* \"#utility.yul\":12755:12764   */\n      dup2\n        /* \"#utility.yul\":12749:12753   */\n      dup2\n        /* \"#utility.yul\":12745:12765   */\n      sub\n        /* \"#utility.yul\":12741:12742   */\n      0x00\n        /* \"#utility.yul\":12730:12739   */\n      dup4\n        /* \"#utility.yul\":12726:12743   */\n      add\n        /* \"#utility.yul\":12719:12766   */\n      mstore\n        /* \"#utility.yul\":12783:12914   */\n      tag_473\n        /* \"#utility.yul\":12909:12913   */\n      dup2\n        /* \"#utility.yul\":12783:12914   */\n      tag_306\n      jump\t// in\n    tag_473:\n        /* \"#utility.yul\":12775:12914   */\n      swap1\n      pop\n        /* \"#utility.yul\":12502:12921   */\n      swap2\n      swap1\n      pop\n      jump\t// out\n        /* \"#utility.yul\":12927:13151   */\n    tag_307:\n        /* \"#utility.yul\":13067:13101   */\n      0x45524332303a2064656372656173656420616c6c6f77616e63652062656c6f77\n        /* \"#utility.yul\":13063:13064   */\n      0x00\n        /* \"#utility.yul\":13055:13061   */\n      dup3\n        /* \"#utility.yul\":13051:13065   */\n      add\n        /* \"#utility.yul\":13044:13102   */\n      mstore\n        /* \"#utility.yul\":13136:13143   */\n      0x207a65726f000000000000000000000000000000000000000000000000000000\n        /* \"#utility.yul\":13131:13133   */\n      0x20\n        /* \"#utility.yul\":13123:13129   */\n      dup3\n        /* \"#utility.yul\":13119:13134   */\n      add\n        /* \"#utility.yul\":13112:13144   */\n      mstore\n        /* \"#utility.yul\":12927:13151   */\n      pop\n      jump\t// out\n        /* \"#utility.yul\":13157:13523   */\n    tag_308:\n        /* \"#utility.yul\":13299:13302   */\n      0x00\n        /* \"#utility.yul\":13320:13387   */\n      tag_476\n        /* \"#utility.yul\":13384:13386   */\n      0x25\n        /* \"#utility.yul\":13379:13382   */\n      dup4\n        /* \"#utility.yul\":13320:13387   */\n      tag_277\n      jump\t// in\n    tag_476:\n        /* \"#utility.yul\":13313:13387   */\n      swap2\n      pop\n        /* \"#utility.yul\":13396:13489   */\n      tag_477\n        /* \"#utility.yul\":13485:13488   */\n      dup3\n        /* \"#utility.yul\":13396:13489   */\n      tag_307\n      jump\t// in\n    tag_477:\n        /* \"#utility.yul\":13514:13516   */\n      0x40\n        /* \"#utility.yul\":13509:13512   */\n      dup3\n        /* \"#utility.yul\":13505:13517   */\n      add\n        /* \"#utility.yul\":13498:13517   */\n      swap1\n      pop\n        /* \"#utility.yul\":13157:13523   */\n      swap2\n      swap1\n      pop\n      jump\t// out\n        /* \"#utility.yul\":13529:13948   */\n    tag_205:\n        /* \"#utility.yul\":13695:13699   */\n      0x00\n        /* \"#utility.yul\":13733:13735   */\n      0x20\n        /* \"#utility.yul\":13722:13731   */\n      dup3\n        /* \"#utility.yul\":13718:13736   */\n      add\n        /* \"#utility.yul\":13710:13736   */\n      swap1\n      pop\n        /* \"#utility.yul\":13782:13791   */\n      dup2\n        /* \"#utility.yul\":13776:13780   */\n      dup2\n        /* \"#utility.yul\":13772:13792   */\n      sub\n        /* \"#utility.yul\":13768:13769   */\n      0x00\n        /* \"#utility.yul\":13757:13766   */\n      dup4\n        /* \"#utility.yul\":13753:13770   */\n      add\n        /* \"#utility.yul\":13746:13793   */\n      mstore\n        /* \"#utility.yul\":13810:13941   */\n      tag_479\n        /* \"#utility.yul\":13936:13940   */\n      dup2\n        /* \"#utility.yul\":13810:13941   */\n      tag_308\n      jump\t// in\n    tag_479:\n        /* \"#utility.yul\":13802:13941   */\n      swap1\n      pop\n        /* \"#utility.yul\":13529:13948   */\n      swap2\n      swap1\n      pop\n      jump\t// out\n        /* \"#utility.yul\":13954:14179   */\n    tag_309:\n        /* \"#utility.yul\":14094:14128   */\n      0x4f776e61626c653a206e6577206f776e657220697320746865207a65726f2061\n        /* \"#utility.yul\":14090:14091   */\n      0x00\n        /* \"#utility.yul\":14082:14088   */\n      dup3\n        /* \"#utility.yul\":14078:14092   */\n      add\n        /* \"#utility.yul\":14071:14129   */\n      mstore\n        /* \"#utility.yul\":14163:14171   */\n      0x6464726573730000000000000000000000000000000000000000000000000000\n        /* \"#utility.yul\":14158:14160   */\n      0x20\n        /* \"#utility.yul\":14150:14156   */\n      dup3\n        /* \"#utility.yul\":14146:14161   */\n      add\n        /* \"#utility.yul\":14139:14172   */\n      mstore\n        /* \"#utility.yul\":13954:14179   */\n      pop\n      jump\t// out\n        /* \"#utility.yul\":14185:14551   */\n    tag_310:\n        /* \"#utility.yul\":14327:14330   */\n      0x00\n        /* \"#utility.yul\":14348:14415   */\n      tag_482\n        /* \"#utility.yul\":14412:14414   */\n      0x26\n        /* \"#utility.yul\":14407:14410   */\n      dup4\n        /* \"#utility.yul\":14348:14415   */\n      tag_277\n      jump\t// in\n    tag_482:\n        /* \"#utility.yul\":14341:14415   */\n      swap2\n      pop\n        /* \"#utility.yul\":14424:14517   */\n      tag_483\n        /* \"#utility.yul\":14513:14516   */\n      dup3\n        /* \"#utility.yul\":14424:14517   */\n      tag_309\n      jump\t// in\n    tag_483:\n        /* \"#utility.yul\":14542:14544   */\n      0x40\n        /* \"#utility.yul\":14537:14540   */\n      dup3\n        /* \"#utility.yul\":14533:14545   */\n      add\n        /* \"#utility.yul\":14526:14545   */\n      swap1\n      pop\n        /* \"#utility.yul\":14185:14551   */\n      swap2\n      swap1\n      pop\n      jump\t// out\n        /* \"#utility.yul\":14557:14976   */\n    tag_216:\n        /* \"#utility.yul\":14723:14727   */\n      0x00\n        /* \"#utility.yul\":14761:14763   */\n      0x20\n        /* \"#utility.yul\":14750:14759   */\n      dup3\n        /* \"#utility.yul\":14746:14764   */\n      add\n        /* \"#utility.yul\":14738:14764   */\n      swap1\n      pop\n        /* \"#utility.yul\":14810:14819   */\n      dup2\n        /* \"#utility.yul\":14804:14808   */\n      dup2\n        /* \"#utility.yul\":14800:14820   */\n      sub\n        /* \"#utility.yul\":14796:14797   */\n      0x00\n        /* \"#utility.yul\":14785:14794   */\n      dup4\n        /* \"#utility.yul\":14781:14798   */\n      add\n        /* \"#utility.yul\":14774:14821   */\n      mstore\n        /* \"#utility.yul\":14838:14969   */\n      tag_485\n        /* \"#utility.yul\":14964:14968   */\n      dup2\n        /* \"#utility.yul\":14838:14969   */\n      tag_310\n      jump\t// in\n    tag_485:\n        /* \"#utility.yul\":14830:14969   */\n      swap1\n      pop\n        /* \"#utility.yul\":14557:14976   */\n      swap2\n      swap1\n      pop\n      jump\t// out\n        /* \"#utility.yul\":14982:15205   */\n    tag_311:\n        /* \"#utility.yul\":15122:15156   */\n      0x45524332303a20617070726f76652066726f6d20746865207a65726f20616464\n        /* \"#utility.yul\":15118:15119   */\n      0x00\n        /* \"#utility.yul\":15110:15116   */\n      dup3\n        /* \"#utility.yul\":15106:15120   */\n      add\n        /* \"#utility.yul\":15099:15157   */\n      mstore\n        /* \"#utility.yul\":15191:15197   */\n      0x7265737300000000000000000000000000000000000000000000000000000000\n        /* \"#utility.yul\":15186:15188   */\n      0x20\n        /* \"#utility.yul\":15178:15184   */\n      dup3\n        /* \"#utility.yul\":15174:15189   */\n      add\n        /* \"#utility.yul\":15167:15198   */\n      mstore\n        /* \"#utility.yul\":14982:15205   */\n      pop\n      jump\t// out\n        /* \"#utility.yul\":15211:15577   */\n    tag_312:\n        /* \"#utility.yul\":15353:15356   */\n      0x00\n        /* \"#utility.yul\":15374:15441   */\n      tag_488\n        /* \"#utility.yul\":15438:15440   */\n      0x24\n        /* \"#utility.yul\":15433:15436   */\n      dup4\n        /* \"#utility.yul\":15374:15441   */\n      tag_277\n      jump\t// in\n    tag_488:\n        /* \"#utility.yul\":15367:15441   */\n      swap2\n      pop\n        /* \"#utility.yul\":15450:15543   */\n      tag_489\n        /* \"#utility.yul\":15539:15542   */\n      dup3\n        /* \"#utility.yul\":15450:15543   */\n      tag_311\n      jump\t// in\n    tag_489:\n        /* \"#utility.yul\":15568:15570   */\n      0x40\n        /* \"#utility.yul\":15563:15566   */\n      dup3\n        /* \"#utility.yul\":15559:15571   */\n      add\n        /* \"#utility.yul\":15552:15571   */\n      swap1\n      pop\n        /* \"#utility.yul\":15211:15577   */\n      swap2\n      swap1\n      pop\n      jump\t// out\n        /* \"#utility.yul\":15583:16002   */\n    tag_222:\n        /* \"#utility.yul\":15749:15753   */\n      0x00\n        /* \"#utility.yul\":15787:15789   */\n      0x20\n        /* \"#utility.yul\":15776:15785   */\n      dup3\n        /* \"#utility.yul\":15772:15790   */\n      add\n        /* \"#utility.yul\":15764:15790   */\n      swap1\n      pop\n        /* \"#utility.yul\":15836:15845   */\n      dup2\n        /* \"#utility.yul\":15830:15834   */\n      dup2\n        /* \"#utility.yul\":15826:15846   */\n      sub\n        /* \"#utility.yul\":15822:15823   */\n      0x00\n        /* \"#utility.yul\":15811:15820   */\n      dup4\n        /* \"#utility.yul\":15807:15824   */\n      add\n        /* \"#utility.yul\":15800:15847   */\n      mstore\n        /* \"#utility.yul\":15864:15995   */\n      tag_491\n        /* \"#utility.yul\":15990:15994   */\n      dup2\n        /* \"#utility.yul\":15864:15995   */\n      tag_312\n      jump\t// in\n    tag_491:\n        /* \"#utility.yul\":15856:15995   */\n      swap1\n      pop\n        /* \"#utility.yul\":15583:16002   */\n      swap2\n      swap1\n      pop\n      jump\t// out\n        /* \"#utility.yul\":16008:16229   */\n    tag_313:\n        /* \"#utility.yul\":16148:16182   */\n      0x45524332303a20617070726f766520746f20746865207a65726f206164647265\n        /* \"#utility.yul\":16144:16145   */\n      0x00\n        /* \"#utility.yul\":16136:16142   */\n      dup3\n        /* \"#utility.yul\":16132:16146   */\n      add\n        /* \"#utility.yul\":16125:16183   */\n      mstore\n        /* \"#utility.yul\":16217:16221   */\n      0x7373000000000000000000000000000000000000000000000000000000000000\n        /* \"#utility.yul\":16212:16214   */\n      0x20\n        /* \"#utility.yul\":16204:16210   */\n      dup3\n        /* \"#utility.yul\":16200:16215   */\n      add\n        /* \"#utility.yul\":16193:16222   */\n      mstore\n        /* \"#utility.yul\":16008:16229   */\n      pop\n      jump\t// out\n        /* \"#utility.yul\":16235:16601   */\n    tag_314:\n        /* \"#utility.yul\":16377:16380   */\n      0x00\n        /* \"#utility.yul\":16398:16465   */\n      tag_494\n        /* \"#utility.yul\":16462:16464   */\n      0x22\n        /* \"#utility.yul\":16457:16460   */\n      dup4\n        /* \"#utility.yul\":16398:16465   */\n      tag_277\n      jump\t// in\n    tag_494:\n        /* \"#utility.yul\":16391:16465   */\n      swap2\n      pop\n        /* \"#utility.yul\":16474:16567   */\n      tag_495\n        /* \"#utility.yul\":16563:16566   */\n      dup3\n        /* \"#utility.yul\":16474:16567   */\n      tag_313\n      jump\t// in\n    tag_495:\n        /* \"#utility.yul\":16592:16594   */\n      0x40\n        /* \"#utility.yul\":16587:16590   */\n      dup3\n        /* \"#utility.yul\":16583:16595   */\n      add\n        /* \"#utility.yul\":16576:16595   */\n      swap1\n      pop\n        /* \"#utility.yul\":16235:16601   */\n      swap2\n      swap1\n      pop\n      jump\t// out\n        /* \"#utility.yul\":16607:17026   */\n    tag_225:\n        /* \"#utility.yul\":16773:16777   */\n      0x00\n        /* \"#utility.yul\":16811:16813   */\n      0x20\n        /* \"#utility.yul\":16800:16809   */\n      dup3\n        /* \"#utility.yul\":16796:16814   */\n      add\n        /* \"#utility.yul\":16788:16814   */\n      swap1\n      pop\n        /* \"#utility.yul\":16860:16869   */\n      dup2\n        /* \"#utility.yul\":16854:16858   */\n      dup2\n        /* \"#utility.yul\":16850:16870   */\n      sub\n        /* \"#utility.yul\":16846:16847   */\n      0x00\n        /* \"#utility.yul\":16835:16844   */\n      dup4\n        /* \"#utility.yul\":16831:16848   */\n      add\n        /* \"#utility.yul\":16824:16871   */\n      mstore\n        /* \"#utility.yul\":16888:17019   */\n      tag_497\n        /* \"#utility.yul\":17014:17018   */\n      dup2\n        /* \"#utility.yul\":16888:17019   */\n      tag_314\n      jump\t// in\n    tag_497:\n        /* \"#utility.yul\":16880:17019   */\n      swap1\n      pop\n        /* \"#utility.yul\":16607:17026   */\n      swap2\n      swap1\n      pop\n      jump\t// out\n        /* \"#utility.yul\":17032:17211   */\n    tag_315:\n        /* \"#utility.yul\":17172:17203   */\n      0x45524332303a20696e73756666696369656e7420616c6c6f77616e6365000000\n        /* \"#utility.yul\":17168:17169   */\n      0x00\n        /* \"#utility.yul\":17160:17166   */\n      dup3\n        /* \"#utility.yul\":17156:17170   */\n      add\n        /* \"#utility.yul\":17149:17204   */\n      mstore\n        /* \"#utility.yul\":17032:17211   */\n      pop\n      jump\t// out\n        /* \"#utility.yul\":17217:17583   */\n    tag_316:\n        /* \"#utility.yul\":17359:17362   */\n      0x00\n        /* \"#utility.yul\":17380:17447   */\n      tag_500\n        /* \"#utility.yul\":17444:17446   */\n      0x1d\n        /* \"#utility.yul\":17439:17442   */\n      dup4\n        /* \"#utility.yul\":17380:17447   */\n      tag_277\n      jump\t// in\n    tag_500:\n        /* \"#utility.yul\":17373:17447   */\n      swap2\n      pop\n        /* \"#utility.yul\":17456:17549   */\n      tag_501\n        /* \"#utility.yul\":17545:17548   */\n      dup3\n        /* \"#utility.yul\":17456:17549   */\n      tag_315\n      jump\t// in\n    tag_501:\n        /* \"#utility.yul\":17574:17576   */\n      0x20\n        /* \"#utility.yul\":17569:17572   */\n      dup3\n        /* \"#utility.yul\":17565:17577   */\n      add\n        /* \"#utility.yul\":17558:17577   */\n      swap1\n      pop\n        /* \"#utility.yul\":17217:17583   */\n      swap2\n      swap1\n      pop\n      jump\t// out\n        /* \"#utility.yul\":17589:18008   */\n    tag_232:\n        /* \"#utility.yul\":17755:17759   */\n      0x00\n        /* \"#utility.yul\":17793:17795   */\n      0x20\n        /* \"#utility.yul\":17782:17791   */\n      dup3\n        /* \"#utility.yul\":17778:17796   */\n      add\n        /* \"#utility.yul\":17770:17796   */\n      swap1\n      pop\n        /* \"#utility.yul\":17842:17851   */\n      dup2\n        /* \"#utility.yul\":17836:17840   */\n      dup2\n        /* \"#utility.yul\":17832:17852   */\n      sub\n        /* \"#utility.yul\":17828:17829   */\n      0x00\n        /* \"#utility.yul\":17817:17826   */\n      dup4\n        /* \"#utility.yul\":17813:17830   */\n      add\n        /* \"#utility.yul\":17806:17853   */\n      mstore\n        /* \"#utility.yul\":17870:18001   */\n      tag_503\n        /* \"#utility.yul\":17996:18000   */\n      dup2\n        /* \"#utility.yul\":17870:18001   */\n      tag_316\n      jump\t// in\n    tag_503:\n        /* \"#utility.yul\":17862:18001   */\n      swap1\n      pop\n        /* \"#utility.yul\":17589:18008   */\n      swap2\n      swap1\n      pop\n      jump\t// out\n        /* \"#utility.yul\":18014:18238   */\n    tag_317:\n        /* \"#utility.yul\":18154:18188   */\n      0x45524332303a207472616e736665722066726f6d20746865207a65726f206164\n        /* \"#utility.yul\":18150:18151   */\n      0x00\n        /* \"#utility.yul\":18142:18148   */\n      dup3\n        /* \"#utility.yul\":18138:18152   */\n      add\n        /* \"#utility.yul\":18131:18189   */\n      mstore\n        /* \"#utility.yul\":18223:18230   */\n      0x6472657373000000000000000000000000000000000000000000000000000000\n        /* \"#utility.yul\":18218:18220   */\n      0x20\n        /* \"#utility.yul\":18210:18216   */\n      dup3\n        /* \"#utility.yul\":18206:18221   */\n      add\n        /* \"#utility.yul\":18199:18231   */\n      mstore\n        /* \"#utility.yul\":18014:18238   */\n      pop\n      jump\t// out\n        /* \"#utility.yul\":18244:18610   */\n    tag_318:\n        /* \"#utility.yul\":18386:18389   */\n      0x00\n        /* \"#utility.yul\":18407:18474   */\n      tag_506\n        /* \"#utility.yul\":18471:18473   */\n      0x25\n        /* \"#utility.yul\":18466:18469   */\n      dup4\n        /* \"#utility.yul\":18407:18474   */\n      tag_277\n      jump\t// in\n    tag_506:\n        /* \"#utility.yul\":18400:18474   */\n      swap2\n      pop\n        /* \"#utility.yul\":18483:18576   */\n      tag_507\n        /* \"#utility.yul\":18572:18575   */\n      dup3\n        /* \"#utility.yul\":18483:18576   */\n      tag_317\n      jump\t// in\n    tag_507:\n        /* \"#utility.yul\":18601:18603   */\n      0x40\n        /* \"#utility.yul\":18596:18599   */\n      dup3\n        /* \"#utility.yul\":18592:18604   */\n      add\n        /* \"#utility.yul\":18585:18604   */\n      swap1\n      pop\n        /* \"#utility.yul\":18244:18610   */\n      swap2\n      swap1\n      pop\n      jump\t// out\n        /* \"#utility.yul\":18616:19035   */\n    tag_237:\n        /* \"#utility.yul\":18782:18786   */\n      0x00\n        /* \"#utility.yul\":18820:18822   */\n      0x20\n        /* \"#utility.yul\":18809:18818   */\n      dup3\n        /* \"#utility.yul\":18805:18823   */\n      add\n        /* \"#utility.yul\":18797:18823   */\n      swap1\n      pop\n        /* \"#utility.yul\":18869:18878   */\n      dup2\n        /* \"#utility.yul\":18863:18867   */\n      dup2\n        /* \"#utility.yul\":18859:18879   */\n      sub\n        /* \"#utility.yul\":18855:18856   */\n      0x00\n        /* \"#utility.yul\":18844:18853   */\n      dup4\n        /* \"#utility.yul\":18840:18857   */\n      add\n        /* \"#utility.yul\":18833:18880   */\n      mstore\n        /* \"#utility.yul\":18897:19028   */\n      tag_509\n        /* \"#utility.yul\":19023:19027   */\n      dup2\n        /* \"#utility.yul\":18897:19028   */\n      tag_318\n      jump\t// in\n    tag_509:\n        /* \"#utility.yul\":18889:19028   */\n      swap1\n      pop\n        /* \"#utility.yul\":18616:19035   */\n      swap2\n      swap1\n      pop\n      jump\t// out\n        /* \"#utility.yul\":19041:19263   */\n    tag_319:\n        /* \"#utility.yul\":19181:19215   */\n      0x45524332303a207472616e7366657220746f20746865207a65726f2061646472\n        /* \"#utility.yul\":19177:19178   */\n      0x00\n        /* \"#utility.yul\":19169:19175   */\n      dup3\n        /* \"#utility.yul\":19165:19179   */\n      add\n        /* \"#utility.yul\":19158:19216   */\n      mstore\n        /* \"#utility.yul\":19250:19255   */\n      0x6573730000000000000000000000000000000000000000000000000000000000\n        /* \"#utility.yul\":19245:19247   */\n      0x20\n        /* \"#utility.yul\":19237:19243   */\n      dup3\n        /* \"#utility.yul\":19233:19248   */\n      add\n        /* \"#utility.yul\":19226:19256   */\n      mstore\n        /* \"#utility.yul\":19041:19263   */\n      pop\n      jump\t// out\n        /* \"#utility.yul\":19269:19635   */\n    tag_320:\n        /* \"#utility.yul\":19411:19414   */\n      0x00\n        /* \"#utility.yul\":19432:19499   */\n      tag_512\n        /* \"#utility.yul\":19496:19498   */\n      0x23\n        /* \"#utility.yul\":19491:19494   */\n      dup4\n        /* \"#utility.yul\":19432:19499   */\n      tag_277\n      jump\t// in\n    tag_512:\n        /* \"#utility.yul\":19425:19499   */\n      swap2\n      pop\n        /* \"#utility.yul\":19508:19601   */\n      tag_513\n        /* \"#utility.yul\":19597:19600   */\n      dup3\n        /* \"#utility.yul\":19508:19601   */\n      tag_319\n      jump\t// in\n    tag_513:\n        /* \"#utility.yul\":19626:19628   */\n      0x40\n        /* \"#utility.yul\":19621:19624   */\n      dup3\n        /* \"#utility.yul\":19617:19629   */\n      add\n        /* \"#utility.yul\":19610:19629   */\n      swap1\n      pop\n        /* \"#utility.yul\":19269:19635   */\n      swap2\n      swap1\n      pop\n      jump\t// out\n        /* \"#utility.yul\":19641:20060   */\n    tag_240:\n        /* \"#utility.yul\":19807:19811   */\n      0x00\n        /* \"#utility.yul\":19845:19847   */\n      0x20\n        /* \"#utility.yul\":19834:19843   */\n      dup3\n        /* \"#utility.yul\":19830:19848   */\n      add\n        /* \"#utility.yul\":19822:19848   */\n      swap1\n      pop\n        /* \"#utility.yul\":19894:19903   */\n      dup2\n        /* \"#utility.yul\":19888:19892   */\n      dup2\n        /* \"#utility.yul\":19884:19904   */\n      sub\n        /* \"#utility.yul\":19880:19881   */\n      0x00\n        /* \"#utility.yul\":19869:19878   */\n      dup4\n        /* \"#utility.yul\":19865:19882   */\n      add\n        /* \"#utility.yul\":19858:19905   */\n      mstore\n        /* \"#utility.yul\":19922:20053   */\n      tag_515\n        /* \"#utility.yul\":20048:20052   */\n      dup2\n        /* \"#utility.yul\":19922:20053   */\n      tag_320\n      jump\t// in\n    tag_515:\n        /* \"#utility.yul\":19914:20053   */\n      swap1\n      pop\n        /* \"#utility.yul\":19641:20060   */\n      swap2\n      swap1\n      pop\n      jump\t// out\n        /* \"#utility.yul\":20066:20291   */\n    tag_321:\n        /* \"#utility.yul\":20206:20240   */\n      0x45524332303a207472616e7366657220616d6f756e7420657863656564732062\n        /* \"#utility.yul\":20202:20203   */\n      0x00\n        /* \"#utility.yul\":20194:20200   */\n      dup3\n        /* \"#utility.yul\":20190:20204   */\n      add\n        /* \"#utility.yul\":20183:20241   */\n      mstore\n        /* \"#utility.yul\":20275:20283   */\n      0x616c616e63650000000000000000000000000000000000000000000000000000\n        /* \"#utility.yul\":20270:20272   */\n      0x20\n        /* \"#utility.yul\":20262:20268   */\n      dup3\n        /* \"#utility.yul\":20258:20273   */\n      add\n        /* \"#utility.yul\":20251:20284   */\n      mstore\n        /* \"#utility.yul\":20066:20291   */\n      pop\n      jump\t// out\n        /* \"#utility.yul\":20297:20663   */\n    tag_322:\n        /* \"#utility.yul\":20439:20442   */\n      0x00\n        /* \"#utility.yul\":20460:20527   */\n      tag_518\n        /* \"#utility.yul\":20524:20526   */\n      0x26\n        /* \"#utility.yul\":20519:20522   */\n      dup4\n        /* \"#utility.yul\":20460:20527   */\n      tag_277\n      jump\t// in\n    tag_518:\n        /* \"#utility.yul\":20453:20527   */\n      swap2\n      pop\n        /* \"#utility.yul\":20536:20629   */\n      tag_519\n        /* \"#utility.yul\":20625:20628   */\n      dup3\n        /* \"#utility.yul\":20536:20629   */\n      tag_321\n      jump\t// in\n    tag_519:\n        /* \"#utility.yul\":20654:20656   */\n      0x40\n        /* \"#utility.yul\":20649:20652   */\n      dup3\n        /* \"#utility.yul\":20645:20657   */\n      add\n        /* \"#utility.yul\":20638:20657   */\n      swap1\n      pop\n        /* \"#utility.yul\":20297:20663   */\n      swap2\n      swap1\n      pop\n      jump\t// out\n        /* \"#utility.yul\":20669:21088   */\n    tag_245:\n        /* \"#utility.yul\":20835:20839   */\n      0x00\n        /* \"#utility.yul\":20873:20875   */\n      0x20\n        /* \"#utility.yul\":20862:20871   */\n      dup3\n        /* \"#utility.yul\":20858:20876   */\n      add\n        /* \"#utility.yul\":20850:20876   */\n      swap1\n      pop\n        /* \"#utility.yul\":20922:20931   */\n      dup2\n        /* \"#utility.yul\":20916:20920   */\n      dup2\n        /* \"#utility.yul\":20912:20932   */\n      sub\n        /* \"#utility.yul\":20908:20909   */\n      0x00\n        /* \"#utility.yul\":20897:20906   */\n      dup4\n        /* \"#utility.yul\":20893:20910   */\n      add\n        /* \"#utility.yul\":20886:20933   */\n      mstore\n        /* \"#utility.yul\":20950:21081   */\n      tag_521\n        /* \"#utility.yul\":21076:21080   */\n      dup2\n        /* \"#utility.yul\":20950:21081   */\n      tag_322\n      jump\t// in\n    tag_521:\n        /* \"#utility.yul\":20942:21081   */\n      swap1\n      pop\n        /* \"#utility.yul\":20669:21088   */\n      swap2\n      swap1\n      pop\n      jump\t// out\n        /* \"#utility.yul\":21094:21314   */\n    tag_323:\n        /* \"#utility.yul\":21234:21268   */\n      0x45524332303a206275726e2066726f6d20746865207a65726f20616464726573\n        /* \"#utility.yul\":21230:21231   */\n      0x00\n        /* \"#utility.yul\":21222:21228   */\n      dup3\n        /* \"#utility.yul\":21218:21232   */\n      add\n        /* \"#utility.yul\":21211:21269   */\n      mstore\n        /* \"#utility.yul\":21303:21306   */\n      0x7300000000000000000000000000000000000000000000000000000000000000\n        /* \"#utility.yul\":21298:21300   */\n      0x20\n        /* \"#utility.yul\":21290:21296   */\n      dup3\n        /* \"#utility.yul\":21286:21301   */\n      add\n        /* \"#utility.yul\":21279:21307   */\n      mstore\n        /* \"#utility.yul\":21094:21314   */\n      pop\n      jump\t// out\n        /* \"#utility.yul\":21320:21686   */\n    tag_324:\n        /* \"#utility.yul\":21462:21465   */\n      0x00\n        /* \"#utility.yul\":21483:21550   */\n      tag_524\n        /* \"#utility.yul\":21547:21549   */\n      0x21\n        /* \"#utility.yul\":21542:21545   */\n      dup4\n        /* \"#utility.yul\":21483:21550   */\n      tag_277\n      jump\t// in\n    tag_524:\n        /* \"#utility.yul\":21476:21550   */\n      swap2\n      pop\n        /* \"#utility.yul\":21559:21652   */\n      tag_525\n        /* \"#utility.yul\":21648:21651   */\n      dup3\n        /* \"#utility.yul\":21559:21652   */\n      tag_323\n      jump\t// in\n    tag_525:\n        /* \"#utility.yul\":21677:21679   */\n      0x40\n        /* \"#utility.yul\":21672:21675   */\n      dup3\n        /* \"#utility.yul\":21668:21680   */\n      add\n        /* \"#utility.yul\":21661:21680   */\n      swap1\n      pop\n        /* \"#utility.yul\":21320:21686   */\n      swap2\n      swap1\n      pop\n      jump\t// out\n        /* \"#utility.yul\":21692:22111   */\n    tag_252:\n        /* \"#utility.yul\":21858:21862   */\n      0x00\n        /* \"#utility.yul\":21896:21898   */\n      0x20\n        /* \"#utility.yul\":21885:21894   */\n      dup3\n        /* \"#utility.yul\":21881:21899   */\n      add\n        /* \"#utility.yul\":21873:21899   */\n      swap1\n      pop\n        /* \"#utility.yul\":21945:21954   */\n      dup2\n        /* \"#utility.yul\":21939:21943   */\n      dup2\n        /* \"#utility.yul\":21935:21955   */\n      sub\n        /* \"#utility.yul\":21931:21932   */\n      0x00\n        /* \"#utility.yul\":21920:21929   */\n      dup4\n        /* \"#utility.yul\":21916:21933   */\n      add\n        /* \"#utility.yul\":21909:21956   */\n      mstore\n        /* \"#utility.yul\":21973:22104   */\n      tag_527\n        /* \"#utility.yul\":22099:22103   */\n      dup2\n        /* \"#utility.yul\":21973:22104   */\n      tag_324\n      jump\t// in\n    tag_527:\n        /* \"#utility.yul\":21965:22104   */\n      swap1\n      pop\n        /* \"#utility.yul\":21692:22111   */\n      swap2\n      swap1\n      pop\n      jump\t// out\n        /* \"#utility.yul\":22117:22338   */\n    tag_325:\n        /* \"#utility.yul\":22257:22291   */\n      0x45524332303a206275726e20616d6f756e7420657863656564732062616c616e\n        /* \"#utility.yul\":22253:22254   */\n      0x00\n        /* \"#utility.yul\":22245:22251   */\n      dup3\n        /* \"#utility.yul\":22241:22255   */\n      add\n        /* \"#utility.yul\":22234:22292   */\n      mstore\n        /* \"#utility.yul\":22326:22330   */\n      0x6365000000000000000000000000000000000000000000000000000000000000\n        /* \"#utility.yul\":22321:22323   */\n      0x20\n        /* \"#utility.yul\":22313:22319   */\n      dup3\n        /* \"#utility.yul\":22309:22324   */\n      add\n        /* \"#utility.yul\":22302:22331   */\n      mstore\n        /* \"#utility.yul\":22117:22338   */\n      pop\n      jump\t// out\n        /* \"#utility.yul\":22344:22710   */\n    tag_326:\n        /* \"#utility.yul\":22486:22489   */\n      0x00\n        /* \"#utility.yul\":22507:22574   */\n      tag_530\n        /* \"#utility.yul\":22571:22573   */\n      0x22\n        /* \"#utility.yul\":22566:22569   */\n      dup4\n        /* \"#utility.yul\":22507:22574   */\n      tag_277\n      jump\t// in\n    tag_530:\n        /* \"#utility.yul\":22500:22574   */\n      swap2\n      pop\n        /* \"#utility.yul\":22583:22676   */\n      tag_531\n        /* \"#utility.yul\":22672:22675   */\n      dup3\n        /* \"#utility.yul\":22583:22676   */\n      tag_325\n      jump\t// in\n    tag_531:\n        /* \"#utility.yul\":22701:22703   */\n      0x40\n        /* \"#utility.yul\":22696:22699   */\n      dup3\n        /* \"#utility.yul\":22692:22704   */\n      add\n        /* \"#utility.yul\":22685:22704   */\n      swap1\n      pop\n        /* \"#utility.yul\":22344:22710   */\n      swap2\n      swap1\n      pop\n      jump\t// out\n        /* \"#utility.yul\":22716:23135   */\n    tag_256:\n        /* \"#utility.yul\":22882:22886   */\n      0x00\n        /* \"#utility.yul\":22920:22922   */\n      0x20\n        /* \"#utility.yul\":22909:22918   */\n      dup3\n        /* \"#utility.yul\":22905:22923   */\n      add\n        /* \"#utility.yul\":22897:22923   */\n      swap1\n      pop\n        /* \"#utility.yul\":22969:22978   */\n      dup2\n        /* \"#utility.yul\":22963:22967   */\n      dup2\n        /* \"#utility.yul\":22959:22979   */\n      sub\n        /* \"#utility.yul\":22955:22956   */\n      0x00\n        /* \"#utility.yul\":22944:22953   */\n      dup4\n        /* \"#utility.yul\":22940:22957   */\n      add\n        /* \"#utility.yul\":22933:22980   */\n      mstore\n        /* \"#utility.yul\":22997:23128   */\n      tag_533\n        /* \"#utility.yul\":23123:23127   */\n      dup2\n        /* \"#utility.yul\":22997:23128   */\n      tag_326\n      jump\t// in\n    tag_533:\n        /* \"#utility.yul\":22989:23128   */\n      swap1\n      pop\n        /* \"#utility.yul\":22716:23135   */\n      swap2\n      swap1\n      pop\n      jump\t// out\n        /* \"#utility.yul\":23141:23323   */\n    tag_327:\n        /* \"#utility.yul\":23281:23315   */\n      0x4f776e61626c653a2063616c6c6572206973206e6f7420746865206f776e6572\n        /* \"#utility.yul\":23277:23278   */\n      0x00\n        /* \"#utility.yul\":23269:23275   */\n      dup3\n        /* \"#utility.yul\":23265:23279   */\n      add\n        /* \"#utility.yul\":23258:23316   */\n      mstore\n        /* \"#utility.yul\":23141:23323   */\n      pop\n      jump\t// out\n        /* \"#utility.yul\":23329:23695   */\n    tag_328:\n        /* \"#utility.yul\":23471:23474   */\n      0x00\n        /* \"#utility.yul\":23492:23559   */\n      tag_536\n        /* \"#utility.yul\":23556:23558   */\n      0x20\n        /* \"#utility.yul\":23551:23554   */\n      dup4\n        /* \"#utility.yul\":23492:23559   */\n      tag_277\n      jump\t// in\n    tag_536:\n        /* \"#utility.yul\":23485:23559   */\n      swap2\n      pop\n        /* \"#utility.yul\":23568:23661   */\n      tag_537\n        /* \"#utility.yul\":23657:23660   */\n      dup3\n        /* \"#utility.yul\":23568:23661   */\n      tag_327\n      jump\t// in\n    tag_537:\n        /* \"#utility.yul\":23686:23688   */\n      0x20\n        /* \"#utility.yul\":23681:23684   */\n      dup3\n        /* \"#utility.yul\":23677:23689   */\n      add\n        /* \"#utility.yul\":23670:23689   */\n      swap1\n      pop\n        /* \"#utility.yul\":23329:23695   */\n      swap2\n      swap1\n      pop\n      jump\t// out\n        /* \"#utility.yul\":23701:24120   */\n    tag_264:\n        /* \"#utility.yul\":23867:23871   */\n      0x00\n        /* \"#utility.yul\":23905:23907   */\n      0x20\n        /* \"#utility.yul\":23894:23903   */\n      dup3\n        /* \"#utility.yul\":23890:23908   */\n      add\n        /* \"#utility.yul\":23882:23908   */\n      swap1\n      pop\n        /* \"#utility.yul\":23954:23963   */\n      dup2\n        /* \"#utility.yul\":23948:23952   */\n      dup2\n        /* \"#utility.yul\":23944:23964   */\n      sub\n        /* \"#utility.yul\":23940:23941   */\n      0x00\n        /* \"#utility.yul\":23929:23938   */\n      dup4\n        /* \"#utility.yul\":23925:23942   */\n      add\n        /* \"#utility.yul\":23918:23965   */\n      mstore\n        /* \"#utility.yul\":23982:24113   */\n      tag_539\n        /* \"#utility.yul\":24108:24112   */\n      dup2\n        /* \"#utility.yul\":23982:24113   */\n      tag_328\n      jump\t// in\n    tag_539:\n        /* \"#utility.yul\":23974:24113   */\n      swap1\n      pop\n        /* \"#utility.yul\":23701:24120   */\n      swap2\n      swap1\n      pop\n      jump\t// out\n        /* \"#utility.yul\":24126:24307   */\n    tag_329:\n        /* \"#utility.yul\":24266:24299   */\n      0x45524332303a206d696e7420746f20746865207a65726f206164647265737300\n        /* \"#utility.yul\":24262:24263   */\n      0x00\n        /* \"#utility.yul\":24254:24260   */\n      dup3\n        /* \"#utility.yul\":24250:24264   */\n      add\n        /* \"#utility.yul\":24243:24300   */\n      mstore\n        /* \"#utility.yul\":24126:24307   */\n      pop\n      jump\t// out\n        /* \"#utility.yul\":24313:24679   */\n    tag_330:\n        /* \"#utility.yul\":24455:24458   */\n      0x00\n        /* \"#utility.yul\":24476:24543   */\n      tag_542\n        /* \"#utility.yul\":24540:24542   */\n      0x1f\n        /* \"#utility.yul\":24535:24538   */\n      dup4\n        /* \"#utility.yul\":24476:24543   */\n      tag_277\n      jump\t// in\n    tag_542:\n        /* \"#utility.yul\":24469:24543   */\n      swap2\n      pop\n        /* \"#utility.yul\":24552:24645   */\n      tag_543\n        /* \"#utility.yul\":24641:24644   */\n      dup3\n        /* \"#utility.yul\":24552:24645   */\n      tag_329\n      jump\t// in\n    tag_543:\n        /* \"#utility.yul\":24670:24672   */\n      0x20\n        /* \"#utility.yul\":24665:24668   */\n      dup3\n        /* \"#utility.yul\":24661:24673   */\n      add\n        /* \"#utility.yul\":24654:24673   */\n      swap1\n      pop\n        /* \"#utility.yul\":24313:24679   */\n      swap2\n      swap1\n      pop\n      jump\t// out\n        /* \"#utility.yul\":24685:25104   */\n    tag_269:\n        /* \"#utility.yul\":24851:24855   */\n      0x00\n        /* \"#utility.yul\":24889:24891   */\n      0x20\n        /* \"#utility.yul\":24878:24887   */\n      dup3\n        /* \"#utility.yul\":24874:24892   */\n      add\n        /* \"#utility.yul\":24866:24892   */\n      swap1\n      pop\n        /* \"#utility.yul\":24938:24947   */\n      dup2\n        /* \"#utility.yul\":24932:24936   */\n      dup2\n        /* \"#utility.yul\":24928:24948   */\n      sub\n        /* \"#utility.yul\":24924:24925   */\n      0x00\n        /* \"#utility.yul\":24913:24922   */\n      dup4\n        /* \"#utility.yul\":24909:24926   */\n      add\n        /* \"#utility.yul\":24902:24949   */\n      mstore\n        /* \"#utility.yul\":24966:25097   */\n      tag_545\n        /* \"#utility.yul\":25092:25096   */\n      dup2\n        /* \"#utility.yul\":24966:25097   */\n      tag_330\n      jump\t// in\n    tag_545:\n        /* \"#utility.yul\":24958:25097   */\n      swap1\n      pop\n        /* \"#utility.yul\":24685:25104   */\n      swap2\n      swap1\n      pop\n      jump\t// out\n\n    auxdata: 0xa26469706673582212202a25a3e31a8e5c2a4e095a7850e9d4101940d46e02481e825362115ae06db55164736f6c63430008120033\n}\n",
				"bytecode": {
					"linkReferences": {},
					"object": "60806040523480156200001157600080fd5b506040518060400160405280600881526020017f484b50746f6b656e0000000000000000000000000000000000000000000000008152506040518060400160405280600381526020017f484b50000000000000000000000000000000000000000000000000000000000081525081600390816200008f919062000430565b508060049081620000a1919062000430565b505050620000c4620000b8620000e860201b60201c565b620000f060201b60201c565b66071afd498d0000600681905550680821ab0d441498000060078190555062000517565b600033905090565b6000600560009054906101000a900473ffffffffffffffffffffffffffffffffffffffff16905081600560006101000a81548173ffffffffffffffffffffffffffffffffffffffff021916908373ffffffffffffffffffffffffffffffffffffffff1602179055508173ffffffffffffffffffffffffffffffffffffffff168173ffffffffffffffffffffffffffffffffffffffff167f8be0079c531659141344cd1fd0a4f28419497f9722a3daafe3b4186f6b6457e060405160405180910390a35050565b600081519050919050565b7f4e487b7100000000000000000000000000000000000000000000000000000000600052604160045260246000fd5b7f4e487b7100000000000000000000000000000000000000000000000000000000600052602260045260246000fd5b600060028204905060018216806200023857607f821691505b6020821081036200024e576200024d620001f0565b5b50919050565b60008190508160005260206000209050919050565b60006020601f8301049050919050565b600082821b905092915050565b600060088302620002b87fffffffffffffffffffffffffffffffffffffffffffffffffffffffffffffffff8262000279565b620002c4868362000279565b95508019841693508086168417925050509392505050565b6000819050919050565b6000819050919050565b6000620003116200030b6200030584620002dc565b620002e6565b620002dc565b9050919050565b6000819050919050565b6200032d83620002f0565b620003456200033c8262000318565b84845462000286565b825550505050565b600090565b6200035c6200034d565b6200036981848462000322565b505050565b5b8181101562000391576200038560008262000352565b6001810190506200036f565b5050565b601f821115620003e057620003aa8162000254565b620003b58462000269565b81016020851015620003c5578190505b620003dd620003d48562000269565b8301826200036e565b50505b505050565b600082821c905092915050565b60006200040560001984600802620003e5565b1980831691505092915050565b6000620004208383620003f2565b9150826002028217905092915050565b6200043b82620001b6565b67ffffffffffffffff811115620004575762000456620001c1565b5b6200046382546200021f565b6200047082828562000395565b600060209050601f831160018114620004a8576000841562000493578287015190505b6200049f858262000412565b8655506200050f565b601f198416620004b88662000254565b60005b82811015620004e257848901518255600182019150602085019450602081019050620004bb565b86831015620005025784890151620004fe601f891682620003f2565b8355505b6001600288020188555050505b505050505050565b6121b880620005276000396000f3fe60806040526004361061012a5760003560e01c80637362377b116100ab578063a0712d681161006f578063a0712d68146103d3578063a457c2d7146103ef578063a9059cbb1461042c578063d5abeb0114610469578063dd62ed3e14610494578063f2fde38b146104d15761012a565b80637362377b1461031257806379cc6790146103295780637ff9b596146103525780638da5cb5b1461037d57806395d89b41146103a85761012a565b806339509351116100f2578063395093511461022a57806342966c681461026757806358b455571461029057806370a08231146102be578063715018a6146102fb5761012a565b806306fdde031461012f578063095ea7b31461015a57806318160ddd1461019757806323b872dd146101c2578063313ce567146101ff575b600080fd5b34801561013b57600080fd5b506101446104fa565b604051610151919061144d565b60405180910390f35b34801561016657600080fd5b50610181600480360381019061017c9190611508565b61058c565b60405161018e9190611563565b60405180910390f35b3480156101a357600080fd5b506101ac6105af565b6040516101b9919061158d565b60405180910390f35b3480156101ce57600080fd5b506101e960048036038101906101e491906115a8565b6105b9565b6040516101f69190611563565b60405180910390f35b34801561020b57600080fd5b506102146105e8565b6040516102219190611617565b60405180910390f35b34801561023657600080fd5b50610251600480360381019061024c9190611508565b6105f1565b60405161025e9190611563565b60405180910390f35b34801561027357600080fd5b5061028e60048036038101906102899190611632565b610628565b005b34801561029c57600080fd5b506102a561063c565b6040516102b5949392919061165f565b60405180910390f35b3480156102ca57600080fd5b506102e560048036038101906102e091906116a4565b610667565b6040516102f2919061158d565b60405180910390f35b34801561030757600080fd5b506103106106af565b005b34801561031e57600080fd5b506103276106c3565b005b34801561033557600080fd5b50610350600480360381019061034b9190611508565b61071b565b005b34801561035e57600080fd5b5061036761073b565b604051610374919061158d565b60405180910390f35b34801561038957600080fd5b50610392610741565b60405161039f91906116e0565b60405180910390f35b3480156103b457600080fd5b506103bd61076b565b6040516103ca919061144d565b60405180910390f35b6103ed60048036038101906103e89190611632565b6107fd565b005b3480156103fb57600080fd5b5061041660048036038101906104119190611508565b6108cf565b6040516104239190611563565b60405180910390f35b34801561043857600080fd5b50610453600480360381019061044e9190611508565b610946565b6040516104609190611563565b60405180910390f35b34801561047557600080fd5b5061047e610969565b60405161048b919061158d565b60405180910390f35b3480156104a057600080fd5b506104bb60048036038101906104b691906116fb565b61096f565b6040516104c8919061158d565b60405180910390f35b3480156104dd57600080fd5b506104f860048036038101906104f391906116a4565b6109f6565b005b6060600380546105099061176a565b80601f01602080910402602001604051908101604052809291908181526020018280546105359061176a565b80156105825780601f1061055757610100808354040283529160200191610582565b820191906000526020600020905b81548152906001019060200180831161056557829003601f168201915b5050505050905090565b600080610597610a79565b90506105a4818585610a81565b600191505092915050565b6000600254905090565b6000806105c4610a79565b90506105d1858285610c4a565b6105dc858585610cd6565b60019150509392505050565b60006012905090565b6000806105fc610a79565b905061061d81858561060e858961096f565b61061891906117ca565b610a81565b600191505092915050565b610639610633610a79565b82610f4c565b50565b60008060008061064b33610667565b6007546106566105af565b600654935093509350935090919293565b60008060008373ffffffffffffffffffffffffffffffffffffffff1673ffffffffffffffffffffffffffffffffffffffff168152602001908152602001600020549050919050565b6106b7611119565b6106c16000611197565b565b6106cb611119565b6106d3610741565b73ffffffffffffffffffffffffffffffffffffffff166108fc479081150290604051600060405180830381858888f19350505050158015610718573d6000803e3d6000fd5b50565b61072d82610727610a79565b83610c4a565b6107378282610f4c565b5050565b60065481565b6000600560009054906101000a900473ffffffffffffffffffffffffffffffffffffffff16905090565b60606004805461077a9061176a565b80601f01602080910402602001604051908101604052809291908181526020018280546107a69061176a565b80156107f35780601f106107c8576101008083540402835291602001916107f3565b820191906000526020600020905b8154815290600101906020018083116107d657829003601f168201915b5050505050905090565b600754816108096105af565b61081391906117ca565b1115610854576040517f08c379a000000000000000000000000000000000000000000000000000000000815260040161084b9061184a565b60405180910390fd5b600654816108606105e8565b600a61086c919061199d565b3461087791906119e8565b6108819190611a59565b10156108c2576040517f08c379a00000000000000000000000000000000000000000000000000000000081526004016108b990611afc565b60405180910390fd5b6108cc338261125d565b50565b6000806108da610a79565b905060006108e8828661096f565b90508381101561092d576040517f08c379a000000000000000000000000000000000000000000000000000000000815260040161092490611b8e565b60405180910390fd5b61093a8286868403610a81565b60019250505092915050565b600080610951610a79565b905061095e818585610cd6565b600191505092915050565b60075481565b6000600160008473ffffffffffffffffffffffffffffffffffffffff1673ffffffffffffffffffffffffffffffffffffffff16815260200190815260200160002060008373ffffffffffffffffffffffffffffffffffffffff1673ffffffffffffffffffffffffffffffffffffffff16815260200190815260200160002054905092915050565b6109fe611119565b600073ffffffffffffffffffffffffffffffffffffffff168173ffffffffffffffffffffffffffffffffffffffff1603610a6d576040517f08c379a0000000000000000000000000000000000000000000000000000000008152600401610a6490611c20565b60405180910390fd5b610a7681611197565b50565b600033905090565b600073ffffffffffffffffffffffffffffffffffffffff168373ffffffffffffffffffffffffffffffffffffffff1603610af0576040517f08c379a0000000000000000000000000000000000000000000000000000000008152600401610ae790611cb2565b60405180910390fd5b600073ffffffffffffffffffffffffffffffffffffffff168273ffffffffffffffffffffffffffffffffffffffff1603610b5f576040517f08c379a0000000000000000000000000000000000000000000000000000000008152600401610b5690611d44565b60405180910390fd5b80600160008573ffffffffffffffffffffffffffffffffffffffff1673ffffffffffffffffffffffffffffffffffffffff16815260200190815260200160002060008473ffffffffffffffffffffffffffffffffffffffff1673ffffffffffffffffffffffffffffffffffffffff168152602001908152602001600020819055508173ffffffffffffffffffffffffffffffffffffffff168373ffffffffffffffffffffffffffffffffffffffff167f8c5be1e5ebec7d5bd14f71427d1e84f3dd0314c0f7b2291e5b200ac8c7c3b92583604051610c3d919061158d565b60405180910390a3505050565b6000610c56848461096f565b90507fffffffffffffffffffffffffffffffffffffffffffffffffffffffffffffffff8114610cd05781811015610cc2576040517f08c379a0000000000000000000000000000000000000000000000000000000008152600401610cb990611db0565b60405180910390fd5b610ccf8484848403610a81565b5b50505050565b600073ffffffffffffffffffffffffffffffffffffffff168373ffffffffffffffffffffffffffffffffffffffff1603610d45576040517f08c379a0000000000000000000000000000000000000000000000000000000008152600401610d3c90611e42565b60405180910390fd5b600073ffffffffffffffffffffffffffffffffffffffff168273ffffffffffffffffffffffffffffffffffffffff1603610db4576040517f08c379a0000000000000000000000000000000000000000000000000000000008152600401610dab90611ed4565b60405180910390fd5b610dbf8383836113b3565b60008060008573ffffffffffffffffffffffffffffffffffffffff1673ffffffffffffffffffffffffffffffffffffffff16815260200190815260200160002054905081811015610e45576040517f08c379a0000000000000000000000000000000000000000000000000000000008152600401610e3c90611f66565b60405180910390fd5b8181036000808673ffffffffffffffffffffffffffffffffffffffff1673ffffffffffffffffffffffffffffffffffffffff16815260200190815260200160002081905550816000808573ffffffffffffffffffffffffffffffffffffffff1673ffffffffffffffffffffffffffffffffffffffff168152602001908152602001600020600082825401925050819055508273ffffffffffffffffffffffffffffffffffffffff168473ffffffffffffffffffffffffffffffffffffffff167fddf252ad1be2c89b69c2b068fc378daa952ba7f163c4a11628f55a4df523b3ef84604051610f33919061158d565b60405180910390a3610f468484846113b8565b50505050565b600073ffffffffffffffffffffffffffffffffffffffff168273ffffffffffffffffffffffffffffffffffffffff1603610fbb576040517f08c379a0000000000000000000000000000000000000000000000000000000008152600401610fb290611ff8565b60405180910390fd5b610fc7826000836113b3565b60008060008473ffffffffffffffffffffffffffffffffffffffff1673ffffffffffffffffffffffffffffffffffffffff1681526020019081526020016000205490508181101561104d576040517f08c379a00000000000000000000000000000000000000000000000000000000081526004016110449061208a565b60405180910390fd5b8181036000808573ffffffffffffffffffffffffffffffffffffffff1673ffffffffffffffffffffffffffffffffffffffff1681526020019081526020016000208190555081600260008282540392505081905550600073ffffffffffffffffffffffffffffffffffffffff168373ffffffffffffffffffffffffffffffffffffffff167fddf252ad1be2c89b69c2b068fc378daa952ba7f163c4a11628f55a4df523b3ef84604051611100919061158d565b60405180910390a3611114836000846113b8565b505050565b611121610a79565b73ffffffffffffffffffffffffffffffffffffffff1661113f610741565b73ffffffffffffffffffffffffffffffffffffffff1614611195576040517f08c379a000000000000000000000000000000000000000000000000000000000815260040161118c906120f6565b60405180910390fd5b565b6000600560009054906101000a900473ffffffffffffffffffffffffffffffffffffffff16905081600560006101000a81548173ffffffffffffffffffffffffffffffffffffffff021916908373ffffffffffffffffffffffffffffffffffffffff1602179055508173ffffffffffffffffffffffffffffffffffffffff168173ffffffffffffffffffffffffffffffffffffffff167f8be0079c531659141344cd1fd0a4f28419497f9722a3daafe3b4186f6b6457e060405160405180910390a35050565b600073ffffffffffffffffffffffffffffffffffffffff168273ffffffffffffffffffffffffffffffffffffffff16036112cc576040517f08c379a00000000000000000000000000000000000000000000000000000000081526004016112c390612162565b60405180910390fd5b6112d8600083836113b3565b80600260008282546112ea91906117ca565b92505081905550806000808473ffffffffffffffffffffffffffffffffffffffff1673ffffffffffffffffffffffffffffffffffffffff168152602001908152602001600020600082825401925050819055508173ffffffffffffffffffffffffffffffffffffffff16600073ffffffffffffffffffffffffffffffffffffffff167fddf252ad1be2c89b69c2b068fc378daa952ba7f163c4a11628f55a4df523b3ef8360405161139b919061158d565b60405180910390a36113af600083836113b8565b5050565b505050565b505050565b600081519050919050565b600082825260208201905092915050565b60005b838110156113f75780820151818401526020810190506113dc565b60008484015250505050565b6000601f19601f8301169050919050565b600061141f826113bd565b61142981856113c8565b93506114398185602086016113d9565b61144281611403565b840191505092915050565b600060208201905081810360008301526114678184611414565b905092915050565b600080fd5b600073ffffffffffffffffffffffffffffffffffffffff82169050919050565b600061149f82611474565b9050919050565b6114af81611494565b81146114ba57600080fd5b50565b6000813590506114cc816114a6565b92915050565b6000819050919050565b6114e5816114d2565b81146114f057600080fd5b50565b600081359050611502816114dc565b92915050565b6000806040838503121561151f5761151e61146f565b5b600061152d858286016114bd565b925050602061153e858286016114f3565b9150509250929050565b60008115159050919050565b61155d81611548565b82525050565b60006020820190506115786000830184611554565b92915050565b611587816114d2565b82525050565b60006020820190506115a2600083018461157e565b92915050565b6000806000606084860312156115c1576115c061146f565b5b60006115cf868287016114bd565b93505060206115e0868287016114bd565b92505060406115f1868287016114f3565b9150509250925092565b600060ff82169050919050565b611611816115fb565b82525050565b600060208201905061162c6000830184611608565b92915050565b6000602082840312156116485761164761146f565b5b6000611656848285016114f3565b91505092915050565b6000608082019050611674600083018761157e565b611681602083018661157e565b61168e604083018561157e565b61169b606083018461157e565b95945050505050565b6000602082840312156116ba576116b961146f565b5b60006116c8848285016114bd565b91505092915050565b6116da81611494565b82525050565b60006020820190506116f560008301846116d1565b92915050565b600080604083850312156117125761171161146f565b5b6000611720858286016114bd565b9250506020611731858286016114bd565b9150509250929050565b7f4e487b7100000000000000000000000000000000000000000000000000000000600052602260045260246000fd5b6000600282049050600182168061178257607f821691505b6020821081036117955761179461173b565b5b50919050565b7f4e487b7100000000000000000000000000000000000000000000000000000000600052601160045260246000fd5b60006117d5826114d2565b91506117e0836114d2565b92508282019050808211156117f8576117f761179b565b5b92915050565b7f457863656564696e67206d617820737570706c79000000000000000000000000600082015250565b60006118346014836113c8565b915061183f826117fe565b602082019050919050565b6000602082019050818103600083015261186381611827565b9050919050565b60008160011c9050919050565b6000808291508390505b60018511156118c15780860481111561189d5761189c61179b565b5b60018516156118ac5780820291505b80810290506118ba8561186a565b9450611881565b94509492505050565b6000826118da5760019050611996565b816118e85760009050611996565b81600181146118fe576002811461190857611937565b6001915050611996565b60ff84111561191a5761191961179b565b5b8360020a9150848211156119315761193061179b565b5b50611996565b5060208310610133831016604e8410600b841016171561196c5782820a9050838111156119675761196661179b565b5b611996565b6119798484846001611877565b925090508184048111156119905761198f61179b565b5b81810290505b9392505050565b60006119a8826114d2565b91506119b3836115fb565b92506119e07fffffffffffffffffffffffffffffffffffffffffffffffffffffffffffffffff84846118ca565b905092915050565b60006119f3826114d2565b91506119fe836114d2565b9250828202611a0c816114d2565b91508282048414831517611a2357611a2261179b565b5b5092915050565b7f4e487b7100000000000000000000000000000000000000000000000000000000600052601260045260246000fd5b6000611a64826114d2565b9150611a6f836114d2565b925082611a7f57611a7e611a2a565b5b828204905092915050565b7f506179204574686572206163636f7264696e6720746f20546f6b656e2050726960008201527f6365000000000000000000000000000000000000000000000000000000000000602082015250565b6000611ae66022836113c8565b9150611af182611a8a565b604082019050919050565b60006020820190508181036000830152611b1581611ad9565b9050919050565b7f45524332303a2064656372656173656420616c6c6f77616e63652062656c6f7760008201527f207a65726f000000000000000000000000000000000000000000000000000000602082015250565b6000611b786025836113c8565b9150611b8382611b1c565b604082019050919050565b60006020820190508181036000830152611ba781611b6b565b9050919050565b7f4f776e61626c653a206e6577206f776e657220697320746865207a65726f206160008201527f6464726573730000000000000000000000000000000000000000000000000000602082015250565b6000611c0a6026836113c8565b9150611c1582611bae565b604082019050919050565b60006020820190508181036000830152611c3981611bfd565b9050919050565b7f45524332303a20617070726f76652066726f6d20746865207a65726f2061646460008201527f7265737300000000000000000000000000000000000000000000000000000000602082015250565b6000611c9c6024836113c8565b9150611ca782611c40565b604082019050919050565b60006020820190508181036000830152611ccb81611c8f565b9050919050565b7f45524332303a20617070726f766520746f20746865207a65726f20616464726560008201527f7373000000000000000000000000000000000000000000000000000000000000602082015250565b6000611d2e6022836113c8565b9150611d3982611cd2565b604082019050919050565b60006020820190508181036000830152611d5d81611d21565b9050919050565b7f45524332303a20696e73756666696369656e7420616c6c6f77616e6365000000600082015250565b6000611d9a601d836113c8565b9150611da582611d64565b602082019050919050565b60006020820190508181036000830152611dc981611d8d565b9050919050565b7f45524332303a207472616e736665722066726f6d20746865207a65726f20616460008201527f6472657373000000000000000000000000000000000000000000000000000000602082015250565b6000611e2c6025836113c8565b9150611e3782611dd0565b604082019050919050565b60006020820190508181036000830152611e5b81611e1f565b9050919050565b7f45524332303a207472616e7366657220746f20746865207a65726f206164647260008201527f6573730000000000000000000000000000000000000000000000000000000000602082015250565b6000611ebe6023836113c8565b9150611ec982611e62565b604082019050919050565b60006020820190508181036000830152611eed81611eb1565b9050919050565b7f45524332303a207472616e7366657220616d6f756e742065786365656473206260008201527f616c616e63650000000000000000000000000000000000000000000000000000602082015250565b6000611f506026836113c8565b9150611f5b82611ef4565b604082019050919050565b60006020820190508181036000830152611f7f81611f43565b9050919050565b7f45524332303a206275726e2066726f6d20746865207a65726f2061646472657360008201527f7300000000000000000000000000000000000000000000000000000000000000602082015250565b6000611fe26021836113c8565b9150611fed82611f86565b604082019050919050565b6000602082019050818103600083015261201181611fd5565b9050919050565b7f45524332303a206275726e20616d6f756e7420657863656564732062616c616e60008201527f6365000000000000000000000000000000000000000000000000000000000000602082015250565b60006120746022836113c8565b915061207f82612018565b604082019050919050565b600060208201905081810360008301526120a381612067565b9050919050565b7f4f776e61626c653a2063616c6c6572206973206e6f7420746865206f776e6572600082015250565b60006120e06020836113c8565b91506120eb826120aa565b602082019050919050565b6000602082019050818103600083015261210f816120d3565b9050919050565b7f45524332303a206d696e7420746f20746865207a65726f206164647265737300600082015250565b600061214c601f836113c8565b915061215782612116565b602082019050919050565b6000602082019050818103600083015261217b8161213f565b905091905056fea26469706673582212202a25a3e31a8e5c2a4e095a7850e9d4101940d46e02481e825362115ae06db55164736f6c63430008120033",
					"opcodes": "PUSH1 0x80 PUSH1 0x40 MSTORE CALLVALUE DUP1 ISZERO PUSH3 0x11 JUMPI PUSH1 0x0 DUP1 REVERT JUMPDEST POP PUSH1 0x40 MLOAD DUP1 PUSH1 0x40 ADD PUSH1 0x40 MSTORE DUP1 PUSH1 0x8 DUP2 MSTORE PUSH1 0x20 ADD PUSH32 0x484B50746F6B656E000000000000000000000000000000000000000000000000 DUP2 MSTORE POP PUSH1 0x40 MLOAD DUP1 PUSH1 0x40 ADD PUSH1 0x40 MSTORE DUP1 PUSH1 0x3 DUP2 MSTORE PUSH1 0x20 ADD PUSH32 0x484B500000000000000000000000000000000000000000000000000000000000 DUP2 MSTORE POP DUP2 PUSH1 0x3 SWAP1 DUP2 PUSH3 0x8F SWAP2 SWAP1 PUSH3 0x430 JUMP JUMPDEST POP DUP1 PUSH1 0x4 SWAP1 DUP2 PUSH3 0xA1 SWAP2 SWAP1 PUSH3 0x430 JUMP JUMPDEST POP POP POP PUSH3 0xC4 PUSH3 0xB8 PUSH3 0xE8 PUSH1 0x20 SHL PUSH1 0x20 SHR JUMP JUMPDEST PUSH3 0xF0 PUSH1 0x20 SHL PUSH1 0x20 SHR JUMP JUMPDEST PUSH7 0x71AFD498D0000 PUSH1 0x6 DUP2 SWAP1 SSTORE POP PUSH9 0x821AB0D4414980000 PUSH1 0x7 DUP2 SWAP1 SSTORE POP PUSH3 0x517 JUMP JUMPDEST PUSH1 0x0 CALLER SWAP1 POP SWAP1 JUMP JUMPDEST PUSH1 0x0 PUSH1 0x5 PUSH1 0x0 SWAP1 SLOAD SWAP1 PUSH2 0x100 EXP SWAP1 DIV PUSH20 0xFFFFFFFFFFFFFFFFFFFFFFFFFFFFFFFFFFFFFFFF AND SWAP1 POP DUP2 PUSH1 0x5 PUSH1 0x0 PUSH2 0x100 EXP DUP2 SLOAD DUP2 PUSH20 0xFFFFFFFFFFFFFFFFFFFFFFFFFFFFFFFFFFFFFFFF MUL NOT AND SWAP1 DUP4 PUSH20 0xFFFFFFFFFFFFFFFFFFFFFFFFFFFFFFFFFFFFFFFF AND MUL OR SWAP1 SSTORE POP DUP2 PUSH20 0xFFFFFFFFFFFFFFFFFFFFFFFFFFFFFFFFFFFFFFFF AND DUP2 PUSH20 0xFFFFFFFFFFFFFFFFFFFFFFFFFFFFFFFFFFFFFFFF AND PUSH32 0x8BE0079C531659141344CD1FD0A4F28419497F9722A3DAAFE3B4186F6B6457E0 PUSH1 0x40 MLOAD PUSH1 0x40 MLOAD DUP1 SWAP2 SUB SWAP1 LOG3 POP POP JUMP JUMPDEST PUSH1 0x0 DUP2 MLOAD SWAP1 POP SWAP2 SWAP1 POP JUMP JUMPDEST PUSH32 0x4E487B7100000000000000000000000000000000000000000000000000000000 PUSH1 0x0 MSTORE PUSH1 0x41 PUSH1 0x4 MSTORE PUSH1 0x24 PUSH1 0x0 REVERT JUMPDEST PUSH32 0x4E487B7100000000000000000000000000000000000000000000000000000000 PUSH1 0x0 MSTORE PUSH1 0x22 PUSH1 0x4 MSTORE PUSH1 0x24 PUSH1 0x0 REVERT JUMPDEST PUSH1 0x0 PUSH1 0x2 DUP3 DIV SWAP1 POP PUSH1 0x1 DUP3 AND DUP1 PUSH3 0x238 JUMPI PUSH1 0x7F DUP3 AND SWAP2 POP JUMPDEST PUSH1 0x20 DUP3 LT DUP2 SUB PUSH3 0x24E JUMPI PUSH3 0x24D PUSH3 0x1F0 JUMP JUMPDEST JUMPDEST POP SWAP2 SWAP1 POP JUMP JUMPDEST PUSH1 0x0 DUP2 SWAP1 POP DUP2 PUSH1 0x0 MSTORE PUSH1 0x20 PUSH1 0x0 KECCAK256 SWAP1 POP SWAP2 SWAP1 POP JUMP JUMPDEST PUSH1 0x0 PUSH1 0x20 PUSH1 0x1F DUP4 ADD DIV SWAP1 POP SWAP2 SWAP1 POP JUMP JUMPDEST PUSH1 0x0 DUP3 DUP3 SHL SWAP1 POP SWAP3 SWAP2 POP POP JUMP JUMPDEST PUSH1 0x0 PUSH1 0x8 DUP4 MUL PUSH3 0x2B8 PUSH32 0xFFFFFFFFFFFFFFFFFFFFFFFFFFFFFFFFFFFFFFFFFFFFFFFFFFFFFFFFFFFFFFFF DUP3 PUSH3 0x279 JUMP JUMPDEST PUSH3 0x2C4 DUP7 DUP4 PUSH3 0x279 JUMP JUMPDEST SWAP6 POP DUP1 NOT DUP5 AND SWAP4 POP DUP1 DUP7 AND DUP5 OR SWAP3 POP POP POP SWAP4 SWAP3 POP POP POP JUMP JUMPDEST PUSH1 0x0 DUP2 SWAP1 POP SWAP2 SWAP1 POP JUMP JUMPDEST PUSH1 0x0 DUP2 SWAP1 POP SWAP2 SWAP1 POP JUMP JUMPDEST PUSH1 0x0 PUSH3 0x311 PUSH3 0x30B PUSH3 0x305 DUP5 PUSH3 0x2DC JUMP JUMPDEST PUSH3 0x2E6 JUMP JUMPDEST PUSH3 0x2DC JUMP JUMPDEST SWAP1 POP SWAP2 SWAP1 POP JUMP JUMPDEST PUSH1 0x0 DUP2 SWAP1 POP SWAP2 SWAP1 POP JUMP JUMPDEST PUSH3 0x32D DUP4 PUSH3 0x2F0 JUMP JUMPDEST PUSH3 0x345 PUSH3 0x33C DUP3 PUSH3 0x318 JUMP JUMPDEST DUP5 DUP5 SLOAD PUSH3 0x286 JUMP JUMPDEST DUP3 SSTORE POP POP POP POP JUMP JUMPDEST PUSH1 0x0 SWAP1 JUMP JUMPDEST PUSH3 0x35C PUSH3 0x34D JUMP JUMPDEST PUSH3 0x369 DUP2 DUP5 DUP5 PUSH3 0x322 JUMP JUMPDEST POP POP POP JUMP JUMPDEST JUMPDEST DUP2 DUP2 LT ISZERO PUSH3 0x391 JUMPI PUSH3 0x385 PUSH1 0x0 DUP3 PUSH3 0x352 JUMP JUMPDEST PUSH1 0x1 DUP2 ADD SWAP1 POP PUSH3 0x36F JUMP JUMPDEST POP POP JUMP JUMPDEST PUSH1 0x1F DUP3 GT ISZERO PUSH3 0x3E0 JUMPI PUSH3 0x3AA DUP2 PUSH3 0x254 JUMP JUMPDEST PUSH3 0x3B5 DUP5 PUSH3 0x269 JUMP JUMPDEST DUP2 ADD PUSH1 0x20 DUP6 LT ISZERO PUSH3 0x3C5 JUMPI DUP2 SWAP1 POP JUMPDEST PUSH3 0x3DD PUSH3 0x3D4 DUP6 PUSH3 0x269 JUMP JUMPDEST DUP4 ADD DUP3 PUSH3 0x36E JUMP JUMPDEST POP POP JUMPDEST POP POP POP JUMP JUMPDEST PUSH1 0x0 DUP3 DUP3 SHR SWAP1 POP SWAP3 SWAP2 POP POP JUMP JUMPDEST PUSH1 0x0 PUSH3 0x405 PUSH1 0x0 NOT DUP5 PUSH1 0x8 MUL PUSH3 0x3E5 JUMP JUMPDEST NOT DUP1 DUP4 AND SWAP2 POP POP SWAP3 SWAP2 POP POP JUMP JUMPDEST PUSH1 0x0 PUSH3 0x420 DUP4 DUP4 PUSH3 0x3F2 JUMP JUMPDEST SWAP2 POP DUP3 PUSH1 0x2 MUL DUP3 OR SWAP1 POP SWAP3 SWAP2 POP POP JUMP JUMPDEST PUSH3 0x43B DUP3 PUSH3 0x1B6 JUMP JUMPDEST PUSH8 0xFFFFFFFFFFFFFFFF DUP2 GT ISZERO PUSH3 0x457 JUMPI PUSH3 0x456 PUSH3 0x1C1 JUMP JUMPDEST JUMPDEST PUSH3 0x463 DUP3 SLOAD PUSH3 0x21F JUMP JUMPDEST PUSH3 0x470 DUP3 DUP3 DUP6 PUSH3 0x395 JUMP JUMPDEST PUSH1 0x0 PUSH1 0x20 SWAP1 POP PUSH1 0x1F DUP4 GT PUSH1 0x1 DUP2 EQ PUSH3 0x4A8 JUMPI PUSH1 0x0 DUP5 ISZERO PUSH3 0x493 JUMPI DUP3 DUP8 ADD MLOAD SWAP1 POP JUMPDEST PUSH3 0x49F DUP6 DUP3 PUSH3 0x412 JUMP JUMPDEST DUP7 SSTORE POP PUSH3 0x50F JUMP JUMPDEST PUSH1 0x1F NOT DUP5 AND PUSH3 0x4B8 DUP7 PUSH3 0x254 JUMP JUMPDEST PUSH1 0x0 JUMPDEST DUP3 DUP2 LT ISZERO PUSH3 0x4E2 JUMPI DUP5 DUP10 ADD MLOAD DUP3 SSTORE PUSH1 0x1 DUP3 ADD SWAP2 POP PUSH1 0x20 DUP6 ADD SWAP5 POP PUSH1 0x20 DUP2 ADD SWAP1 POP PUSH3 0x4BB JUMP JUMPDEST DUP7 DUP4 LT ISZERO PUSH3 0x502 JUMPI DUP5 DUP10 ADD MLOAD PUSH3 0x4FE PUSH1 0x1F DUP10 AND DUP3 PUSH3 0x3F2 JUMP JUMPDEST DUP4 SSTORE POP JUMPDEST PUSH1 0x1 PUSH1 0x2 DUP9 MUL ADD DUP9 SSTORE POP POP POP JUMPDEST POP POP POP POP POP POP JUMP JUMPDEST PUSH2 0x21B8 DUP1 PUSH3 0x527 PUSH1 0x0 CODECOPY PUSH1 0x0 RETURN INVALID PUSH1 0x80 PUSH1 0x40 MSTORE PUSH1 0x4 CALLDATASIZE LT PUSH2 0x12A JUMPI PUSH1 0x0 CALLDATALOAD PUSH1 0xE0 SHR DUP1 PUSH4 0x7362377B GT PUSH2 0xAB JUMPI DUP1 PUSH4 0xA0712D68 GT PUSH2 0x6F JUMPI DUP1 PUSH4 0xA0712D68 EQ PUSH2 0x3D3 JUMPI DUP1 PUSH4 0xA457C2D7 EQ PUSH2 0x3EF JUMPI DUP1 PUSH4 0xA9059CBB EQ PUSH2 0x42C JUMPI DUP1 PUSH4 0xD5ABEB01 EQ PUSH2 0x469 JUMPI DUP1 PUSH4 0xDD62ED3E EQ PUSH2 0x494 JUMPI DUP1 PUSH4 0xF2FDE38B EQ PUSH2 0x4D1 JUMPI PUSH2 0x12A JUMP JUMPDEST DUP1 PUSH4 0x7362377B EQ PUSH2 0x312 JUMPI DUP1 PUSH4 0x79CC6790 EQ PUSH2 0x329 JUMPI DUP1 PUSH4 0x7FF9B596 EQ PUSH2 0x352 JUMPI DUP1 PUSH4 0x8DA5CB5B EQ PUSH2 0x37D JUMPI DUP1 PUSH4 0x95D89B41 EQ PUSH2 0x3A8 JUMPI PUSH2 0x12A JUMP JUMPDEST DUP1 PUSH4 0x39509351 GT PUSH2 0xF2 JUMPI DUP1 PUSH4 0x39509351 EQ PUSH2 0x22A JUMPI DUP1 PUSH4 0x42966C68 EQ PUSH2 0x267 JUMPI DUP1 PUSH4 0x58B45557 EQ PUSH2 0x290 JUMPI DUP1 PUSH4 0x70A08231 EQ PUSH2 0x2BE JUMPI DUP1 PUSH4 0x715018A6 EQ PUSH2 0x2FB JUMPI PUSH2 0x12A JUMP JUMPDEST DUP1 PUSH4 0x6FDDE03 EQ PUSH2 0x12F JUMPI DUP1 PUSH4 0x95EA7B3 EQ PUSH2 0x15A JUMPI DUP1 PUSH4 0x18160DDD EQ PUSH2 0x197 JUMPI DUP1 PUSH4 0x23B872DD EQ PUSH2 0x1C2 JUMPI DUP1 PUSH4 0x313CE567 EQ PUSH2 0x1FF JUMPI JUMPDEST PUSH1 0x0 DUP1 REVERT JUMPDEST CALLVALUE DUP1 ISZERO PUSH2 0x13B JUMPI PUSH1 0x0 DUP1 REVERT JUMPDEST POP PUSH2 0x144 PUSH2 0x4FA JUMP JUMPDEST PUSH1 0x40 MLOAD PUSH2 0x151 SWAP2 SWAP1 PUSH2 0x144D JUMP JUMPDEST PUSH1 0x40 MLOAD DUP1 SWAP2 SUB SWAP1 RETURN JUMPDEST CALLVALUE DUP1 ISZERO PUSH2 0x166 JUMPI PUSH1 0x0 DUP1 REVERT JUMPDEST POP PUSH2 0x181 PUSH1 0x4 DUP1 CALLDATASIZE SUB DUP2 ADD SWAP1 PUSH2 0x17C SWAP2 SWAP1 PUSH2 0x1508 JUMP JUMPDEST PUSH2 0x58C JUMP JUMPDEST PUSH1 0x40 MLOAD PUSH2 0x18E SWAP2 SWAP1 PUSH2 0x1563 JUMP JUMPDEST PUSH1 0x40 MLOAD DUP1 SWAP2 SUB SWAP1 RETURN JUMPDEST CALLVALUE DUP1 ISZERO PUSH2 0x1A3 JUMPI PUSH1 0x0 DUP1 REVERT JUMPDEST POP PUSH2 0x1AC PUSH2 0x5AF JUMP JUMPDEST PUSH1 0x40 MLOAD PUSH2 0x1B9 SWAP2 SWAP1 PUSH2 0x158D JUMP JUMPDEST PUSH1 0x40 MLOAD DUP1 SWAP2 SUB SWAP1 RETURN JUMPDEST CALLVALUE DUP1 ISZERO PUSH2 0x1CE JUMPI PUSH1 0x0 DUP1 REVERT JUMPDEST POP PUSH2 0x1E9 PUSH1 0x4 DUP1 CALLDATASIZE SUB DUP2 ADD SWAP1 PUSH2 0x1E4 SWAP2 SWAP1 PUSH2 0x15A8 JUMP JUMPDEST PUSH2 0x5B9 JUMP JUMPDEST PUSH1 0x40 MLOAD PUSH2 0x1F6 SWAP2 SWAP1 PUSH2 0x1563 JUMP JUMPDEST PUSH1 0x40 MLOAD DUP1 SWAP2 SUB SWAP1 RETURN JUMPDEST CALLVALUE DUP1 ISZERO PUSH2 0x20B JUMPI PUSH1 0x0 DUP1 REVERT JUMPDEST POP PUSH2 0x214 PUSH2 0x5E8 JUMP JUMPDEST PUSH1 0x40 MLOAD PUSH2 0x221 SWAP2 SWAP1 PUSH2 0x1617 JUMP JUMPDEST PUSH1 0x40 MLOAD DUP1 SWAP2 SUB SWAP1 RETURN JUMPDEST CALLVALUE DUP1 ISZERO PUSH2 0x236 JUMPI PUSH1 0x0 DUP1 REVERT JUMPDEST POP PUSH2 0x251 PUSH1 0x4 DUP1 CALLDATASIZE SUB DUP2 ADD SWAP1 PUSH2 0x24C SWAP2 SWAP1 PUSH2 0x1508 JUMP JUMPDEST PUSH2 0x5F1 JUMP JUMPDEST PUSH1 0x40 MLOAD PUSH2 0x25E SWAP2 SWAP1 PUSH2 0x1563 JUMP JUMPDEST PUSH1 0x40 MLOAD DUP1 SWAP2 SUB SWAP1 RETURN JUMPDEST CALLVALUE DUP1 ISZERO PUSH2 0x273 JUMPI PUSH1 0x0 DUP1 REVERT JUMPDEST POP PUSH2 0x28E PUSH1 0x4 DUP1 CALLDATASIZE SUB DUP2 ADD SWAP1 PUSH2 0x289 SWAP2 SWAP1 PUSH2 0x1632 JUMP JUMPDEST PUSH2 0x628 JUMP JUMPDEST STOP JUMPDEST CALLVALUE DUP1 ISZERO PUSH2 0x29C JUMPI PUSH1 0x0 DUP1 REVERT JUMPDEST POP PUSH2 0x2A5 PUSH2 0x63C JUMP JUMPDEST PUSH1 0x40 MLOAD PUSH2 0x2B5 SWAP5 SWAP4 SWAP3 SWAP2 SWAP1 PUSH2 0x165F JUMP JUMPDEST PUSH1 0x40 MLOAD DUP1 SWAP2 SUB SWAP1 RETURN JUMPDEST CALLVALUE DUP1 ISZERO PUSH2 0x2CA JUMPI PUSH1 0x0 DUP1 REVERT JUMPDEST POP PUSH2 0x2E5 PUSH1 0x4 DUP1 CALLDATASIZE SUB DUP2 ADD SWAP1 PUSH2 0x2E0 SWAP2 SWAP1 PUSH2 0x16A4 JUMP JUMPDEST PUSH2 0x667 JUMP JUMPDEST PUSH1 0x40 MLOAD PUSH2 0x2F2 SWAP2 SWAP1 PUSH2 0x158D JUMP JUMPDEST PUSH1 0x40 MLOAD DUP1 SWAP2 SUB SWAP1 RETURN JUMPDEST CALLVALUE DUP1 ISZERO PUSH2 0x307 JUMPI PUSH1 0x0 DUP1 REVERT JUMPDEST POP PUSH2 0x310 PUSH2 0x6AF JUMP JUMPDEST STOP JUMPDEST CALLVALUE DUP1 ISZERO PUSH2 0x31E JUMPI PUSH1 0x0 DUP1 REVERT JUMPDEST POP PUSH2 0x327 PUSH2 0x6C3 JUMP JUMPDEST STOP JUMPDEST CALLVALUE DUP1 ISZERO PUSH2 0x335 JUMPI PUSH1 0x0 DUP1 REVERT JUMPDEST POP PUSH2 0x350 PUSH1 0x4 DUP1 CALLDATASIZE SUB DUP2 ADD SWAP1 PUSH2 0x34B SWAP2 SWAP1 PUSH2 0x1508 JUMP JUMPDEST PUSH2 0x71B JUMP JUMPDEST STOP JUMPDEST CALLVALUE DUP1 ISZERO PUSH2 0x35E JUMPI PUSH1 0x0 DUP1 REVERT JUMPDEST POP PUSH2 0x367 PUSH2 0x73B JUMP JUMPDEST PUSH1 0x40 MLOAD PUSH2 0x374 SWAP2 SWAP1 PUSH2 0x158D JUMP JUMPDEST PUSH1 0x40 MLOAD DUP1 SWAP2 SUB SWAP1 RETURN JUMPDEST CALLVALUE DUP1 ISZERO PUSH2 0x389 JUMPI PUSH1 0x0 DUP1 REVERT JUMPDEST POP PUSH2 0x392 PUSH2 0x741 JUMP JUMPDEST PUSH1 0x40 MLOAD PUSH2 0x39F SWAP2 SWAP1 PUSH2 0x16E0 JUMP JUMPDEST PUSH1 0x40 MLOAD DUP1 SWAP2 SUB SWAP1 RETURN JUMPDEST CALLVALUE DUP1 ISZERO PUSH2 0x3B4 JUMPI PUSH1 0x0 DUP1 REVERT JUMPDEST POP PUSH2 0x3BD PUSH2 0x76B JUMP JUMPDEST PUSH1 0x40 MLOAD PUSH2 0x3CA SWAP2 SWAP1 PUSH2 0x144D JUMP JUMPDEST PUSH1 0x40 MLOAD DUP1 SWAP2 SUB SWAP1 RETURN JUMPDEST PUSH2 0x3ED PUSH1 0x4 DUP1 CALLDATASIZE SUB DUP2 ADD SWAP1 PUSH2 0x3E8 SWAP2 SWAP1 PUSH2 0x1632 JUMP JUMPDEST PUSH2 0x7FD JUMP JUMPDEST STOP JUMPDEST CALLVALUE DUP1 ISZERO PUSH2 0x3FB JUMPI PUSH1 0x0 DUP1 REVERT JUMPDEST POP PUSH2 0x416 PUSH1 0x4 DUP1 CALLDATASIZE SUB DUP2 ADD SWAP1 PUSH2 0x411 SWAP2 SWAP1 PUSH2 0x1508 JUMP JUMPDEST PUSH2 0x8CF JUMP JUMPDEST PUSH1 0x40 MLOAD PUSH2 0x423 SWAP2 SWAP1 PUSH2 0x1563 JUMP JUMPDEST PUSH1 0x40 MLOAD DUP1 SWAP2 SUB SWAP1 RETURN JUMPDEST CALLVALUE DUP1 ISZERO PUSH2 0x438 JUMPI PUSH1 0x0 DUP1 REVERT JUMPDEST POP PUSH2 0x453 PUSH1 0x4 DUP1 CALLDATASIZE SUB DUP2 ADD SWAP1 PUSH2 0x44E SWAP2 SWAP1 PUSH2 0x1508 JUMP JUMPDEST PUSH2 0x946 JUMP JUMPDEST PUSH1 0x40 MLOAD PUSH2 0x460 SWAP2 SWAP1 PUSH2 0x1563 JUMP JUMPDEST PUSH1 0x40 MLOAD DUP1 SWAP2 SUB SWAP1 RETURN JUMPDEST CALLVALUE DUP1 ISZERO PUSH2 0x475 JUMPI PUSH1 0x0 DUP1 REVERT JUMPDEST POP PUSH2 0x47E PUSH2 0x969 JUMP JUMPDEST PUSH1 0x40 MLOAD PUSH2 0x48B SWAP2 SWAP1 PUSH2 0x158D JUMP JUMPDEST PUSH1 0x40 MLOAD DUP1 SWAP2 SUB SWAP1 RETURN JUMPDEST CALLVALUE DUP1 ISZERO PUSH2 0x4A0 JUMPI PUSH1 0x0 DUP1 REVERT JUMPDEST POP PUSH2 0x4BB PUSH1 0x4 DUP1 CALLDATASIZE SUB DUP2 ADD SWAP1 PUSH2 0x4B6 SWAP2 SWAP1 PUSH2 0x16FB JUMP JUMPDEST PUSH2 0x96F JUMP JUMPDEST PUSH1 0x40 MLOAD PUSH2 0x4C8 SWAP2 SWAP1 PUSH2 0x158D JUMP JUMPDEST PUSH1 0x40 MLOAD DUP1 SWAP2 SUB SWAP1 RETURN JUMPDEST CALLVALUE DUP1 ISZERO PUSH2 0x4DD JUMPI PUSH1 0x0 DUP1 REVERT JUMPDEST POP PUSH2 0x4F8 PUSH1 0x4 DUP1 CALLDATASIZE SUB DUP2 ADD SWAP1 PUSH2 0x4F3 SWAP2 SWAP1 PUSH2 0x16A4 JUMP JUMPDEST PUSH2 0x9F6 JUMP JUMPDEST STOP JUMPDEST PUSH1 0x60 PUSH1 0x3 DUP1 SLOAD PUSH2 0x509 SWAP1 PUSH2 0x176A JUMP JUMPDEST DUP1 PUSH1 0x1F ADD PUSH1 0x20 DUP1 SWAP2 DIV MUL PUSH1 0x20 ADD PUSH1 0x40 MLOAD SWAP1 DUP2 ADD PUSH1 0x40 MSTORE DUP1 SWAP3 SWAP2 SWAP1 DUP2 DUP2 MSTORE PUSH1 0x20 ADD DUP3 DUP1 SLOAD PUSH2 0x535 SWAP1 PUSH2 0x176A JUMP JUMPDEST DUP1 ISZERO PUSH2 0x582 JUMPI DUP1 PUSH1 0x1F LT PUSH2 0x557 JUMPI PUSH2 0x100 DUP1 DUP4 SLOAD DIV MUL DUP4 MSTORE SWAP2 PUSH1 0x20 ADD SWAP2 PUSH2 0x582 JUMP JUMPDEST DUP3 ADD SWAP2 SWAP1 PUSH1 0x0 MSTORE PUSH1 0x20 PUSH1 0x0 KECCAK256 SWAP1 JUMPDEST DUP2 SLOAD DUP2 MSTORE SWAP1 PUSH1 0x1 ADD SWAP1 PUSH1 0x20 ADD DUP1 DUP4 GT PUSH2 0x565 JUMPI DUP3 SWAP1 SUB PUSH1 0x1F AND DUP3 ADD SWAP2 JUMPDEST POP POP POP POP POP SWAP1 POP SWAP1 JUMP JUMPDEST PUSH1 0x0 DUP1 PUSH2 0x597 PUSH2 0xA79 JUMP JUMPDEST SWAP1 POP PUSH2 0x5A4 DUP2 DUP6 DUP6 PUSH2 0xA81 JUMP JUMPDEST PUSH1 0x1 SWAP2 POP POP SWAP3 SWAP2 POP POP JUMP JUMPDEST PUSH1 0x0 PUSH1 0x2 SLOAD SWAP1 POP SWAP1 JUMP JUMPDEST PUSH1 0x0 DUP1 PUSH2 0x5C4 PUSH2 0xA79 JUMP JUMPDEST SWAP1 POP PUSH2 0x5D1 DUP6 DUP3 DUP6 PUSH2 0xC4A JUMP JUMPDEST PUSH2 0x5DC DUP6 DUP6 DUP6 PUSH2 0xCD6 JUMP JUMPDEST PUSH1 0x1 SWAP2 POP POP SWAP4 SWAP3 POP POP POP JUMP JUMPDEST PUSH1 0x0 PUSH1 0x12 SWAP1 POP SWAP1 JUMP JUMPDEST PUSH1 0x0 DUP1 PUSH2 0x5FC PUSH2 0xA79 JUMP JUMPDEST SWAP1 POP PUSH2 0x61D DUP2 DUP6 DUP6 PUSH2 0x60E DUP6 DUP10 PUSH2 0x96F JUMP JUMPDEST PUSH2 0x618 SWAP2 SWAP1 PUSH2 0x17CA JUMP JUMPDEST PUSH2 0xA81 JUMP JUMPDEST PUSH1 0x1 SWAP2 POP POP SWAP3 SWAP2 POP POP JUMP JUMPDEST PUSH2 0x639 PUSH2 0x633 PUSH2 0xA79 JUMP JUMPDEST DUP3 PUSH2 0xF4C JUMP JUMPDEST POP JUMP JUMPDEST PUSH1 0x0 DUP1 PUSH1 0x0 DUP1 PUSH2 0x64B CALLER PUSH2 0x667 JUMP JUMPDEST PUSH1 0x7 SLOAD PUSH2 0x656 PUSH2 0x5AF JUMP JUMPDEST PUSH1 0x6 SLOAD SWAP4 POP SWAP4 POP SWAP4 POP SWAP4 POP SWAP1 SWAP2 SWAP3 SWAP4 JUMP JUMPDEST PUSH1 0x0 DUP1 PUSH1 0x0 DUP4 PUSH20 0xFFFFFFFFFFFFFFFFFFFFFFFFFFFFFFFFFFFFFFFF AND PUSH20 0xFFFFFFFFFFFFFFFFFFFFFFFFFFFFFFFFFFFFFFFF AND DUP2 MSTORE PUSH1 0x20 ADD SWAP1 DUP2 MSTORE PUSH1 0x20 ADD PUSH1 0x0 KECCAK256 SLOAD SWAP1 POP SWAP2 SWAP1 POP JUMP JUMPDEST PUSH2 0x6B7 PUSH2 0x1119 JUMP JUMPDEST PUSH2 0x6C1 PUSH1 0x0 PUSH2 0x1197 JUMP JUMPDEST JUMP JUMPDEST PUSH2 0x6CB PUSH2 0x1119 JUMP JUMPDEST PUSH2 0x6D3 PUSH2 0x741 JUMP JUMPDEST PUSH20 0xFFFFFFFFFFFFFFFFFFFFFFFFFFFFFFFFFFFFFFFF AND PUSH2 0x8FC SELFBALANCE SWAP1 DUP2 ISZERO MUL SWAP1 PUSH1 0x40 MLOAD PUSH1 0x0 PUSH1 0x40 MLOAD DUP1 DUP4 SUB DUP2 DUP6 DUP9 DUP9 CALL SWAP4 POP POP POP POP ISZERO DUP1 ISZERO PUSH2 0x718 JUMPI RETURNDATASIZE PUSH1 0x0 DUP1 RETURNDATACOPY RETURNDATASIZE PUSH1 0x0 REVERT JUMPDEST POP JUMP JUMPDEST PUSH2 0x72D DUP3 PUSH2 0x727 PUSH2 0xA79 JUMP JUMPDEST DUP4 PUSH2 0xC4A JUMP JUMPDEST PUSH2 0x737 DUP3 DUP3 PUSH2 0xF4C JUMP JUMPDEST POP POP JUMP JUMPDEST PUSH1 0x6 SLOAD DUP2 JUMP JUMPDEST PUSH1 0x0 PUSH1 0x5 PUSH1 0x0 SWAP1 SLOAD SWAP1 PUSH2 0x100 EXP SWAP1 DIV PUSH20 0xFFFFFFFFFFFFFFFFFFFFFFFFFFFFFFFFFFFFFFFF AND SWAP1 POP SWAP1 JUMP JUMPDEST PUSH1 0x60 PUSH1 0x4 DUP1 SLOAD PUSH2 0x77A SWAP1 PUSH2 0x176A JUMP JUMPDEST DUP1 PUSH1 0x1F ADD PUSH1 0x20 DUP1 SWAP2 DIV MUL PUSH1 0x20 ADD PUSH1 0x40 MLOAD SWAP1 DUP2 ADD PUSH1 0x40 MSTORE DUP1 SWAP3 SWAP2 SWAP1 DUP2 DUP2 MSTORE PUSH1 0x20 ADD DUP3 DUP1 SLOAD PUSH2 0x7A6 SWAP1 PUSH2 0x176A JUMP JUMPDEST DUP1 ISZERO PUSH2 0x7F3 JUMPI DUP1 PUSH1 0x1F LT PUSH2 0x7C8 JUMPI PUSH2 0x100 DUP1 DUP4 SLOAD DIV MUL DUP4 MSTORE SWAP2 PUSH1 0x20 ADD SWAP2 PUSH2 0x7F3 JUMP JUMPDEST DUP3 ADD SWAP2 SWAP1 PUSH1 0x0 MSTORE PUSH1 0x20 PUSH1 0x0 KECCAK256 SWAP1 JUMPDEST DUP2 SLOAD DUP2 MSTORE SWAP1 PUSH1 0x1 ADD SWAP1 PUSH1 0x20 ADD DUP1 DUP4 GT PUSH2 0x7D6 JUMPI DUP3 SWAP1 SUB PUSH1 0x1F AND DUP3 ADD SWAP2 JUMPDEST POP POP POP POP POP SWAP1 POP SWAP1 JUMP JUMPDEST PUSH1 0x7 SLOAD DUP2 PUSH2 0x809 PUSH2 0x5AF JUMP JUMPDEST PUSH2 0x813 SWAP2 SWAP1 PUSH2 0x17CA JUMP JUMPDEST GT ISZERO PUSH2 0x854 JUMPI PUSH1 0x40 MLOAD PUSH32 0x8C379A000000000000000000000000000000000000000000000000000000000 DUP2 MSTORE PUSH1 0x4 ADD PUSH2 0x84B SWAP1 PUSH2 0x184A JUMP JUMPDEST PUSH1 0x40 MLOAD DUP1 SWAP2 SUB SWAP1 REVERT JUMPDEST PUSH1 0x6 SLOAD DUP2 PUSH2 0x860 PUSH2 0x5E8 JUMP JUMPDEST PUSH1 0xA PUSH2 0x86C SWAP2 SWAP1 PUSH2 0x199D JUMP JUMPDEST CALLVALUE PUSH2 0x877 SWAP2 SWAP1 PUSH2 0x19E8 JUMP JUMPDEST PUSH2 0x881 SWAP2 SWAP1 PUSH2 0x1A59 JUMP JUMPDEST LT ISZERO PUSH2 0x8C2 JUMPI PUSH1 0x40 MLOAD PUSH32 0x8C379A000000000000000000000000000000000000000000000000000000000 DUP2 MSTORE PUSH1 0x4 ADD PUSH2 0x8B9 SWAP1 PUSH2 0x1AFC JUMP JUMPDEST PUSH1 0x40 MLOAD DUP1 SWAP2 SUB SWAP1 REVERT JUMPDEST PUSH2 0x8CC CALLER DUP3 PUSH2 0x125D JUMP JUMPDEST POP JUMP JUMPDEST PUSH1 0x0 DUP1 PUSH2 0x8DA PUSH2 0xA79 JUMP JUMPDEST SWAP1 POP PUSH1 0x0 PUSH2 0x8E8 DUP3 DUP7 PUSH2 0x96F JUMP JUMPDEST SWAP1 POP DUP4 DUP2 LT ISZERO PUSH2 0x92D JUMPI PUSH1 0x40 MLOAD PUSH32 0x8C379A000000000000000000000000000000000000000000000000000000000 DUP2 MSTORE PUSH1 0x4 ADD PUSH2 0x924 SWAP1 PUSH2 0x1B8E JUMP JUMPDEST PUSH1 0x40 MLOAD DUP1 SWAP2 SUB SWAP1 REVERT JUMPDEST PUSH2 0x93A DUP3 DUP7 DUP7 DUP5 SUB PUSH2 0xA81 JUMP JUMPDEST PUSH1 0x1 SWAP3 POP POP POP SWAP3 SWAP2 POP POP JUMP JUMPDEST PUSH1 0x0 DUP1 PUSH2 0x951 PUSH2 0xA79 JUMP JUMPDEST SWAP1 POP PUSH2 0x95E DUP2 DUP6 DUP6 PUSH2 0xCD6 JUMP JUMPDEST PUSH1 0x1 SWAP2 POP POP SWAP3 SWAP2 POP POP JUMP JUMPDEST PUSH1 0x7 SLOAD DUP2 JUMP JUMPDEST PUSH1 0x0 PUSH1 0x1 PUSH1 0x0 DUP5 PUSH20 0xFFFFFFFFFFFFFFFFFFFFFFFFFFFFFFFFFFFFFFFF AND PUSH20 0xFFFFFFFFFFFFFFFFFFFFFFFFFFFFFFFFFFFFFFFF AND DUP2 MSTORE PUSH1 0x20 ADD SWAP1 DUP2 MSTORE PUSH1 0x20 ADD PUSH1 0x0 KECCAK256 PUSH1 0x0 DUP4 PUSH20 0xFFFFFFFFFFFFFFFFFFFFFFFFFFFFFFFFFFFFFFFF AND PUSH20 0xFFFFFFFFFFFFFFFFFFFFFFFFFFFFFFFFFFFFFFFF AND DUP2 MSTORE PUSH1 0x20 ADD SWAP1 DUP2 MSTORE PUSH1 0x20 ADD PUSH1 0x0 KECCAK256 SLOAD SWAP1 POP SWAP3 SWAP2 POP POP JUMP JUMPDEST PUSH2 0x9FE PUSH2 0x1119 JUMP JUMPDEST PUSH1 0x0 PUSH20 0xFFFFFFFFFFFFFFFFFFFFFFFFFFFFFFFFFFFFFFFF AND DUP2 PUSH20 0xFFFFFFFFFFFFFFFFFFFFFFFFFFFFFFFFFFFFFFFF AND SUB PUSH2 0xA6D JUMPI PUSH1 0x40 MLOAD PUSH32 0x8C379A000000000000000000000000000000000000000000000000000000000 DUP2 MSTORE PUSH1 0x4 ADD PUSH2 0xA64 SWAP1 PUSH2 0x1C20 JUMP JUMPDEST PUSH1 0x40 MLOAD DUP1 SWAP2 SUB SWAP1 REVERT JUMPDEST PUSH2 0xA76 DUP2 PUSH2 0x1197 JUMP JUMPDEST POP JUMP JUMPDEST PUSH1 0x0 CALLER SWAP1 POP SWAP1 JUMP JUMPDEST PUSH1 0x0 PUSH20 0xFFFFFFFFFFFFFFFFFFFFFFFFFFFFFFFFFFFFFFFF AND DUP4 PUSH20 0xFFFFFFFFFFFFFFFFFFFFFFFFFFFFFFFFFFFFFFFF AND SUB PUSH2 0xAF0 JUMPI PUSH1 0x40 MLOAD PUSH32 0x8C379A000000000000000000000000000000000000000000000000000000000 DUP2 MSTORE PUSH1 0x4 ADD PUSH2 0xAE7 SWAP1 PUSH2 0x1CB2 JUMP JUMPDEST PUSH1 0x40 MLOAD DUP1 SWAP2 SUB SWAP1 REVERT JUMPDEST PUSH1 0x0 PUSH20 0xFFFFFFFFFFFFFFFFFFFFFFFFFFFFFFFFFFFFFFFF AND DUP3 PUSH20 0xFFFFFFFFFFFFFFFFFFFFFFFFFFFFFFFFFFFFFFFF AND SUB PUSH2 0xB5F JUMPI PUSH1 0x40 MLOAD PUSH32 0x8C379A000000000000000000000000000000000000000000000000000000000 DUP2 MSTORE PUSH1 0x4 ADD PUSH2 0xB56 SWAP1 PUSH2 0x1D44 JUMP JUMPDEST PUSH1 0x40 MLOAD DUP1 SWAP2 SUB SWAP1 REVERT JUMPDEST DUP1 PUSH1 0x1 PUSH1 0x0 DUP6 PUSH20 0xFFFFFFFFFFFFFFFFFFFFFFFFFFFFFFFFFFFFFFFF AND PUSH20 0xFFFFFFFFFFFFFFFFFFFFFFFFFFFFFFFFFFFFFFFF AND DUP2 MSTORE PUSH1 0x20 ADD SWAP1 DUP2 MSTORE PUSH1 0x20 ADD PUSH1 0x0 KECCAK256 PUSH1 0x0 DUP5 PUSH20 0xFFFFFFFFFFFFFFFFFFFFFFFFFFFFFFFFFFFFFFFF AND PUSH20 0xFFFFFFFFFFFFFFFFFFFFFFFFFFFFFFFFFFFFFFFF AND DUP2 MSTORE PUSH1 0x20 ADD SWAP1 DUP2 MSTORE PUSH1 0x20 ADD PUSH1 0x0 KECCAK256 DUP2 SWAP1 SSTORE POP DUP2 PUSH20 0xFFFFFFFFFFFFFFFFFFFFFFFFFFFFFFFFFFFFFFFF AND DUP4 PUSH20 0xFFFFFFFFFFFFFFFFFFFFFFFFFFFFFFFFFFFFFFFF AND PUSH32 0x8C5BE1E5EBEC7D5BD14F71427D1E84F3DD0314C0F7B2291E5B200AC8C7C3B925 DUP4 PUSH1 0x40 MLOAD PUSH2 0xC3D SWAP2 SWAP1 PUSH2 0x158D JUMP JUMPDEST PUSH1 0x40 MLOAD DUP1 SWAP2 SUB SWAP1 LOG3 POP POP POP JUMP JUMPDEST PUSH1 0x0 PUSH2 0xC56 DUP5 DUP5 PUSH2 0x96F JUMP JUMPDEST SWAP1 POP PUSH32 0xFFFFFFFFFFFFFFFFFFFFFFFFFFFFFFFFFFFFFFFFFFFFFFFFFFFFFFFFFFFFFFFF DUP2 EQ PUSH2 0xCD0 JUMPI DUP2 DUP2 LT ISZERO PUSH2 0xCC2 JUMPI PUSH1 0x40 MLOAD PUSH32 0x8C379A000000000000000000000000000000000000000000000000000000000 DUP2 MSTORE PUSH1 0x4 ADD PUSH2 0xCB9 SWAP1 PUSH2 0x1DB0 JUMP JUMPDEST PUSH1 0x40 MLOAD DUP1 SWAP2 SUB SWAP1 REVERT JUMPDEST PUSH2 0xCCF DUP5 DUP5 DUP5 DUP5 SUB PUSH2 0xA81 JUMP JUMPDEST JUMPDEST POP POP POP POP JUMP JUMPDEST PUSH1 0x0 PUSH20 0xFFFFFFFFFFFFFFFFFFFFFFFFFFFFFFFFFFFFFFFF AND DUP4 PUSH20 0xFFFFFFFFFFFFFFFFFFFFFFFFFFFFFFFFFFFFFFFF AND SUB PUSH2 0xD45 JUMPI PUSH1 0x40 MLOAD PUSH32 0x8C379A000000000000000000000000000000000000000000000000000000000 DUP2 MSTORE PUSH1 0x4 ADD PUSH2 0xD3C SWAP1 PUSH2 0x1E42 JUMP JUMPDEST PUSH1 0x40 MLOAD DUP1 SWAP2 SUB SWAP1 REVERT JUMPDEST PUSH1 0x0 PUSH20 0xFFFFFFFFFFFFFFFFFFFFFFFFFFFFFFFFFFFFFFFF AND DUP3 PUSH20 0xFFFFFFFFFFFFFFFFFFFFFFFFFFFFFFFFFFFFFFFF AND SUB PUSH2 0xDB4 JUMPI PUSH1 0x40 MLOAD PUSH32 0x8C379A000000000000000000000000000000000000000000000000000000000 DUP2 MSTORE PUSH1 0x4 ADD PUSH2 0xDAB SWAP1 PUSH2 0x1ED4 JUMP JUMPDEST PUSH1 0x40 MLOAD DUP1 SWAP2 SUB SWAP1 REVERT JUMPDEST PUSH2 0xDBF DUP4 DUP4 DUP4 PUSH2 0x13B3 JUMP JUMPDEST PUSH1 0x0 DUP1 PUSH1 0x0 DUP6 PUSH20 0xFFFFFFFFFFFFFFFFFFFFFFFFFFFFFFFFFFFFFFFF AND PUSH20 0xFFFFFFFFFFFFFFFFFFFFFFFFFFFFFFFFFFFFFFFF AND DUP2 MSTORE PUSH1 0x20 ADD SWAP1 DUP2 MSTORE PUSH1 0x20 ADD PUSH1 0x0 KECCAK256 SLOAD SWAP1 POP DUP2 DUP2 LT ISZERO PUSH2 0xE45 JUMPI PUSH1 0x40 MLOAD PUSH32 0x8C379A000000000000000000000000000000000000000000000000000000000 DUP2 MSTORE PUSH1 0x4 ADD PUSH2 0xE3C SWAP1 PUSH2 0x1F66 JUMP JUMPDEST PUSH1 0x40 MLOAD DUP1 SWAP2 SUB SWAP1 REVERT JUMPDEST DUP2 DUP2 SUB PUSH1 0x0 DUP1 DUP7 PUSH20 0xFFFFFFFFFFFFFFFFFFFFFFFFFFFFFFFFFFFFFFFF AND PUSH20 0xFFFFFFFFFFFFFFFFFFFFFFFFFFFFFFFFFFFFFFFF AND DUP2 MSTORE PUSH1 0x20 ADD SWAP1 DUP2 MSTORE PUSH1 0x20 ADD PUSH1 0x0 KECCAK256 DUP2 SWAP1 SSTORE POP DUP2 PUSH1 0x0 DUP1 DUP6 PUSH20 0xFFFFFFFFFFFFFFFFFFFFFFFFFFFFFFFFFFFFFFFF AND PUSH20 0xFFFFFFFFFFFFFFFFFFFFFFFFFFFFFFFFFFFFFFFF AND DUP2 MSTORE PUSH1 0x20 ADD SWAP1 DUP2 MSTORE PUSH1 0x20 ADD PUSH1 0x0 KECCAK256 PUSH1 0x0 DUP3 DUP3 SLOAD ADD SWAP3 POP POP DUP2 SWAP1 SSTORE POP DUP3 PUSH20 0xFFFFFFFFFFFFFFFFFFFFFFFFFFFFFFFFFFFFFFFF AND DUP5 PUSH20 0xFFFFFFFFFFFFFFFFFFFFFFFFFFFFFFFFFFFFFFFF AND PUSH32 0xDDF252AD1BE2C89B69C2B068FC378DAA952BA7F163C4A11628F55A4DF523B3EF DUP5 PUSH1 0x40 MLOAD PUSH2 0xF33 SWAP2 SWAP1 PUSH2 0x158D JUMP JUMPDEST PUSH1 0x40 MLOAD DUP1 SWAP2 SUB SWAP1 LOG3 PUSH2 0xF46 DUP5 DUP5 DUP5 PUSH2 0x13B8 JUMP JUMPDEST POP POP POP POP JUMP JUMPDEST PUSH1 0x0 PUSH20 0xFFFFFFFFFFFFFFFFFFFFFFFFFFFFFFFFFFFFFFFF AND DUP3 PUSH20 0xFFFFFFFFFFFFFFFFFFFFFFFFFFFFFFFFFFFFFFFF AND SUB PUSH2 0xFBB JUMPI PUSH1 0x40 MLOAD PUSH32 0x8C379A000000000000000000000000000000000000000000000000000000000 DUP2 MSTORE PUSH1 0x4 ADD PUSH2 0xFB2 SWAP1 PUSH2 0x1FF8 JUMP JUMPDEST PUSH1 0x40 MLOAD DUP1 SWAP2 SUB SWAP1 REVERT JUMPDEST PUSH2 0xFC7 DUP3 PUSH1 0x0 DUP4 PUSH2 0x13B3 JUMP JUMPDEST PUSH1 0x0 DUP1 PUSH1 0x0 DUP5 PUSH20 0xFFFFFFFFFFFFFFFFFFFFFFFFFFFFFFFFFFFFFFFF AND PUSH20 0xFFFFFFFFFFFFFFFFFFFFFFFFFFFFFFFFFFFFFFFF AND DUP2 MSTORE PUSH1 0x20 ADD SWAP1 DUP2 MSTORE PUSH1 0x20 ADD PUSH1 0x0 KECCAK256 SLOAD SWAP1 POP DUP2 DUP2 LT ISZERO PUSH2 0x104D JUMPI PUSH1 0x40 MLOAD PUSH32 0x8C379A000000000000000000000000000000000000000000000000000000000 DUP2 MSTORE PUSH1 0x4 ADD PUSH2 0x1044 SWAP1 PUSH2 0x208A JUMP JUMPDEST PUSH1 0x40 MLOAD DUP1 SWAP2 SUB SWAP1 REVERT JUMPDEST DUP2 DUP2 SUB PUSH1 0x0 DUP1 DUP6 PUSH20 0xFFFFFFFFFFFFFFFFFFFFFFFFFFFFFFFFFFFFFFFF AND PUSH20 0xFFFFFFFFFFFFFFFFFFFFFFFFFFFFFFFFFFFFFFFF AND DUP2 MSTORE PUSH1 0x20 ADD SWAP1 DUP2 MSTORE PUSH1 0x20 ADD PUSH1 0x0 KECCAK256 DUP2 SWAP1 SSTORE POP DUP2 PUSH1 0x2 PUSH1 0x0 DUP3 DUP3 SLOAD SUB SWAP3 POP POP DUP2 SWAP1 SSTORE POP PUSH1 0x0 PUSH20 0xFFFFFFFFFFFFFFFFFFFFFFFFFFFFFFFFFFFFFFFF AND DUP4 PUSH20 0xFFFFFFFFFFFFFFFFFFFFFFFFFFFFFFFFFFFFFFFF AND PUSH32 0xDDF252AD1BE2C89B69C2B068FC378DAA952BA7F163C4A11628F55A4DF523B3EF DUP5 PUSH1 0x40 MLOAD PUSH2 0x1100 SWAP2 SWAP1 PUSH2 0x158D JUMP JUMPDEST PUSH1 0x40 MLOAD DUP1 SWAP2 SUB SWAP1 LOG3 PUSH2 0x1114 DUP4 PUSH1 0x0 DUP5 PUSH2 0x13B8 JUMP JUMPDEST POP POP POP JUMP JUMPDEST PUSH2 0x1121 PUSH2 0xA79 JUMP JUMPDEST PUSH20 0xFFFFFFFFFFFFFFFFFFFFFFFFFFFFFFFFFFFFFFFF AND PUSH2 0x113F PUSH2 0x741 JUMP JUMPDEST PUSH20 0xFFFFFFFFFFFFFFFFFFFFFFFFFFFFFFFFFFFFFFFF AND EQ PUSH2 0x1195 JUMPI PUSH1 0x40 MLOAD PUSH32 0x8C379A000000000000000000000000000000000000000000000000000000000 DUP2 MSTORE PUSH1 0x4 ADD PUSH2 0x118C SWAP1 PUSH2 0x20F6 JUMP JUMPDEST PUSH1 0x40 MLOAD DUP1 SWAP2 SUB SWAP1 REVERT JUMPDEST JUMP JUMPDEST PUSH1 0x0 PUSH1 0x5 PUSH1 0x0 SWAP1 SLOAD SWAP1 PUSH2 0x100 EXP SWAP1 DIV PUSH20 0xFFFFFFFFFFFFFFFFFFFFFFFFFFFFFFFFFFFFFFFF AND SWAP1 POP DUP2 PUSH1 0x5 PUSH1 0x0 PUSH2 0x100 EXP DUP2 SLOAD DUP2 PUSH20 0xFFFFFFFFFFFFFFFFFFFFFFFFFFFFFFFFFFFFFFFF MUL NOT AND SWAP1 DUP4 PUSH20 0xFFFFFFFFFFFFFFFFFFFFFFFFFFFFFFFFFFFFFFFF AND MUL OR SWAP1 SSTORE POP DUP2 PUSH20 0xFFFFFFFFFFFFFFFFFFFFFFFFFFFFFFFFFFFFFFFF AND DUP2 PUSH20 0xFFFFFFFFFFFFFFFFFFFFFFFFFFFFFFFFFFFFFFFF AND PUSH32 0x8BE0079C531659141344CD1FD0A4F28419497F9722A3DAAFE3B4186F6B6457E0 PUSH1 0x40 MLOAD PUSH1 0x40 MLOAD DUP1 SWAP2 SUB SWAP1 LOG3 POP POP JUMP JUMPDEST PUSH1 0x0 PUSH20 0xFFFFFFFFFFFFFFFFFFFFFFFFFFFFFFFFFFFFFFFF AND DUP3 PUSH20 0xFFFFFFFFFFFFFFFFFFFFFFFFFFFFFFFFFFFFFFFF AND SUB PUSH2 0x12CC JUMPI PUSH1 0x40 MLOAD PUSH32 0x8C379A000000000000000000000000000000000000000000000000000000000 DUP2 MSTORE PUSH1 0x4 ADD PUSH2 0x12C3 SWAP1 PUSH2 0x2162 JUMP JUMPDEST PUSH1 0x40 MLOAD DUP1 SWAP2 SUB SWAP1 REVERT JUMPDEST PUSH2 0x12D8 PUSH1 0x0 DUP4 DUP4 PUSH2 0x13B3 JUMP JUMPDEST DUP1 PUSH1 0x2 PUSH1 0x0 DUP3 DUP3 SLOAD PUSH2 0x12EA SWAP2 SWAP1 PUSH2 0x17CA JUMP JUMPDEST SWAP3 POP POP DUP2 SWAP1 SSTORE POP DUP1 PUSH1 0x0 DUP1 DUP5 PUSH20 0xFFFFFFFFFFFFFFFFFFFFFFFFFFFFFFFFFFFFFFFF AND PUSH20 0xFFFFFFFFFFFFFFFFFFFFFFFFFFFFFFFFFFFFFFFF AND DUP2 MSTORE PUSH1 0x20 ADD SWAP1 DUP2 MSTORE PUSH1 0x20 ADD PUSH1 0x0 KECCAK256 PUSH1 0x0 DUP3 DUP3 SLOAD ADD SWAP3 POP POP DUP2 SWAP1 SSTORE POP DUP2 PUSH20 0xFFFFFFFFFFFFFFFFFFFFFFFFFFFFFFFFFFFFFFFF AND PUSH1 0x0 PUSH20 0xFFFFFFFFFFFFFFFFFFFFFFFFFFFFFFFFFFFFFFFF AND PUSH32 0xDDF252AD1BE2C89B69C2B068FC378DAA952BA7F163C4A11628F55A4DF523B3EF DUP4 PUSH1 0x40 MLOAD PUSH2 0x139B SWAP2 SWAP1 PUSH2 0x158D JUMP JUMPDEST PUSH1 0x40 MLOAD DUP1 SWAP2 SUB SWAP1 LOG3 PUSH2 0x13AF PUSH1 0x0 DUP4 DUP4 PUSH2 0x13B8 JUMP JUMPDEST POP POP JUMP JUMPDEST POP POP POP JUMP JUMPDEST POP POP POP JUMP JUMPDEST PUSH1 0x0 DUP2 MLOAD SWAP1 POP SWAP2 SWAP1 POP JUMP JUMPDEST PUSH1 0x0 DUP3 DUP3 MSTORE PUSH1 0x20 DUP3 ADD SWAP1 POP SWAP3 SWAP2 POP POP JUMP JUMPDEST PUSH1 0x0 JUMPDEST DUP4 DUP2 LT ISZERO PUSH2 0x13F7 JUMPI DUP1 DUP3 ADD MLOAD DUP2 DUP5 ADD MSTORE PUSH1 0x20 DUP2 ADD SWAP1 POP PUSH2 0x13DC JUMP JUMPDEST PUSH1 0x0 DUP5 DUP5 ADD MSTORE POP POP POP POP JUMP JUMPDEST PUSH1 0x0 PUSH1 0x1F NOT PUSH1 0x1F DUP4 ADD AND SWAP1 POP SWAP2 SWAP1 POP JUMP JUMPDEST PUSH1 0x0 PUSH2 0x141F DUP3 PUSH2 0x13BD JUMP JUMPDEST PUSH2 0x1429 DUP2 DUP6 PUSH2 0x13C8 JUMP JUMPDEST SWAP4 POP PUSH2 0x1439 DUP2 DUP6 PUSH1 0x20 DUP7 ADD PUSH2 0x13D9 JUMP JUMPDEST PUSH2 0x1442 DUP2 PUSH2 0x1403 JUMP JUMPDEST DUP5 ADD SWAP2 POP POP SWAP3 SWAP2 POP POP JUMP JUMPDEST PUSH1 0x0 PUSH1 0x20 DUP3 ADD SWAP1 POP DUP2 DUP2 SUB PUSH1 0x0 DUP4 ADD MSTORE PUSH2 0x1467 DUP2 DUP5 PUSH2 0x1414 JUMP JUMPDEST SWAP1 POP SWAP3 SWAP2 POP POP JUMP JUMPDEST PUSH1 0x0 DUP1 REVERT JUMPDEST PUSH1 0x0 PUSH20 0xFFFFFFFFFFFFFFFFFFFFFFFFFFFFFFFFFFFFFFFF DUP3 AND SWAP1 POP SWAP2 SWAP1 POP JUMP JUMPDEST PUSH1 0x0 PUSH2 0x149F DUP3 PUSH2 0x1474 JUMP JUMPDEST SWAP1 POP SWAP2 SWAP1 POP JUMP JUMPDEST PUSH2 0x14AF DUP2 PUSH2 0x1494 JUMP JUMPDEST DUP2 EQ PUSH2 0x14BA JUMPI PUSH1 0x0 DUP1 REVERT JUMPDEST POP JUMP JUMPDEST PUSH1 0x0 DUP2 CALLDATALOAD SWAP1 POP PUSH2 0x14CC DUP2 PUSH2 0x14A6 JUMP JUMPDEST SWAP3 SWAP2 POP POP JUMP JUMPDEST PUSH1 0x0 DUP2 SWAP1 POP SWAP2 SWAP1 POP JUMP JUMPDEST PUSH2 0x14E5 DUP2 PUSH2 0x14D2 JUMP JUMPDEST DUP2 EQ PUSH2 0x14F0 JUMPI PUSH1 0x0 DUP1 REVERT JUMPDEST POP JUMP JUMPDEST PUSH1 0x0 DUP2 CALLDATALOAD SWAP1 POP PUSH2 0x1502 DUP2 PUSH2 0x14DC JUMP JUMPDEST SWAP3 SWAP2 POP POP JUMP JUMPDEST PUSH1 0x0 DUP1 PUSH1 0x40 DUP4 DUP6 SUB SLT ISZERO PUSH2 0x151F JUMPI PUSH2 0x151E PUSH2 0x146F JUMP JUMPDEST JUMPDEST PUSH1 0x0 PUSH2 0x152D DUP6 DUP3 DUP7 ADD PUSH2 0x14BD JUMP JUMPDEST SWAP3 POP POP PUSH1 0x20 PUSH2 0x153E DUP6 DUP3 DUP7 ADD PUSH2 0x14F3 JUMP JUMPDEST SWAP2 POP POP SWAP3 POP SWAP3 SWAP1 POP JUMP JUMPDEST PUSH1 0x0 DUP2 ISZERO ISZERO SWAP1 POP SWAP2 SWAP1 POP JUMP JUMPDEST PUSH2 0x155D DUP2 PUSH2 0x1548 JUMP JUMPDEST DUP3 MSTORE POP POP JUMP JUMPDEST PUSH1 0x0 PUSH1 0x20 DUP3 ADD SWAP1 POP PUSH2 0x1578 PUSH1 0x0 DUP4 ADD DUP5 PUSH2 0x1554 JUMP JUMPDEST SWAP3 SWAP2 POP POP JUMP JUMPDEST PUSH2 0x1587 DUP2 PUSH2 0x14D2 JUMP JUMPDEST DUP3 MSTORE POP POP JUMP JUMPDEST PUSH1 0x0 PUSH1 0x20 DUP3 ADD SWAP1 POP PUSH2 0x15A2 PUSH1 0x0 DUP4 ADD DUP5 PUSH2 0x157E JUMP JUMPDEST SWAP3 SWAP2 POP POP JUMP JUMPDEST PUSH1 0x0 DUP1 PUSH1 0x0 PUSH1 0x60 DUP5 DUP7 SUB SLT ISZERO PUSH2 0x15C1 JUMPI PUSH2 0x15C0 PUSH2 0x146F JUMP JUMPDEST JUMPDEST PUSH1 0x0 PUSH2 0x15CF DUP7 DUP3 DUP8 ADD PUSH2 0x14BD JUMP JUMPDEST SWAP4 POP POP PUSH1 0x20 PUSH2 0x15E0 DUP7 DUP3 DUP8 ADD PUSH2 0x14BD JUMP JUMPDEST SWAP3 POP POP PUSH1 0x40 PUSH2 0x15F1 DUP7 DUP3 DUP8 ADD PUSH2 0x14F3 JUMP JUMPDEST SWAP2 POP POP SWAP3 POP SWAP3 POP SWAP3 JUMP JUMPDEST PUSH1 0x0 PUSH1 0xFF DUP3 AND SWAP1 POP SWAP2 SWAP1 POP JUMP JUMPDEST PUSH2 0x1611 DUP2 PUSH2 0x15FB JUMP JUMPDEST DUP3 MSTORE POP POP JUMP JUMPDEST PUSH1 0x0 PUSH1 0x20 DUP3 ADD SWAP1 POP PUSH2 0x162C PUSH1 0x0 DUP4 ADD DUP5 PUSH2 0x1608 JUMP JUMPDEST SWAP3 SWAP2 POP POP JUMP JUMPDEST PUSH1 0x0 PUSH1 0x20 DUP3 DUP5 SUB SLT ISZERO PUSH2 0x1648 JUMPI PUSH2 0x1647 PUSH2 0x146F JUMP JUMPDEST JUMPDEST PUSH1 0x0 PUSH2 0x1656 DUP5 DUP3 DUP6 ADD PUSH2 0x14F3 JUMP JUMPDEST SWAP2 POP POP SWAP3 SWAP2 POP POP JUMP JUMPDEST PUSH1 0x0 PUSH1 0x80 DUP3 ADD SWAP1 POP PUSH2 0x1674 PUSH1 0x0 DUP4 ADD DUP8 PUSH2 0x157E JUMP JUMPDEST PUSH2 0x1681 PUSH1 0x20 DUP4 ADD DUP7 PUSH2 0x157E JUMP JUMPDEST PUSH2 0x168E PUSH1 0x40 DUP4 ADD DUP6 PUSH2 0x157E JUMP JUMPDEST PUSH2 0x169B PUSH1 0x60 DUP4 ADD DUP5 PUSH2 0x157E JUMP JUMPDEST SWAP6 SWAP5 POP POP POP POP POP JUMP JUMPDEST PUSH1 0x0 PUSH1 0x20 DUP3 DUP5 SUB SLT ISZERO PUSH2 0x16BA JUMPI PUSH2 0x16B9 PUSH2 0x146F JUMP JUMPDEST JUMPDEST PUSH1 0x0 PUSH2 0x16C8 DUP5 DUP3 DUP6 ADD PUSH2 0x14BD JUMP JUMPDEST SWAP2 POP POP SWAP3 SWAP2 POP POP JUMP JUMPDEST PUSH2 0x16DA DUP2 PUSH2 0x1494 JUMP JUMPDEST DUP3 MSTORE POP POP JUMP JUMPDEST PUSH1 0x0 PUSH1 0x20 DUP3 ADD SWAP1 POP PUSH2 0x16F5 PUSH1 0x0 DUP4 ADD DUP5 PUSH2 0x16D1 JUMP JUMPDEST SWAP3 SWAP2 POP POP JUMP JUMPDEST PUSH1 0x0 DUP1 PUSH1 0x40 DUP4 DUP6 SUB SLT ISZERO PUSH2 0x1712 JUMPI PUSH2 0x1711 PUSH2 0x146F JUMP JUMPDEST JUMPDEST PUSH1 0x0 PUSH2 0x1720 DUP6 DUP3 DUP7 ADD PUSH2 0x14BD JUMP JUMPDEST SWAP3 POP POP PUSH1 0x20 PUSH2 0x1731 DUP6 DUP3 DUP7 ADD PUSH2 0x14BD JUMP JUMPDEST SWAP2 POP POP SWAP3 POP SWAP3 SWAP1 POP JUMP JUMPDEST PUSH32 0x4E487B7100000000000000000000000000000000000000000000000000000000 PUSH1 0x0 MSTORE PUSH1 0x22 PUSH1 0x4 MSTORE PUSH1 0x24 PUSH1 0x0 REVERT JUMPDEST PUSH1 0x0 PUSH1 0x2 DUP3 DIV SWAP1 POP PUSH1 0x1 DUP3 AND DUP1 PUSH2 0x1782 JUMPI PUSH1 0x7F DUP3 AND SWAP2 POP JUMPDEST PUSH1 0x20 DUP3 LT DUP2 SUB PUSH2 0x1795 JUMPI PUSH2 0x1794 PUSH2 0x173B JUMP JUMPDEST JUMPDEST POP SWAP2 SWAP1 POP JUMP JUMPDEST PUSH32 0x4E487B7100000000000000000000000000000000000000000000000000000000 PUSH1 0x0 MSTORE PUSH1 0x11 PUSH1 0x4 MSTORE PUSH1 0x24 PUSH1 0x0 REVERT JUMPDEST PUSH1 0x0 PUSH2 0x17D5 DUP3 PUSH2 0x14D2 JUMP JUMPDEST SWAP2 POP PUSH2 0x17E0 DUP4 PUSH2 0x14D2 JUMP JUMPDEST SWAP3 POP DUP3 DUP3 ADD SWAP1 POP DUP1 DUP3 GT ISZERO PUSH2 0x17F8 JUMPI PUSH2 0x17F7 PUSH2 0x179B JUMP JUMPDEST JUMPDEST SWAP3 SWAP2 POP POP JUMP JUMPDEST PUSH32 0x457863656564696E67206D617820737570706C79000000000000000000000000 PUSH1 0x0 DUP3 ADD MSTORE POP JUMP JUMPDEST PUSH1 0x0 PUSH2 0x1834 PUSH1 0x14 DUP4 PUSH2 0x13C8 JUMP JUMPDEST SWAP2 POP PUSH2 0x183F DUP3 PUSH2 0x17FE JUMP JUMPDEST PUSH1 0x20 DUP3 ADD SWAP1 POP SWAP2 SWAP1 POP JUMP JUMPDEST PUSH1 0x0 PUSH1 0x20 DUP3 ADD SWAP1 POP DUP2 DUP2 SUB PUSH1 0x0 DUP4 ADD MSTORE PUSH2 0x1863 DUP2 PUSH2 0x1827 JUMP JUMPDEST SWAP1 POP SWAP2 SWAP1 POP JUMP JUMPDEST PUSH1 0x0 DUP2 PUSH1 0x1 SHR SWAP1 POP SWAP2 SWAP1 POP JUMP JUMPDEST PUSH1 0x0 DUP1 DUP3 SWAP2 POP DUP4 SWAP1 POP JUMPDEST PUSH1 0x1 DUP6 GT ISZERO PUSH2 0x18C1 JUMPI DUP1 DUP7 DIV DUP2 GT ISZERO PUSH2 0x189D JUMPI PUSH2 0x189C PUSH2 0x179B JUMP JUMPDEST JUMPDEST PUSH1 0x1 DUP6 AND ISZERO PUSH2 0x18AC JUMPI DUP1 DUP3 MUL SWAP2 POP JUMPDEST DUP1 DUP2 MUL SWAP1 POP PUSH2 0x18BA DUP6 PUSH2 0x186A JUMP JUMPDEST SWAP5 POP PUSH2 0x1881 JUMP JUMPDEST SWAP5 POP SWAP5 SWAP3 POP POP POP JUMP JUMPDEST PUSH1 0x0 DUP3 PUSH2 0x18DA JUMPI PUSH1 0x1 SWAP1 POP PUSH2 0x1996 JUMP JUMPDEST DUP2 PUSH2 0x18E8 JUMPI PUSH1 0x0 SWAP1 POP PUSH2 0x1996 JUMP JUMPDEST DUP2 PUSH1 0x1 DUP2 EQ PUSH2 0x18FE JUMPI PUSH1 0x2 DUP2 EQ PUSH2 0x1908 JUMPI PUSH2 0x1937 JUMP JUMPDEST PUSH1 0x1 SWAP2 POP POP PUSH2 0x1996 JUMP JUMPDEST PUSH1 0xFF DUP5 GT ISZERO PUSH2 0x191A JUMPI PUSH2 0x1919 PUSH2 0x179B JUMP JUMPDEST JUMPDEST DUP4 PUSH1 0x2 EXP SWAP2 POP DUP5 DUP3 GT ISZERO PUSH2 0x1931 JUMPI PUSH2 0x1930 PUSH2 0x179B JUMP JUMPDEST JUMPDEST POP PUSH2 0x1996 JUMP JUMPDEST POP PUSH1 0x20 DUP4 LT PUSH2 0x133 DUP4 LT AND PUSH1 0x4E DUP5 LT PUSH1 0xB DUP5 LT AND OR ISZERO PUSH2 0x196C JUMPI DUP3 DUP3 EXP SWAP1 POP DUP4 DUP2 GT ISZERO PUSH2 0x1967 JUMPI PUSH2 0x1966 PUSH2 0x179B JUMP JUMPDEST JUMPDEST PUSH2 0x1996 JUMP JUMPDEST PUSH2 0x1979 DUP5 DUP5 DUP5 PUSH1 0x1 PUSH2 0x1877 JUMP JUMPDEST SWAP3 POP SWAP1 POP DUP2 DUP5 DIV DUP2 GT ISZERO PUSH2 0x1990 JUMPI PUSH2 0x198F PUSH2 0x179B JUMP JUMPDEST JUMPDEST DUP2 DUP2 MUL SWAP1 POP JUMPDEST SWAP4 SWAP3 POP POP POP JUMP JUMPDEST PUSH1 0x0 PUSH2 0x19A8 DUP3 PUSH2 0x14D2 JUMP JUMPDEST SWAP2 POP PUSH2 0x19B3 DUP4 PUSH2 0x15FB JUMP JUMPDEST SWAP3 POP PUSH2 0x19E0 PUSH32 0xFFFFFFFFFFFFFFFFFFFFFFFFFFFFFFFFFFFFFFFFFFFFFFFFFFFFFFFFFFFFFFFF DUP5 DUP5 PUSH2 0x18CA JUMP JUMPDEST SWAP1 POP SWAP3 SWAP2 POP POP JUMP JUMPDEST PUSH1 0x0 PUSH2 0x19F3 DUP3 PUSH2 0x14D2 JUMP JUMPDEST SWAP2 POP PUSH2 0x19FE DUP4 PUSH2 0x14D2 JUMP JUMPDEST SWAP3 POP DUP3 DUP3 MUL PUSH2 0x1A0C DUP2 PUSH2 0x14D2 JUMP JUMPDEST SWAP2 POP DUP3 DUP3 DIV DUP5 EQ DUP4 ISZERO OR PUSH2 0x1A23 JUMPI PUSH2 0x1A22 PUSH2 0x179B JUMP JUMPDEST JUMPDEST POP SWAP3 SWAP2 POP POP JUMP JUMPDEST PUSH32 0x4E487B7100000000000000000000000000000000000000000000000000000000 PUSH1 0x0 MSTORE PUSH1 0x12 PUSH1 0x4 MSTORE PUSH1 0x24 PUSH1 0x0 REVERT JUMPDEST PUSH1 0x0 PUSH2 0x1A64 DUP3 PUSH2 0x14D2 JUMP JUMPDEST SWAP2 POP PUSH2 0x1A6F DUP4 PUSH2 0x14D2 JUMP JUMPDEST SWAP3 POP DUP3 PUSH2 0x1A7F JUMPI PUSH2 0x1A7E PUSH2 0x1A2A JUMP JUMPDEST JUMPDEST DUP3 DUP3 DIV SWAP1 POP SWAP3 SWAP2 POP POP JUMP JUMPDEST PUSH32 0x506179204574686572206163636F7264696E6720746F20546F6B656E20507269 PUSH1 0x0 DUP3 ADD MSTORE PUSH32 0x6365000000000000000000000000000000000000000000000000000000000000 PUSH1 0x20 DUP3 ADD MSTORE POP JUMP JUMPDEST PUSH1 0x0 PUSH2 0x1AE6 PUSH1 0x22 DUP4 PUSH2 0x13C8 JUMP JUMPDEST SWAP2 POP PUSH2 0x1AF1 DUP3 PUSH2 0x1A8A JUMP JUMPDEST PUSH1 0x40 DUP3 ADD SWAP1 POP SWAP2 SWAP1 POP JUMP JUMPDEST PUSH1 0x0 PUSH1 0x20 DUP3 ADD SWAP1 POP DUP2 DUP2 SUB PUSH1 0x0 DUP4 ADD MSTORE PUSH2 0x1B15 DUP2 PUSH2 0x1AD9 JUMP JUMPDEST SWAP1 POP SWAP2 SWAP1 POP JUMP JUMPDEST PUSH32 0x45524332303A2064656372656173656420616C6C6F77616E63652062656C6F77 PUSH1 0x0 DUP3 ADD MSTORE PUSH32 0x207A65726F000000000000000000000000000000000000000000000000000000 PUSH1 0x20 DUP3 ADD MSTORE POP JUMP JUMPDEST PUSH1 0x0 PUSH2 0x1B78 PUSH1 0x25 DUP4 PUSH2 0x13C8 JUMP JUMPDEST SWAP2 POP PUSH2 0x1B83 DUP3 PUSH2 0x1B1C JUMP JUMPDEST PUSH1 0x40 DUP3 ADD SWAP1 POP SWAP2 SWAP1 POP JUMP JUMPDEST PUSH1 0x0 PUSH1 0x20 DUP3 ADD SWAP1 POP DUP2 DUP2 SUB PUSH1 0x0 DUP4 ADD MSTORE PUSH2 0x1BA7 DUP2 PUSH2 0x1B6B JUMP JUMPDEST SWAP1 POP SWAP2 SWAP1 POP JUMP JUMPDEST PUSH32 0x4F776E61626C653A206E6577206F776E657220697320746865207A65726F2061 PUSH1 0x0 DUP3 ADD MSTORE PUSH32 0x6464726573730000000000000000000000000000000000000000000000000000 PUSH1 0x20 DUP3 ADD MSTORE POP JUMP JUMPDEST PUSH1 0x0 PUSH2 0x1C0A PUSH1 0x26 DUP4 PUSH2 0x13C8 JUMP JUMPDEST SWAP2 POP PUSH2 0x1C15 DUP3 PUSH2 0x1BAE JUMP JUMPDEST PUSH1 0x40 DUP3 ADD SWAP1 POP SWAP2 SWAP1 POP JUMP JUMPDEST PUSH1 0x0 PUSH1 0x20 DUP3 ADD SWAP1 POP DUP2 DUP2 SUB PUSH1 0x0 DUP4 ADD MSTORE PUSH2 0x1C39 DUP2 PUSH2 0x1BFD JUMP JUMPDEST SWAP1 POP SWAP2 SWAP1 POP JUMP JUMPDEST PUSH32 0x45524332303A20617070726F76652066726F6D20746865207A65726F20616464 PUSH1 0x0 DUP3 ADD MSTORE PUSH32 0x7265737300000000000000000000000000000000000000000000000000000000 PUSH1 0x20 DUP3 ADD MSTORE POP JUMP JUMPDEST PUSH1 0x0 PUSH2 0x1C9C PUSH1 0x24 DUP4 PUSH2 0x13C8 JUMP JUMPDEST SWAP2 POP PUSH2 0x1CA7 DUP3 PUSH2 0x1C40 JUMP JUMPDEST PUSH1 0x40 DUP3 ADD SWAP1 POP SWAP2 SWAP1 POP JUMP JUMPDEST PUSH1 0x0 PUSH1 0x20 DUP3 ADD SWAP1 POP DUP2 DUP2 SUB PUSH1 0x0 DUP4 ADD MSTORE PUSH2 0x1CCB DUP2 PUSH2 0x1C8F JUMP JUMPDEST SWAP1 POP SWAP2 SWAP1 POP JUMP JUMPDEST PUSH32 0x45524332303A20617070726F766520746F20746865207A65726F206164647265 PUSH1 0x0 DUP3 ADD MSTORE PUSH32 0x7373000000000000000000000000000000000000000000000000000000000000 PUSH1 0x20 DUP3 ADD MSTORE POP JUMP JUMPDEST PUSH1 0x0 PUSH2 0x1D2E PUSH1 0x22 DUP4 PUSH2 0x13C8 JUMP JUMPDEST SWAP2 POP PUSH2 0x1D39 DUP3 PUSH2 0x1CD2 JUMP JUMPDEST PUSH1 0x40 DUP3 ADD SWAP1 POP SWAP2 SWAP1 POP JUMP JUMPDEST PUSH1 0x0 PUSH1 0x20 DUP3 ADD SWAP1 POP DUP2 DUP2 SUB PUSH1 0x0 DUP4 ADD MSTORE PUSH2 0x1D5D DUP2 PUSH2 0x1D21 JUMP JUMPDEST SWAP1 POP SWAP2 SWAP1 POP JUMP JUMPDEST PUSH32 0x45524332303A20696E73756666696369656E7420616C6C6F77616E6365000000 PUSH1 0x0 DUP3 ADD MSTORE POP JUMP JUMPDEST PUSH1 0x0 PUSH2 0x1D9A PUSH1 0x1D DUP4 PUSH2 0x13C8 JUMP JUMPDEST SWAP2 POP PUSH2 0x1DA5 DUP3 PUSH2 0x1D64 JUMP JUMPDEST PUSH1 0x20 DUP3 ADD SWAP1 POP SWAP2 SWAP1 POP JUMP JUMPDEST PUSH1 0x0 PUSH1 0x20 DUP3 ADD SWAP1 POP DUP2 DUP2 SUB PUSH1 0x0 DUP4 ADD MSTORE PUSH2 0x1DC9 DUP2 PUSH2 0x1D8D JUMP JUMPDEST SWAP1 POP SWAP2 SWAP1 POP JUMP JUMPDEST PUSH32 0x45524332303A207472616E736665722066726F6D20746865207A65726F206164 PUSH1 0x0 DUP3 ADD MSTORE PUSH32 0x6472657373000000000000000000000000000000000000000000000000000000 PUSH1 0x20 DUP3 ADD MSTORE POP JUMP JUMPDEST PUSH1 0x0 PUSH2 0x1E2C PUSH1 0x25 DUP4 PUSH2 0x13C8 JUMP JUMPDEST SWAP2 POP PUSH2 0x1E37 DUP3 PUSH2 0x1DD0 JUMP JUMPDEST PUSH1 0x40 DUP3 ADD SWAP1 POP SWAP2 SWAP1 POP JUMP JUMPDEST PUSH1 0x0 PUSH1 0x20 DUP3 ADD SWAP1 POP DUP2 DUP2 SUB PUSH1 0x0 DUP4 ADD MSTORE PUSH2 0x1E5B DUP2 PUSH2 0x1E1F JUMP JUMPDEST SWAP1 POP SWAP2 SWAP1 POP JUMP JUMPDEST PUSH32 0x45524332303A207472616E7366657220746F20746865207A65726F2061646472 PUSH1 0x0 DUP3 ADD MSTORE PUSH32 0x6573730000000000000000000000000000000000000000000000000000000000 PUSH1 0x20 DUP3 ADD MSTORE POP JUMP JUMPDEST PUSH1 0x0 PUSH2 0x1EBE PUSH1 0x23 DUP4 PUSH2 0x13C8 JUMP JUMPDEST SWAP2 POP PUSH2 0x1EC9 DUP3 PUSH2 0x1E62 JUMP JUMPDEST PUSH1 0x40 DUP3 ADD SWAP1 POP SWAP2 SWAP1 POP JUMP JUMPDEST PUSH1 0x0 PUSH1 0x20 DUP3 ADD SWAP1 POP DUP2 DUP2 SUB PUSH1 0x0 DUP4 ADD MSTORE PUSH2 0x1EED DUP2 PUSH2 0x1EB1 JUMP JUMPDEST SWAP1 POP SWAP2 SWAP1 POP JUMP JUMPDEST PUSH32 0x45524332303A207472616E7366657220616D6F756E7420657863656564732062 PUSH1 0x0 DUP3 ADD MSTORE PUSH32 0x616C616E63650000000000000000000000000000000000000000000000000000 PUSH1 0x20 DUP3 ADD MSTORE POP JUMP JUMPDEST PUSH1 0x0 PUSH2 0x1F50 PUSH1 0x26 DUP4 PUSH2 0x13C8 JUMP JUMPDEST SWAP2 POP PUSH2 0x1F5B DUP3 PUSH2 0x1EF4 JUMP JUMPDEST PUSH1 0x40 DUP3 ADD SWAP1 POP SWAP2 SWAP1 POP JUMP JUMPDEST PUSH1 0x0 PUSH1 0x20 DUP3 ADD SWAP1 POP DUP2 DUP2 SUB PUSH1 0x0 DUP4 ADD MSTORE PUSH2 0x1F7F DUP2 PUSH2 0x1F43 JUMP JUMPDEST SWAP1 POP SWAP2 SWAP1 POP JUMP JUMPDEST PUSH32 0x45524332303A206275726E2066726F6D20746865207A65726F20616464726573 PUSH1 0x0 DUP3 ADD MSTORE PUSH32 0x7300000000000000000000000000000000000000000000000000000000000000 PUSH1 0x20 DUP3 ADD MSTORE POP JUMP JUMPDEST PUSH1 0x0 PUSH2 0x1FE2 PUSH1 0x21 DUP4 PUSH2 0x13C8 JUMP JUMPDEST SWAP2 POP PUSH2 0x1FED DUP3 PUSH2 0x1F86 JUMP JUMPDEST PUSH1 0x40 DUP3 ADD SWAP1 POP SWAP2 SWAP1 POP JUMP JUMPDEST PUSH1 0x0 PUSH1 0x20 DUP3 ADD SWAP1 POP DUP2 DUP2 SUB PUSH1 0x0 DUP4 ADD MSTORE PUSH2 0x2011 DUP2 PUSH2 0x1FD5 JUMP JUMPDEST SWAP1 POP SWAP2 SWAP1 POP JUMP JUMPDEST PUSH32 0x45524332303A206275726E20616D6F756E7420657863656564732062616C616E PUSH1 0x0 DUP3 ADD MSTORE PUSH32 0x6365000000000000000000000000000000000000000000000000000000000000 PUSH1 0x20 DUP3 ADD MSTORE POP JUMP JUMPDEST PUSH1 0x0 PUSH2 0x2074 PUSH1 0x22 DUP4 PUSH2 0x13C8 JUMP JUMPDEST SWAP2 POP PUSH2 0x207F DUP3 PUSH2 0x2018 JUMP JUMPDEST PUSH1 0x40 DUP3 ADD SWAP1 POP SWAP2 SWAP1 POP JUMP JUMPDEST PUSH1 0x0 PUSH1 0x20 DUP3 ADD SWAP1 POP DUP2 DUP2 SUB PUSH1 0x0 DUP4 ADD MSTORE PUSH2 0x20A3 DUP2 PUSH2 0x2067 JUMP JUMPDEST SWAP1 POP SWAP2 SWAP1 POP JUMP JUMPDEST PUSH32 0x4F776E61626C653A2063616C6C6572206973206E6F7420746865206F776E6572 PUSH1 0x0 DUP3 ADD MSTORE POP JUMP JUMPDEST PUSH1 0x0 PUSH2 0x20E0 PUSH1 0x20 DUP4 PUSH2 0x13C8 JUMP JUMPDEST SWAP2 POP PUSH2 0x20EB DUP3 PUSH2 0x20AA JUMP JUMPDEST PUSH1 0x20 DUP3 ADD SWAP1 POP SWAP2 SWAP1 POP JUMP JUMPDEST PUSH1 0x0 PUSH1 0x20 DUP3 ADD SWAP1 POP DUP2 DUP2 SUB PUSH1 0x0 DUP4 ADD MSTORE PUSH2 0x210F DUP2 PUSH2 0x20D3 JUMP JUMPDEST SWAP1 POP SWAP2 SWAP1 POP JUMP JUMPDEST PUSH32 0x45524332303A206D696E7420746F20746865207A65726F206164647265737300 PUSH1 0x0 DUP3 ADD MSTORE POP JUMP JUMPDEST PUSH1 0x0 PUSH2 0x214C PUSH1 0x1F DUP4 PUSH2 0x13C8 JUMP JUMPDEST SWAP2 POP PUSH2 0x2157 DUP3 PUSH2 0x2116 JUMP JUMPDEST PUSH1 0x20 DUP3 ADD SWAP1 POP SWAP2 SWAP1 POP JUMP JUMPDEST PUSH1 0x0 PUSH1 0x20 DUP3 ADD SWAP1 POP DUP2 DUP2 SUB PUSH1 0x0 DUP4 ADD MSTORE PUSH2 0x217B DUP2 PUSH2 0x213F JUMP JUMPDEST SWAP1 POP SWAP2 SWAP1 POP JUMP INVALID LOG2 PUSH5 0x6970667358 0x22 SLT KECCAK256 0x2A 0x25 LOG3 0xE3 BYTE DUP15 0x5C 0x2A 0x4E MULMOD GAS PUSH25 0x50E9D4101940D46E02481E825362115AE06DB55164736F6C63 NUMBER STOP ADDMOD SLT STOP CALLER "
				},
				"gasEstimates": {
					"creation": {
						"codeDepositCost": "1726400",
						"executionCost": "infinite",
						"totalCost": "infinite"
					},
					"external": {
						"allowance(address,address)": "infinite",
						"approve(address,uint256)": "infinite",
						"balanceOf(address)": "2930",
						"burn(uint256)": "infinite",
						"burnFrom(address,uint256)": "infinite",
						"decimals()": "455",
						"decreaseAllowance(address,uint256)": "infinite",
						"increaseAllowance(address,uint256)": "infinite",
						"maxSupply()": "2517",
						"mint(uint256)": "infinite",
						"name()": "infinite",
						"owner()": "2611",
						"renounceOwnership()": "30509",
						"returnState()": "infinite",
						"symbol()": "infinite",
						"tokenPrice()": "2496",
						"totalSupply()": "2505",
						"transfer(address,uint256)": "infinite",
						"transferFrom(address,address,uint256)": "infinite",
						"transferOwnership(address)": "30876",
						"withdrawEther()": "infinite"
					}
				},
				"methodIdentifiers": {
					"allowance(address,address)": "dd62ed3e",
					"approve(address,uint256)": "095ea7b3",
					"balanceOf(address)": "70a08231",
					"burn(uint256)": "42966c68",
					"burnFrom(address,uint256)": "79cc6790",
					"decimals()": "313ce567",
					"decreaseAllowance(address,uint256)": "a457c2d7",
					"increaseAllowance(address,uint256)": "39509351",
					"maxSupply()": "d5abeb01",
					"mint(uint256)": "a0712d68",
					"name()": "06fdde03",
					"owner()": "8da5cb5b",
					"renounceOwnership()": "715018a6",
					"returnState()": "58b45557",
					"symbol()": "95d89b41",
					"tokenPrice()": "7ff9b596",
					"totalSupply()": "18160ddd",
					"transfer(address,uint256)": "a9059cbb",
					"transferFrom(address,address,uint256)": "23b872dd",
					"transferOwnership(address)": "f2fde38b",
					"withdrawEther()": "7362377b"
				}
			},
			"storageLayout": {
				"storage": [
					{
						"astId": 128,
						"contract": "Token.sol:HKPtoken",
						"label": "_balances",
						"offset": 0,
						"slot": "0",
						"type": "t_mapping(t_address,t_uint256)"
					},
					{
						"astId": 134,
						"contract": "Token.sol:HKPtoken",
						"label": "_allowances",
						"offset": 0,
						"slot": "1",
						"type": "t_mapping(t_address,t_mapping(t_address,t_uint256))"
					},
					{
						"astId": 136,
						"contract": "Token.sol:HKPtoken",
						"label": "_totalSupply",
						"offset": 0,
						"slot": "2",
						"type": "t_uint256"
					},
					{
						"astId": 138,
						"contract": "Token.sol:HKPtoken",
						"label": "_name",
						"offset": 0,
						"slot": "3",
						"type": "t_string_storage"
					},
					{
						"astId": 140,
						"contract": "Token.sol:HKPtoken",
						"label": "_symbol",
						"offset": 0,
						"slot": "4",
						"type": "t_string_storage"
					},
					{
						"astId": 7,
						"contract": "Token.sol:HKPtoken",
						"label": "_owner",
						"offset": 0,
						"slot": "5",
						"type": "t_address"
					},
					{
						"astId": 881,
						"contract": "Token.sol:HKPtoken",
						"label": "tokenPrice",
						"offset": 0,
						"slot": "6",
						"type": "t_uint256"
					},
					{
						"astId": 883,
						"contract": "Token.sol:HKPtoken",
						"label": "maxSupply",
						"offset": 0,
						"slot": "7",
						"type": "t_uint256"
					}
				],
				"types": {
					"t_address": {
						"encoding": "inplace",
						"label": "address",
						"numberOfBytes": "20"
					},
					"t_mapping(t_address,t_mapping(t_address,t_uint256))": {
						"encoding": "mapping",
						"key": "t_address",
						"label": "mapping(address => mapping(address => uint256))",
						"numberOfBytes": "32",
						"value": "t_mapping(t_address,t_uint256)"
					},
					"t_mapping(t_address,t_uint256)": {
						"encoding": "mapping",
						"key": "t_address",
						"label": "mapping(address => uint256)",
						"numberOfBytes": "32",
						"value": "t_uint256"
					},
					"t_string_storage": {
						"encoding": "bytes",
						"label": "string",
						"numberOfBytes": "32"
					},
					"t_uint256": {
						"encoding": "inplace",
						"label": "uint256",
						"numberOfBytes": "32"
					}
				}
			},
			"userdoc": {
				"kind": "user",
				"methods": {},
				"version": 1
			}
		}
	}
}